:100000000C9462000C944E040C9427040C948A0007
:100010000C948A000C948A000C9475040C948A0049
:100020000C948A000C948A000C948A000C948A0028
:100030000C948A000C948A000C948A000C948A0018
:100040000C94DD030C948A000C948A000C948A00B2
:100050000C948A000C948A000C948A000C948A00F8
:100060000C948C040C948A000000000024002700EB
:100070002A0000000000250028002B0000000000DE
:1000800023002600290004040404040404040202DA
:100090000202020203030303030301020408102007
:1000A0004080010204081020010204081020000012
:1000B0000008000201000003040700000000000027
:1000C0000000BA0511241FBECFEFD8E0DEBFCDBFC0
:1000D00011E0A0E0B1E0E4E4F0E102C005900D928F
:1000E000A831B107D9F721E0A8E1B1E001C01D9224
:1000F000AF3EB207E1F710E0C2E6D0E004C02197BE
:10010000FE010E941508C136D107C9F70E940306F7
:100110000C9420080C940000282F3091DD0131321E
:1001200008F04AC08091B9018111FCCF9091DC01A7
:1001300042E04093B9012093B8012FEF2093B7011B
:100140001092B6013093B501ECEBF1E0A5E9B1E016
:1001500020E0321721F041914D932F5FFACF10929A
:10016000940120919401990F922B90939401909176
:100170009301913061F410929301909194019093C6
:10018000BB009091BC0093FDF8CF95EC01C095EEBB
:100190009093BC009091B9019230E1F39091B70136
:1001A0009F3F79F08091B701803241F08091B70193
:1001B000803331F084E005C081E003C082E001C0FB
:1001C00083E01092BB011092DD011092BA010895F4
:1001D000833081F028F4813099F08230A1F00895C5
:1001E0008730A9F08830B9F08430D1F48091800054
:1001F0008F7D03C0809180008F7780938000089569
:1002000084B58F7702C084B58F7D84BD08958091B9
:10021000B0008F7703C08091B0008F7D8093B000D5
:100220000895CF93DF93E5EBF0E08491E1EAF0E00D
:10023000D491EDE8F0E0C491CC2391F081110E94BB
:10024000E800EC2FF0E0EE0FFF1FE458FF4FA59100
:10025000B491EC91ED2381E090E021F480E002C0C4
:1002600080E090E0DF91CF9108951F93CF93DF93CB
:10027000282F30E0F901E255FF4F8491F901E6564D
:10028000FF4FD491F901EA57FF4FC491CC23C1F03D
:10029000162F81110E94E800EC2FF0E0EE0FFF1FF7
:1002A000EE58FF4FA591B4919FB7F894111104C077
:1002B0008C91D095D82302C0EC91DE2BDC939FBFAC
:1002C000DF91CF911F9108959091EA01992319F040
:1002D000882379F006C0882341F061E080E10E9424
:1002E000350181E08093EB01089560E080E10E9498
:1002F00035011092EB010895CF93DF9390E0FC015C
:10030000E656FF4F2491FC01EA57FF4F8491882362
:1003100061F190E0880F991FFC01E859FF4FC591EA
:10032000D491FC01EE58FF4FA591B491611109C021
:100330009FB7F8948881209582238883EC912E239F
:100340000BC0623061F49FB7F8948881322F3095EA
:1003500083238883EC912E2B2C939FBF06C08FB7ED
:10036000F894E8812E2B28838FBFDF91CF910895D9
:100370003FB7F89480916D0190916E01A0916F014B
:10038000B091700126B5A89B05C02F3F19F00196CA
:10039000A11DB11D3FBFBA2FA92F982F8827820F0B
:1003A000911DA11DB11DBC01CD0143E0660F771F5A
:1003B000881F991F4A95D1F708958F929F92AF9207
:1003C000BF92CF92DF92EF92FF926B017C010E946D
:1003D000B8014B015C01C114D104E104F104F1F056
:1003E0000E94B801DC01CB0188199909AA09BB094F
:1003F000883E9340A105B10570F321E0C21AD108EF
:10040000E108F10888EE880E83E0981EA11CB11C5B
:10041000C114D104E104F10419F7DDCFFF90EF908E
:10042000DF90CF90BF90AF909F908F90089581E024
:10043000809367010895089508950895E9E6F0E02E
:100440002081237F880F991F880F991F822B80831B
:10045000E99A0895CF92DF92EF92FF920F931F9344
:10046000CF93DF936C017A018B01C0E0D0E0CE1511
:10047000DF0581F0D8016D918D01D601ED91FC91E0
:100480000190F081E02DC6010995892B11F021968C
:10049000EECF7E01C701DF91CF911F910F91FF90A9
:1004A000EF90DF90CF9008954115510529F4EAE7C8
:1004B000F0E080818F7780836A307105A9F063FD59
:1004C00002C088E001C088E26770682B88E10FB63F
:1004D000F894A895809360000FBE60936000E0E6FA
:1004E000F0E0808180648083232BA1F483B7817F37
:1004F000846083BFF89483B7816083BF85B78066CB
:1005000085BF8F7D85BF7894889583B78E7F83BFA5
:1005100078940EC083B7817F846083BFF89483B7DB
:10052000816083BF7894889583B78E7F83BF7894EA
:10053000452B29F4EAE7F0E0808180688083089504
:1005400085ED8093BC008091BC0084FDFCCF1092AF
:10055000B901089540913801262F30E0240F311D54
:1005600021323105DCF42091B9012430C9F4FC01B9
:1005700080E090E0861758F4309138012191DC0139
:10058000A85EBE4FA30FB11D2C930196F3CF8091AF
:100590003801680F6093380180E0089581E0089584
:1005A00082E008950895E091720180917101E81749
:1005B00030F4F0E0ED58FE4F808190E008958FEF29
:1005C0009FEF08959091720180917101981750F4F6
:1005D000E92FF0E0ED58FE4F208130E09F5F9093CF
:1005E000720102C02FEF3FEFC901089580917101A0
:1005F00090E020917201821B91090895CF92DF92C1
:10060000EF92FF920F931F93CF93DF937C01CB0167
:100610008A012091BA01222389F0EB016B01C40EFB
:10062000D51ECC15DD0569F06991D701ED91FC91DE
:100630000190F081E02DC7010995F3CF642F0E944E
:10064000AA02C801DF91CF911F910F91FF90EF9007
:10065000DF90CF900895CF93DF931F92CDB7DEB791
:1006600069832091BA012223D1F02091DD0120324B
:1006700040F021E030E0FC013383228380E090E011
:1006800015C08091BB01E82FF0E0E454FE4F998142
:1006900090838F5F8093BB018093DD0105C061E093
:1006A000CE0101960E94AA0281E090E00F90DF91B6
:1006B000CF910895CF93DF93EB0191E09093BA012E
:1006C00098E69093DC011092BB011092DD01682F37
:1006D0008EED91E00E942B0368818EED91E00E94E7
:1006E0002B0381E0DF91CF910C948C00089580E082
:1006F00090E00895CF93DF93EC0181E08093BA01FD
:1007000088E68093DC011092BB011092DD018EED32
:1007100091E00E942B0381E00E948C008091B9013E
:100720008111FCCF81E08093B9018093B8019FEFE4
:100730009093B7011092B6011092B5018093940185
:1007400080919401806D8093940180919301813018
:1007500061F410929301809194018093BB00809189
:10076000BC0083FDF8CF85EC01C085EE8093BC0012
:100770008091B9018130E1F38091B601811103C00C
:100780009091B60101C091E0A5E9B1E0E3E7F1E0A5
:1007900080E0891721F02D9121938F5FFACF10927D
:1007A0007201809371018EED91E00E94E2028883D4
:1007B000DF91CF9108950E941B081F920F920FB6F0
:1007C0000F9211242F933F938F939F93AF93BF93D7
:1007D0008091690190916A01A0916B01B0916C01C7
:1007E0003091680126E0230F2D3720F40296A11DD9
:1007F000B11D05C029E8230F0396A11DB11D20934B
:1008000068018093690190936A01A0936B01B09392
:100810006C0180916D0190916E01A0916F01B0917A
:1008200070010196A11DB11D80936D0190936E0121
:10083000A0936F01B0937001BF91AF919F918F9181
:100840003F912F910F900FBE0F901F9018951F9200
:100850000F920FB60F9211242F933F934F935F93F4
:100860006F937F938F939F93AF93BF93EF93FF9378
:10087000E0910201F09103010995FF91EF91BF9181
:10088000AF919F918F917F916F915F914F913F9128
:100890002F910F900FBE0F901F9018951F920F92DF
:1008A0000FB60F9211242F933F934F935F936F9343
:1008B0007F938F939F93AF93BF93EF93FF93E091B9
:1008C0000001F09101010995FF91EF91BF91AF9166
:1008D0009F918F917F916F915F914F913F912F9158
:1008E0000F900FBE0F901F9018951F920F920FB68A
:1008F0000F9211248F930FB6F894A8958091600001
:10090000886180936000109260000FBE8F910F90FD
:100910000FBE0F901F9018951F920F920FB60F9257
:1009200011242F933F934F935F936F937F938F93F4
:100930009F93AF93BF93EF93FF938091B900887F0C
:10094000803609F49CC068F5883209F45BC090F4E5
:10095000803109F454C038F4882309F4F6C0883093
:1009600009F44DC0F6C0883109F44CC0803209F456
:100970005DC0EFC0803409F468C048F4803309F4E6
:1009800055C0883309F0E5C08093B701D8C08035E1
:1009900009F44FC0883509F45DC0883409F0D9C026
:1009A000D6C0883909F4C7C0A8F4883709F467C0ED
:1009B00038F4883609F463C0803709F460C0C9C0D0
:1009C000883809F4B8C0803909F45FC0803809F06C
:1009D000C0C05BC0803B09F486C038F4803A09F49B
:1009E00066C0883A09F47FC0B4C0803C09F4A7C04F
:1009F000883C09F4A4C0883B09F48AC0AAC080914D
:100A0000940110C09091B6018091B501981770F5CE
:100A1000E091B60181E08E0F8093B601F0E0EB56D5
:100A2000FE4F80818093BB0085EC86C08093B70128
:100A30008EC0E091B60181E08E0F8093B601809167
:100A4000BB00F0E0EB56FE4F80839091B6018091A1
:100A5000B5016EC0E091B60181E08E0F8093B601C2
:100A60008091BB00F0E0EB56FE4F80838091B8018F
:100A700081116DC081E08093930184EA61C083E0BD
:100A80008093B90110925A01CFCF80915A018032E0
:100A900008F051C0E0915A0181E08E0F80935A0115
:100AA0008091BB00F0E0E65CFE4F8083BDCF85EC1B
:100AB0008093BC001092B90180915A01803230F4C9
:100AC000E0915A01F0E0E65CFE4F108260915A011D
:100AD00070E0E0915B01F0915C018AE391E009959F
:100AE00010925A0136C084E08093B9011092390106
:100AF00010923801E0915D01F0915E0109958091BD
:100B00003801811105C081E08093380110921801ED
:100B1000E091390181E08E0F80933901F0E0E85EC9
:100B2000FE4F80818093BB00909139018091380104
:100B3000981708F479CF85E88093BC000AC085EC4B
:100B40008093BC001092B90104C01092B7010E94BA
:100B5000A002FF91EF91BF91AF919F918F917F91F3
:100B60006F915F914F913F912F910F900FBE0F901A
:100B70001F9018951092E1011092E00188EE93E029
:100B8000A0E0B0E08093E2019093E301A093E40140
:100B9000B093E5018AE091E09093DF018093DE015C
:100BA0001092EA011092EE011092ED011092EB0109
:100BB0001092EC0161E080E10E947C0180E00E94E3
:100BC000640161E084E00E947C018091EA0181116E
:100BD00004C060E084E00E9435011092EC0161E005
:100BE00081E10E947C0160E081E10E94350160E0CA
:100BF00087E00E947C0160E083E00E947C0160E06D
:100C000082E00C947C01CF93DF9300D000D0CDB76D
:100C1000DEB7789484B5826084BD84B5816084BD7C
:100C200085B5826085BD85B5816085BD80916E008A
:100C3000816080936E0010928100809181008260BB
:100C400080938100809181008160809381008091F8
:100C500080008160809380008091B10084608093E7
:100C6000B1008091B00081608093B00080917A00E3
:100C7000846080937A0080917A00826080937A0009
:100C800080917A008E7F80937A0080917A008068CC
:100C900080937A001092C10061E08DE00E947C0197
:100CA00060E08DE00E94350180E00E946401809147
:100CB000EA01811104C060E084E00E9435011092D5
:100CC000EC0187E192E0909303018093020180E0C0
:100CD00090E00E941E021092720110927101109217
:100CE000BB011092DD011092B90181E08093B8013F
:100CF0001092930161E082E10E94350161E083E19D
:100D00000E9435018091B9008E7F8093B900809157
:100D1000B9008D7F8093B90080E28093B80085E4AC
:100D20008093BC008CE192E090935E0180935D0122
:100D30008DE192E090935C0180935B0162E0CE01D3
:100D400001960E947A0389818F3F79F16FE0CE018D
:100D500001960E947A03898188638C83BE016C5F4F
:100D60007F4F8FE00E945A031B82BE016D5F7F4F51
:100D700082E00E945A0360E0CE0101960E947A034D
:100D80001A82BE016E5F7F4F81E00E945A0360E0CD
:100D9000CE0101960E947A03898180688983BE0111
:100DA0006F5F7F4F80E00E945A03332433948BE1BE
:100DB000882E82E0982E93E0C92ED12C07E112E014
:100DC000AA24A394B12C8091EA01882361F0809138
:100DD000EB013092ED0181110BC080E00E946401B3
:100DE0001092ED010CC00E941101181619061CF496
:100DF0003092ED010EC08091ED018111EECF20E027
:100E000030E040E050E06AE070E08AEE91E00E945D
:100E1000540280916701882309F4FFC0E9989092F9
:100E20000301809202011092670180910401909168
:100E300005018130910509F444C0039709F0EDC024
:100E40002FB7F8948091690190916A01A0916B018C
:100E5000B0916C012FBF8093630190936401A093C4
:100E60006501B09366018091EA01882331F0809199
:100E7000EB0190E03092ED0102C00E9411011816C2
:100E800019061CF43092ED010DC081E00E9464014E
:100E90008091EA01811104C061E084E00E94350183
:100EA0003092EC01B0920501A092040161E08DE066
:100EB0000E943501109303010093020181E090E04C
:100EC000AAC08FB7F8944090690150906A01609071
:100ED0006B0170906C018FBF40925F015092600176
:100EE0006092610170926201D0920501C09204018A
:100EF0008091EA01882331F08091EB0190E03092FB
:100F0000ED0102C00E941101181619060CF079C0FB
:100F10003092ED018091630190916401A09165018F
:100F2000B0916601481A590A6A0A7B0A21E1421601
:100F300027E252066104710470F080E00E946401AF
:100F40008091EA01811104C060E084E00E943501D3
:100F50001092EC0156C089EC4816510461047104EA
:100F600008F44FC08091EA01882339F068E873E102
:100F700080E090E00E94DD01E0CF61E081E10E942D
:100F800035018FB7F8944090690150906A016090E4
:100F90006B0170906C018FBF0E9411017C0180E099
:100FA00090E0DC011E141F04F4F480339547A10582
:100FB000B105C8F40E9411017C0162E370E080E099
:100FC00090E00E94DD012FB7F89480916901909123
:100FD0006A01A0916B01B0916C012FBF8419950932
:100FE000A609B709DFCF68E873E180E090E00E94CE
:100FF000DD0180E00E94640160E081E10E94350132
:101000009FCF60E08DE00E943501109303010093B3
:10101000020180E090E00E941E0280E090E0892BB7
:1010200009F4D1CE0E940000CECEEE0FFF1F059036
:10103000F491E02D099481E090E0F8940C9420085C
:04104000F894FFCF52
:101044001B021B020300000000002B03FE027703B7
:08105400D202F602E202D3020F
:00000001FF
