:100000000C9462000C9470060C9449060C948A00BF
:100010000C948A000C948A000C944E070C948A006D
:100020000C948A000C948A000C948A000C948A0028
:100030000C948A000C948A000C948A000C948A0018
:100040000C94DF080C948A000C94D2060C94AC0635
:100050000C948A000C948A000C948A000C948A00F8
:100060000C94B1070C948A000000000023002600C5
:10007000290000000000240027002A0000000000E2
:10008000250028002B0004040404040404040202D4
:100090000202020203030303030301020408102007
:1000A0004080010204081020010204081020000012
:1000B0000008000201000003040700000000000027
:1000C0000000570D11241FBECFEFD8E0DEBFCDBF1B
:1000D00023E0AEE2B2E001C01D92A63CB207E1F718
:1000E00012E0A0E0B1E0E4EEF2E202C005900D9271
:1000F000AE32B107D9F710E0C2E6D0E004C02197D4
:10010000FE010E94650FC136D107C9F70E94290977
:100110000C9470110C9400003FB7F8948091430246
:1001200090914402A0914502B091460226B5A89B49
:1001300005C02F3F19F00196A11DB11D3FBFBA2F79
:10014000A92F982F8827820F911DA11DB11DBC01D9
:10015000CD0143E0660F771F881F991F4A95D1F79D
:1001600008952FB7F89460913F02709140028091FA
:100170004102909142022FBF0895CF93DF93BC01BB
:1001800088EB92E00E949706EC0160ED71E088EB4D
:1001900092E00E9497068C0F9D1FDF91CF910895EA
:1001A0000F931F930E94B1006093C0027093C1022D
:1001B0008093C2029093C30288EB92E00E947D0478
:1001C00097FF1FC00E94B1000091C0021091C102B0
:1001D0002091C2023091C302DC01CB01801B910B44
:1001E000A20BB30B0091BC021091BD022091BE0284
:1001F0003091BF0280179107A207B307E8F28FEF93
:100200009FEF1F910F9108950C949706282F30911E
:10021000B702313208F04AC0809193028111FCCFBD
:100220009091B60242E040939302209392022FEF06
:10023000209391021092900230938F02E6E9F2E04F
:10024000AFE6B2E020E0321721F041914D932F5FED
:10025000FACF10926E0220916E02990F922B90931A
:100260006E0290916D02913061F410926D02909146
:100270006E029093BB009091BC0093FDF8CF95EC7B
:1002800001C095EE9093BC00909193029230E1F3FF
:10029000909191029F3F79F080919102803241F0DC
:1002A00080919102803331F084E005C081E003C089
:1002B00082E001C083E0109295021092B702109282
:1002C0009402089540E062E00E9431078CE99FE0CB
:1002D0000197F1F70895CF93DF93CDB7DEB7289755
:1002E0000FB6F894DEBF0FBECDBF9C0188E0ECE0F6
:1002F000F1E0DE01119601900D928A95E1F7F90186
:100300008185811102C09FEF01C091E0FE0131960D
:10031000E90FF11DE90FF11D6081606840E0C9013E
:1003200028960FB6F894DEBF0FBECDBFDF91CF91F8
:100330000C94310728E0FC01238760E00C9404074B
:10034000FC01138660E00C94040740E061E00E9429
:1003500031078CE99FE00197F1F7089587E48093D6
:100360007C0080917A00806480937A0080917A008A
:1003700086FDFCCF809178002091790090E0922B4F
:100380000895CF93DF93EB0191E09093940298E668
:100390009093B602109295021092B702682F85E5ED
:1003A00093E00E94DD05688185E593E00E94DD050C
:1003B00081E0DF91CF910C940601CF93DF93EC01A4
:1003C00081E08093940288E68093B60210929502B1
:1003D0001092B70285E593E00E94DD0581E00E945E
:1003E0000601809193028111FCCF81E080939302FA
:1003F000809392029FEF909391021092900210923C
:100400008F0280936E0280916E02806D80936E02E7
:1004100080916D02813061F410926D0280916E02C4
:100420008093BB008091BC0083FDF8CF85EC01C0B8
:1004300085EE8093BC00809193028130E1F380913E
:100440009002811103C09091900201C091E0AFE64B
:10045000B2E0EDE4F2E080E0891721F02D912193E4
:100460008F5FFACF10924C0280934B0285E593E0A8
:100470000E9494058883DF91CF910895833081F0A5
:1004800028F4813099F08230A1F008958730A9F0E6
:100490008830B9F08430D1F4809180008F7D03C022
:1004A000809180008F7780938000089584B58F7746
:1004B00002C084B58F7D84BD08958091B0008F7790
:1004C00003C08091B0008F7D8093B00008951F938A
:1004D000CF93DF93282F30E0F901E255FF4F84914D
:1004E000F901E656FF4FD491F901EA57FF4FC49145
:1004F000CC23C1F0162F81110E943E02EC2FF0E0B8
:10050000EE0FFF1FE458FF4FA591B4919FB7F894E9
:10051000111104C08C91D095D82302C0EC91DE2B30
:10052000DC939FBFDF91CF911F910895909161035C
:10053000992319F0882379F006C0882341F061E0FF
:1005400080E10E94670281E080936203089560E089
:1005500080E10E94670210926203089510924C029B
:1005600010924B02109295021092B70210929302D1
:1005700081E08093920210926D0261E082E10E941C
:10058000670261E083E10E946702E9EBF0E08081AD
:100590008E7F808380818D7F808380E28093B8000E
:1005A00085E48093BC0082E895E090934A028093B2
:1005B000490283E895E090934802809347020895AA
:1005C000CF93DF9390E0FC01E656FF4F2491FC01AE
:1005D000EA57FF4F8491882361F190E0880F991FBB
:1005E000FC01EE58FF4FC591D491FC01E458FF4F38
:1005F000A591B491611109C09FB7F89488812095A5
:1006000082238883EC912E230BC0623061F49FB764
:10061000F8948881322F309583238883EC912E2B98
:100620002C939FBF06C08FB7F894E8812E2B2883A8
:100630008FBFDF91CF9108958F929F92AF92BF921B
:10064000CF92DF92EF92FF926B017C010E948C00AF
:100650004B015C01C114D104E104F104F1F00E94EA
:100660008C00DC01CB0188199909AA09BB09883ED5
:100670009340A105B10570F321E0C21AD108E10849
:10068000F10888EE880E83E0981EA11CB11CC114ED
:10069000D104E104F10419F7DDCFFF90EF90DF9072
:1006A000CF90BF90AF909F908F900895CF92DF92A0
:1006B000EF92FF92CF93DF9380916103882379F0CB
:1006C00068E873E180E090E00E941C0380E0DF9125
:1006D000CF91FF90EF90DF90CF900C94960261E065
:1006E00081E10E9467020E94B1006B017C010E94BF
:1006F000AE018430910514F480E090E0BC01990FC4
:10070000880B990B0E940C0E2BE734E14EE450E469
:100710000E946B0E20E030E04AEA52E40E94600F33
:1007200087FD05C081E080936403C1E001C0C0E0A3
:1007300080E090E0DC01D1E0CC2399F18033954753
:10074000A105B10570F50E94AE018430910514F445
:1007500080E090E0BC01990F880B990B0E940C0E71
:100760002BE734E14EE450E40E946B0E20E030E0D1
:100770004AEA52E40E94600F87FD03C0D0936403ED
:1007800001C0C0E062E370E080E090E00E941C03E2
:100790000E94B100DC01CB018C199D09AE09BF0993
:1007A000CBCF68E873E180E090E00E941C0380E01A
:1007B0000E94960260E081E1DF91CF91FF90EF907F
:1007C000DF90CF900C9467020F931F93CF93DF932A
:1007D000EC010E94AE021D828985823010F098E003
:1007E0009D839A85992329F0813019F48D81846045
:1007F0008D8362E370E080E090E00E941C036B85D3
:10080000CE010E94040768EE73E080E090E00E9451
:100810001C0360E3CE010E94180704E213E2C80142
:100820000197F1F760E3CE010E941807C801019714
:10083000F1F760E3CE010E94180788E291E001978A
:10084000F1F760E2CE010E9418076D81606240E01E
:10085000CE010E94310784E08E8340E06CE0CE013F
:100860000E943107CE010E94A50182E08F8340E003
:1008700066E0CE010E943107CE01DF91CF911F913A
:100880000F910C9462010895CF92DF92EF92FF9244
:100890000F931F93CF93DF936C017A018B01C0E01C
:1008A000D0E0CE15DF0581F0D8016D918D01D60124
:1008B000ED91FC910190F081E02DC6010995892B05
:1008C00011F02196EECF7E01C701DF91CF911F91EC
:1008D0000F91FF90EF90DF90CF900895FC01538D22
:1008E000448D252F30E0842F90E0821B930B54170A
:1008F00010F0CF96089501970895FC01918D828D97
:10090000981761F0828DDF01A80FB11D5D968C9163
:10091000928D9F5F9F73928F90E008958FEF9FEF6E
:100920000895FC01918D828D981731F0828DE80F2A
:10093000F11D858D90E008958FEF9FEF0895FC01E4
:10094000918D228D892F90E0805C9F4F821B9109B1
:100950008F739927089588EB92E00E949F0421E00D
:10096000892B09F420E0822F0895FC01848DDF019A
:10097000A80FB11DA35ABF4F2C91848D90E0019612
:100980008F739927848FA689B7892C93A089B18901
:100990008C91837080648C93938D848D981306C0A2
:1009A0000288F389E02D80818F7D80830895EF9206
:1009B000FF920F931F93CF93DF93EC0181E0888F19
:1009C0009B8D8C8D981305C0E889F989808185FD00
:1009D00026C0F62E0B8D10E00F5F1F4F0F731127EF
:1009E000E02E8C8DE8120CC00FB607FCFACFE88918
:1009F000F989808185FFF5CFCE010E94B504F1CF42
:100A00008B8DFE01E80FF11DE35AFF4FF0829FB777
:100A1000F8940B8FEA89FB89808180620AC09FB7B6
:100A2000F894EE89FF896083E889F9898081837071
:100A3000806480839FBF81E090E0DF91CF911F9120
:100A40000F91FF90EF900895CF93DF93EC01888D85
:100A50008823C9F0EA89FB89808185FD05C0A889C2
:100A6000B9898C9186FD0FC00FB607FCF5CF808148
:100A700085FFF2CFA889B9898C9185FFEDCFCE0192
:100A80000E94B504E7CFDF91CF91089580E090E018
:100A9000892B29F00E94AB0481110C940000089569
:100AA00085ED8093BC008091BC0084FDFCCF10924A
:100AB0009302089540919E03262F30E0240F311DAC
:100AC00021323105DCF4209193022430C9F4FC0179
:100AD00080E090E0861758F430919E032191DC016C
:100AE000A258BC4FA30FB11D2C930196F3CF809158
:100AF0009E03680F60939E0380E0089581E008954F
:100B000082E00895089508950895E0914C0280913F
:100B10004B02E81730F4F0E0E35BFD4F808190E09A
:100B200008958FEF9FEF089590914C0280914B02B2
:100B3000981750F4E92FF0E0E35BFD4F208130E09F
:100B40009F5F90934C0202C02FEF3FEFC9010895C1
:100B500080914B0290E020914C02821B91090895F4
:100B6000CF92DF92EF92FF920F931F93CF93DF9379
:100B70007C01CB018A0120919402222389F0EB01B0
:100B80006B01C40ED51ECC15DD0569F06991D70146
:100B9000ED91FC910190F081E02DC7010995F3CF13
:100BA000642F0E945A05C801DF91CF911F910F91C8
:100BB000FF90EF90DF90CF900895CF93DF931F9237
:100BC000CDB7DEB76983209194022223D1F0209122
:100BD000B702203240F021E030E0FC013383228371
:100BE00080E090E015C080919502E82FF0E0EA5691
:100BF000FD4F998190838F5F809395028093B70218
:100C000005C061E0CE0101960E945A0581E090E0A6
:100C10000F90DF91CF910895089580E090E00895BE
:100C200081E080932E0208950E9452110F931F932A
:100C3000CF93DF93EC0188819981009729F02A8175
:100C40003B812617370788F48B016F5F7F4F0E9427
:100C50008C10009761F0998388831B830A832C8111
:100C60003D81232B11F4FC01108281E001C080E062
:100C7000DF91CF911F910F910895E9E6F0E0208177
:100C8000237F880F991F880F991F822B8083E99AF1
:100C900008951F920F920FB60F9211242F933F9336
:100CA0004F935F936F937F938F939F93AF93BF9374
:100CB000EF93FF93E0910201F09103010995FF91F9
:100CC000EF91BF91AF919F918F917F916F915F91C4
:100CD0004F913F912F910F900FBE0F901F9018953D
:100CE0001F920F920FB60F9211242F933F934F93A1
:100CF0005F936F937F938F939F93AF93BF93EF9384
:100D0000FF93E0910001F09101010995FF91EF91AE
:100D1000BF91AF919F918F917F916F915F914F9113
:100D20003F912F910F900FBE0F901F901895611556
:100D3000710579F0FB0101900020E9F73197AF01CF
:100D4000461B570BDC01ED91FC910280F381E02DF5
:100D5000099480E090E008951F920F920FB60F92D1
:100D600011242F933F934F935F936F937F938F93B0
:100D70009F93AF93BF93EF93FF9388EB92E00E9412
:100D8000B504FF91EF91BF91AF919F918F917F91AA
:100D90006F915F914F913F912F910F900FBE0F90E8
:100DA0001F9018951F920F920FB60F9211242F9338
:100DB0008F939F93EF93FF93E091C802F091C90244
:100DC0008081E091CE02F091CF0282FD12C090812D
:100DD0008091D1028F5F8F732091D202821751F0E0
:100DE000E091D102F0E0E854FD4F958F8093D1025D
:100DF00001C08081FF91EF919F918F912F910F9072
:100E00000FBE0F901F901895FC01248131E03093A4
:100E100094022093B602109295021092B702838535
:100E2000682B85E593E00E94DD0581E00C940601C6
:100E30000F931F93CF938C01C62F0E9404076C2F32
:100E40006460C8010E9404076C2F6B7FC8010E9478
:100E5000040780E690E00197F1F7CF911F910F9181
:100E600008950F931F93CF93DF938C01C62FD42F38
:100E7000607F642B0E94180780E1C89FB001112495
:100E80006D2BC801DF91CF911F910F910C94180722
:100E900041E00E94310781E090E008951F920F9297
:100EA0000FB60F9211248F930FB6F894A8958091E6
:100EB0006000886180936000109260000FBE8F9187
:100EC0000F900FBE0F901F9018954115510529F4F2
:100ED000EAE7F0E080818F7780836A307105A9F0BE
:100EE00063FD02C088E001C088E26770682B88E17A
:100EF0000FB6F894A895809360000FBE60936000D1
:100F0000E0E6F0E0808180648083232BA1F483B746
:100F1000817F846083BFF89483B7816083BF85B786
:100F2000806685BF8F7D85BF7894889583B78E7FD7
:100F300083BF78940EC083B7817F846083BFF894A9
:100F400083B7816083BF7894889583B78E7F83BF92
:100F50007894452B29F4EAE7F0E08081806880836B
:100F600008951F920F920FB60F9211242F933F9363
:100F70004F935F936F937F938F939F93AF93BF93A1
:100F8000EF93FF938091B900887F803609F49CC06D
:100F900068F5883209F45BC090F4803109F454C0DC
:100FA00038F4882309F4F6C0883009F44DC0F6C03F
:100FB000883109F44CC0803209F45DC0EFC0803440
:100FC00009F468C048F4803309F455C0883309F047
:100FD000E5C080939102D8C0803509F44FC08835B0
:100FE00009F45DC0883409F0D9C0D6C0883909F445
:100FF000C7C0A8F4883709F467C038F4883609F404
:1010000063C0803709F460C0C9C0883809F4B8C02B
:10101000803909F45FC0803809F0C0C05BC0803BF4
:1010200009F486C038F4803A09F466C0883A09F4B5
:101030007FC0B4C0803C09F4A7C0883C09F4A4C0B8
:10104000883B09F48AC0AAC080916E0210C09091BA
:10105000900280918F02981770F5E091900281E0E4
:101060008E0F80939002F0E0E159FD4F80818093D4
:10107000BB0085EC86C0809391028EC0E091900207
:1010800081E08E0F809390028091BB00F0E0E159E7
:10109000FD4F80839091900280918F026EC0E0910D
:1010A000900281E08E0F809390028091BB00F0E06F
:1010B000E159FD4F80838091920281116DC081E0E2
:1010C00080936D0284EA61C083E080939302109262
:1010D000C003CFCF8091C003803208F051C0E091AF
:1010E000C00381E08E0F8093C0038091BB00F0E0CD
:1010F000E056FC4F8083BDCF85EC8093BC001092FE
:1011000093028091C003803230F4E091C003F0E09C
:10111000E056FC4F10826091C00370E0E0914702FE
:10112000F091480280EA93E009951092C00336C01E
:1011300084E08093930210929F0310929E03E091AB
:101140004902F0914A02099580919E03811105C0E0
:1011500081E080939E0310927E03E0919F0381E0E3
:101160008E0F80939F03F0E0E258FC4F80818093C4
:10117000BB0090919F0380919E03981708F479CF4C
:1011800085E88093BC000AC085EC8093BC00109277
:10119000930204C0109291020E945005FF91EF91BA
:1011A000BF91AF919F918F917F916F915F914F917F
:1011B0003F912F910F900FBE0F901F9018951F9287
:1011C0000F920FB60F9211242F933F938F939F93FB
:1011D000AF93BF9380913F0290914002A091410252
:1011E000B09142023091C10326E0230F2D3720F445
:1011F0000296A11DB11D05C029E8230F0396A11D6C
:10120000B11D2093C10380933F0290934002A093AD
:101210004102B09342028091430290914402A09116
:101220004502B09146020196A11DB11D8093430273
:1012300090934402A0934502B0934602BF91AF91B0
:101240009F918F913F912F910F900FBE0F901F9004
:101250001895CF93DF93CDB7DEB72D970FB6F894DF
:10126000DEBF0FBECDBF789484B5826084BD84B5E7
:10127000816084BD85B5826085BD85B5816085BD91
:1012800080916E00816080936E0010928100809149
:1012900081008260809381008091810081608093D1
:1012A0008100809180008160809380008091B100F6
:1012B00084608093B1008091B00081608093B00021
:1012C00080917A00846080937A0080917A008260B5
:1012D00080937A0080917A008E7F80937A0080914B
:1012E0007A00806880937A001092C10061E08DE0FE
:1012F0000E94E00260E08DE00E946702E091C80277
:10130000F091C90282E08083E091C402F091C502AD
:101310001082E091C602F091C70288E080831092AB
:10132000D002E091CC02F091CD0286E08083E09182
:10133000CA02F091CB02808180618083E091CA0271
:10134000F091CB02808188608083E091CA02F091A5
:10135000CB02808180688083E091CA02F091CB0249
:1013600080818F7D808388EE93E0A0E0B0E0809361
:10137000BC029093BD02A093BE02B093BF0284E46E
:1013800091E00E94BD0080916103882309F1809162
:10139000620391E090936403882309F43AC011E05A
:1013A0001093640383E591E00E94BD0084E090E027
:1013B000909305018093040181E00E949602809140
:1013C000610381111FC061E084E00E9467021AC0BE
:1013D000E5EBF0E08491E1EAF0E00491EDE8F0E083
:1013E00014911123B1F081110E943E02E12FF0E02F
:1013F000EE0FFF1FE859FF4FA591B491EC91E02348
:1014000041F0CDCF1093630382E691E00E94BD00CE
:1014100020C080E00E94960280916103811104C087
:1014200060E084E00E9467021092630388E691E026
:101430000E94BD0082E793E00E94E40386E693E009
:101440000E94E4038091040190910501019709F441
:10145000E1C280E196E0909303018093020180E075
:1014600090E00E943D060E94AE0262E0CE0101962D
:101470000E94DD0189818F3FB9F188E58D87BE012A
:10148000635F7F4F80E00E94C1016FE0CE01019653
:101490000E94DD01898188638C87BE01645F7F4F74
:1014A0008FE00E94C1011B86BE01655F7F4F82E015
:1014B0000E94C10160E0CE0101960E94DD011A8602
:1014C000BE01665F7F4F81E00E94C10160E0CE01F6
:1014D00001960E94DD01898180688987BE01675F6E
:1014E0007F4F80E00E94C10183E0E82EF12C94E060
:1014F000292E312CCC24C394D12C30E1A32E36E0FC
:10150000B32E43E4842E44E0942E81EB90E02C0132
:10151000990F6608770880913D0290913E028130D4
:10152000910551F140F08230910509F499C004977A
:1015300009F4B1C05BC180913B0290913C020197DC
:1015400051F020E030E040E050E06AE070E081E6F9
:1015500093E00E94650780912E02882309F446C11A
:1015600010922E02E9989092030180920201D0928B
:101570003E02C0923D023AC110922E020E94B1007A
:1015800060933702709338028093390290933A0245
:101590000E94AE018430910514F480E090E0BC011B
:1015A000990F880B990B0E940C0E2BE734E14EE447
:1015B00050E40E946B0E20E030E04AEA52E40E94C0
:1015C000600F87FD04C081E08093640336C082E72A
:1015D00093E00E949A0182E793E00E94620161E237
:1015E00072E082E793E00E94040186E693E00E94A5
:1015F0009A0186E693E00E94620161E272E086E66B
:1016000093E00E940401F0920501E092040181E060
:101610000E94960280916103811104C061E084E020
:101620000E94670281E0809363033092050120925B
:101630000401D0923C02C0923B0282E090E0909381
:101640003E0280933D0261E08DE00E946702B0920D
:101650000301A092020181E090E00E943D06C6C015
:1016600080912E02882309F4C1C0E9989092030169
:101670008092020110922E020E94B1006093330208
:1016800070933402809335029093360230923E027A
:1016900020923D02ABC00E94AE018430910514F44B
:1016A00080E090E0BC01990F880B990B0E940C0E12
:1016B0002BE734E14EE450E40E946B0E20E030E072
:1016C0004AEA52E40E94600F87FD80C081E0809367
:1016D00064038091330290913402A0913502B0915D
:1016E0003602409137025091380260913902709170
:1016F0003A02841B950BA60BB70B813127E29207A8
:10170000A105B105B0F181E991E00E94BD0082E739
:1017100093E00E94620160EA71E082E793E00E9438
:10172000040186E693E00E94620160EA71E086E6C9
:1017300093E00E94040186E090E09093050180937D
:10174000040160ED77E080E090E00E941C0380E0FF
:101750000E94960280916103811104C060E084E0E0
:101760000E9467021092630310923C0210923B02A7
:1017700019C0893C9105A105B10540F1F0923C02E8
:10178000E0923B0281EB91E00E94BD0087EC91E08A
:101790000E94BD0060ED77E080E090E00E941C03B5
:1017A0000E94560382E793E00E94A50182E793E03E
:1017B0000E94A00186E693E00E94A50186E693E0E0
:1017C0000E94A001109205011092040160E08DE0DA
:1017D0000E946702B0920301A092020180E090E0B3
:1017E0000E943D0610923E0210923D0288EB92E06C
:1017F0000E949F04181619060CF06FC00E94B100D9
:1018000060932F02709330028093310290933202E2
:101810001A8219821C821B821E821D8260E070E087
:10182000CE0101960E94160629813A8181110DC0D0
:101830002115310519F0C9010E9403101A8219827D
:101840001E821D821C821B8207C01E821D8262EDC9
:1018500071E0C9010E9469110E94D00097FD1BC070
:101860008F8318860D811E810F5F1F4FB801CE0137
:1018700001960E941606882379F329813A818D8189
:101880009E81BE01695F7F4F820F931F0E94691185
:101890001E830D83E1CF4D815E8169817A8188EB62
:1018A00092E00E94440460ED71E088EB92E00E94B7
:1018B00097068D819E81892B61F063ED71E08981AE
:1018C0009A810E946011892B21F483ED91E00E949E
:1018D000BD0089819A810E9403100E94B10000918D
:1018E0002F02109130022091310230913202DC013E
:1018F000CB01801B910BA20BB30B81369A4EA10535
:10190000B10508F484C086ED91E00E94BD0080918D
:10191000040190910501049771F582E793E00E941C
:10192000620163E072E082E793E00E94040182E7D3
:1019300093E00E946B0162E172E082E793E00E9413
:10194000040186E693E00E94620163E072E086E6AD
:1019500093E00E94040186E693E00E946B0162E13D
:1019600072E086E693E00E94040185E090E09093A7
:101970000501809304010E94560368EE73E080E045
:1019800090E00E941C0382E793E00E949A0182E7A4
:1019900093E00E94620161E272E082E793E00E94BC
:1019A000040186E693E00E949A0186E693E00E9495
:1019B000620161E272E086E693E00E940401F09227
:1019C0000501E092040181E00E949602809161038A
:1019D000811104C061E084E00E94670281E080938D
:1019E000630368E873E180E090E00E941C0340928A
:1019F0003702509238026092390270923A02409255
:101A000033025092340260923502709236020E9484
:101A1000460581CD82E793E00E949A0164E771E078
:101A200082E793E00E94040182E793E00E946B0149
:101A300063E871E082E793E00E94040186E693E0A8
:101A40000E949A0164E771E086E693E00E94040137
:101A500086E693E00E946B0163E871E086E693E01E
:101A60000E94040182E090E09093050180930401BC
:101A700068E873E180E090E00E941C0380912E02F0
:101A80008111E7CC82E793E00E94A50182E793E011
:101A90000E94A00186E693E00E94A50186E693E0FD
:101AA0000E94A0011092050110920401D2CC109264
:101AB000BB021092BA0288EE93E0A0E0B0E08093FF
:101AC000BC029093BD02A093BE02B093BF0228E176
:101AD00031E03093B9022093B80225EC30E0309326
:101AE000C5022093C40224EC30E03093C702209357
:101AF000C60220EC30E03093C9022093C80221ECEA
:101B000030E03093CB022093CA0222EC30E03093D5
:101B1000CD022093CC0226EC30E03093CF0220930C
:101B2000CE021092D1021092D2021092D3021092E1
:101B3000D402109258031092570380935903909344
:101B40005A03A0935B03B0935C038AE291E0909305
:101B5000560380935503109261031092650310920F
:101B60006403109262031092630361E080E10E94BB
:101B7000E00280E00E94960261E084E00E94E002C0
:101B800080916103811104C060E084E00E946702DB
:101B90001092630361E081E10E94E00260E081E174
:101BA0000E94670260E087E00E94E00260E083E05C
:101BB0000E94E00260E082E00E94E0021092750361
:101BC000109274034CE351E05093730340937203FB
:101BD0008FE38093760320E120937A0392E0909341
:101BE0007B0310927C0388E080937D03109269034D
:101BF00010926803509367034093660337E2309373
:101C00006A0320936E0390936F0310927003809386
:101C100071030895E89409C097FB3EF49095809570
:101C2000709561957F4F8F4F9F4F9923A9F0F92FA2
:101C300096E9BB279395F695879577956795B79520
:101C4000F111F8CFFAF4BB0F11F460FF1BC06F5F06
:101C50007F4F8F4F9F4F16C0882311F096E911C018
:101C6000772321F09EE8872F762F05C0662371F039
:101C700096E8862F70E060E02AF09A95660F771F4D
:101C8000881FDAF7880F9695879597F90895990F29
:101C90000008550FAA0BE0E8FEEF16161706E80736
:101CA000F907C0F012161306E407F50798F0621B57
:101CB000730B840B950B39F40A2661F0232B242B2C
:101CC000252B21F408950A2609F4A140A6958FEF4B
:101CD000811D811D08950E947E0E0C94EF0E0E94BE
:101CE000E10E38F00E94E80E20F0952311F00C94DC
:101CF000D80E0C94DE0E11240C94230F0E94000FBA
:101D000070F3959FC1F3950F50E0551F629FF0014E
:101D1000729FBB27F00DB11D639FAA27F00DB11D67
:101D2000AA1F649F6627B00DA11D661F829F2227F0
:101D3000B00DA11D621F739FB00DA11D621F839F77
:101D4000A00D611D221F749F3327A00D611D231F4D
:101D5000849F600D211D822F762F6A2F11249F579B
:101D600050409AF0F1F088234AF0EE0FFF1FBB1F9E
:101D7000661F771F881F91505040A9F79E3F51055D
:101D800080F00C94D80E0C94230F5F3FE4F3983E40
:101D9000D4F3869577956795B795F795E7959F5F07
:101DA000C1F7FE2B880F911D9695879597F9089599
:101DB00097F99F6780E870E060E008959FEF80ECFE
:101DC000089500240A9416161706180609060895A1
:101DD00000240A9412161306140605060895092E07
:101DE0000394000C11F4882352F0BB0F40F4BF2B76
:101DF00011F460FF04C06F5F7F4F8F4F9F4F0895B6
:101E000057FD9058440F551F59F05F3F71F04795AB
:101E1000880F97FB991F61F09F3F79F08795089590
:101E2000121613061406551FF2CF4695F1DF08C0AF
:101E3000161617061806991FF1CF869571056105CC
:101E400008940895E894BB2766277727CB0197F974
:101E500008952F923F924F925F926F927F928F924E
:101E60009F92AF92BF92CF92DF92EF92FF920F9329
:101E70001F93CF93DF93CDB7DEB7CA1BDB0B0FB633
:101E8000F894DEBF0FBECDBF09942A8839884888F0
:101E90005F846E847D848C849B84AA84B984C88486
:101EA000DF80EE80FD800C811B81AA81B981CE0F7D
:101EB000D11D0FB6F894DEBF0FBECDBFED01089562
:101EC0000E94470E08F48FEF0895EE0FFF1F059054
:101ED000F491E02D09940F931F93CF93DF938230F9
:101EE000910510F482E090E0E091C403F091C50305
:101EF00020E030E0A0E0B0E0309719F1408151815E
:101F00000281138148175907C8F08417950769F4AF
:101F1000109731F012960C93129713961C9327C0CA
:101F20000093C4031093C50322C02115310519F095
:101F30004217530718F49A01BD01EF01DF01F801C0
:101F4000DBCF21153105F9F0281B390B2430310581
:101F500080F48A819B816115710521F0FB019383D7
:101F6000828304C09093C5038093C403FE0132961C
:101F700044C0FE01E20FF31F819391932250310977
:101F8000398328833AC02091C2033091C303232BA5
:101F900041F420910801309109013093C30320934B
:101FA000C20320910601309107012115310541F44A
:101FB0002DB73EB740910A0150910B01241B350B00
:101FC000E091C203F091C303E217F307A0F42E1BC4
:101FD0003F0B2817390778F0AC014E5F5F4F24178D
:101FE000350748F04E0F5F1F5093C3034093C20361
:101FF0008193919302C0E0E0F0E0CF01DF91CF91B7
:102000001F910F910895CF93DF93009709F481C03A
:10201000FC01329713821282A091C403B091C503D0
:10202000109781F420813181820F931F2091C20388
:102030003091C3032817390751F5F093C303E09398
:10204000C20367C0ED0120E030E0CE17DF0740F4A7
:102050004A815B819E0141155105F1F0EA01F5CFFE
:10206000D383C28340815181840F951FC817D9073C
:1020700059F488819981840F951F029691838083FA
:102080008A819B81938382832115310529F4F09302
:10209000C503E093C4033DC0E901FB83EA83499192
:1020A0005991C40FD51FEC17FD0761F48081918110
:1020B000840F951F0296E901998388838281938119
:1020C0009B838A83E0E0F0E012968D919C911397B8
:1020D000009719F0FD01DC01F7CF8D919C911197CC
:1020E0009D012E5F3F4F820F931F2091C2033091BD
:1020F000C3032817390769F4309729F41092C503F0
:102100001092C40302C013821282B093C303A0933F
:10211000C203DF91CF910895A0E0B0E0E2E9F0E1E1
:102120000C942D0FEC01009721F4CB010E946B0F52
:10213000B4C0FC01E60FF71F9C0122503109E217E1
:10214000F30708F4A8C0D9010D911C911197061747
:102150001707B0F00530110508F49BC0C8010497BB
:102160008617970708F495C002501109061B170B34
:10217000019311936D937C93CF010E94031089C04A
:102180005B01A01AB10A4C01800E911EA091C403FC
:10219000B091C503612C712CE12CF12C109709F43E
:1021A00046C08D919C911197A815B905B1F56C01A8
:1021B00042E0C40ED11CCA14DB0478F14C018A1829
:1021C0009B08640142E0C40ED11C1296BC90129789
:1021D0001396AC91B5E0CB16D10440F0B282A38344
:1021E00091828082D9016D937C9309C00E5F1F4F4D
:1021F000800F911FF90191838083EB2DFA2FE11459
:10220000F10431F0D7011396FC93EE93129741C07D
:10221000F093C503E093C4033CC06816790608F444
:102220003C017D0112960D90BC91A02DB7CF8091FD
:10223000C2039091C30388169906E1F466167706E7
:10224000C8F48091060190910701009741F48DB781
:102250009EB740910A0150910B01841B950BE81722
:10226000F907C8F4F093C303E093C203F901718343
:1022700060830FC0CB010E946B0F7C01009759F067
:10228000A801BE010E945711CE010E940310C70190
:1022900004C0CE0102C080E090E0CDB7DEB7EEE032
:1022A0000C94490F81E090E0F8940C947011FB01BC
:1022B000DC0102C001900D9241505040D8F70895C2
:1022C000FB01DC018D91019080190110D9F3990B6C
:1022D0000895FB01DC0101900D920020E1F70895C3
:0422E000F894FFCFA0
:1022E4004304430401000000C603800000004000D2
:1022F4001400540000000000D70444046E042405B4
:102304009F047D04910400000000DD05B0050D0666
:102314008405A805940585050000000048074404C9
:102324000D060C067374617274206F6620736574F5
:102334007570005069207761732072756E6E696ED6
:1023440067004932433D300057656C636F6D65200B
:102354004C434400557365207265617220696E7048
:10236400757400746F20737461727420746F6F6C71
:1023740000666F7263696E67207069206F6666001D
:10238400466F7263696E672073687574646F776EE5
:102394000072657175657374696E67206120736876
:1023A4007574646F776E00706F7765724F66660040
:1023B4000D0A006F6B006E6F205541525420636FFD
:1023C4006D6D7320696E6974204750494F2073689E
:1023D4007574646F776E207468656E207265626FC1
:1023E4006F74004661756C7420646574656374650C
:1023F4006400726573657474696E6720746F6F6CC2
:0E24040000496E697469616C697A696E6700DF
:00000001FF
