:100000000C9462000C944D030C9426030C948A000B
:100010000C948A000C948A000C942B040C948A0093
:100020000C948A000C948A000C948A000C948A0028
:100030000C948A000C948A000C948A000C948A0018
:100040000C94DC020C948A000C94AF030C9489038A
:100050000C948A000C948A000C948A000C948A00F8
:100060000C9442040C948A00000000002300260037
:10007000290000000000240027002A0000000000E2
:10008000250028002B0004040404040404040202D4
:100090000202020203030303030301020408102007
:1000A0004080010204081020010204081020000012
:1000B0000008000201000003040700000000000027
:1000C0000000C30B11241FBECFEFD8E0DEBFCDBFB1
:1000D00023E0AEE8B1E001C01D92AE31B207E1F716
:1000E00011E0A0E0B1E0E6EEFAE102C005900D9269
:1000F000AE38B107D9F710E0C2E6D0E004C02197CE
:10010000FE010E94660DC136D107C9F70E9438086A
:100110000C94710D0C94000081E08093DB01089534
:100120000895E9E6F0E02081237F880F991F880F6A
:10013000991F822B8083E99A0895CF92DF92EF92E4
:10014000FF920F931F93CF93DF936C017A018B0182
:10015000C0E0D0E0CE15DF0581F0D8016D918D01B2
:10016000D601ED91FC910190F081E02DC601099539
:10017000892B11F02196EECF7E01C701DF91CF913F
:100180001F910F91FF90EF90DF90CF900895FC01A9
:10019000538D448D252F30E0842F90E0821B930BEC
:1001A000541710F0CF96089501970895FC01918D92
:1001B000828D981761F0828DDF01A80FB11D5D96C9
:1001C0008C91928D9F5F9F73928F90E008958FEF37
:1001D0009FEF0895FC01918D828D981731F0828DEB
:1001E000E80FF11D858D90E008958FEF9FEF089542
:1001F000FC01918D228D892F90E0805C9F4F821BA6
:1002000091098F739927089588E592E00E94F8007C
:1002100021E0892B09F420E0822F0895FC01848DD0
:10022000DF01A80FB11DA35ABF4F2C91848D90E020
:1002300001968F739927848FA689B7892C93A089FB
:10024000B1898C91837080648C93938D848D981385
:1002500006C00288F389E02D80818F7D8083089518
:10026000EF92FF920F931F93CF93DF93EC0181E006
:10027000888F9B8D8C8D981305C0E889F9898081C2
:1002800085FD26C0F62E0B8D10E00F5F1F4F0F73FC
:100290001127E02E8C8DE8120CC00FB607FCFACFA8
:1002A000E889F989808185FFF5CFCE010E940E0192
:1002B000F1CF8B8DFE01E80FF11DE35AFF4FF08265
:1002C0009FB7F8940B8FEA89FB89808180620AC00E
:1002D0009FB7F894EE89FF896083E889F989808166
:1002E0008370806480839FBF81E090E0DF91CF9135
:1002F0001F910F91FF90EF900895CF93DF93EC0142
:10030000888D8823C9F0EA89FB89808185FD05C035
:10031000A889B9898C9186FD0FC00FB607FCF5CF6F
:10032000808185FFF2CFA889B9898C9185FFEDCFB7
:10033000CE010E940E01E7CFDF91CF91089580E0BA
:1003400090E0892B29F00E94040181110C94000097
:1003500008954115510529F4EAE7F0E080818F778F
:1003600080836A307105A9F063FD02C088E001C096
:1003700088E26770682B88E10FB6F894A89580939F
:1003800060000FBE60936000E0E6F0E08081806472
:100390008083232BA1F483B7817F846083BFF8948B
:1003A00083B7816083BF85B7806685BF8F7D85BF3A
:1003B0007894889583B78E7F83BF78940EC083B777
:1003C000817F846083BFF89483B7816083BF789412
:1003D000889583B78E7F83BF7894452B29F4EAE70D
:1003E000F0E0808180688083089585ED8093BC0073
:1003F0008091BC0084FDFCCF10923302089540919F
:10040000AE01262F30E0240F311D21323105DCF4FE
:10041000209133022430C9F4FC0180E090E086177B
:1004200058F43091AE012191DC01A257BE4FA30FC9
:10043000B11D2C930196F3CF8091AE01680F6093AC
:10044000AE0180E0089581E0089582E00895089566
:1004500008950895E091EC018091EB01E81730F4E4
:10046000F0E0E351FE4F808190E008958FEF9FEF21
:1004700008959091EC018091EB01981750F4E92FC9
:10048000F0E0E351FE4F208130E09F5F9093EC015C
:1004900002C02FEF3FEFC90108958091EB0190E07A
:1004A0002091EC01821B91090895CF92DF92EF9287
:1004B000FF920F931F93CF93DF937C01CB018A01AF
:1004C00020913402222389F0EB016B01C40ED51E6A
:1004D000CC15DD0569F06991D701ED91FC91019092
:1004E000F081E02DC7010995F3CF642F0E94FF0131
:1004F000C801DF91CF911F910F91FF90EF90DF9096
:10050000CF900895CF93DF931F92CDB7DEB7698365
:10051000209134022223D1F020915702203240F062
:1005200021E030E0FC013383228380E090E015C0BD
:1005300080913502E82FF0E0EA5CFD4F99819083CD
:100540008F5F809335028093570205C061E0CE0132
:1005500001960E94FF0181E090E00F90DF91CF9122
:100560000895089580E090E008950E946C0D3FB7D3
:10057000F8948091E3019091E401A091E501B0919C
:10058000E60126B5A89B05C02F3F19F00196A11DD5
:10059000B11D3FBFBA2FA92F982F8827820F911D19
:1005A000A11DB11DBC01CD0143E0660F771F881F5F
:1005B000991F4A95D1F708951F920F920FB60F9287
:1005C00011242F933F938F939F93AF93BF93809169
:1005D000DF019091E001A091E101B091E201309141
:1005E000DE0126E0230F2D3720F40296A11DB11D58
:1005F00005C029E8230F0396A11DB11D2093DE013C
:100600008093DF019093E001A093E101B093E201B8
:100610008091E3019091E401A091E501B091E601A0
:100620000196A11DB11D8093E3019093E401A09375
:10063000E501B093E601BF91AF919F918F913F91FA
:100640002F910F900FBE0F901F9018951F920F9231
:100650000FB60F9211242F933F934F935F936F9395
:100660007F938F939F93AF93BF93EF93FF93E0910B
:100670000401F09105010995FF91EF91BF91AF91B0
:100680009F918F917F916F915F914F913F912F91AA
:100690000F900FBE0F901F9018951F920F920FB6DC
:1006A0000F9211242F933F934F935F936F937F93F8
:1006B0008F939F93AF93BF93EF93FF93E0910201CA
:1006C000F09103010995FF91EF91BF91AF919F9137
:1006D0008F917F916F915F914F913F912F910F90EB
:1006E0000FBE0F901F9018956115710579F0FB01F1
:1006F00001900020E9F73197AF01461B570BDC0151
:10070000ED91FC910280F381E02D099480E090E06E
:1007100008951F920F920FB60F9211242F933F93BB
:100720004F935F936F937F938F939F93AF93BF93F9
:10073000EF93FF9388E592E00E940E01FF91EF9105
:10074000BF91AF919F918F917F916F915F914F91E9
:100750003F912F910F900FBE0F901F9018951F92F1
:100760000F920FB60F9211242F938F939F93EF93B5
:10077000FF93E0916802F09169028081E0916E023E
:10078000F0916F0282FD12C09081809171028F5FA3
:100790008F7320917202821751F0E0917102F0E0A4
:1007A000E85AFD4F958F8093710201C08081FF91BF
:1007B000EF919F918F912F910F900FBE0F901F90EF
:1007C0001895FC01248131E03093340220935602C5
:1007D00010923502109257028385682B85EF92E0C4
:1007E0000E94820281E00C9470050F931F93CF93B7
:1007F0008C01C62F0E94E1036C2F6460C8010E9427
:10080000E1036C2F6B7FC8010E94E10380E690E05A
:100810000197F1F7CF911F910F9108950F931F93B7
:10082000CF93DF938C01C62FD42F607F642B0E945F
:10083000F50380E1C89FB00111246D2BC801DF9141
:10084000CF911F910F910C94F50341E00E940E048B
:1008500081E090E008951F920F920FB60F9211243D
:100860008F930FB6F894A89580916000886180936B
:100870006000109260000FBE8F910F900FBE0F901E
:100880001F9018951F920F920FB60F9211242F935D
:100890003F934F935F936F937F938F939F93AF9308
:1008A000BF93EF93FF938091B900887F803609F45E
:1008B0009CC068F5883209F45BC090F4803109F47B
:1008C00054C038F4882309F4F6C0883009F44DC0C8
:1008D000F6C0883109F44CC0803209F45DC0EFC025
:1008E000803409F468C048F4803309F455C0883373
:1008F00009F0E5C080933102D8C0803509F44FC0BB
:10090000883509F45DC0883409F0D9C0D6C088396B
:1009100009F4C7C0A8F4883709F467C038F48836EA
:1009200009F463C0803709F460C0C9C0883809F48D
:10093000B8C0803909F45FC0803809F0C0C05BC01E
:10094000803B09F486C038F4803A09F466C0883ADE
:1009500009F47FC0B4C0803C09F4A7C0883C09F406
:10096000A4C0883B09F48AC0AAC080910E0210C0BE
:100970009091300280912F02981770F5E09130022B
:1009800081E08E0F80933002F0E0E15FFD4F8081C7
:100990008093BB0085EC86C0809331028EC0E091CD
:1009A000300281E08E0F809330028091BB00F0E036
:1009B000E15FFD4F80839091300280912F026EC0E5
:1009C000E091300281E08E0F809330028091BB0075
:1009D000F0E0E15FFD4F80838091320281116DC0B4
:1009E00081E080930D0284EA61C083E0809333024A
:1009F0001092D001CFCF8091D001803208F051C049
:100A0000E091D00181E08E0F8093D0018091BB00F6
:100A1000F0E0E055FE4F8083BDCF85EC8093BC00B5
:100A2000109233028091D001803230F4E091D001F5
:100A3000F0E0E055FE4F10826091D00170E0E0914F
:100A4000E701F091E80180EB91E009951092D00167
:100A500036C084E0809333021092AF011092AE0151
:100A6000E091E901F091EA0109958091AE018111CF
:100A700005C081E08093AE0110928E01E091AF013C
:100A800081E08E0F8093AF01F0E0E257FE4F80814E
:100A90008093BB009091AF018091AE01981708F44C
:100AA00079CF85E88093BC000AC085EC8093BC00B8
:100AB0001092330204C0109231020E94F501FF919E
:100AC000EF91BF91AF919F918F917F916F915F91C6
:100AD0004F913F912F910F900FBE0F901F9018953F
:100AE000282F30915702313208F04AC080913302EA
:100AF0008111FCCF9091560242E040933302209343
:100B000032022FEF209331021092300230932F02E5
:100B1000E6E3F2E0AFE0B2E020E0321721F04191ED
:100B20004D932F5FFACF10920E0220910E02990F73
:100B3000922B90930E0290910D02913061F41092DD
:100B40000D0290910E029093BB009091BC0093FD1A
:100B5000F8CF95EC01C095EE9093BC0090913302D4
:100B60009230E1F3909131029F3F79F08091310210
:100B7000803241F080913102803331F084E005C051
:100B800081E003C082E001C083E010923502109240
:100B90005702109234020895CF93DF93CDB7DEB79A
:100BA00028970FB6F894DEBF0FBECDBF9C0188E03A
:100BB000E6E0F1E0DE01119601900D928A95E1F7F1
:100BC000F9018185811102C09FEF01C091E0FE0112
:100BD0003196E90FF11DE90FF11D6081606840E079
:100BE000C90128960FB6F894DEBF0FBECDBFDF91C6
:100BF000CF910C940E0440E061E00E940E048CE959
:100C00009FE00197F1F70895CF93DF93EB0191E017
:100C10009093340298E69093560210923502109207
:100C20005702682F85EF92E00E948202688185EF6B
:100C300092E00E94820281E0DF91CF910C947005D6
:100C400091E09093340298E6909356021092350208
:100C500010925702682F85EF92E00E94820281E095
:100C60000E947005809133028111FCCF81E0809356
:100C70003302809332029FEF909331021092300240
:100C800010922F0280930E0280910E02806D80934D
:100C90000E0280910D02813061F410920D0280915C
:100CA0000E028093BB008091BC0083FDF8CF85ECE1
:100CB00001C085EE8093BC00809133028130E1F366
:100CC00080913002811103C09091300201C091E007
:100CD000EFE0F2E0ADEEB1E080E0891721F0219184
:100CE0002D938F5FFACF1092EC018093EB0185EF8B
:100CF00092E00E9439020895CF93DF93BC0188E50A
:100D000092E00E947403EC016BE871E088E592E0E8
:100D10000E9474038C0F9D1FDF91CF91089587E48B
:100D200080937C0080917A00806480937A00809127
:100D30007A0086FDFCCF809178002091790090E0C8
:100D4000922B0895833081F028F4813099F082301D
:100D5000A1F008958730A9F08830B9F08430D1F43B
:100D6000809180008F7D03C0809180008F77809379
:100D70008000089584B58F7702C084B58F7D84BDCF
:100D800008958091B0008F7703C08091B0008F7D6F
:100D90008093B00008951F93CF93DF93282F30E006
:100DA000F901E255FF4F8491F901E656FF4FD491C6
:100DB000F901EA57FF4FC491CC23C1F0162F8111DE
:100DC0000E94A206EC2FF0E0EE0FFF1FE458FF4F49
:100DD000A591B4919FB7F894111104C08C91D0954E
:100DE000D82302C0EC91DE2BDC939FBFDF91CF9123
:100DF0001F9108951092EC011092EB0110923502B0
:100E0000109257021092330281E0809332021092C6
:100E10000D0261E082E10E94CB0661E083E10E9465
:100E2000CB06E9EBF0E080818E7F808380818D7F2F
:100E3000808380E28093B80085E48093BC0087E2E1
:100E400092E09093EA018093E90188E292E0909326
:100E5000E8018093E701089590910103992319F027
:100E6000882379F006C0882341F061E084E00E9485
:100E7000CB0681E080930303089560E084E00E9444
:100E8000CB0610920303089590910103992319F062
:100E9000882379F006C0882341F061E080E10E9458
:100EA000CB0681E080930203089560E080E10E9418
:100EB000CB06109202030895CF93DF9390E0FC01DC
:100EC000E656FF4F2491FC01EA57FF4F8491882397
:100ED00061F190E0880F991FFC01EE58FF4FC5911A
:100EE000D491FC01E458FF4FA591B491611109C060
:100EF0009FB7F8948881209582238883EC912E23D4
:100F00000BC0623061F49FB7F8948881322F30951E
:100F100083238883EC912E2B2C939FBF06C08FB721
:100F2000F894E8812E2B28838FBFDF91CF9108950D
:100F30008F929F92AF92BF92CF92DF92EF92FF92E9
:100F40006B017C010E94B7024B015C01C114D1040A
:100F5000E104F104F1F00E94B702DC01CB01881931
:100F60009909AA09BB09883E9340A105B10570F310
:100F700021E0C21AD108E108F10888EE880E83E06A
:100F8000981EA11CB11CC114D104E104F10419F78D
:100F9000DDCFFF90EF90DF90CF90BF90AF909F900C
:100FA0008F9008950F931F93CF93DF93EC010E94CE
:100FB000FA061D828985823010F098E09D839A851B
:100FC000992329F0813019F48D8184608D8362E347
:100FD00070E080E090E00E9498076B85CE010E944F
:100FE000E10368EE73E080E090E00E94980760E320
:100FF000CE010E94F50304E213E2C8010197F1F764
:1010000060E3CE010E94F503C8010197F1F760E3A8
:10101000CE010E94F50388E291E00197F1F760E2CA
:10102000CE010E94F5036D81606240E0CE010E9416
:101030000E0484E08E8340E06CE0CE010E940E043A
:10104000CE010E94FB0582E08F8340E066E0CE0186
:101050000E940E0440E062E0CE010E940E048CE982
:101060009FE00197F1F7DF91CF911F910F910895C4
:10107000CF93DF9300D000D000D0CDB7DEB7789407
:1010800084B5826084BD84B5816084BD85B582608D
:1010900085BD85B5816085BD80916E00816080933E
:1010A0006E001092810080918100826080938100A7
:1010B00080918100816080938100809180008160B7
:1010C000809380008091B10084608093B100809112
:1010D000B00081608093B00080917A00846080933A
:1010E0007A0080917A00826080937A0080917A0001
:1010F0008E7F80937A0080917A00806880937A0056
:101100001092C10061E08DE00E945C0760E08DE01C
:101110000E94CB06E0916802F091690282E0808330
:10112000E0916402F09165021082E0916602F09114
:10113000670288E0808310927002E0916C02F09167
:101140006D0286E08083E0916A02F0916B028081FB
:1011500080618083E0916A02F0916B0280818860F7
:101160008083E0916A02F0916B02808180688083C5
:10117000E0916A02F0916B0280818F7D808388EE1E
:1011800093E0A0E0B0E080935C0290935D02A093B6
:101190005E02B0935F028EE391E00E947C06809134
:1011A0000103882301F18091020391E090930403ED
:1011B000882309F432C081E0809304038DE491E038
:1011C0000E947C0684E090E09093010180930001EE
:1011D00081E00E94440781E00E942C078CE591E0A9
:1011E0000E947C068CC0E5EBF0E08491E1EAF0E03F
:1011F0000491EDE8F0E01491112379F081110E943F
:10120000A206E12FF0E0EE0FFF1FE859FF4FA59176
:10121000B491EC91E02309F0CECF80E00E94440726
:1012200080E00E942C078FE791E00E947C0682E11B
:1012300093E00E94D20786E093E00E94D20780915B
:10124000000190910101019709F059C018E0109335
:101250001D0360E082E193E00E94E10362E671E039
:1012600082E193E00E94740382E193E00E94CC0546
:1012700061E771E082E193E00E947403109311032F
:1012800060E086E093E00E94E10362E671E086E0C0
:1012900093E00E94740386E093E00E94CC0561E72E
:1012A00071E086E093E00E94740382E090E0909306
:1012B00001018093000168E873E180E090E00E9402
:1012C00098078091DB0181111AC082E193E00E94AE
:1012D000FB0510921D0360E082E193E00E94E103B0
:1012E00086E093E00E94FB051092110360E086E027
:1012F00093E00E94E10310920101109200018CE83A
:1013000090E0909305018093040180E090E00E94BA
:1013100091000E94FA0682E00E9420068F3F79F138
:1013200088E58E83BE016A5F7F4F80E00E940406DD
:101330008FE00E94200688638D83BE016B5F7F4F24
:101340008FE00E9404061C82BE016C5F7F4F82E02A
:101350000E94040680E00E9420061B82BE016D5F91
:101360007F4F81E00E94040680E00E942006806892
:101370008A83BE016E5F7F4F80E00E940406CC240A
:10138000C394D12C92E0A92EB12C2CE8822E20E01F
:10139000922E00E910E033E0632E712C8091DC0185
:1013A0009091DD018130910509F48BC040F08230CD
:1013B000910509F4CAC0049709F4EDC0D6C120E034
:1013C00030E040E050E06AE070E081E093E00E94AD
:1013D000A901F090DB01F11063C061E08DE00E9493
:1013E000CB060E948F068430910514F480E090E0D3
:1013F000BC01990F880B990B0E94440C2BE734E138
:101400004EE450E40E94A30C20E030E04AEA52E4AB
:101410000E94610D87FD05C081E080930403FF24D5
:10142000F3948091D9019091DA018230910561F0B5
:101430008330910549F0019781F4FF20C1F0B0920B
:10144000DA01A092D90113C0F11011C080E00E940E
:10145000440780E00E942C0706C06AE070E080E04C
:1014600090E00E9498071092DA011092D901109230
:10147000DD011092DC0160E08DE00E94CB06E8986F
:10148000109303010093020181E00E9420068F7BEC
:101490008983BE016F5F7F4F81E00E94040665C1B2
:1014A0001092DB01E8981093030100930201E99880
:1014B0001093050100930401D092DD01C092DC017C
:1014C00054C11092DB012FB7F8948091DF01909105
:1014D000E001A091E101B091E2012FBF8093D5011D
:1014E0009093D601A093D701B093D8010E948F06A4
:1014F0008430910514F480E090E0BC01990F880BD2
:10150000990B0E94440C2BE734E14EE450E40E9416
:10151000A30C20E030E04AEA52E40E94610D87FD0E
:1015200027C181E080930403B092DD01A092DC0129
:1015300061E08DE00E94CB0690920501809204014B
:1015400081E090E00E94910010C18091DB0188232E
:1015500009F40BC1E998109305010093040110925E
:10156000DB012FB7F8948091DF019091E001A09109
:10157000E101B091E2012FBF8093D1019093D2019C
:10158000A093D301B093D40184E090E09093DD0167
:101590008093DC01EAC00E948F068430910514F428
:1015A00080E090E0BC01990F880B990B0E94440CDD
:1015B0002BE734E14EE450E40E94A30C20E030E03D
:1015C0004AEA52E40E94610D87FDBFC081E080932A
:1015D00004038091D1019091D201A091D301B091E7
:1015E000D4014091D5015091D6016091D7017091FD
:1015F000D801841B950BA60BB70B813127E292070C
:10160000A105B10558F080E00E94440780E00E94E7
:101610002C071092DA011092D90197C0893C9105EC
:10162000A105B10508F491C07092DA016092D90168
:1016300080910103882351F068E873E180E090E035
:101640000E94980780E00E9444077FC061E081E12A
:101650000E94CB068FB7F8942090DF013090E00114
:101660004090E1015090E2018FBF0E948F068430CC
:10167000910514F480E090E0BC01990F880B990B60
:101680000E94440C2BE734E14EE450E40E94A30C8A
:1016900020E030E04AEA52E40E94610D87FD06C076
:1016A00081E080930403FF24F39401C0F12C80E0D7
:1016B00090E0DC01EE24E394FF20D1F180339547E4
:1016C000A105B105A8F50E948F068430910514F498
:1016D00080E090E0BC01990F880B990B0E94440CAC
:1016E0002BE734E14EE450E40E94A30C20E030E00C
:1016F0004AEA52E40E94610D87FD03C0E0920403B0
:1017000001C0F12C62E370E080E090E00E94980755
:101710002FB7F8948091DF019091E001A091E10151
:10172000B091E2012FBF82199309A409B509C4CF72
:1017300068E873E180E090E00E94980780E00E94F2
:10174000440760E081E10E94CB0660E08DE00E94EA
:10175000CB06909205018092040180E090E00E9407
:1017600091001092DD011092DC010E949F0116CEC3
:1017700081E00E94440781E00E942C07D092DA01A8
:10178000C092D901D1CEE8E5F2E01382128288EE50
:1017900093E0A0E0B0E084839583A683B78322E141
:1017A00031E03183208325EC30E03587248724EC39
:1017B00030E03787268720EC30E0318B208B21EC1E
:1017C00030E0338B228B22EC30E0358B248B26ECFF
:1017D00030E0378B268B118E128E138E148EE5EF30
:1017E000F2E01382128284839583A683B78384E216
:1017F00091E091838083E1E0F3E010821482138210
:101800001182128261E080E10E945C0780E00E9408
:10181000440761E084E00E945C0780E00E942C079E
:1018200061E081E10E945C0760E081E10E94CB06FB
:1018300060E087E00E945C0760E083E00E945C0754
:1018400060E082E00E945C07E2E1F3E01382128232
:1018500046E351E0518340838FE3848320E1208776
:1018600092E09187128688E08387E6E0F3E01382B6
:1018700012825183408337E2348320879187128616
:1018800083870895E89409C097FB3EF4909580956E
:10189000709561957F4F8F4F9F4F9923A9F0F92F36
:1018A00096E9BB279395F695879577956795B795B4
:1018B000F111F8CFFAF4BB0F11F460FF1BC06F5F9A
:1018C0007F4F8F4F9F4F16C0882311F096E911C0AC
:1018D000772321F09EE8872F762F05C0662371F0CD
:1018E00096E8862F70E060E02AF09A95660F771FE1
:1018F000881FDAF7880F9695879597F90895990FBD
:101900000008550FAA0BE0E8FEEF16161706E807C9
:10191000F907C0F012161306E407F50798F0621BEA
:10192000730B840B950B39F40A2661F0232B242BBF
:10193000252B21F408950A2609F4A140A6958FEFDE
:10194000811D811D08950E94B60C0C94270D0E94E4
:10195000190D38F00E94200D20F0952311F00C9401
:10196000100D0C94160D11240C945B0D0E94380D73
:1019700070F3959FC1F3950F50E0551F629FF001E2
:10198000729FBB27F00DB11D639FAA27F00DB11DFB
:10199000AA1F649F6627B00DA11D661F829F222784
:1019A000B00DA11D621F739FB00DA11D621F839F0B
:1019B000A00D611D221F749F3327A00D611D231FE1
:1019C000849F600D211D822F762F6A2F11249F572F
:1019D00050409AF0F1F088234AF0EE0FFF1FBB1F32
:1019E000661F771F881F91505040A9F79E3F5105F1
:1019F00080F00C94100D0C945B0D5F3FE4F3983E67
:101A0000D4F3869577956795B795F795E7959F5F9A
:101A1000C1F7FE2B880F911D9695879597F908952C
:101A200097F99F6780E870E060E008959FEF80EC91
:101A3000089500240A941616170618060906089534
:101A400000240A9412161306140605060895092E9A
:101A50000394000C11F4882352F0BB0F40F4BF2B09
:101A600011F460FF04C06F5F7F4F8F4F9F4F089549
:101A700057FD9058440F551F59F05F3F71F047953F
:101A8000880F97FB991F61F09F3F79F08795089524
:101A9000121613061406551FF2CF4695F1DF08C043
:101AA000161617061806991FF1CF86957105610560
:101AB00008940895E894BB2766277727CB0197F908
:101AC00008950E947F0C08F48FEF0895EE0FFF1F1A
:101AD0000590F491E02D099481E090E0F8940C9445
:061AE000710DF894FFCF28
:101AE6000100900090000000400014005400000027
:101AF600000030019D00C7007D01F800D600EA0015
:101B06000000000082025502B20229024D0239028B
:101B16002A020000000025049D00B202B10273747F
:101B2600617274206F662073657475700050692049
:101B36007761732072756E6E696E67004932433D38
:101B46003000557365207265617220696E70757418
:101B560000746F20737461727420746F6F6C005719
:0E1B6600656C636F6D65204C4344000D0A00F2
:00000001FF
