:100000000C945D000C944E040C9427040C94850011
:100010000C9485000C9485000C9475040C94850058
:100020000C9485000C9485000C9485000C9485003C
:100030000C9485000C9485000C9485000C9485002C
:100040000C94DD030C9485000C9485000C948500C1
:100050000C9485000C9485000C9485000C9485000C
:100060000C948C040C9485000000000024002700F0
:100070002A0000000000250028002B0004040404CE
:100080000404040402020202020203030303030342
:10009000010204081020408001020408102001021F
:1000A00004081020000000080002010000030407FB
:1000B0000000000000000000BA0511241FBECFEFB1
:1000C000D8E0DEBFCDBF11E0A0E0B1E0E8E0F4E1B0
:1000D00002C005900D92A631B107D9F721E0A6E143
:1000E000B1E001C01D92A13FB207E1F710E0CDE5FC
:1000F000D0E004C02197FE010E94F709CC35D1075A
:10010000C9F70E94F3050C94020A0C940000282FF2
:100110003091DF01313208F04AC08091BB0181117A
:10012000FCCF9091DE0142E04093BB012093BA01E5
:100130002FEF2093B9011092B8013093B701EEEB85
:10014000F1E0A7E9B1E020E0321721F041914D93B1
:100150002F5FFACF1092960120919601990F922B62
:100160009093960190919501913061F410929501D0
:10017000909196019093BB009091BC0093FDF8CFB5
:1001800095EC01C095EE9093BC009091BB0192302C
:10019000E1F39091B9019F3F79F08091B9018032EC
:1001A00041F08091B901803331F084E005C081E0F5
:1001B00003C082E001C083E01092BD011092DF0114
:1001C0001092BC01089587E480937C0080917A00AE
:1001D000806480937A0080917A0086FDFCCF8091C4
:1001E00078002091790090E0922B089590E0FC0136
:1001F000EC55FF4F2491FC01E057FF4F3491FC0177
:10020000E458FF4FE491EE2309F43CC0222339F176
:10021000233091F038F42130A9F0223001F584B573
:100220008F7D12C0273091F02830A1F02430B9F42E
:10023000809180008F7D03C0809180008F778093B4
:1002400080000DC084B58F7784BD09C08091B00057
:100250008F7703C08091B0008F7D8093B000F0E075
:10026000EE0FFF1FEE58FF4FA591B4919FB7F89482
:10027000611104C08C913095382302C0EC913E2B63
:100280003C939FBF08959091EC01992319F0882326
:1002900079F006C0882341F061E084E00E94F60016
:1002A00081E08093EE01089560E084E00E94F60012
:1002B0001092EE0108959091EC01992319F0882392
:1002C00079F006C0882341F061E080E10E94F600E9
:1002D00081E08093ED01089560E080E10E94F600E6
:1002E0001092ED010895CF93DF9390E0FC01E05769
:1002F000FF4F2491FC01E458FF4F8491882361F162
:1003000090E0880F991FFC01E859FF4FC591D491E7
:10031000FC01EE58FF4FA591B491611109C09FB740
:10032000F8948881209582238883EC912E230BC03A
:10033000623061F49FB7F8948881322F309583231F
:100340008883EC912E2B2C939FBF06C08FB7F89417
:10035000E8812E2B28838FBFDF91CF9108953FB77F
:10036000F89480916F0190917001A0917101B0910A
:10037000720126B5A89B05C02F3F19F00196A11D5B
:10038000B11D3FBFBA2FA92F982F8827820F911D2B
:10039000A11DB11DBC01CD0143E0660F771F881F71
:1003A000991F4A95D1F708958F929F92AF92BF926D
:1003B000CF92DF92EF92FF926B017C010E94AF011E
:1003C0004B015C01C114D104E104F104F1F00E947D
:1003D000AF01DC01CB0188199909AA09BB09883E44
:1003E0009340A105B10570F321E0C21AD108E108DC
:1003F000F10888EE880E83E0981EA11CB11CC11480
:10040000D104E104F10419F7DDCFFF90EF90DF9004
:10041000CF90BF90AF909F908F900895089581E006
:10042000809367010895089508950895E9E6F0E03E
:100430002081237F880F991F880F991F822B80832B
:10044000E99A0895CF92DF92EF92FF920F931F9354
:10045000CF93DF936C017A018B01C0E0D0E0CE1521
:10046000DF0581F0D8016D918D01D601ED91FC91F0
:100470000190F081E02DC6010995892B11F021969C
:10048000EECF7E01C701DF91CF911F910F91FF90B9
:10049000EF90DF90CF9008954115510529F4EAE7D8
:1004A000F0E080818F7780836A307105A9F063FD69
:1004B00002C088E001C088E26770682B88E10FB64F
:1004C000F894A895809360000FBE60936000E0E60A
:1004D000F0E0808180648083232BA1F483B7817F47
:1004E000846083BFF89483B7816083BF85B78066DB
:1004F00085BF8F7D85BF7894889583B78E7F83BFB6
:1005000078940EC083B7817F846083BFF89483B7EB
:10051000816083BF7894889583B78E7F83BF7894FA
:10052000452B29F4EAE7F0E0808180688083089514
:1005300085ED8093BC008091BC0084FDFCCF1092BF
:10054000BB01089540913601262F30E0240F311D64
:1005500021323105DCF42091BB012430C9F4FC01C7
:1005600080E090E0861758F4309136012191DC014B
:10057000AA5EBE4FA30FB11D2C930196F3CF8091BD
:100580003601680F6093360180E0089581E0089598
:1005900082E008950895E091740180917301E81755
:1005A00030F4F0E0EB58FE4F808190E008958FEF3B
:1005B0009FEF08959091740180917301981750F402
:1005C000E92FF0E0EB58FE4F208130E09F5F9093E1
:1005D000740102C02FEF3FEFC901089580917301AC
:1005E00090E020917401821B91090895CF92DF92CF
:1005F000EF92FF920F931F93CF93DF937C01CB0178
:100600008A012091BC01222389F0EB016B01C40E09
:10061000D51ECC15DD0569F06991D701ED91FC91EE
:100620000190F081E02DC7010995F3CF642F0E945E
:10063000A202C801DF91CF911F910F91FF90EF901F
:10064000DF90CF900895CF93DF931F92CDB7DEB7A1
:1006500069832091BC012223D1F02091DF01203257
:1006600040F021E030E0FC013383228380E090E021
:1006700015C08091BD01E82FF0E0E254FE4F998152
:1006800090838F5F8093BD018093DF0105C061E09F
:10069000CE0101960E94A20281E090E00F90DF91CE
:1006A000CF910895CF93C62F91E09093BC0198E627
:1006B0009093DE011092BD011092DF01682F80EE51
:1006C00091E00E9423036C2F80EE91E00E942303AF
:1006D00081E0CF910C948700089580E090E0089528
:1006E00091E09093BC0198E69093DE011092BD01D9
:1006F0001092DF01682F80EE91E00E94230381E0D9
:100700000E9487008091BB018111FCCF81E0809322
:10071000BB018093BA019FEF9093B9011092B80189
:100720001092B7018093960180919601806D80931D
:10073000960180919501813061F41092950180912C
:1007400096018093BB008091BC0083FDF8CF85ECBF
:1007500001C085EE8093BC008091BB018130E1F344
:100760008091B801811103C09091B80101C091E05E
:10077000E7E9F1E0A5E7B1E080E0891721F02191F8
:100780002D938F5FFACF109274018093730180EEE6
:1007900091E00E94DA020895CF9380E00E947003F6
:1007A000C82F60E081E00E94520381E0C11101C0C6
:1007B00080E0CF9108950E94FD091F920F920FB61D
:1007C0000F9211242F933F938F939F93AF93BF93D7
:1007D00080916B0190916C01A0916D01B0916E01BF
:1007E00030916A0126E0230F2D3720F40296A11DD7
:1007F000B11D05C029E8230F0396A11DB11D20934B
:100800006A0180936B0190936C01A0936D01B0938A
:100810006E0180916F0190917001A0917101B09172
:1008200072010196A11DB11D80936F01909370011B
:10083000A0937101B0937201BF91AF919F918F917D
:100840003F912F910F900FBE0F901F9018951F9200
:100850000F920FB60F9211242F933F934F935F93F4
:100860006F937F938F939F93AF93BF93EF93FF9378
:10087000E0910201F09103010995FF91EF91BF9181
:10088000AF919F918F917F916F915F914F913F9128
:100890002F910F900FBE0F901F9018951F920F92DF
:1008A0000FB60F9211242F933F934F935F936F9343
:1008B0007F938F939F93AF93BF93EF93FF93E091B9
:1008C0000001F09101010995FF91EF91BF91AF9166
:1008D0009F918F917F916F915F914F913F912F9158
:1008E0000F900FBE0F901F9018951F920F920FB68A
:1008F0000F9211248F930FB6F894A8958091600001
:10090000886180936000109260000FBE8F910F90FD
:100910000FBE0F901F9018951F920F920FB60F9257
:1009200011242F933F934F935F936F937F938F93F4
:100930009F93AF93BF93EF93FF938091B900887F0C
:10094000803609F49CC068F5883209F45BC090F4E5
:10095000803109F454C038F4882309F4F6C0883093
:1009600009F44DC0F6C0883109F44CC0803209F456
:100970005DC0EFC0803409F468C048F4803309F4E6
:1009800055C0883309F0E5C08093B901D8C08035DF
:1009900009F44FC0883509F45DC0883409F0D9C026
:1009A000D6C0883909F4C7C0A8F4883709F467C0ED
:1009B00038F4883609F463C0803709F460C0C9C0D0
:1009C000883809F4B8C0803909F45FC0803809F06C
:1009D000C0C05BC0803B09F486C038F4803A09F49B
:1009E00066C0883A09F47FC0B4C0803C09F4A7C04F
:1009F000883C09F4A4C0883B09F48AC0AAC080914D
:100A0000960110C09091B8018091B701981770F5C8
:100A1000E091B80181E08E0F8093B801F0E0E956D3
:100A2000FE4F80818093BB0085EC86C08093B90126
:100A30008EC0E091B80181E08E0F8093B801809163
:100A4000BB00F0E0E956FE4F80839091B8018091A1
:100A5000B7016EC0E091B80181E08E0F8093B801BC
:100A60008091BB00F0E0E956FE4F80838091BA018F
:100A700081116DC081E08093950184EA61C083E0BB
:100A80008093BB0110925801CFCF809158018032E2
:100A900008F051C0E091580181E08E0F8093580119
:100AA0008091BB00F0E0E85CFE4F8083BDCF85EC19
:100AB0008093BC001092BB0180915801803230F4C9
:100AC000E0915801F0E0E85CFE4F1082609158011F
:100AD00070E0E0915901F0915A0188E391E00995A5
:100AE0001092580136C084E08093BB011092370108
:100AF00010923601E0915B01F0915C0109958091C3
:100B00003601811105C081E08093360110921601F3
:100B1000E091370181E08E0F80933701F0E0EA5ECB
:100B2000FE4F80818093BB00909137018091360108
:100B3000981708F479CF85E88093BC000AC085EC4B
:100B40008093BC001092BB0104C01092B9010E94B6
:100B50009802FF91EF91BF91AF919F918F917F91FB
:100B60006F915F914F913F912F910F900FBE0F901A
:100B70001F901895E0EEF1E01382128288EE93E068
:100B8000A0E0B0E084839583A683B78388E091E0FA
:100B900091838083ECEEF1E0108214821382118243
:100BA000128261E080E10E94730180E00E945B019B
:100BB00061E084E00E94730180E00E94430161E0F3
:100BC00081E10E94730160E081E10E94F60060E033
:100BD00087E00E94730160E083E00E94730160E09F
:100BE00082E00C947301789484B5826084BD84B5EE
:100BF000816084BD85B5826085BD85B5816085BD18
:100C000080916E00816080936E00109281008091CF
:100C10008100826080938100809181008160809357
:100C20008100809180008160809380008091B1007C
:100C300084608093B1008091B00081608093B000A7
:100C400080917A00846080937A0080917A0082603B
:100C500080937A0080917A008E7F80937A008091D1
:100C60007A00806880937A001092C1001092EC01A3
:100C700061E08DE00E94730160E08DE00E94F6006B
:100C800080E00E945B0180E00E9443018FE092E0DF
:100C9000909303018093020180E090E00E9416028D
:100CA00010927401109273011092BD011092DF0135
:100CB0001092BB0181E08093BA011092950161E02E
:100CC00082E10E94F60061E083E10E94F6008091DB
:100CD000B9008E7F8093B9008091B9008D7F809399
:100CE000B90080E28093B80085E48093BC0084E181
:100CF00092E090935C0180935B0185E192E0909398
:100D00005A018093590182E00E9470038F3FD1F015
:100D100068E580E00E9452038FE00E947003682F14
:100D200068638FE00E94520360E082E00E945203F9
:100D30000E94CC0380E00E947003682F606880E00E
:100D40000E94520301E010E092E0E92EF12C2FE026
:100D5000C22E22E0D22E3EE0A32E32E0B32EC3E11B
:100D6000D2E080E0882E80E0982E809168019091FA
:100D700069018130910509F4AEC040F082309105DF
:100D800009F4EDC0049709F410C1FBC10E94CC0323
:100D9000B0920101A0920001809169008C7F826075
:100DA00080936900E89A62E080E10E94520365E066
:100DB00081E10E94520381E00E9470038F7B682FC3
:100DC000626081E00E9452038FE00E947003682FEE
:100DD00062688FE00E94520320E030E040E050E083
:100DE0006AE070E08CEE91E00E944C027090670126
:100DF000711060C061E08DE00E94F6000E94E30087
:100E00008430910514F480E090E0BC01990F880BC8
:100E1000990B0E94D5082BE734E14EE450E40E9480
:100E2000150920E030E04AEA52E40E94100987FDEB
:100E300005C081E08093EF01772473948091650170
:100E4000909166018230910561F08330910549F0FF
:100E5000019781F47720C1F0F0926601E09265017C
:100E600013C0711011C080E00E945B0180E00E94FD
:100E7000430106C06AE070E080E090E00E94D40187
:100E8000109266011092650110926901109268013A
:100E900060E08DE00E94F600E898D0930101C093D5
:100EA000000181E00E947003682F6F7B81E00E9447
:100EB000520367C110926701E898D0930101C09373
:100EC0000001E998D0930301C093020110936901D6
:100ED0000093680156C1109267012FB7F894809172
:100EE0006B0190916C01A0916D01B0916E012FBFCB
:100EF0008093610190936201A0936301B0936401B8
:100F00000E94E3008430910514F480E090E0BC017D
:100F1000990F880B990B0E94D5082BE734E14EE41A
:100F200050E40E94150920E030E04AEA52E40E94B1
:100F3000100987FD2DC181E08093EF01F0926901D6
:100F4000E092680161E08DE00E94F600D09203011A
:100F5000C092020181E090E00E94160212C18091CD
:100F60006701882309F40DC1E998D0930301C09368
:100F70000201109267012FB7F89480916B01909154
:100F80006C01A0916D01B0916E012FBF80935D0146
:100F900090935E01A0935F01B093600184E090E0C4
:100FA0009093690180936801ECC00E94E300843053
:100FB000910514F480E090E0BC01990F880B990B27
:100FC0000E94D5082BE734E14EE450E40E94150955
:100FD00020E030E04AEA52E40E94100987FDC1C0D7
:100FE00081E08093EF0180915D0190915E01A0917D
:100FF0005F01B09160014091610150916201609187
:10100000630170916401841B950BA60BB70B8134AF
:101010002FE19207A105B10558F080E00E945B0125
:1010200080E00E944301109266011092650199C010
:10103000813D9740A105B10508F493C083E090E09D
:1010400090936601809365018091EC01882351F0B3
:1010500068E873E180E090E00E94D40180E00E94A3
:101060005B017FC061E081E10E94F6008FB7F894D8
:1010700040906B0150906C0160906D0170906E011A
:101080008FBF0E94E3008430910514F480E090E06B
:10109000BC01990F880B990B0E94D5082BE734E10E
:1010A0004EE450E40E94150920E030E04AEA52E4A0
:1010B0000E94100987FD06C081E08093EF01332470
:1010C000339401C0312C80E090E0DC012224239491
:1010D0003320D1F180369A4EA105B105A8F50E94C2
:1010E000E3008430910514F480E090E0BC01990F96
:1010F000880B990B0E94D5082BE734E14EE450E4AD
:101100000E94150920E030E04AEA52E40E941009EA
:1011100087FD03C02092EF0101C0312C62E370E033
:1011200080E090E00E94D4012FB7F89480916B0189
:1011300090916C01A0916D01B0916E012FBF841947
:101140009509A609B709C4CF68E873E180E090E08B
:101150000E94D40180E00E945B0160E081E10E9476
:10116000F60060E08DE00E94F600D0920301C0928C
:10117000020180E090E00E94160210926901109234
:1011800068018114910409F4F0CD0E940000E9CDBA
:1011900081E00E945B0181E00E944301109366019F
:1011A00000936501CBCEE89409C097FB3EF490957F
:1011B0008095709561957F4F8F4F9F4F9923A9F030
:1011C000F92F96E9BB279395F695879577956795BF
:1011D000B795F111F8CFFAF4BB0F11F460FF1BC003
:1011E0006F5F7F4F8F4F9F4F16C0882311F096E996
:1011F00011C0772321F09EE8872F762F05C0662344
:1012000071F096E8862F70E060E02AF09A95660FFC
:10121000771F881FDAF7880F9695879597F90895B5
:101220000E94820908F48FEF08950E9428090C9407
:10123000BD090E94AF0938F00E94B60920F095233D
:1012400011F00C94A6090C94AC0911240C94F1092A
:101250000E94CE0970F3959FC1F3950F50E0551F82
:10126000629FF001729FBB27F00DB11D639FAA27FB
:10127000F00DB11DAA1F649F6627B00DA11D661F4A
:10128000829F2227B00DA11D621F739FB00DA11D6B
:10129000621F839FA00D611D221F749F3327A00D25
:1012A000611D231F849F600D211D822F762F6A2FC1
:1012B00011249F5750409AF0F1F088234AF0EE0F26
:1012C000FF1FBB1F661F771F881F91505040A9F753
:1012D0009E3F510580F00C94A6090C94F1095F3FE4
:1012E000E4F3983ED4F3869577956795B795F7958F
:1012F000E7959F5FC1F7FE2B880F911D9695879507
:1013000097F90895990F0008550FAA0BE0E8FEEF32
:1013100016161706E807F907C0F012161306E407B9
:10132000F50798F0621B730B840B950B39F40A26B2
:1013300061F0232B242B252B21F408950A2609F490
:10134000A140A6958FEF811D811D089597F99F6794
:1013500080E870E060E008959FEF80EC089500243D
:101360000A941616170618060906089500240A940A
:1013700012161306140605060895092E0394000C90
:1013800011F4882352F0BB0F40F4BF2B11F460FF1F
:1013900004C06F5F7F4F8F4F9F4F089557FD905848
:1013A000440F551F59F05F3F71F04795880F97FB29
:1013B000991F61F09F3F79F08795089512161306E3
:1013C0001406551FF2CF4695F1DF08C01616170612
:1013D0001806991FF1CF8695710561050894089547
:1013E000E894BB2766277727CB0197F90895EE0F7E
:1013F000FF1F0590F491E02D099481E090E0F894AE
:081400000C94020AF894FFCFDE
:1014080013021302000000002303F6026D03CA0250
:06141800EE02DA02CB0235
:00000001FF
