:100000000C9462000C9470060C9449060C948A00BF
:100010000C948A000C948A000C944E070C948A006D
:100020000C948A000C948A000C948A000C948A0028
:100030000C948A000C948A000C948A000C948A0018
:100040000C94DF080C948A000C94D2060C94AC0635
:100050000C948A000C948A000C948A000C948A00F8
:100060000C94B1070C948A000000000023002600C5
:10007000290000000000240027002A0000000000E2
:10008000250028002B0004040404040404040202D4
:100090000202020203030303030301020408102007
:1000A0004080010204081020010204081020000012
:1000B0000008000201000003040700000000000027
:1000C0000000450D11241FBECFEFD8E0DEBFCDBF2D
:1000D00023E0AEE2B2E001C01D92A43CB207E1F71A
:1000E00012E0A0E0B1E0E0ECF2E202C005900D9277
:1000F000AE32B107D9F710E0C2E6D0E004C02197D4
:10010000FE010E94530FC136D107C9F70E94290989
:100110000C945E110C9400003FB7F894809141025A
:1001200090914202A0914302B091440226B5A89B4F
:1001300005C02F3F19F00196A11DB11D3FBFBA2F79
:10014000A92F982F8827820F911DA11DB11DBC01D9
:10015000CD0143E0660F771F881F991F4A95D1F79D
:1001600008952FB7F89460913D0270913E028091FE
:100170003F02909140022FBF0895CF93DF93BC01BF
:1001800086EB92E00E949706EC0160ED71E086EB51
:1001900092E00E9497068C0F9D1FDF91CF910895EA
:1001A0000F931F930E94B1006093BE027093BF0231
:1001B0008093C0029093C10286EB92E00E947D047E
:1001C00097FF1FC00E94B1000091BE021091BF02B4
:1001D0002091C0023091C102DC01CB01801B910B48
:1001E000A20BB30B0091BA021091BB022091BC028A
:1001F0003091BD0280179107A207B307E8F28FEF95
:100200009FEF1F910F9108950C949706282F30911E
:10021000B502313208F04AC0809191028111FCCFC1
:100220009091B40242E040939102209390022FEF0C
:1002300020938F0210928E0230938D02E4E9F2E057
:10024000ADE6B2E020E0321721F041914D932F5FEF
:10025000FACF10926C0220916C02990F922B90931E
:100260006C0290916B02913061F410926B0290914C
:100270006C029093BB009091BC0093FDF8CF95EC7D
:1002800001C095EE9093BC00909191029230E1F301
:1002900090918F029F3F79F080918F02803241F0E0
:1002A00080918F02803331F084E005C081E003C08B
:1002B00082E001C083E0109293021092B502109286
:1002C0009202089540E062E00E9431078CE99FE0CD
:1002D0000197F1F70895CF93DF93CDB7DEB7289755
:1002E0000FB6F894DEBF0FBECDBF9C0188E0ECE0F6
:1002F000F1E0DE01119601900D928A95E1F7F90186
:100300008185811102C09FEF01C091E0FE0131960D
:10031000E90FF11DE90FF11D6081606840E0C9013E
:1003200028960FB6F894DEBF0FBECDBFDF91CF91F8
:100330000C94310728E0FC01238760E00C9404074B
:10034000FC01138660E00C94040740E061E00E9429
:1003500031078CE99FE00197F1F7089587E48093D6
:100360007C0080917A00806480937A0080917A008A
:1003700086FDFCCF809178002091790090E0922B4F
:100380000895CF93DF93EB0191E09093920298E66A
:100390009093B402109293021092B502682F83E5F5
:1003A00093E00E94DD05688183E593E00E94DD050E
:1003B00081E0DF91CF910C940601CF93DF93EC01A4
:1003C00081E08093920288E68093B40210929302B7
:1003D0001092B50283E593E00E94DD0581E00E9462
:1003E0000601809191028111FCCF81E080939102FE
:1003F000809390029FEF90938F0210928E02109242
:100400008D0280936C0280916C02806D80936C02EF
:1004100080916B02813061F410926B0280916C02CA
:100420008093BB008091BC0083FDF8CF85EC01C0B8
:1004300085EE8093BC00809191028130E1F3809140
:100440008E02811103C090918E0201C091E0ADE651
:10045000B2E0EBE4F2E080E0891721F02D912193E6
:100460008F5FFACF10924A028093490283E593E0AE
:100470000E9494058883DF91CF910895833081F0A5
:1004800028F4813099F08230A1F008958730A9F0E6
:100490008830B9F08430D1F4809180008F7D03C022
:1004A000809180008F7780938000089584B58F7746
:1004B00002C084B58F7D84BD08958091B0008F7790
:1004C00003C08091B0008F7D8093B00008951F938A
:1004D000CF93DF93282F30E0F901E255FF4F84914D
:1004E000F901E656FF4FD491F901EA57FF4FC49145
:1004F000CC23C1F0162F81110E943E02EC2FF0E0B8
:10050000EE0FFF1FE458FF4FA591B4919FB7F894E9
:10051000111104C08C91D095D82302C0EC91DE2B30
:10052000DC939FBFDF91CF911F91089590915F035E
:10053000992319F0882379F006C0882341F061E0FF
:1005400080E10E94670281E080936003089560E08B
:1005500080E10E94670210926003089510924A029F
:1005600010924902109293021092B50210929102D9
:1005700081E08093900210926B0261E082E10E9420
:10058000670261E083E10E946702E9EBF0E08081AD
:100590008E7F808380818D7F808380E28093B8000E
:1005A00085E48093BC0082E895E0909348028093B4
:1005B000470283E895E090934602809345020895B0
:1005C000CF93DF9390E0FC01E656FF4F2491FC01AE
:1005D000EA57FF4F8491882361F190E0880F991FBB
:1005E000FC01EE58FF4FC591D491FC01E458FF4F38
:1005F000A591B491611109C09FB7F89488812095A5
:1006000082238883EC912E230BC0623061F49FB764
:10061000F8948881322F309583238883EC912E2B98
:100620002C939FBF06C08FB7F894E8812E2B2883A8
:100630008FBFDF91CF9108958F929F92AF92BF921B
:10064000CF92DF92EF92FF926B017C010E948C00AF
:100650004B015C01C114D104E104F104F1F00E94EA
:100660008C00DC01CB0188199909AA09BB09883ED5
:100670009340A105B10570F321E0C21AD108E10849
:10068000F10888EE880E83E0981EA11CB11CC114ED
:10069000D104E104F10419F7DDCFFF90EF90DF9072
:1006A000CF90BF90AF909F908F900895CF92DF92A0
:1006B000EF92FF92CF93DF9380915F03882379F0CD
:1006C00068E873E180E090E00E941C0380E0DF9125
:1006D000CF91FF90EF90DF90CF900C94960261E065
:1006E00081E10E9467020E94B1006B017C010E94BF
:1006F000AE018430910514F480E090E0BC01990FC4
:10070000880B990B0E94FA0D2BE734E14EE450E47C
:100710000E94590E20E030E04AEA52E40E944E0F57
:1007200087FD05C081E080936203C1E001C0C0E0A5
:1007300080E090E0DC01D1E0CC2399F18033954753
:10074000A105B10570F50E94AE018430910514F445
:1007500080E090E0BC01990F880B990B0E94FA0D84
:100760002BE734E14EE450E40E94590E20E030E0E3
:100770004AEA52E40E944E0F87FD03C0D093620301
:1007800001C0C0E062E370E080E090E00E941C03E2
:100790000E94B100DC01CB018C199D09AE09BF0993
:1007A000CBCF68E873E180E090E00E941C0380E01A
:1007B0000E94960260E081E1DF91CF91FF90EF907F
:1007C000DF90CF900C9467020F931F93CF93DF932A
:1007D000EC010E94AE021D828985823010F098E003
:1007E0009D839A85992329F0813019F48D81846045
:1007F0008D8362E370E080E090E00E941C036B85D3
:10080000CE010E94040768EE73E080E090E00E9451
:100810001C0360E3CE010E94180704E213E2C80142
:100820000197F1F760E3CE010E941807C801019714
:10083000F1F760E3CE010E94180788E291E001978A
:10084000F1F760E2CE010E9418076D81606240E01E
:10085000CE010E94310784E08E8340E06CE0CE013F
:100860000E943107CE010E94A50182E08F8340E003
:1008700066E0CE010E943107CE01DF91CF911F913A
:100880000F910C9462010895CF92DF92EF92FF9244
:100890000F931F93CF93DF936C017A018B01C0E01C
:1008A000D0E0CE15DF0581F0D8016D918D01D60124
:1008B000ED91FC910190F081E02DC6010995892B05
:1008C00011F02196EECF7E01C701DF91CF911F91EC
:1008D0000F91FF90EF90DF90CF900895FC01538D22
:1008E000448D252F30E0842F90E0821B930B54170A
:1008F00010F0CF96089501970895FC01918D828D97
:10090000981761F0828DDF01A80FB11D5D968C9163
:10091000928D9F5F9F73928F90E008958FEF9FEF6E
:100920000895FC01918D828D981731F0828DE80F2A
:10093000F11D858D90E008958FEF9FEF0895FC01E4
:10094000918D228D892F90E0805C9F4F821B9109B1
:100950008F739927089586EB92E00E949F0421E00F
:10096000892B09F420E0822F0895FC01848DDF019A
:10097000A80FB11DA35ABF4F2C91848D90E0019612
:100980008F739927848FA689B7892C93A089B18901
:100990008C91837080648C93938D848D981306C0A2
:1009A0000288F389E02D80818F7D80830895EF9206
:1009B000FF920F931F93CF93DF93EC0181E0888F19
:1009C0009B8D8C8D981305C0E889F989808185FD00
:1009D00026C0F62E0B8D10E00F5F1F4F0F731127EF
:1009E000E02E8C8DE8120CC00FB607FCFACFE88918
:1009F000F989808185FFF5CFCE010E94B504F1CF42
:100A00008B8DFE01E80FF11DE35AFF4FF0829FB777
:100A1000F8940B8FEA89FB89808180620AC09FB7B6
:100A2000F894EE89FF896083E889F9898081837071
:100A3000806480839FBF81E090E0DF91CF911F9120
:100A40000F91FF90EF900895CF93DF93EC01888D85
:100A50008823C9F0EA89FB89808185FD05C0A889C2
:100A6000B9898C9186FD0FC00FB607FCF5CF808148
:100A700085FFF2CFA889B9898C9185FFEDCFCE0192
:100A80000E94B504E7CFDF91CF91089580E090E018
:100A9000892B29F00E94AB0481110C940000089569
:100AA00085ED8093BC008091BC0084FDFCCF10924A
:100AB0009102089540919C03262F30E0240F311DB0
:100AC00021323105DCF4209191022430C9F4FC017B
:100AD00080E090E0861758F430919C032191DC016E
:100AE000A458BC4FA30FB11D2C930196F3CF809156
:100AF0009C03680F60939C0380E0089581E0089553
:100B000082E00895089508950895E0914A02809141
:100B10004902E81730F4F0E0E55BFD4F808190E09A
:100B200008958FEF9FEF089590914A0280914902B6
:100B3000981750F4E92FF0E0E55BFD4F208130E09D
:100B40009F5F90934A0202C02FEF3FEFC9010895C3
:100B50008091490290E020914A02821B91090895F8
:100B6000CF92DF92EF92FF920F931F93CF93DF9379
:100B70007C01CB018A0120919202222389F0EB01B2
:100B80006B01C40ED51ECC15DD0569F06991D70146
:100B9000ED91FC910190F081E02DC7010995F3CF13
:100BA000642F0E945A05C801DF91CF911F910F91C8
:100BB000FF90EF90DF90CF900895CF93DF931F9237
:100BC000CDB7DEB76983209192022223D1F0209124
:100BD000B502203240F021E030E0FC013383228373
:100BE00080E090E015C080919302E82FF0E0EC5691
:100BF000FD4F998190838F5F809393028093B5021C
:100C000005C061E0CE0101960E945A0581E090E0A6
:100C10000F90DF91CF910895089580E090E00895BE
:100C200081E080932E0208950E9440110F931F933C
:100C3000CF93DF93EC0188819981009729F02A8175
:100C40003B812617370788F48B016F5F7F4F0E9427
:100C50007A10009761F0998388831B830A832C8123
:100C60003D81232B11F4FC01108281E001C080E062
:100C7000DF91CF911F910F910895E9E6F0E0208177
:100C8000237F880F991F880F991F822B8083E99AF1
:100C900008951F920F920FB60F9211242F933F9336
:100CA0004F935F936F937F938F939F93AF93BF9374
:100CB000EF93FF93E0910201F09103010995FF91F9
:100CC000EF91BF91AF919F918F917F916F915F91C4
:100CD0004F913F912F910F900FBE0F901F9018953D
:100CE0001F920F920FB60F9211242F933F934F93A1
:100CF0005F936F937F938F939F93AF93BF93EF9384
:100D0000FF93E0910001F09101010995FF91EF91AE
:100D1000BF91AF919F918F917F916F915F914F9113
:100D20003F912F910F900FBE0F901F901895611556
:100D3000710579F0FB0101900020E9F73197AF01CF
:100D4000461B570BDC01ED91FC910280F381E02DF5
:100D5000099480E090E008951F920F920FB60F92D1
:100D600011242F933F934F935F936F937F938F93B0
:100D70009F93AF93BF93EF93FF9386EB92E00E9414
:100D8000B504FF91EF91BF91AF919F918F917F91AA
:100D90006F915F914F913F912F910F900FBE0F90E8
:100DA0001F9018951F920F920FB60F9211242F9338
:100DB0008F939F93EF93FF93E091C602F091C70248
:100DC0008081E091CC02F091CD0282FD12C0908131
:100DD0008091CF028F5F8F732091D002821751F0E4
:100DE000E091CF02F0E0EA54FD4F958F8093CF025F
:100DF00001C08081FF91EF919F918F912F910F9072
:100E00000FBE0F901F901895FC01248131E03093A4
:100E100092022093B402109293021092B50283853D
:100E2000682B83E593E00E94DD0581E00C940601C8
:100E30000F931F93CF938C01C62F0E9404076C2F32
:100E40006460C8010E9404076C2F6B7FC8010E9478
:100E5000040780E690E00197F1F7CF911F910F9181
:100E600008950F931F93CF93DF938C01C62FD42F38
:100E7000607F642B0E94180780E1C89FB001112495
:100E80006D2BC801DF91CF911F910F910C94180722
:100E900041E00E94310781E090E008951F920F9297
:100EA0000FB60F9211248F930FB6F894A8958091E6
:100EB0006000886180936000109260000FBE8F9187
:100EC0000F900FBE0F901F9018954115510529F4F2
:100ED000EAE7F0E080818F7780836A307105A9F0BE
:100EE00063FD02C088E001C088E26770682B88E17A
:100EF0000FB6F894A895809360000FBE60936000D1
:100F0000E0E6F0E0808180648083232BA1F483B746
:100F1000817F846083BFF89483B7816083BF85B786
:100F2000806685BF8F7D85BF7894889583B78E7FD7
:100F300083BF78940EC083B7817F846083BFF894A9
:100F400083B7816083BF7894889583B78E7F83BF92
:100F50007894452B29F4EAE7F0E08081806880836B
:100F600008951F920F920FB60F9211242F933F9363
:100F70004F935F936F937F938F939F93AF93BF93A1
:100F8000EF93FF938091B900887F803609F49CC06D
:100F900068F5883209F45BC090F4803109F454C0DC
:100FA00038F4882309F4F6C0883009F44DC0F6C03F
:100FB000883109F44CC0803209F45DC0EFC0803440
:100FC00009F468C048F4803309F455C0883309F047
:100FD000E5C080938F02D8C0803509F44FC08835B2
:100FE00009F45DC0883409F0D9C0D6C0883909F445
:100FF000C7C0A8F4883709F467C038F4883609F404
:1010000063C0803709F460C0C9C0883809F4B8C02B
:10101000803909F45FC0803809F0C0C05BC0803BF4
:1010200009F486C038F4803A09F466C0883A09F4B5
:101030007FC0B4C0803C09F4A7C0883C09F4A4C0B8
:10104000883B09F48AC0AAC080916C0210C09091BC
:101050008E0280918D02981770F5E0918E0281E0EA
:101060008E0F80938E02F0E0E359FD4F80818093D4
:10107000BB0085EC86C080938F028EC0E0918E020B
:1010800081E08E0F80938E028091BB00F0E0E359E7
:10109000FD4F808390918E0280918D026EC0E09111
:1010A0008E0281E08E0F80938E028091BB00F0E073
:1010B000E359FD4F80838091900281116DC081E0E2
:1010C00080936B0284EA61C083E080939102109266
:1010D000BE03CFCF8091BE03803208F051C0E091B3
:1010E000BE0381E08E0F8093BE038091BB00F0E0D1
:1010F000E256FC4F8083BDCF85EC8093BC001092FC
:1011000091028091BE03803230F4E091BE03F0E0A2
:10111000E256FC4F10826091BE0370E0E091450200
:10112000F09146028EE993E009951092BE0336C015
:1011300084E08093910210929D0310929C03E091B1
:101140004702F0914802099580919C03811105C0E6
:1011500081E080939C0310927C03E0919D0381E0E9
:101160008E0F80939D03F0E0E458FC4F80818093C4
:10117000BB0090919D0380919C03981708F479CF50
:1011800085E88093BC000AC085EC8093BC00109277
:10119000910204C010928F020E945005FF91EF91BE
:1011A000BF91AF919F918F917F916F915F914F917F
:1011B0003F912F910F900FBE0F901F9018951F9287
:1011C0000F920FB60F9211242F933F938F939F93FB
:1011D000AF93BF9380913D0290913E02A0913F0258
:1011E000B09140023091BF0326E0230F2D3720F449
:1011F0000296A11DB11D05C029E8230F0396A11D6C
:10120000B11D2093BF0380933D0290933E02A093B3
:101210003F02B09340028091410290914202A0911E
:101220004302B09144020196A11DB11D8093410279
:1012300090934202A0934302B0934402BF91AF91B6
:101240009F918F913F912F910F900FBE0F901F9004
:101250001895CF93DF93CDB7DEB72D970FB6F894DF
:10126000DEBF0FBECDBF789484B5826084BD84B5E7
:10127000816084BD85B5826085BD85B5816085BD91
:1012800080916E00816080936E0010928100809149
:1012900081008260809381008091810081608093D1
:1012A0008100809180008160809380008091B100F6
:1012B00084608093B1008091B00081608093B00021
:1012C00080917A00846080937A0080917A008260B5
:1012D00080937A0080917A008E7F80937A0080914B
:1012E0007A00806880937A001092C10061E08DE0FE
:1012F0000E94E00260E08DE00E946702E091C60279
:10130000F091C70282E08083E091C202F091C302B3
:101310001082E091C402F091C50288E080831092AF
:10132000CE02E091CA02F091CB0286E08083E09188
:10133000C802F091C902808180618083E091C80277
:10134000F091C902808188608083E091C802F091A9
:10135000C902808180688083E091C802F091C9024F
:1013600080818F7D808388EE93E0A0E0B0E0809361
:10137000BA029093BB02A093BC02B093BD0284E476
:1013800091E00E94BD0080915F03882309F1809164
:10139000600391E090936203882309F43AC011E05E
:1013A0001093620383E591E00E94BD0084E090E029
:1013B000909305018093040181E00E949602809140
:1013C0005F0381111FC061E084E00E9467021AC0C0
:1013D000E5EBF0E08491E1EAF0E00491EDE8F0E083
:1013E00014911123B1F081110E943E02E12FF0E02F
:1013F000EE0FFF1FE859FF4FA591B491EC91E02348
:1014000041F0CDCF1093610382E691E00E94BD00D0
:1014100020C080E00E94960280915F03811104C089
:1014200060E084E00E9467021092610388E691E028
:101430000E94BD0080E793E00E94E40384E693E00D
:101440000E94E4038091040190910501019709F441
:10145000CFC280E196E0909303018093020180E087
:1014600090E00E943D060E94AE0262E0CE0101962D
:101470000E94DD0189818F3FB9F188E58D87BE012A
:10148000635F7F4F80E00E94C1016FE0CE01019653
:101490000E94DD01898188638C87BE01645F7F4F74
:1014A0008FE00E94C1011B86BE01655F7F4F82E015
:1014B0000E94C10160E0CE0101960E94DD011A8602
:1014C000BE01665F7F4F81E00E94C10160E0CE01F6
:1014D00001960E94DD01898180688987BE01675F6E
:1014E0007F4F80E00E94C10183E0E82EF12C94E060
:1014F000C92ED12C20E1A22E26E0B22E33E4832E79
:1015000034E0932E81EB90E02C01990F6608770868
:1015100045E0242E312C80913B0290913C02813099
:10152000910531F140F08230910509F491C00497A2
:1015300009F4A9C04BC120E030E040E050E06AE08F
:1015400070E08FE593E00E94650780912E0288236A
:1015500009F43CC110922E02E99890920301809206
:10156000020181E090E090933C0280933B022EC107
:1015700010922E020E94B1006093370270933802DD
:101580008093390290933A020E94AE018430910513
:1015900014F480E090E0BC01990F880B990B0E9435
:1015A000FA0D2BE734E14EE450E40E94590E20E09E
:1015B00030E04AEA52E40E944E0F87FD04C081E009
:1015C0008093620332C080E793E00E949A0180E733
:1015D00093E00E94620161E272E080E793E00E9482
:1015E000040184E693E00E949A0184E693E00E945D
:1015F000620161E272E084E693E00E940401F092ED
:101600000501E092040181E00E94960280915F034F
:10161000811104C061E084E00E94670281E0809350
:101620006103D0920501C092040182E090E09093A2
:101630003C0280933B0261E08DE00E946702B09221
:101640000301A092020181E090E00E943D06BEC02D
:1016500080912E02882309F4B9C0E9989092030181
:101660008092020110922E020E94B1006093330218
:10167000709334028093350290933602D0923C02EC
:10168000C0923B02A3C00E94AE018430910514F4C5
:1016900080E090E0BC01990F880B990B0E94FA0D35
:1016A0002BE734E14EE450E40E94590E20E030E094
:1016B0004AEA52E40E944E0F87FD78C081E0809391
:1016C00062038091330290913402A0913502B0916F
:1016D0003602409137025091380260913902709180
:1016E0003A02841B950BA60BB70B813127E29207B8
:1016F000A105B10590F181E991E00E94BD0080E76C
:1017000093E00E94620160EA71E080E793E00E944A
:10171000040184E693E00E94620160EA71E084E6DD
:1017200093E00E94040186E090E09093050180938D
:10173000040160ED77E080E090E00E941C0380E00F
:101740000E94960280915F03811104C060E084E0F2
:101750000E9467021092610315C0893C9105A105A2
:10176000B10520F181EB91E00E94BD0087EC91E092
:101770000E94BD0060ED77E080E090E00E941C03D5
:101780000E94560380E793E00E94A50180E793E062
:101790000E94A00184E693E00E94A50184E693E004
:1017A0000E94A001109205011092040160E08DE0FA
:1017B0000E946702B0920301A092020180E090E0D3
:1017C0000E943D0610923C0210923B0286EB92E092
:1017D0000E949F04181619060CF06FC00E94B100F9
:1017E00060932F0270933002809331029093320203
:1017F0001A8219821C821B821E821D8260E070E0A8
:10180000CE0101960E94160629813A8181110DC0F0
:101810002115310519F0C9010E94F10F1A821982B0
:101820001E821D821C821B8207C01E821D8262EDE9
:1018300071E0C9010E9457110E94D00097FD1BC0A2
:101840008F8318860D811E810F5F1F4FB801CE0157
:1018500001960E941606882379F329813A818D81A9
:101860009E81BE01695F7F4F820F931F0E945711B7
:101870001E830D83E1CF4D815E8169817A8186EB84
:1018800092E00E94440460ED71E086EB92E00E94D9
:1018900097068D819E81892B61F063ED71E08981CE
:1018A0009A810E944E11892B21F483ED91E00E94D0
:1018B000BD0089819A810E94F10F0E94B1000091C0
:1018C0002F02109130022091310230913202DC015E
:1018D000CB01801B910BA20BB30B81369A4EA10555
:1018E000B10508F482C086ED91E00E94BD008091B0
:1018F000040190910501049761F580E793E00E944F
:10190000620163E072E080E793E00E94040180E7F7
:1019100093E00E946B0162E172E080E793E00E9435
:10192000040184E693E00E94620163E072E084E6D1
:1019300093E00E94040184E693E00E946B0162E15F
:1019400072E084E693E00E94040130920501209247
:1019500004010E94560368EE73E080E090E00E946C
:101960001C0380E793E00E949A0180E793E00E94C5
:10197000620161E272E080E793E00E94040184E684
:1019800093E00E949A0184E693E00E94620161E282
:1019900072E084E693E00E940401F0920501E09277
:1019A000040181E00E94960280915F03811104C0CE
:1019B00061E084E00E94670281E08093610368E84F
:1019C00073E180E090E00E941C0340923702509245
:1019D00038026092390270923A0240923302509279
:1019E000340260923502709236020E94460593CD11
:1019F00080E793E00E949A0164E771E080E793E05A
:101A00000E94040180E793E00E946B0163E871E0AB
:101A100080E793E00E94040184E693E00E949A012B
:101A200064E771E084E693E00E94040184E693E0B9
:101A30000E946B0163E871E084E693E00E94040178
:101A400082E090E0909305018093040168E873E1DF
:101A500080E090E00E941C0380912E028111F9CC5D
:101A600080E793E00E94A50180E793E00E94A00137
:101A700084E693E00E94A50184E693E00E94A00121
:101A80001092050110920401E4CC1092B902109258
:101A9000B80288EE93E0A0E0B0E08093BA029093A1
:101AA000BB02A093BC02B093BD0228E131E03093A9
:101AB000B7022093B60225EC30E03093C3022093A6
:101AC000C20224EC30E03093C5022093C40220EC23
:101AD00030E03093C7022093C60221EC30E030930F
:101AE000C9022093C80222EC30E03093CB0220934D
:101AF000CA0226EC30E03093CD022093CC02109243
:101B0000CF021092D0021092D1021092D202109203
:101B10005603109255038093570390935803A09354
:101B20005903B0935A038AE291E09093540380934F
:101B3000530310925F03109263031092620310929A
:101B400060031092610361E080E10E94E00280E0A6
:101B50000E94960261E084E00E94E00280915F03AF
:101B6000811104C060E084E00E946702109261036A
:101B700061E081E10E94E00260E081E10E94670291
:101B800060E087E00E94E00260E083E00E94E00203
:101B900060E082E00E94E0021092730310927203F0
:101BA0004CE351E050937103409370038FE38093B3
:101BB000740320E12093780392E0909379031092CC
:101BC0007A0388E080937B03109267031092660388
:101BD000509365034093640337E230936803209386
:101BE0006C0390936D0310926E0380936F030895BE
:101BF000E89409C097FB3EF49095809570956195A7
:101C00007F4F8F4F9F4F9923A9F0F92F96E9BB275C
:101C10009395F695879577956795B795F111F8CFD8
:101C2000FAF4BB0F11F460FF1BC06F5F7F4F8F4F43
:101C30009F4F16C0882311F096E911C0772321F039
:101C40009EE8872F762F05C0662371F096E8862FD1
:101C500070E060E02AF09A95660F771F881FDAF728
:101C6000880F9695879597F90895990F0008550F55
:101C7000AA0BE0E8FEEF16161706E807F907C0F012
:101C800012161306E407F50798F0621B730B840B1A
:101C9000950B39F40A2661F0232B242B252B21F4F4
:101CA00008950A2609F4A140A6958FEF811D811D94
:101CB00008950E946C0E0C94DD0E0E94CF0E38F039
:101CC0000E94D60E20F0952311F00C94C60E0C94B1
:101CD000CC0E11240C94110F0E94EE0E70F3959F00
:101CE000C1F3950F50E0551F629FF001729FBB2713
:101CF000F00DB11D639FAA27F00DB11DAA1F649FAF
:101D00006627B00DA11D661F829F2227B00DA11D61
:101D1000621F739FB00DA11D621F839FA00D611DE7
:101D2000221F749F3327A00D611D231F849F600D08
:101D3000211D822F762F6A2F11249F5750409AF031
:101D4000F1F088234AF0EE0FFF1FBB1F661F771FBD
:101D5000881F91505040A9F79E3F510580F00C9488
:101D6000C60E0C94110F5F3FE4F3983ED4F38695B2
:101D700077956795B795F795E7959F5FC1F7FE2B28
:101D8000880F911D9695879597F9089597F99F6704
:101D900080E870E060E008959FEF80EC08950024F3
:101DA0000A941616170618060906089500240A94C0
:101DB00012161306140605060895092E0394000C46
:101DC00011F4882352F0BB0F40F4BF2B11F460FFD5
:101DD00004C06F5F7F4F8F4F9F4F089557FD9058FE
:101DE000440F551F59F05F3F71F04795880F97FBDF
:101DF000991F61F09F3F79F0879508951216130699
:101E00001406551FF2CF4695F1DF08C016161706C7
:101E10001806991FF1CF86957105610508940895FC
:101E2000E894BB2766277727CB0197F908952F926F
:101E30003F924F925F926F927F928F929F92AF925A
:101E4000BF92CF92DF92EF92FF920F931F93CF93A7
:101E5000DF93CDB7DEB7CA1BDB0B0FB6F894DEBF3E
:101E60000FBECDBF09942A88398848885F846E8464
:101E70007D848C849B84AA84B984C884DF80EE80AE
:101E8000FD800C811B81AA81B981CE0FD11D0FB6B7
:101E9000F894DEBF0FBECDBFED0108950E94350E50
:101EA00008F48FEF0895EE0FFF1F0590F491E02DD9
:101EB00009940F931F93CF93DF938230910510F411
:101EC00082E090E0E091C203F091C30320E030E0B3
:101ED000A0E0B0E0309719F1408151810281138177
:101EE00048175907C8F08417950769F4109731F01F
:101EF00012960C93129713961C9327C00093C2035B
:101F00001093C30322C02115310519F0421753075E
:101F100018F49A01BD01EF01DF01F801DBCF2115B3
:101F20003105F9F0281B390B2430310580F48A8102
:101F30009B816115710521F0FB019383828304C0AD
:101F40009093C3038093C203FE01329644C0FE0106
:101F5000E20FF31F81939193225031093983288333
:101F60003AC02091C0033091C103232B41F420914A
:101F70000801309109013093C1032093C0032091DF
:101F80000601309107012115310541F42DB73EB707
:101F900040910A0150910B01241B350BE091C003C5
:101FA000F091C103E217F307A0F42E1B3F0B281793
:101FB000390778F0AC014E5F5F4F2417350748F0C2
:101FC0004E0F5F1F5093C1034093C00381939193C1
:101FD00002C0E0E0F0E0CF01DF91CF911F910F91BF
:101FE0000895CF93DF93009709F481C0FC013297E5
:101FF00013821282A091C203B091C303109781F49F
:1020000020813181820F931F2091C0033091C10341
:102010002817390751F5F093C103E093C00367C057
:10202000ED0120E030E0CE17DF0740F44A815B810C
:102030009E0141155105F1F0EA01F5CFD383C2832A
:1020400040815181840F951FC817D90759F48881A1
:102050009981840F951F0296918380838A819B8149
:10206000938382832115310529F4F093C303E09310
:10207000C2033DC0E901FB83EA8349915991C40F32
:10208000D51FEC17FD0761F480819181840F951FA6
:102090000296E90199838883828193819B838A8355
:1020A000E0E0F0E012968D919C911397009719F063
:1020B000FD01DC01F7CF8D919C9111979D012E5F61
:1020C0003F4F820F931F2091C0033091C103281707
:1020D000390769F4309729F41092C3031092C203B0
:1020E00002C013821282B093C103A093C003DF9198
:1020F000CF910895A0E0B0E0E0E8F0E10C941B0F70
:10210000EC01009721F4CB010E94590FB4C0FC01EF
:10211000E60FF71F9C0122503109E217F30708F47C
:10212000A8C0D9010D911C91119706171707B0F09F
:102130000530110508F49BC0C8010497861797075E
:1021400008F495C002501109061B170B0193119357
:102150006D937C93CF010E94F10F89C05B01A01A9F
:10216000B10A4C01800E911EA091C203B091C3032D
:10217000612C712CE12CF12C109709F446C08D9143
:102180009C911197A815B905B1F56C0142E0C40EF8
:10219000D11CCA14DB0478F14C018A189B08640135
:1021A00042E0C40ED11C1296BC9012971396AC91CB
:1021B000B5E0CB16D10440F0B282A3839182808235
:1021C000D9016D937C9309C00E5F1F4F800F911F43
:1021D000F90191838083EB2DFA2FE114F10431F0A2
:1021E000D7011396FC93EE93129741C0F093C3036B
:1021F000E093C2033CC06816790608F43C017D01F7
:1022000012960D90BC91A02DB7CF8091C0039091F4
:10221000C10388169906E1F466167706C8F4809122
:10222000060190910701009741F48DB79EB7409148
:102230000A0150910B01841B950BE817F907C8F4AC
:10224000F093C103E093C003F901718360830FC071
:10225000CB010E94590F7C01009759F0A801BE01E3
:102260000E944511CE010E94F10FC70104C0CE01AA
:1022700002C080E090E0CDB7DEB7EEE00C94370FFF
:1022800081E090E0F8940C945E11FB01DC0102C047
:1022900001900D9241505040D8F70895FB01DC01A8
:1022A0008D91019080190110D9F3990B0895FB01CC
:1022B000DC0101900D920020E1F70895F894FFCF22
:1022C0004304430401000000C403800000004000F8
:1022D0001400540000000000D70444046E042405D8
:1022E0009F047D04910400000000DD05B0050D068B
:1022F0008405A805940585050000000048074404EE
:102300000D060C067374617274206F662073657419
:102310007570005069207761732072756E6E696EFA
:1023200067004932433D300057656C636F6D65202F
:102330004C434400557365207265617220696E706C
:10234000757400746F20737461727420746F6F6C95
:1023500000666F7263696E67207069206F66660041
:10236000466F7263696E672073687574646F776E09
:102370000072657175657374696E6720612073689A
:102380007574646F776E00706F7765724F66660064
:102390000D0A006F6B006E6F205541525420636F21
:1023A0006D6D7320696E6974204750494F207368C2
:1023B0007574646F776E207468656E207265626FE5
:1023C0006F74004661756C74206465746563746530
:1023D0006400726573657474696E6720746F6F6CE6
:0E23E00000496E697469616C697A696E670004
:00000001FF
