:100000000C945D000C9460060C9439060C948500E9
:100010000C9485000C9485000C943E070C9485008C
:100020000C9485000C9485000C9485000C9485003C
:100030000C9485000C9485000C9485000C9485002C
:100040000C94CF080C9485000C94C2060C949C066A
:100050000C9485000C9485000C9485000C9485000C
:100060000C94A1070C9485000000000024002700D8
:100070002A0000000000250028002B0004040404CE
:100080000404040402020202020203030303030342
:10009000010204081020408001020408102001021F
:1000A00004081020000000080002010000030407FB
:1000B0000000000000000000530D11241FBECFEF10
:1000C000D8E0DEBFCDBF23E0AEE3B2E001C01D92B9
:1000D000A63DB207E1F712E0A0E0B1E0ECEDF2E2FC
:1000E00002C005900D92AE33B107D9F710E0CDE50F
:1000F000D0E004C02197FE010E94610FCC35D107EA
:10010000C9F70E9419090C946C110C9400003FB7B8
:10011000F8948091530290915402A0915502B091AD
:10012000560226B5A89B05C02F3F19F00196A11DC8
:10013000B11D3FBFBA2FA92F982F8827820F911D7D
:10014000A11DB11DBC01CD0143E0660F771F881FC3
:10015000991F4A95D1F708952FB7F89460914F02EF
:100160007091500280915102909152022FBF0895D8
:10017000CF93DF93BC0188EC92E00E948706EC01EC
:100180006FED71E088EC92E00E9487068C0F9D1F56
:10019000DF91CF9108950F931F930E94AC0060935D
:1001A000D0027093D1028093D2029093D30288EC54
:1001B00092E00E946D0497FF1FC00E94AC00009166
:1001C000D0021091D1022091D2023091D302DC01F1
:1001D000CB01801B910BA20BB30B0091CC021091B1
:1001E000CD022091CE023091CF0280179107A20755
:1001F000B307E8F28FEF9FEF1F910F9108950C94D2
:100200008706282F3091C702313208F04AC080910A
:10021000A3028111FCCF9091C60242E04093A30259
:100220002093A2022FEF2093A1021092A0023093FC
:100230009F02E6EAF2E0AFE7B2E020E0321721F0F9
:1002400041914D932F5FFACF10927E0220917E0252
:10025000990F922B90937E0290917D02913061F4E0
:1002600010927D0290917E029093BB009091BC0011
:1002700093FDF8CF95EC01C095EE9093BC00909162
:10028000A3029230E1F39091A1029F3F79F0809117
:10029000A102803241F08091A102803331F084E0EC
:1002A00005C081E003C082E001C083E01092A50296
:1002B0001092C7021092A402089540E062E00E94EA
:1002C00021078CE99FE00197F1F70895CF93DF9321
:1002D000CDB7DEB728970FB6F894DEBF0FBECDBFFF
:1002E0009C0188E0ECE0F1E0DE01119601900D92B6
:1002F0008A95E1F7F9018185811102C09FEF01C064
:1003000091E0FE013196E90FF11DE90FF11D6081C9
:10031000606840E0C90128960FB6F894DEBF0FBEB2
:10032000CDBFDF91CF910C94210728E0FC012387FA
:1003300060E00C94F406FC01138660E00C94F40673
:1003400040E061E00E9421078CE99FE00197F1F70E
:10035000089587E480937C0080917A008064809384
:100360007A0080917A0086FDFCCF80917800209100
:10037000790090E0922B0895CF93DF93EB0191E009
:100380009093A40298E69093C6021092A502109250
:10039000C702682F85E693E00E94CD05688185E657
:1003A00093E00E94CD0581E0DF91CF910C94010193
:1003B000CF93DF93EC0181E08093A40288E68093E1
:1003C000C6021092A5021092C70285E693E00E9431
:1003D000CD0581E00E9401018091A3028111FCCF33
:1003E00081E08093A3028093A2029FEF9093A102E9
:1003F0001092A00210929F0280937E0280917E0252
:10040000806D80937E0280917D02813061F4109234
:100410007D0280917E028093BB008091BC0083FDB1
:10042000F8CF85EC01C085EE8093BC008091A302DB
:100430008130E1F38091A002811103C09091A0026C
:1004400001C091E0AFE7B2E0EDE5F2E080E08917AE
:1004500021F02D9121938F5FFACF10925C0280934F
:100460005B0285E693E00E9484058883DF91CF914B
:10047000089590E0FC01EC55FF4F2491FC01E057FA
:10048000FF4F3491FC01E458FF4FE491EE2309F44F
:100490003CC0222339F1233091F038F42130A9F007
:1004A000223001F584B58F7D12C0273091F02830BD
:1004B000A1F02430B9F4809180008F7D03C0809139
:1004C00080008F77809380000DC084B58F7784BDC6
:1004D00009C08091B0008F7703C08091B0008F7DFC
:1004E0008093B000F0E0EE0FFF1FEE58FF4FA59194
:1004F000B4919FB7F894611104C08C913095382362
:1005000002C0EC913E2B3C939FBF089590917103E4
:10051000992319F0882379F006C0882341F061E01F
:1005200080E10E94390281E080937203089560E0C7
:1005300080E10E94390210927203089510925C02C9
:1005400010925B021092A5021092C7021092A302B1
:1005500081E08093A20210927D0261E082E10E941C
:10056000390261E083E10E943902E9EBF0E0808129
:100570008E7F808380818D7F808380E28093B8002E
:1005800085E48093BC0082E795E090935A028093C3
:10059000590283E795E0909358028093570208959B
:1005A000CF93DF9390E0FC01E057FF4F2491FC01D3
:1005B000E458FF4F8491882361F190E0880F991FE0
:1005C000FC01E859FF4FC591D491FC01EE58FF4F53
:1005D000A591B491611109C09FB7F89488812095C5
:1005E00082238883EC912E230BC0623061F49FB785
:1005F000F8948881322F309583238883EC912E2BB9
:100600002C939FBF06C08FB7F894E8812E2B2883C8
:100610008FBFDF91CF9108958F929F92AF92BF923B
:10062000CF92DF92EF92FF926B017C010E948700D4
:100630004B015C01C114D104E104F104F1F00E940A
:100640008700DC01CB0188199909AA09BB09883EFA
:100650009340A105B10570F321E0C21AD108E10869
:10066000F10888EE880E83E0981EA11CB11CC1140D
:10067000D104E104F10419F7DDCFFF90EF90DF9092
:10068000CF90BF90AF909F908F900895CF92DF92C0
:10069000EF92FF92CF93DF9380917103882379F0DB
:1006A00068E873E180E090E00E940C0380E0DF9155
:1006B000CF91FF90EF90DF90CF900C94860261E095
:1006C00081E10E9439020E94AC006B017C010E9412
:1006D000A9018430910514F480E090E0BC01990FE9
:1006E000880B990B0E94080E2BE734E14EE450E48E
:1006F0000E94670E20E030E04AEA52E40E945C0F5C
:1007000087FD05C081E080937403C1E001C0C0E0B3
:1007100080E090E0DC01D1E0CC2399F18033954773
:10072000A105B10570F50E94A9018430910514F46A
:1007300080E090E0BC01990F880B990B0E94080E95
:100740002BE734E14EE450E40E94670E20E030E0F5
:100750004AEA52E40E945C0F87FD03C0D093740301
:1007600001C0C0E062E370E080E090E00E940C0312
:100770000E94AC00DC01CB018C199D09AE09BF09B8
:10078000CBCF68E873E180E090E00E940C0380E04A
:100790000E94860260E081E1DF91CF91FF90EF90AF
:1007A000DF90CF900C9439020F931F93CF93DF9378
:1007B000EC010E949E021D828985823010F098E033
:1007C0009D839A85992329F0813019F48D81846065
:1007D0008D8362E370E080E090E00E940C036B8503
:1007E000CE010E94F40668EE73E080E090E00E9483
:1007F0000C0360E3CE010E94080704E213E2C80183
:100800000197F1F760E3CE010E940807C801019744
:10081000F1F760E3CE010E94080788E291E00197BA
:10082000F1F760E2CE010E9408076D81606240E04E
:10083000CE010E94210784E08E8340E06CE0CE016F
:100840000E942107CE010E94A00182E08F8340E038
:1008500066E0CE010E942107CE01DF91CF911F916A
:100860000F910C945D010895CF92DF92EF92FF9269
:100870000F931F93CF93DF936C017A018B01C0E03C
:10088000D0E0CE15DF0581F0D8016D918D01D60144
:10089000ED91FC910190F081E02DC6010995892B25
:1008A00011F02196EECF7E01C701DF91CF911F910C
:1008B0000F91FF90EF90DF90CF900895FC01538D42
:1008C000448D252F30E0842F90E0821B930B54172A
:1008D00010F0CF96089501970895FC01918D828DB7
:1008E000981761F0828DDF01A80FB11D5D968C9184
:1008F000928D9F5F9F73928F90E008958FEF9FEF8F
:100900000895FC01918D828D981731F0828DE80F4A
:10091000F11D858D90E008958FEF9FEF0895FC0104
:10092000918D228D892F90E0805C9F4F821B9109D1
:100930008F739927089588EC92E00E948F0421E03C
:10094000892B09F420E0822F0895FC01848DDF01BA
:10095000A80FB11DA35ABF4F2C91848D90E0019632
:100960008F739927848FA689B7892C93A089B18921
:100970008C91837080648C93938D848D981306C0C2
:100980000288F389E02D80818F7D80830895EF9226
:10099000FF920F931F93CF93DF93EC0181E0888F39
:1009A0009B8D8C8D981305C0E889F989808185FD20
:1009B00026C0F62E0B8D10E00F5F1F4F0F7311270F
:1009C000E02E8C8DE8120CC00FB607FCFACFE88938
:1009D000F989808185FFF5CFCE010E94A504F1CF72
:1009E0008B8DFE01E80FF11DE35AFF4FF0829FB798
:1009F000F8940B8FEA89FB89808180620AC09FB7D7
:100A0000F894EE89FF896083E889F9898081837091
:100A1000806480839FBF81E090E0DF91CF911F9140
:100A20000F91FF90EF900895CF93DF93EC01888DA5
:100A30008823C9F0EA89FB89808185FD05C0A889E2
:100A4000B9898C9186FD0FC00FB607FCF5CF808168
:100A500085FFF2CFA889B9898C9185FFEDCFCE01B2
:100A60000E94A504E7CFDF91CF91089580E090E048
:100A7000892B29F00E949B0481110C940000089599
:100A800085ED8093BC008091BC0084FDFCCF10926A
:100A9000A30208954091AE03262F30E0240F311DAC
:100AA00021323105DCF42091A3022430C9F4FC0189
:100AB00080E090E0861758F43091AE032191DC017C
:100AC000A257BC4FA30FB11D2C930196F3CF809179
:100AD000AE03680F6093AE0380E0089581E008954F
:100AE00082E00895089508950895E0915C02809150
:100AF0005B02E81730F4F0E0E35AFD4F808190E0AC
:100B000008958FEF9FEF089590915C0280915B02B2
:100B1000981750F4E92FF0E0E35AFD4F208130E0C0
:100B20009F5F90935C0202C02FEF3FEFC9010895D1
:100B300080915B0290E020915C02821B91090895F4
:100B4000CF92DF92EF92FF920F931F93CF93DF9399
:100B50007C01CB018A012091A402222389F0EB01C0
:100B60006B01C40ED51ECC15DD0569F06991D70166
:100B7000ED91FC910190F081E02DC7010995F3CF33
:100B8000642F0E944A05C801DF91CF911F910F91F8
:100B9000FF90EF90DF90CF900895CF93DF931F9257
:100BA000CDB7DEB769832091A4022223D1F0209132
:100BB000C702203240F021E030E0FC013383228381
:100BC00080E090E015C08091A502E82FF0E0EA55A2
:100BD000FD4F998190838F5F8093A5028093C70218
:100BE00005C061E0CE0101960E944A0581E090E0D7
:100BF0000F90DF91CF910895089580E090E00895DF
:100C000081E080933E0208950E944E110F931F933E
:100C1000CF93DF93EC0188819981009729F02A8195
:100C20003B812617370788F48B016F5F7F4F0E9447
:100C30008810009761F0998388831B830A832C8135
:100C40003D81232B11F4FC01108281E001C080E082
:100C5000DF91CF911F910F910895E9E6F0E0208197
:100C6000237F880F991F880F991F822B8083E99A11
:100C700008951F920F920FB60F9211242F933F9356
:100C80004F935F936F937F938F939F93AF93BF9394
:100C9000EF93FF93E0910201F09103010995FF9119
:100CA000EF91BF91AF919F918F917F916F915F91E4
:100CB0004F913F912F910F900FBE0F901F9018955D
:100CC0001F920F920FB60F9211242F933F934F93C1
:100CD0005F936F937F938F939F93AF93BF93EF93A4
:100CE000FF93E0910001F09101010995FF91EF91CF
:100CF000BF91AF919F918F917F916F915F914F9134
:100D00003F912F910F900FBE0F901F901895611576
:100D1000710579F0FB0101900020E9F73197AF01EF
:100D2000461B570BDC01ED91FC910280F381E02D15
:100D3000099480E090E008951F920F920FB60F92F1
:100D400011242F933F934F935F936F937F938F93D0
:100D50009F93AF93BF93EF93FF9388EC92E00E9431
:100D6000A504FF91EF91BF91AF919F918F917F91DA
:100D70006F915F914F913F912F910F900FBE0F9008
:100D80001F9018951F920F920FB60F9211242F9358
:100D90008F939F93EF93FF93E091D802F091D90244
:100DA0008081E091DE02F091DF0282FD12C090812D
:100DB0008091E1028F5F8F732091E202821751F0E0
:100DC000E091E102F0E0E853FD4F958F8093E1025E
:100DD00001C08081FF91EF919F918F912F910F9092
:100DE0000FBE0F901F901895FC01248131E03093C5
:100DF000A4022093C6021092A5021092C702838516
:100E0000682B85E693E00E94CD0581E00C940101FA
:100E10000F931F93CF938C01C62F0E94F4066C2F63
:100E20006460C8010E94F4066C2F6B7FC8010E94A9
:100E3000F40680E690E00197F1F7CF911F910F91B2
:100E400008950F931F93CF93DF938C01C62FD42F58
:100E5000607F642B0E94080780E1C89FB0011124C5
:100E60006D2BC801DF91CF911F910F910C94080752
:100E700041E00E94210781E090E008951F920F92C7
:100E80000FB60F9211248F930FB6F894A895809106
:100E90006000886180936000109260000FBE8F91A7
:100EA0000F900FBE0F901F9018954115510529F412
:100EB000EAE7F0E080818F7780836A307105A9F0DE
:100EC00063FD02C088E001C088E26770682B88E19A
:100ED0000FB6F894A895809360000FBE60936000F1
:100EE000E0E6F0E0808180648083232BA1F483B767
:100EF000817F846083BFF89483B7816083BF85B7A7
:100F0000806685BF8F7D85BF7894889583B78E7FF7
:100F100083BF78940EC083B7817F846083BFF894C9
:100F200083B7816083BF7894889583B78E7F83BFB2
:100F30007894452B29F4EAE7F0E08081806880838B
:100F400008951F920F920FB60F9211242F933F9383
:100F50004F935F936F937F938F939F93AF93BF93C1
:100F6000EF93FF938091B900887F803609F49CC08D
:100F700068F5883209F45BC090F4803109F454C0FC
:100F800038F4882309F4F6C0883009F44DC0F6C05F
:100F9000883109F44CC0803209F45DC0EFC0803460
:100FA00009F468C048F4803309F455C0883309F067
:100FB000E5C08093A102D8C0803509F44FC08835C0
:100FC00009F45DC0883409F0D9C0D6C0883909F465
:100FD000C7C0A8F4883709F467C038F4883609F424
:100FE00063C0803709F460C0C9C0883809F4B8C04C
:100FF000803909F45FC0803809F0C0C05BC0803B15
:1010000009F486C038F4803A09F466C0883A09F4D5
:101010007FC0B4C0803C09F4A7C0883C09F4A4C0D8
:10102000883B09F48AC0AAC080917E0210C09091CA
:10103000A00280919F02981770F5E091A00281E0D4
:101040008E0F8093A002F0E0E158FD4F80818093E5
:10105000BB0085EC86C08093A1028EC0E091A00207
:1010600081E08E0F8093A0028091BB00F0E0E158F8
:10107000FD4F80839091A00280919F026EC0E0910D
:10108000A00281E08E0F8093A0028091BB00F0E06F
:10109000E158FD4F80838091A20281116DC081E0F3
:1010A00080937D0284EA61C083E08093A302109262
:1010B000D003CFCF8091D003803208F051C0E091AF
:1010C000D00381E08E0F8093D0038091BB00F0E0CD
:1010D000E055FC4F8083BDCF85EC8093BC0010921F
:1010E000A3028091D003803230F4E091D003F0E08D
:1010F000E055FC4F10826091D00370E0E091570200
:10110000F091580280EB93E009951092D00336C01D
:1011100084E08093A3021092AF031092AE03E0919B
:101120005902F0915A0209958091AE03811105C0D0
:1011300081E08093AE0310928E03E091AF0381E0D3
:101140008E0F8093AF03F0E0E257FC4F80818093D5
:10115000BB009091AF038091AE03981708F479CF4C
:1011600085E88093BC000AC085EC8093BC00109297
:10117000A30204C01092A1020E944005FF91EF91CA
:10118000BF91AF919F918F917F916F915F914F919F
:101190003F912F910F900FBE0F901F9018951F92A7
:1011A0000F920FB60F9211242F933F938F939F931B
:1011B000AF93BF9380914F0290915002A091510242
:1011C000B09152023091D10326E0230F2D3720F445
:1011D0000296A11DB11D05C029E8230F0396A11D8C
:1011E000B11D2093D10380934F0290935002A0939E
:1011F0005102B09352028091530290915402A091F7
:101200005502B09156020196A11DB11D8093530263
:1012100090935402A0935502B0935602BF91AF91A0
:101220009F918F913F912F910F900FBE0F901F9024
:101230001895CF93DF93CDB7DEB72D970FB6F894FF
:10124000DEBF0FBECDBF789484B5826084BD84B507
:10125000816084BD85B5826085BD85B5816085BDB1
:1012600080916E00816080936E0010928100809169
:1012700081008260809381008091810081608093F1
:101280008100809180008160809380008091B10016
:1012900084608093B1008091B00081608093B00041
:1012A00080917A00846080937A0080917A008260D5
:1012B00080937A0080917A008E7F80937A0080916B
:1012C0007A00806880937A001092C10061E08DE01E
:1012D0000E94D00260E08DE00E943902E091D802C5
:1012E000F091D90282E08083E091D402F091D5029E
:1012F0001082E091D602F091D70288E080831092AC
:10130000E002E091DC02F091DD0286E08083E09172
:10131000DA02F091DB02808180618083E091DA0261
:10132000F091DB02808188608083E091DA02F091A5
:10133000DB02808180688083E091DA02F091DB0239
:1013400080818F7D808388EE93E0A0E0B0E0809381
:10135000CC029093CD02A093CE02B093CF0284E44E
:1013600091E00E94B8000E94A9018430910514F414
:1013700080E090E0BC01990F880B990B0E94080E49
:101380002BE734E14EE450E40E94670E20E030E0A9
:101390004AEA52E40E945C0F87FD25C011E01093D9
:1013A000740383E591E00E94B80084E090E090939C
:1013B00005018093040181E00E94860280917103FF
:1013C000811104C061E084E00E943902109373032C
:1013D00082E691E00E94B80081E090E090934C0298
:1013E00080934B0220C080E00E94860280917103AE
:1013F000811104C060E084E00E94390210927303FE
:1014000088E691E00E94B80082E893E00E94D4034D
:1014100086E793E00E94D403809104019091050136
:10142000019709F4F3C280E096E090930301809362
:10143000020180E090E00E942D060E949E0262E080
:10144000CE0101960E94D80189818F3FB9F188E5CC
:101450008D87BE01635F7F4F80E00E94BC016FE01B
:10146000CE0101960E94D801898188638C87BE01D4
:10147000645F7F4F8FE00E94BC011B86BE01655FE9
:101480007F4F82E00E94BC0160E0CE0101960E9485
:10149000D8011A86BE01665F7F4F81E00E94BC01C1
:1014A00060E0CE0101960E94D80189818068898719
:1014B000BE01675F7F4F80E00E94BC0183E0E82EA1
:1014C000F12C94E0292E312CCC24C394D12C30E083
:1014D000A32E36E0B32E43E3842E44E0942E8CEA10
:1014E00090E02C01990F6608770880914D02909149
:1014F0004E028130910571F140F08230910509F47E
:101500009DC0049709F4B5C05FC180914B029091D2
:101510004C02019771F081E991E00E94B80020E04F
:1015200030E040E050E06AE070E081E793E00E9444
:10153000550780913E02882309F446C110923E026D
:10154000E9989092030180920201D0924E02C092DB
:101550004D023AC110923E020E94AC0060934702D5
:10156000709348028093490290934A020E94A90115
:101570008430910514F480E090E0BC01990F880B51
:10158000990B0E94080E2BE734E14EE450E40E94D0
:10159000670E20E030E04AEA52E40E945C0F87FDCB
:1015A00004C081E08093740336C082E893E00E9417
:1015B000950182E893E00E945D0160E372E082E8B9
:1015C00093E00E94FF0086E793E00E94950186E782
:1015D00093E00E945D0160E372E086E793E00E9481
:1015E000FF00F0920501E092040181E00E94860272
:1015F00080917103811104C061E084E00E9439028E
:1016000081E0809373033092050120920401D0920F
:101610004C02C0924B0282E090E090934E02809385
:101620004D0261E08DE00E943902B0920301A09268
:10163000020181E090E00E942D06C6C080913E022A
:10164000882309F4C1C0E9989092030180920201B5
:1016500010923E020E94AC006093430270934402D9
:10166000809345029093460230924E0220924D02A2
:10167000ABC00E94A9018430910514F480E090E091
:10168000BC01990F880B990B0E94080E2BE734E1DF
:101690004EE450E40E94670E20E030E04AEA52E453
:1016A0000E945C0F87FD80C081E08093740380916D
:1016B000430290914402A0914502B09146024091AC
:1016C0004702509148026091490270914A02841B7E
:1016D000950BA60BB70B813127E29207A105B10547
:1016E000B0F180EA91E00E94B80082E893E00E94A5
:1016F0005D016FEA71E082E893E00E94FF0086E7F7
:1017000093E00E945D016FEA71E086E793E00E943A
:10171000FF0086E090E0909305018093040160ED66
:1017200077E080E090E00E940C0380E00E94860257
:1017300080917103811104C060E084E00E9439024D
:101740001092730310924C0210924B0219C0893C04
:101750009105A105B10540F1F0924C02E0924B02D7
:1017600080EC91E00E94B80086ED91E00E94B80004
:1017700060ED77E080E090E00E940C030E94460359
:1017800082E893E00E94A00182E893E00E949B011E
:1017900086E793E00E94A00186E793E00E949B0108
:1017A000109205011092040160E08DE00E94390260
:1017B000B0920301A092020180E090E00E942D0609
:1017C00010924E0210924D0288EC92E00E948F041B
:1017D000181619060CF06FC00E94AC0060933F020F
:1017E0007093400280934102909342021A821982C0
:1017F0001C821B821E821D8260E070E0CE01019679
:101800000E94060629813A8181110DC021153105FA
:1018100019F0C9010E94FF0F1A8219821E821D82CF
:101820001C821B8207C01E821D8261EE71E0C9010D
:101830000E9465110E94CB0097FD1BC08F83188604
:101840000D811E810F5F1F4FB801CE0101960E94CE
:101850000606882379F329813A818D819E81BE0114
:10186000695F7F4F820F931F0E9465111E830D8356
:10187000E1CF4D815E8169817A8188EC92E00E949E
:1018800034046FED71E088EC92E00E9487068D8150
:101890009E81892B61F062EE71E089819A810E94BC
:1018A0005C11892B21F482EE91E00E94B8008981BD
:1018B0009A810E94FF0F0E94AC0000913F0210919C
:1018C00040022091410230914202DC01CB01801B99
:1018D000910BA20BB30B81369A4EA105B10508F40A
:1018E00092C085EE91E00E94B80080910401909131
:1018F0000501049741F582E893E00E945D0162E1F1
:1019000072E082E893E00E94FF0082E893E00E9488
:10191000660161E272E082E893E00E94FF0086E7E0
:1019200093E00E945D0162E172E086E793E00E942D
:10193000FF0086E793E00E94660161E272E086E7BD
:1019400093E00E94FF000E94460382E893E00E9419
:10195000A00182E893E00E949B0186E793E00E9449
:10196000A00186E793E00E949B011092050110926E
:1019700004016EEE72E080E090E00E940C0382E8C9
:1019800093E00E94950182E893E00E945D0160E38C
:1019900072E082E893E00E94FF0086E793E00E94F5
:1019A000950186E793E00E945D0160E372E086E7BF
:1019B00093E00E94FF00F0920501E092040181E0B3
:1019C0000E94860280917103811104C061E084E06D
:1019D0000E94390281E08093730368E873E180E03C
:1019E00090E00E940C03409247025092480260929D
:1019F000490270924A02409243025092440260921D
:101A00004502709246020E9436056FCD82E893E04F
:101A10000E94950164E771E082E893E00E94FF0074
:101A200082E893E00E94660163E871E082E893E057
:101A30000E94FF0086E793E00E94950164E771E051
:101A400086E793E00E94FF0086E793E00E9466012C
:101A500063E871E086E793E00E94FF0082E090E097
:101A6000909305018093040168E873E180E090E0C1
:101A70000E940C0380913E028111D5CC82E893E054
:101A80000E94A00182E893E00E949B0186E793E018
:101A90000E94A00186E793E00E949B01109205013D
:101AA00010920401C0CC1092CB021092CA0288EEB0
:101AB00093E0A0E0B0E08093CC029093CD02A0939D
:101AC000CE02B093CF0228E131E03093C9022093D7
:101AD000C80225EC30E03093D5022093D40224ECE8
:101AE00030E03093D7022093D60220EC30E03093E0
:101AF000D9022093D80221EC30E03093DB0220930E
:101B0000DA0222EC30E03093DD022093DC0226EC96
:101B100030E03093DF022093DE021092E102109257
:101B2000E2021092E3021092E40210926803109213
:101B300067038093690390936A03A0936B03B09348
:101B40006C038AE291E090936603809365031092A0
:101B50007103109275031092740310927203109225
:101B6000730361E080E10E94D00280E00E9486025F
:101B700061E084E00E94D00280917103811104C071
:101B800060E084E00E9439021092730361E081E119
:101B90000E94D00260E081E10E94390260E087E0AB
:101BA0000E94D00260E083E00E94D00260E082E008
:101BB0000E94D00210928503109284034CE351E0FE
:101BC00050938303409382038FE38093860320E145
:101BD00020938A0392E090938B0310928C0388E009
:101BE00080938D03109279031092780350937703BA
:101BF0004093760337E230937A0320937E039093E9
:101C00007F0310928003809381030895E89409C0B4
:101C100097FB3EF490958095709561957F4F8F4F1F
:101C20009F4F9923A9F0F92F96E9BB279395F69535
:101C3000879577956795B795F111F8CFFAF4BB0FB3
:101C400011F460FF1BC06F5F7F4F8F4F9F4F16C017
:101C5000882311F096E911C0772321F09EE8872FA1
:101C6000762F05C0662371F096E8862F70E060E05D
:101C70002AF09A95660F771F881FDAF7880F9695D6
:101C8000879597F90895990F0008550FAA0BE0E87A
:101C9000FEEF16161706E807F907C0F0121613062E
:101CA000E407F50798F0621B730B840B950B39F46E
:101CB0000A2661F0232B242B252B21F408950A26D4
:101CC00009F4A140A6958FEF811D811D08950E9402
:101CD0007A0E0C94EB0E0E94DD0E38F00E94E40E9A
:101CE00020F0952311F00C94D40E0C94DA0E1124EC
:101CF0000C941F0F0E94FC0E70F3959FC1F3950F7B
:101D000050E0551F629FF001729FBB27F00DB11D7F
:101D1000639FAA27F00DB11DAA1F649F6627B00D0F
:101D2000A11D661F829F2227B00DA11D621F739FF8
:101D3000B00DA11D621F839FA00D611D221F749F06
:101D40003327A00D611D231F849F600D211D822F4D
:101D5000762F6A2F11249F5750409AF0F1F0882374
:101D60004AF0EE0FFF1FBB1F661F771F881F9150A1
:101D70005040A9F79E3F510580F00C94D40E0C946E
:101D80001F0F5F3FE4F3983ED4F3869577956795F0
:101D9000B795F795E7959F5FC1F7FE2B880F911DCB
:101DA0009695879597F9089597F99F6780E870E071
:101DB00060E008959FEF80EC089500240A941616C1
:101DC000170618060906089500240A941216130629
:101DD000140605060895092E0394000C11F48823B7
:101DE00052F0BB0F40F4BF2B11F460FF04C06F5FD3
:101DF0007F4F8F4F9F4F089557FD9058440F551FA9
:101E000059F05F3F71F04795880F97FB991F61F07C
:101E10009F3F79F087950895121613061406551FF3
:101E2000F2CF4695F1DF08C0161617061806991F5F
:101E3000F1CF86957105610508940895E894BB2754
:101E400066277727CB0197F908952F923F924F92FB
:101E50005F926F927F928F929F92AF92BF92CF923A
:101E6000DF92EF92FF920F931F93CF93DF93CDB743
:101E7000DEB7CA1BDB0B0FB6F894DEBF0FBECDBFBB
:101E800009942A88398848885F846E847D848C848C
:101E90009B84AA84B984C884DF80EE80FD800C8195
:101EA0001B81AA81B981CE0FD11D0FB6F894DEBF78
:101EB0000FBECDBFED0108950E94430E08F48FEFD1
:101EC0000895EE0FFF1F0590F491E02D09940F93F4
:101ED0001F93CF93DF938230910510F482E090E05E
:101EE000E091D403F091D50320E030E0A0E0B0E031
:101EF000309719F1408151810281138148175907A8
:101F0000C8F08417950769F4109731F012960C9376
:101F1000129713961C9327C00093D4031093D503F4
:101F200022C02115310519F04217530718F49A0100
:101F3000BD01EF01DF01F801DBCF21153105F9F01B
:101F4000281B390B2430310580F48A819B8161156F
:101F5000710521F0FB019383828304C09093D50324
:101F60008093D403FE01329644C0FE01E20FF31FBA
:101F70008193919322503109398328833AC020916B
:101F8000D2033091D303232B41F4209108013091E7
:101F900009013093D3032093D2032091060130919D
:101FA00007012115310541F42DB73EB740910A01D3
:101FB00050910B01241B350BE091D203F091D30318
:101FC000E217F307A0F42E1B3F0B2817390778F010
:101FD000AC014E5F5F4F2417350748F04E0F5F1F6F
:101FE0005093D3034093D2038193919302C0E0E0D6
:101FF000F0E0CF01DF91CF911F910F910895CF9322
:10200000DF93009709F481C0FC013297138212829A
:10201000A091D403B091D503109781F42081318130
:10202000820F931F2091D2033091D30328173907D1
:1020300051F5F093D303E093D20367C0ED0120E0A4
:1020400030E0CE17DF0740F44A815B819E014115E5
:102050005105F1F0EA01F5CFD383C283408151816C
:10206000840F951FC817D90759F488819981840F67
:10207000951F0296918380838A819B8193838283BB
:102080002115310529F4F093D503E093D4033DC025
:10209000E901FB83EA8349915991C40FD51FEC17DD
:1020A000FD0761F480819181840F951F0296E901FB
:1020B00099838883828193819B838A83E0E0F0E027
:1020C00012968D919C911397009719F0FD01DC01F8
:1020D000F7CF8D919C9111979D012E5F3F4F820FFD
:1020E000931F2091D2033091D3032817390769F445
:1020F000309729F41092D5031092D40302C01382B2
:102100001282B093D303A093D203DF91CF910895AD
:10211000A0E0B0E0EEE8F0E10C94290FEC010097AC
:1021200021F4CB010E94670FB4C0FC01E60FF71F3A
:102130009C0122503109E217F30708F4A8C0D90125
:102140000D911C91119706171707B0F00530110576
:1021500008F49BC0C80104978617970708F495C038
:1021600002501109061B170B019311936D937C9379
:10217000CF010E94FF0F89C05B01A01AB10A4C0178
:10218000800E911EA091D403B091D503612C712CC7
:10219000E12CF12C109709F446C08D919C91119778
:1021A000A815B905B1F56C0142E0C40ED11CCA14E2
:1021B000DB0478F14C018A189B08640142E0C40EEC
:1021C000D11C1296BC9012971396AC91B5E0CB1629
:1021D000D10440F0B282A38391828082D9016D93B1
:1021E0007C9309C00E5F1F4F800F911FF9019183EF
:1021F0008083EB2DFA2FE114F10431F0D70113960F
:10220000FC93EE93129741C0F093D503E093D4036F
:102210003CC06816790608F43C017D0112960D90C9
:10222000BC91A02DB7CF8091D2039091D303881693
:102230009906E1F466167706C8F48091060190913C
:102240000701009741F48DB79EB740910A01509164
:102250000B01841B950BE817F907C8F4F093D3031F
:10226000E093D203F901718360830FC0CB010E9418
:10227000670F7C01009759F0A801BE010E9453111D
:10228000CE010E94FF0FC70104C0CE0102C080E052
:1022900090E0CDB7DEB7EEE00C94450F81E090E022
:1022A000F8940C946C11FB01DC0102C001900D92BA
:1022B00041505040D8F70895FB01DC018D91019009
:1022C00080190110D9F3990B0895FB01DC010190ED
:0C22D0000D920020E1F70895F894FFCF74
:1022DC003304330401000000D603800000004000EA
:1022EC001400540000000000C70434045E041405FC
:1022FC008F046D04810400000000CD05A005FD05D0
:10230C007405980584057505000000003807340431
:10231C00FD05FC057374617274206F66207365741F
:10232C007570005069207761732072756E6E696EDE
:10233C0067004932433D300057656C636F6D652013
:10234C004C434400557365207265617220696E7050
:10235C00757400746F20737461727420746F6F6C79
:10236C0000676F696E6720746F20736C6565700011
:10237C00666F7263696E67207069206F66660046CF
:10238C006F7263696E672073687574646F776E0023
:10239C0072657175657374696E67206120736875F9
:1023AC0074646F776E00706F7765724F6666000DA0
:1023BC000A006F6B006E6F205541525420636F6D95
:1023CC006D7320696E6974204750494F207368758E
:1023DC0074646F776E207468656E207265626F6FBF
:1023EC0074004661756C742064657465637465640F
:1023FC0000726573657474696E6720746F6F6C001E
:0E240C00496E697469616C697A696E670000D7
:00000001FF
