:100000000C945D000C942F060C9408060C9485004B
:100010000C9485000C9485000C940D070C948500BD
:100020000C9485000C9485000C9485000C9485003C
:100030000C9485000C9485000C9485000C9485002C
:100040000C94CF080C9485000C9491060C946B06CC
:100050000C9485000C9485000C9485000C9485000C
:100060000C9470070C948500000000002400270009
:100070002A0000000000250028002B0004040404CE
:100080000404040402020202020203030303030342
:10009000010204081020408001020408102001021F
:1000A00004081020000000080002010000030407FB
:1000B0000000000000000000670D11241FBECFEFFC
:1000C000D8E0DEBFCDBF23E0A6E5B2E001C01D92BF
:1000D000AF3EB207E1F712E0A0E0B1E0E4E0F3E206
:1000E00002C005900D92A635B107D9F710E0CDE515
:1000F000D0E004C02197FE010E94750FCC35D107D6
:10010000C9F70E9419090C9480110C940000CF9338
:10011000DF93BC0189ED92E00E945606EC016FED81
:1001200071E089ED92E00E9456068C0F9D1FDF91D1
:10013000CF9108950F931F930E949E086093E10250
:100140007093E2028093E3029093E40289ED92E0DF
:100150000E943C0497FF1FC00E949E080091E1028C
:100160001091E2022091E3023091E402DC01CB0124
:10017000801B910BA20BB30B0091DD021091DE02EC
:100180002091DF023091E00280179107A207B307A8
:10019000E8F28FEF9FEF1F910F9108950C94560690
:1001A000282F3091D802313208F04AC08091B40231
:1001B0008111FCCF9091D70242E04093B40220938A
:1001C000B3022FEF2093B2021092B1023093B0022B
:1001D000E7EBF2E0A0E9B2E020E0321721F0419134
:1001E0004D932F5FFACF10928F0220918F02990FBB
:1001F000922B90938F0290918E02913061F4109225
:100200008E0290918F029093BB009091BC0093FD61
:10021000F8CF95EC01C095EE9093BC009091B4029C
:100220009230E1F39091B2029F3F79F08091B20257
:10023000803241F08091B202803331F084E005C019
:1002400081E003C082E001C083E01092B602109208
:10025000D8021092B502089540E062E00E94F006D4
:100260008CE99FE00197F1F70895CF93DF93CDB725
:10027000DEB728970FB6F894DEBF0FBECDBF9C0146
:1002800088E0ECE0F1E0DE01119601900D928A9594
:10029000E1F7F9018185811102C09FEF01C091E072
:1002A000FE013196E90FF11DE90FF11D60816068D3
:1002B00040E0C90128960FB6F894DEBF0FBECDBF4F
:1002C000DF91CF910C94F00628E0FC01238760E0D9
:1002D0000C94C306FC01138660E00C94C30640E056
:1002E00061E00E94F0068CE99FE00197F1F7089524
:1002F00087E480937C0080917A00806480937A0008
:1003000080917A0086FDFCCF809178002091790061
:1003100090E0922B0895CF93DF93EB0191E09093BF
:10032000B50298E69093D7021092B6021092D802C6
:10033000682F86E793E00E949C05688186E793E03A
:100340000E949C0581E0DF91CF910C94D000CF9367
:10035000DF93EC0181E08093B50288E68093D702B9
:100360001092B6021092D80286E793E00E949C0594
:1003700081E00E94D0008091B4028111FCCF81E025
:100380008093B4028093B3029FEF9093B2021092D5
:10039000B1021092B00280938F0280918F02806D23
:1003A00080938F0280918E02813061F410928E02D0
:1003B00080918F028093BB008091BC0083FDF8CFB9
:1003C00085EC01C085EE8093BC008091B402813041
:1003D000E1F38091B102811103C09091B10201C09B
:1003E00091E0A0E9B2E0EEE6F2E080E0891721F0CA
:1003F0002D9121938F5FFACF10926D0280936C0242
:1004000086E793E00E9453058883DF91CF9108959A
:1004100090E0FC01EC55FF4F2491FC01E057FF4FA9
:100420003491FC01E458FF4FE491EE2309F43CC001
:10043000222339F1233091F038F42130A9F0223011
:1004400001F584B58F7D12C0273091F02830A1F0DE
:100450002430B9F4809180008F7D03C080918000AA
:100460008F77809380000DC084B58F7784BD09C0DD
:100470008091B0008F7703C08091B0008F7D809312
:10048000B000F0E0EE0FFF1FEE58FF4FA591B491C2
:100490009FB7F894611104C08C913095382302C045
:1004A000EC913E2B3C939FBF08959091820399233A
:1004B00019F0882379F006C0882341F061E080E1DB
:1004C0000E94080281E080938303089560E080E148
:1004D0000E94080210928303089510926D021092F8
:1004E0006C021092B6021092D8021092B40281E00F
:1004F0008093B30210928E0261E082E10E940802B2
:1005000061E083E10E940802E9EBF0E080818E7FE8
:10051000808380818D7F808380E28093B80085E432
:100520008093BC0081E495E090936B0280936A0213
:1005300082E495E090936902809368020895CF93D6
:10054000DF9390E0FC01E057FF4F2491FC01E45859
:10055000FF4F8491882361F190E0880F991FFC017F
:10056000E859FF4FC591D491FC01EE58FF4FA5917A
:10057000B491611109C09FB7F894888120958223B6
:100580008883EC912E230BC0623061F49FB7F894FE
:100590008881322F309583238883EC912E2B2C93E6
:1005A0009FBF06C08FB7F894E8812E2B28838FBF9A
:1005B000DF91CF9108958F929F92AF92BF92CF9289
:1005C000DF92EF92FF926B017C010E94AA084B011F
:1005D0005C01C114D104E104F104F1F00E94AA0805
:1005E000DC01CB0188199909AA09BB09883E93400F
:1005F000A105B10570F321E0C21AD108E108F108A4
:1006000088EE880E83E0981EA11CB11CC114D10491
:10061000E104F10419F7DDCFFF90EF90DF90CF9068
:10062000BF90AF909F908F900895CF92DF92EF92FE
:10063000FF92CF93DF9380918203882379F068E85B
:1006400073E180E090E00E94DB0280E0DF91CF91D7
:10065000FF90EF90DF90CF900C94550261E081E124
:100660000E9408020E949E086B017C010E94780192
:100670008430910514F480E090E0BC01990F880B60
:10068000990B0E941C0E2BE734E14EE450E40E94CB
:100690007B0E20E030E04AEA52E40E94700F87FDB2
:1006A00005C081E080938503C1E001C0C0E080E027
:1006B00090E0DC01D1E0CC2399F180339547A1058E
:1006C000B10570F50E9478018430910514F480E042
:1006D00090E0BC01990F880B990B0E941C0E2BE730
:1006E00034E14EE450E40E947B0E20E030E04AEA20
:1006F00052E40E94700F87FD03C0D093850301C0B0
:10070000C0E062E370E080E090E00E94DB020E94C3
:100710009E08DC01CB018C199D09AE09BF09CBCF26
:1007200068E873E180E090E00E94DB0280E00E94D4
:10073000550260E081E1DF91CF91FF90EF90DF9073
:10074000CF900C9408020F931F93CF93DF93EC018B
:100750000E946D021D828985823010F098E09D8391
:100760009A85992329F0813019F48D8184608D83D5
:1007700062E370E080E090E00E94DB026B85CE01D6
:100780000E94C30668EE73E080E090E00E94DB0206
:1007900060E3CE010E94D70604E213E2C80101978C
:1007A000F1F760E3CE010E94D706C8010197F1F787
:1007B00060E3CE010E94D70688E291E00197F1F74D
:1007C00060E2CE010E94D7066D81606240E0CE01FA
:1007D0000E94F00684E08E8340E06CE0CE010E942F
:1007E000F006CE010E946F0182E08F8340E066E058
:1007F000CE010E94F006CE01DF91CF911F910F91A3
:100800000C942C010895CF92DF92EF92FF920F93F8
:100810001F93CF93DF936C017A018B01C0E0D0E08E
:10082000CE15DF0581F0D8016D918D01D601ED91D6
:10083000FC910190F081E02DC6010995892B11F002
:100840002196EECF7E01C701DF91CF911F910F91CD
:10085000FF90EF90DF90CF900895FC01538D448D71
:10086000252F30E0842F90E0821B930B541710F05B
:10087000CF96089501970895FC01918D828D981768
:1008800061F0828DDF01A80FB11D5D968C91928D74
:100890009F5F9F73928F90E008958FEF9FEF089571
:1008A000FC01918D828D981731F0828DE80FF11D3A
:1008B000858D90E008958FEF9FEF0895FC01918D55
:1008C000228D892F90E0805C9F4F821B91098F734E
:1008D0009927089589ED92E00E945E0421E0892B1A
:1008E00009F420E0822F0895FC01848DDF01A80F18
:1008F000B11DA35ABF4F2C91848D90E001968F7348
:100900009927848FA689B7892C93A089B1898C9166
:10091000837080648C93938D848D981306C00288B5
:10092000F389E02D80818F7D80830895EF92FF927F
:100930000F931F93CF93DF93EC0181E0888F9B8D02
:100940008C8D981305C0E889F989808185FD26C0C2
:10095000F62E0B8D10E00F5F1F4F0F731127E02E47
:100960008C8DE8120CC00FB607FCFACFE889F98924
:10097000808185FFF5CFCE010E947404F1CF8B8D6D
:10098000FE01E80FF11DE35AFF4FF0829FB7F89484
:100990000B8FEA89FB89808180620AC09FB7F89437
:1009A000EE89FF896083E889F9898081837080649A
:1009B00080839FBF81E090E0DF91CF911F910F91E5
:1009C000FF90EF900895CF93DF93EC01888D8823FB
:1009D000C9F0EA89FB89808185FD05C0A889B989AC
:1009E0008C9186FD0FC00FB607FCF5CF808185FF87
:1009F000F2CFA889B9898C9185FFEDCFCE010E94F5
:100A00007404E7CFDF91CF91089580E090E0892BC7
:100A100029F00E946A0481110C940000089585ED6C
:100A20008093BC008091BC0084FDFCCF1092B40286
:100A300008954091BF03262F30E0240F311D21324D
:100A40003105DCF42091B4022430C9F4FC0180E0CB
:100A500090E0861758F43091BF032191DC01A15634
:100A6000BC4FA30FB11D2C930196F3CF8091BF0310
:100A7000680F6093BF0380E0089581E0089582E0ED
:100A80000895089508950895E0916D0280916C0293
:100A9000E81730F4F0E0E259FD4F808190E00895CE
:100AA0008FEF9FEF089590916D0280916C029817DF
:100AB00050F4E92FF0E0E259FD4F208130E09F5FD4
:100AC00090936D0202C02FEF3FEFC901089580910E
:100AD0006C0290E020916D02821B91090895CF92E3
:100AE000DF92EF92FF920F931F93CF93DF937C01DE
:100AF000CB018A012091B502222389F0EB016B0121
:100B0000C40ED51ECC15DD0569F06991D701ED91B4
:100B1000FC910190F081E02DC7010995F3CF642F7E
:100B20000E941905C801DF91CF911F910F91FF908D
:100B3000EF90DF90CF900895CF93DF931F92CDB7C2
:100B4000DEB769832091B5022223D1F02091D8022B
:100B5000203240F021E030E0FC013383228380E04A
:100B600090E015C08091B602E82FF0E0E954FD4F07
:100B7000998190838F5F8093B6028093D80205C0DD
:100B800061E0CE0101960E94190581E090E00F908E
:100B9000DF91CF910895089580E090E0089581E07D
:100BA0008093560208950E9462110F931F93CF9372
:100BB000DF93EC0188819981009729F02A813B819C
:100BC0002617370788F48B016F5F7F4F0E949C10B8
:100BD000009761F0998388831B830A832C813D8170
:100BE000232B11F4FC01108281E001C080E0DF9131
:100BF000CF911F910F910895E9E6F0E02081237FC6
:100C0000880F991F880F991F822B8083E99A089576
:100C10001F920F920FB60F9211242F933F934F9371
:100C20005F936F937F938F939F93AF93BF93EF9354
:100C3000FF93E0910201F09103010995FF91EF917B
:100C4000BF91AF919F918F917F916F915F914F91E4
:100C50003F912F910F900FBE0F901F9018951F92EC
:100C60000F920FB60F9211242F933F934F935F93E0
:100C70006F937F938F939F93AF93BF93EF93FF9364
:100C8000E0910001F09101010995FF91EF91BF9171
:100C9000AF919F918F917F916F915F914F913F9114
:100CA0002F910F900FBE0F901F9018956115710531
:100CB00079F0FB0101900020E9F73197AF01461B65
:100CC000570BDC01ED91FC910280F381E02D09943A
:100CD00080E090E008951F920F920FB60F921124BA
:100CE0002F933F934F935F936F937F938F939F9334
:100CF000AF93BF93EF93FF9389ED92E00E9474044A
:100D0000FF91EF91BF91AF919F918F917F916F91E3
:100D10005F914F913F912F910F900FBE0F901F90B9
:100D200018951F920F920FB60F9211242F938F9345
:100D30009F93EF93FF93E091E902F091EA028081A3
:100D4000E091EF02F091F00282FD12C0908180915B
:100D5000F2028F5F8F732091F302821751F0E091BE
:100D6000F202F0E0E752FD4F958F8093F20201C04E
:100D70008081FF91EF919F918F912F910F900FBEE6
:100D80000F901F901895FC01248131E03093B5023B
:100D90002093D7021092B6021092D8028385682B56
:100DA00086E793E00E949C0581E00C94D0000F93AD
:100DB0001F93CF938C01C62F0E94C3066C2F6460D3
:100DC000C8010E94C3066C2F6B7FC8010E94C30636
:100DD00080E690E00197F1F7CF911F910F91089570
:100DE0000F931F93CF93DF938C01C62FD42F607F77
:100DF000642B0E94D70680E1C89FB00111246D2B9F
:100E0000C801DF91CF911F910F910C94D70641E05B
:100E10000E94F00681E090E008951F920F920FB6B5
:100E20000F9211248F930FB6F894A89580916000CB
:100E3000886180936000109260000FBE8F910F90C8
:100E40000FBE0F901F9018954115510529F4EAE740
:100E5000F0E080818F7780836A307105A9F063FDAF
:100E600002C088E001C088E26770682B88E10FB695
:100E7000F894A895809360000FBE60936000E0E650
:100E8000F0E0808180648083232BA1F483B7817F8D
:100E9000846083BFF89483B7816083BF85B7806621
:100EA00085BF8F7D85BF7894889583B78E7F83BFFC
:100EB00078940EC083B7817F846083BFF89483B732
:100EC000816083BF7894889583B78E7F83BF789441
:100ED000452B29F4EAE7F0E080818068808308955B
:100EE0001F920F920FB60F9211242F933F934F939F
:100EF0005F936F937F938F939F93AF93BF93EF9382
:100F0000FF938091B900887F803609F49CC068F512
:100F1000883209F45BC090F4803109F454C038F48D
:100F2000882309F4F6C0883009F44DC0F6C0883132
:100F300009F44CC0803209F45DC0EFC0803409F47C
:100F400068C048F4803309F455C0883309F0E5C01F
:100F50008093B202D8C0803509F44FC0883509F4B7
:100F60005DC0883409F0D9C0D6C0883909F4C7C03B
:100F7000A8F4883709F467C038F4883609F463C0E8
:100F8000803709F460C0C9C0883809F4B8C0803916
:100F900009F45FC0803809F0C0C05BC0803B09F431
:100FA00086C038F4803A09F466C0883A09F47FC0F4
:100FB000B4C0803C09F4A7C0883C09F4A4C0883BB5
:100FC00009F48AC0AAC080918F0210C09091B1022A
:100FD0008091B002981770F5E091B10281E08E0F18
:100FE0008093B102F0E0E057FD4F80818093BB0019
:100FF00085EC86C08093B2028EC0E091B10281E0A0
:101000008E0F8093B1028091BB00F0E0E057FD4F5E
:1010100080839091B1028091B0026EC0E091B102E4
:1010200081E08E0F8093B1028091BB00F0E0E05729
:10103000FD4F80838091B30281116DC081E0809368
:101040008E0284EA61C083E08093B4021092E103CF
:10105000CFCF8091E103803208F051C0E091E103ED
:1010600081E08E0F8093E1038091BB00F0E0EF53AD
:10107000FC4F8083BDCF85EC8093BC001092B402FE
:101080008091E103803230F4E091E103F0E0EF532E
:10109000FC4F10826091E10370E0E0916802F091F2
:1010A000690281EC93E009951092E10336C084E077
:1010B0008093B4021092C0031092BF03E0916A02C1
:1010C000F0916B0209958091BF03811105C081E009
:1010D0008093BF0310929F03E091C00381E08E0FC5
:1010E0008093C003F0E0E156FC4F80818093BB0009
:1010F0009091C0038091BF03981708F479CF85E8D9
:101100008093BC000AC085EC8093BC001092B402AE
:1011100004C01092B2020E940F05FF91EF91BF919F
:10112000AF919F918F917F916F915F914F913F917F
:101130002F910F900FBE0F901F9018952FB7F89416
:101140006091E3037091E4038091E5039091E603DD
:101150002FBF08953FB7F8948091E7039091E8037B
:10116000A091E903B091EA0326B5A89B05C02F3FE3
:1011700019F00196A11DB11D3FBFBA2FA92F982FBD
:101180008827820F911DA11DB11DBC01CD0143E037
:10119000660F771F881F991F4A95D1F708951F92F0
:1011A0000F920FB60F9211242F933F938F939F931B
:1011B000AF93BF938091E3039091E403A091E50383
:1011C000B091E6033091E20326E0230F2D3720F49F
:1011D0000296A11DB11D05C029E8230F0396A11D8C
:1011E000B11D2093E2038093E3039093E403A09363
:1011F000E503B093E6038091E7039091E803A091A3
:10120000E903B091EA030196A11DB11D8093E703A4
:101210009093E803A093E903B093EA03BF91AF91E1
:101220009F918F913F912F910F900FBE0F901F9024
:101230001895CF93DF93CDB7DEB7AB970FB6F89481
:10124000DEBF0FBECDBF789484B5826084BD84B507
:10125000816084BD85B5826085BD85B5816085BDB1
:1012600080916E00816080936E0010928100809169
:1012700081008260809381008091810081608093F1
:101280008100809180008160809380008091B10016
:1012900084608093B1008091B00081608093B00041
:1012A00080917A00846080937A0080917A008260D5
:1012B00080937A0080917A008E7F80937A0080916B
:1012C0007A00806880937A001092C10010928203A5
:1012D00061E08DE00E949F0260E08DE00E940802C4
:1012E0008FEC95E0909303018093020180E090E001
:1012F0000E94FC05E091E902F091EA0282E080831D
:10130000E091E502F091E6021082E091E702F091AF
:10131000E80288E080831092F102E091ED02F09102
:10132000EE0286E08083E091EB02F091EC02808196
:1013300080618083E091EB02F091EC028081886013
:101340008083E091EB02F091EC02808180688083E1
:10135000E091EB02F091EC0280818F7D808388EE3A
:1013600093E0A0E0B0E08093DD029093DE02A093D2
:10137000DF02B093E00284E491E00E9487000E94C3
:1013800078018430910514F480E090E0BC01990F5D
:10139000880B990B0E941C0E2BE734E14EE450E4BD
:1013A0000E947B0E20E030E04AEA52E40E94700F77
:1013B00087FD25C011E01093850383E591E00E942D
:1013C000870084E090E0909305018093040181E020
:1013D0000E94550280918203811104C061E084E083
:1013E0000E9408021093840382E691E00E94870025
:1013F00081E090E0909365028093640220C080E0D9
:101400000E94550280918203811104C060E084E053
:101410000E9408021092840388E691E00E948700EF
:1014200083E993E00E94A30387E893E00E94A3036B
:101430008091040190910501019709F4FBC20E947B
:101440006D0262E0CE0101960E94A70189818F3F63
:1014500079F16FE0CE0101960E94A701898188632E
:101460008BA7BE01655D7F4F8FE00E948B011AA69E
:10147000BE01665D7F4F82E00E948B0160E0CE017D
:1014800001960E94A70119A6BE01675D7F4F81E00A
:101490000E948B0160E0CE0101960E94A701898124
:1014A000806888A7BE01685D7F4F80E00E948B0145
:1014B00083E0E82EF12C94E0292E312CCC24C39427
:1014C000D12C3FECA32E35E0B32E42E0842E44E035
:1014D000942E8EE998E02C01990F66087708809188
:1014E0006602909167028130910571F140F082307F
:1014F000910509F49DC0049709F4B5C05FC18091BE
:10150000640290916502019771F081E991E00E9477
:10151000870020E030E040E050E06AE070E082E8E0
:1015200093E00E94240780915602882309F446C163
:1015300010925602E9989092030180920201D09293
:101540006702C09266023AC1109256020E949E083B
:1015500060936002709361028093620290936302D1
:101560000E9478018430910514F480E090E0BC0181
:10157000990F880B990B0E941C0E2BE734E14EE467
:1015800050E40E947B0E20E030E04AEA52E40E94E0
:10159000700F87FD04C081E08093850336C083E926
:1015A00093E00E94640183E993E00E942C016BE1C7
:1015B00072E083E993E00E94CE0087E893E00E9406
:1015C000640187E893E00E942C016BE172E087E8F8
:1015D00093E00E94CE00F0920501E092040181E0C8
:1015E0000E94550280918203811104C061E084E071
:1015F0000E94080281E080938403309205012092CA
:101600000401D0926502C092640282E090E090935F
:1016100067028093660261E08DE00E940802B0924A
:101620000301A092020181E090E00E94FC05C6C087
:1016300080915602882309F4C1C0E9989092030171
:1016400080920201109256020E949E0860935C02F2
:1016500070935D0280935E0290935F023092670206
:1016600020926602ABC00E9478018430910514F488
:1016700080E090E0BC01990F880B990B0E941C0E32
:101680002BE734E14EE450E40E947B0E20E030E092
:101690004AEA52E40E94700F87FD80C081E0809387
:1016A000850380915C0290915D02A0915E02B091F1
:1016B0005F024091600250916102609162027091FC
:1016C0006302841B950BA60BB70B813127E29207AF
:1016D000A105B105B0F180EA91E00E94870083E99D
:1016E00093E00E942C016FEA71E083E993E00E948D
:1016F000CE0087E893E00E942C016FEA71E087E852
:1017000093E00E94CE0086E090E0909305018093E4
:10171000040160ED77E080E090E00E94DB0280E071
:101720000E94550280918203811104C060E084E030
:101730000E940802109284031092650210926402C3
:1017400019C0893C9105A105B10540F1F0926502EF
:10175000E092640280EC91E00E94870086ED91E0C7
:101760000E94870060ED77E080E090E00E94DB025D
:101770000E94150383E993E00E946F0183E993E0DF
:101780000E946A0187E893E00E946F0187E893E076
:101790000E946A01109205011092040160E08DE040
:1017A0000E940802B0920301A092020180E090E042
:1017B0000E94FC05109267021092660289ED92E089
:1017C0000E945E04181619060CF082C00E949E0842
:1017D00060935702709358028093590290935A0273
:1017E0001BA21AA21DA21CA21FA21EA260E070E0F2
:1017F000CE0182960E94D5052AA13BA181110DC080
:101800002115310519F0C9010E9413101BA21AA25B
:101810001FA21EA21DA21CA207C01FA21EA261EE33
:1018200071E0C9010E9479110E949A0097FD1BC0C6
:1018300089831A820EA11FA10F5F1F4FB801CE012D
:1018400082960E94D505882379F32AA13BA18EA117
:101850009FA1BE016F5F7F4F820F931F0E9479117E
:101860001FA30EA3E1CF4EA15FA16AA17BA189EDC9
:1018700092E00E9403046FED71E089ED92E00E9416
:1018800056068EA19FA1892BF9F062EE71E08AA124
:101890009BA10E947011892BB9F419A290E398A31F
:1018A000BE01605E7F4F89ED92E00E9456066FEDAB
:1018B00071E089ED92E00E94560686EE91E00E946A
:1018C000870081E080935B028AA19BA10E94131094
:1018D00080915B02882309F4AAC00E949E080091AF
:1018E0005702109158022091590230915A02DC019E
:1018F000CB01801B910BA20BB30B81369A4EA10535
:10190000B10508F494C088E292E00E9487008091BB
:10191000040190910501049741F583E993E00E9449
:101920002C016DEF71E083E993E00E94CE0083E922
:1019300093E00E9435016CE072E083E993E00E943D
:10194000CE0087E893E00E942C016DEF71E087E8FC
:1019500093E00E94CE0087E893E00E9435016CE09E
:1019600072E087E893E00E94CE000E94150383E9AD
:1019700093E00E946F0183E993E00E946A0187E887
:1019800093E00E946F0187E893E00E946A01109241
:1019900005011092040164EF71E080E090E00E9484
:1019A000DB0283E993E00E94640183E993E00E94F3
:1019B0002C016BE172E083E993E00E94CE0087E89E
:1019C00093E00E94640187E893E00E942C016BE1A0
:1019D00072E087E893E00E94CE00F0920501E09269
:1019E000040181E00E94550280918203811104C0AC
:1019F00061E084E00E94080281E0809384031092F9
:101A00005B0268E873E180E090E00E94DB024092B4
:101A10006002509261026092620270926302409290
:101A20005C0250925D0260925E0270925F020E94C0
:101A3000050555CD83E993E00E94640164E771E0F8
:101A400083E993E00E94CE0083E993E00E94350190
:101A500063E871E083E993E00E94CE0087E893E0B9
:101A60000E94640164E771E087E893E00E94CE0081
:101A700087E893E00E94350163E871E087E893E02E
:101A80000E94CE0082E090E09093050180930401D3
:101A900068E873E180E090E00E94DB0280915602EA
:101AA0008111CDCC83E993E00E946F0183E993E03B
:101AB0000E946A0187E893E00E946F0187E893E043
:101AC0000E946A011092050110920401B8CC109294
:101AD000DC021092DB0288EE93E0A0E0B0E080939D
:101AE000DD029093DE02A093DF02B093E00228E1D2
:101AF00031E03093DA022093D90225EC30E03093C4
:101B0000E6022093E50224EC30E03093E8022093D3
:101B1000E70220EC30E03093EA022093E90221EC66
:101B200030E03093EC022093EB0222EC30E0309373
:101B3000EE022093ED0226EC30E03093F002209389
:101B4000EF021092F2021092F3021092F40210923D
:101B5000F502109279031092780380937A039093A0
:101B60007B03A0937C03B0937D038AE291E0909382
:101B7000770380937603109282031092860310926B
:101B80008503109283031092840361E080E10E9438
:101B90009F0280E00E94550261E084E00E949F0263
:101BA00080918203811104C060E084E00E940802F9
:101BB0001092840361E081E10E949F0260E081E174
:101BC0000E94080260E087E00E949F0260E083E0DC
:101BD0000E949F0260E082E00E949F0210929603A2
:101BE000109295034CE351E0509394034093930378
:101BF0008FE38093970320E120939B0392E09093DF
:101C00009C0310929D0388E080939E0310928A03A8
:101C100010928903509388034093870337E23093EF
:101C20008B0320938F0390939003109291038093E2
:101C300092030895E89409C097FB3EF4909580952F
:101C4000709561957F4F8F4F9F4F9923A9F0F92F82
:101C500096E9BB279395F695879577956795B79500
:101C6000F111F8CFFAF4BB0F11F460FF1BC06F5FE6
:101C70007F4F8F4F9F4F16C0882311F096E911C0F8
:101C8000772321F09EE8872F762F05C0662371F019
:101C900096E8862F70E060E02AF09A95660F771F2D
:101CA000881FDAF7880F9695879597F90895990F09
:101CB0000008550FAA0BE0E8FEEF16161706E80716
:101CC000F907C0F012161306E407F50798F0621B37
:101CD000730B840B950B39F40A2661F0232B242B0C
:101CE000252B21F408950A2609F4A140A6958FEF2B
:101CF000811D811D08950E948E0E0C94FF0E0E947E
:101D0000F10E38F00E94F80E20F0952311F00C949B
:101D1000E80E0C94EE0E11240C94330F0E94100F59
:101D200070F3959FC1F3950F50E0551F629FF0012E
:101D3000729FBB27F00DB11D639FAA27F00DB11D47
:101D4000AA1F649F6627B00DA11D661F829F2227D0
:101D5000B00DA11D621F739FB00DA11D621F839F57
:101D6000A00D611D221F749F3327A00D611D231F2D
:101D7000849F600D211D822F762F6A2F11249F577B
:101D800050409AF0F1F088234AF0EE0FFF1FBB1F7E
:101D9000661F771F881F91505040A9F79E3F51053D
:101DA00080F00C94E80E0C94330F5F3FE4F3983E00
:101DB000D4F3869577956795B795F795E7959F5FE7
:101DC000C1F7FE2B880F911D9695879597F9089579
:101DD00097F99F6780E870E060E008959FEF80ECDE
:101DE000089500240A941616170618060906089581
:101DF00000240A9412161306140605060895092EE7
:101E00000394000C11F4882352F0BB0F40F4BF2B55
:101E100011F460FF04C06F5F7F4F8F4F9F4F089595
:101E200057FD9058440F551F59F05F3F71F047958B
:101E3000880F97FB991F61F09F3F79F08795089570
:101E4000121613061406551FF2CF4695F1DF08C08F
:101E5000161617061806991FF1CF869571056105AC
:101E600008940895E894BB2766277727CB0197F954
:101E700008952F923F924F925F926F927F928F922E
:101E80009F92AF92BF92CF92DF92EF92FF920F9309
:101E90001F93CF93DF93CDB7DEB7CA1BDB0B0FB613
:101EA000F894DEBF0FBECDBF09942A8839884888D0
:101EB0005F846E847D848C849B84AA84B984C88466
:101EC000DF80EE80FD800C811B81AA81B981CE0F5D
:101ED000D11D0FB6F894DEBF0FBECDBFED01089542
:101EE0000E94570E08F48FEF0895EE0FFF1F059024
:101EF000F491E02D09940F931F93CF93DF938230D9
:101F0000910510F482E090E0E091ED03F091EE0392
:101F100020E030E0A0E0B0E0309719F1408151813D
:101F20000281138148175907C8F08417950769F48F
:101F3000109731F012960C93129713961C9327C0AA
:101F40000093ED031093EE0322C02115310519F023
:101F50004217530718F49A01BD01EF01DF01F801A0
:101F6000DBCF21153105F9F0281B390B2430310561
:101F700080F48A819B816115710521F0FB019383B7
:101F8000828304C09093EE038093ED03FE013296AA
:101F900044C0FE01E20FF31F819391932250310957
:101FA000398328833AC02091EB033091EC03232B33
:101FB00041F420910801309109013093EC03209302
:101FC000EB0320910601309107012115310541F401
:101FD0002DB73EB740910A0150910B01241B350BE0
:101FE000E091EB03F091EC03E217F307A0F42E1B52
:101FF0003F0B2817390778F0AC014E5F5F4F24176D
:10200000350748F04E0F5F1F5093EC034093EB03EE
:102010008193919302C0E0E0F0E0CF01DF91CF9196
:102020001F910F910895CF93DF93009709F481C01A
:10203000FC01329713821282A091ED03B091EE035E
:10204000109781F420813181820F931F2091EB033F
:102050003091EC032817390751F5F093EC03E09326
:10206000EB0367C0ED0120E030E0CE17DF0740F45E
:102070004A815B819E0141155105F1F0EA01F5CFDE
:10208000D383C28340815181840F951FC817D9071C
:1020900059F488819981840F951F029691838083DA
:1020A0008A819B81938382832115310529F4F093E2
:1020B000EE03E093ED033DC0E901FB83EA83499120
:1020C0005991C40FD51FEC17FD0761F480819181F0
:1020D000840F951F0296E9019983888382819381F9
:1020E0009B838A83E0E0F0E012968D919C91139798
:1020F000009719F0FD01DC01F7CF8D919C911197AC
:102100009D012E5F3F4F820F931F2091EB03309173
:10211000EC032817390769F4309729F41092EE037D
:102120001092ED0302C013821282B093EC03A093CD
:10213000EB03DF91CF910895A0E0B0E0E2EAF0E197
:102140000C943D0FEC01009721F4CB010E947B0F12
:10215000B4C0FC01E60FF71F9C0122503109E217C1
:10216000F30708F4A8C0D9010D911C911197061727
:102170001707B0F00530110508F49BC0C80104979B
:102180008617970708F495C002501109061B170B14
:10219000019311936D937C93CF010E94131089C01A
:1021A0005B01A01AB10A4C01800E911EA091ED03B3
:1021B000B091EE03612C712CE12CF12C109709F4F5
:1021C00046C08D919C911197A815B905B1F56C0188
:1021D00042E0C40ED11CCA14DB0478F14C018A1809
:1021E0009B08640142E0C40ED11C1296BC90129769
:1021F0001396AC91B5E0CB16D10440F0B282A38324
:1022000091828082D9016D937C9309C00E5F1F4F2C
:10221000800F911FF90191838083EB2DFA2FE11438
:10222000F10431F0D7011396FC93EE93129741C05D
:10223000F093EE03E093ED033CC06816790608F4D2
:102240003C017D0112960D90BC91A02DB7CF8091DD
:10225000EB039091EC0388169906E1F46616770675
:10226000C8F48091060190910701009741F48DB761
:102270009EB740910A0150910B01841B950BE81702
:10228000F907C8F4F093EC03E093EB03F9017183D1
:1022900060830FC0CB010E947B0F7C01009759F037
:1022A000A801BE010E946711CE010E941310C70150
:1022B00004C0CE0102C080E090E0CDB7DEB7EEE012
:1022C0000C94590F81E090E0F8940C948011FB017C
:1022D000DC0102C001900D9241505040D8F70895A2
:1022E000FB01DC018D91019080190110D9F3990B4C
:1022F0000895FB01DC0101900D920020E1F70895A3
:04230000F894FFCF7F
:102304000204020401000000EF038000000040000A
:102314001400540000000000960403042D04E30498
:102324005E043C045004000000009C056F05CC05CD
:10233400430567055305440500000000070703042F
:10234400CC05CB057374617274206F662073657459
:102354007570005069207761732072756E6E696EB6
:1023640067004932433D300057656C636F6D6520EB
:102374004C434400557365207265617220696E7028
:10238400757400746F20737461727420746F6F6C51
:1023940000676F696E6720746F20736C65657000E9
:1023A400666F7263696E67207069206F66660046A7
:1023B4006F7263696E672073687574646F776E00FB
:1023C40072657175657374696E67206120736875D1
:1023D40074646F776E00706F7765724F6666000D78
:1023E4000A007665720075617274206265696E67B1
:1023F4002073657420746F2074727565004661756E
:102404006C742064657465637465640072657365D7
:102414007474696E6720746F6F6C00496E697469B7
:10242400616C697A696E67006E6F20554152542061
:10243400636F6D6D7320696E6974204750494F2036
:1024440073687574646F776E207468656E20726546
:06245400626F6F740000CE
:00000001FF
