:100000000C945D000C942F060C9408060C9485004B
:100010000C9485000C9485000C940D070C948500BD
:100020000C9485000C9485000C9485000C9485003C
:100030000C9485000C9485000C9485000C9485002C
:100040000C94CF080C9485000C9491060C946B06CC
:100050000C9485000C9485000C9485000C9485000C
:100060000C9470070C948500000000002400270009
:100070002A0000000000250028002B0004040404CE
:100080000404040402020202020203030303030342
:10009000010204081020408001020408102001021F
:1000A00004081020000000080002010000030407FB
:1000B00000000000000000007A0D11241FBECFEFE9
:1000C000D8E0DEBFCDBF24E0A6E7B2E001C01D92BC
:1000D000AF30B207E1F712E0A0E0B1E0EAE2F3E20C
:1000E00002C005900D92A637B107D9F710E0CDE513
:1000F000D0E004C02197FE010E94880FCC35D107C3
:10010000C9F70E9419090C9493110C940000CF9325
:10011000DF93BC0189EF92E00E945606EC016FED7F
:1001200071E089EF92E00E9456068C0F9D1FDF91CF
:10013000CF9108950F931F930E949E08609301032F
:1001400070930203809303039093040389EF92E07A
:100150000E943C0497FF1FC00E949E08009101036B
:10016000109102032091030330910403DC01CB01C1
:10017000801B910BA20BB30B0091FD021091FE02AC
:100180002091FF023091000380179107A207B30767
:10019000E8F28FEF9FEF1F910F9108950C94560690
:1001A000282F3091F802313208F04AC08091D402F1
:1001B0008111FCCF9091F70242E04093D40220934A
:1001C000D3022FEF2093D2021092D1023093D002AB
:1001D000E7EDF2E0A0EBB2E020E0321721F0419130
:1001E0004D932F5FFACF1092AF022091AF02990F7B
:1001F000922B9093AF029091AE02913061F41092E5
:10020000AE029091AF029093BB009091BC0093FD21
:10021000F8CF95EC01C095EE9093BC009091D4027C
:100220009230E1F39091D2029F3F79F08091D20217
:10023000803241F08091D202803331F084E005C0F9
:1002400081E003C082E001C083E01092D6021092E8
:10025000F8021092D502089540E062E00E94F00694
:100260008CE99FE00197F1F70895CF93DF93CDB725
:10027000DEB728970FB6F894DEBF0FBECDBF9C0146
:1002800088E0ECE0F1E0DE01119601900D928A9594
:10029000E1F7F9018185811102C09FEF01C091E072
:1002A000FE013196E90FF11DE90FF11D60816068D3
:1002B00040E0C90128960FB6F894DEBF0FBECDBF4F
:1002C000DF91CF910C94F00628E0FC01238760E0D9
:1002D0000C94C306FC01138660E00C94C30640E056
:1002E00061E00E94F0068CE99FE00197F1F7089524
:1002F00087E480937C0080917A00806480937A0008
:1003000080917A0086FDFCCF809178002091790061
:1003100090E0922B0895CF93DF93EB0191E09093BF
:10032000D50298E69093F7021092D6021092F80246
:10033000682F86E993E00E949C05688186E993E036
:100340000E949C0581E0DF91CF910C94D000CF9367
:10035000DF93EC0181E08093D50288E68093F70279
:100360001092D6021092F80286E993E00E949C0552
:1003700081E00E94D0008091D4028111FCCF81E005
:100380008093D4028093D3029FEF9093D202109275
:10039000D1021092D0028093AF028091AF02806DA3
:1003A0008093AF028091AE02813061F41092AE0270
:1003B0008091AF028093BB008091BC0083FDF8CF99
:1003C00085EC01C085EE8093BC008091D402813021
:1003D000E1F38091D102811103C09091D10201C05B
:1003E00091E0A0EBB2E0EEE8F2E080E0891721F0C6
:1003F0002D9121938F5FFACF10928D0280938C0202
:1004000086E993E00E9453058883DF91CF91089598
:1004100090E0FC01EC55FF4F2491FC01E057FF4FA9
:100420003491FC01E458FF4FE491EE2309F43CC001
:10043000222339F1233091F038F42130A9F0223011
:1004400001F584B58F7D12C0273091F02830A1F0DE
:100450002430B9F4809180008F7D03C080918000AA
:100460008F77809380000DC084B58F7784BD09C0DD
:100470008091B0008F7703C08091B0008F7D809312
:10048000B000F0E0EE0FFF1FEE58FF4FA591B491C2
:100490009FB7F894611104C08C913095382302C045
:1004A000EC913E2B3C939FBF08959091A20399231A
:1004B00019F0882379F006C0882341F061E080E1DB
:1004C0000E94080281E08093A303089560E080E128
:1004D0000E9408021092A303089510928D021092B8
:1004E0008C021092D6021092F8021092D40281E08F
:1004F0008093D3021092AE0261E082E10E94080272
:1005000061E083E10E940802E9EBF0E080818E7FE8
:10051000808380818D7F808380E28093B80085E432
:100520008093BC0081E495E090938B0280938A02D3
:1005300082E495E090938902809388020895CF9396
:10054000DF9390E0FC01E057FF4F2491FC01E45859
:10055000FF4F8491882361F190E0880F991FFC017F
:10056000E859FF4FC591D491FC01EE58FF4FA5917A
:10057000B491611109C09FB7F894888120958223B6
:100580008883EC912E230BC0623061F49FB7F894FE
:100590008881322F309583238883EC912E2B2C93E6
:1005A0009FBF06C08FB7F894E8812E2B28838FBF9A
:1005B000DF91CF9108958F929F92AF92BF92CF9289
:1005C000DF92EF92FF926B017C010E94AA084B011F
:1005D0005C01C114D104E104F104F1F00E94AA0805
:1005E000DC01CB0188199909AA09BB09883E93400F
:1005F000A105B10570F321E0C21AD108E108F108A4
:1006000088EE880E83E0981EA11CB11CC114D10491
:10061000E104F10419F7DDCFFF90EF90DF90CF9068
:10062000BF90AF909F908F900895CF92DF92EF92FE
:10063000FF92CF93DF938091A203882379F068E83B
:1006400073E180E090E00E94DB0280E0DF91CF91D7
:10065000FF90EF90DF90CF900C94550261E081E124
:100660000E9408020E949E086B017C010E94780192
:100670008430910514F480E090E0BC01990F880B60
:10068000990B0E942F0E2BE734E14EE450E40E94B8
:100690008E0E20E030E04AEA52E40E94830F87FD8C
:1006A00005C081E08093A503C1E001C0C0E080E007
:1006B00090E0DC01D1E0CC2399F180339547A1058E
:1006C000B10570F50E9478018430910514F480E042
:1006D00090E0BC01990F880B990B0E942F0E2BE71D
:1006E00034E14EE450E40E948E0E20E030E04AEA0D
:1006F00052E40E94830F87FD03C0D093A50301C07D
:10070000C0E062E370E080E090E00E94DB020E94C3
:100710009E08DC01CB018C199D09AE09BF09CBCF26
:1007200068E873E180E090E00E94DB0280E00E94D4
:10073000550260E081E1DF91CF91FF90EF90DF9073
:10074000CF900C9408020F931F93CF93DF93EC018B
:100750000E946D021D828985823010F098E09D8391
:100760009A85992329F0813019F48D8184608D83D5
:1007700062E370E080E090E00E94DB026B85CE01D6
:100780000E94C30668EE73E080E090E00E94DB0206
:1007900060E3CE010E94D70604E213E2C80101978C
:1007A000F1F760E3CE010E94D706C8010197F1F787
:1007B00060E3CE010E94D70688E291E00197F1F74D
:1007C00060E2CE010E94D7066D81606240E0CE01FA
:1007D0000E94F00684E08E8340E06CE0CE010E942F
:1007E000F006CE010E946F0182E08F8340E066E058
:1007F000CE010E94F006CE01DF91CF911F910F91A3
:100800000C942C010895CF92DF92EF92FF920F93F8
:100810001F93CF93DF936C017A018B01C0E0D0E08E
:10082000CE15DF0581F0D8016D918D01D601ED91D6
:10083000FC910190F081E02DC6010995892B11F002
:100840002196EECF7E01C701DF91CF911F910F91CD
:10085000FF90EF90DF90CF900895FC01538D448D71
:10086000252F30E0842F90E0821B930B541710F05B
:10087000CF96089501970895FC01918D828D981768
:1008800061F0828DDF01A80FB11D5D968C91928D74
:100890009F5F9F73928F90E008958FEF9FEF089571
:1008A000FC01918D828D981731F0828DE80FF11D3A
:1008B000858D90E008958FEF9FEF0895FC01918D55
:1008C000228D892F90E0805C9F4F821B91098F734E
:1008D0009927089589EF92E00E945E0421E0892B18
:1008E00009F420E0822F0895FC01848DDF01A80F18
:1008F000B11DA35ABF4F2C91848D90E001968F7348
:100900009927848FA689B7892C93A089B1898C9166
:10091000837080648C93938D848D981306C00288B5
:10092000F389E02D80818F7D80830895EF92FF927F
:100930000F931F93CF93DF93EC0181E0888F9B8D02
:100940008C8D981305C0E889F989808185FD26C0C2
:10095000F62E0B8D10E00F5F1F4F0F731127E02E47
:100960008C8DE8120CC00FB607FCFACFE889F98924
:10097000808185FFF5CFCE010E947404F1CF8B8D6D
:10098000FE01E80FF11DE35AFF4FF0829FB7F89484
:100990000B8FEA89FB89808180620AC09FB7F89437
:1009A000EE89FF896083E889F9898081837080649A
:1009B00080839FBF81E090E0DF91CF911F910F91E5
:1009C000FF90EF900895CF93DF93EC01888D8823FB
:1009D000C9F0EA89FB89808185FD05C0A889B989AC
:1009E0008C9186FD0FC00FB607FCF5CF808185FF87
:1009F000F2CFA889B9898C9185FFEDCFCE010E94F5
:100A00007404E7CFDF91CF91089580E090E0892BC7
:100A100029F00E946A0481110C940000089585ED6C
:100A20008093BC008091BC0084FDFCCF1092D40266
:100A300008954091DF03262F30E0240F311D21322D
:100A40003105DCF42091D4022430C9F4FC0180E0AB
:100A500090E0861758F43091DF032191DC01A15416
:100A6000BC4FA30FB11D2C930196F3CF8091DF03F0
:100A7000680F6093DF0380E0089581E0089582E0CD
:100A80000895089508950895E0918D0280918C0253
:100A9000E81730F4F0E0E257FD4F808190E00895D0
:100AA0008FEF9FEF089590918D0280918C0298179F
:100AB00050F4E92FF0E0E257FD4F208130E09F5FD6
:100AC00090938D0202C02FEF3FEFC90108958091EE
:100AD0008C0290E020918D02821B91090895CF92A3
:100AE000DF92EF92FF920F931F93CF93DF937C01DE
:100AF000CB018A012091D502222389F0EB016B0101
:100B0000C40ED51ECC15DD0569F06991D701ED91B4
:100B1000FC910190F081E02DC7010995F3CF642F7E
:100B20000E941905C801DF91CF911F910F91FF908D
:100B3000EF90DF90CF900895CF93DF931F92CDB7C2
:100B4000DEB769832091D5022223D1F02091F802EB
:100B5000203240F021E030E0FC013383228380E04A
:100B600090E015C08091D602E82FF0E0E952FD4FE9
:100B7000998190838F5F8093D6028093F80205C09D
:100B800061E0CE0101960E94190581E090E00F908E
:100B9000DF91CF910895089580E090E0089581E07D
:100BA0008093760208950E9475110F931F93CF933F
:100BB000DF93EC0188819981009729F02A813B819C
:100BC0002617370788F48B016F5F7F4F0E94AF10A5
:100BD000009761F0998388831B830A832C813D8170
:100BE000232B11F4FC01108281E001C080E0DF9131
:100BF000CF911F910F910895E9E6F0E02081237FC6
:100C0000880F991F880F991F822B8083E99A089576
:100C10001F920F920FB60F9211242F933F934F9371
:100C20005F936F937F938F939F93AF93BF93EF9354
:100C3000FF93E0910201F09103010995FF91EF917B
:100C4000BF91AF919F918F917F916F915F914F91E4
:100C50003F912F910F900FBE0F901F9018951F92EC
:100C60000F920FB60F9211242F933F934F935F93E0
:100C70006F937F938F939F93AF93BF93EF93FF9364
:100C8000E0910001F09101010995FF91EF91BF9171
:100C9000AF919F918F917F916F915F914F913F9114
:100CA0002F910F900FBE0F901F9018956115710531
:100CB00079F0FB0101900020E9F73197AF01461B65
:100CC000570BDC01ED91FC910280F381E02D09943A
:100CD00080E090E008951F920F920FB60F921124BA
:100CE0002F933F934F935F936F937F938F939F9334
:100CF000AF93BF93EF93FF9389EF92E00E94740448
:100D0000FF91EF91BF91AF919F918F917F916F91E3
:100D10005F914F913F912F910F900FBE0F901F90B9
:100D200018951F920F920FB60F9211242F938F9345
:100D30009F93EF93FF93E0910903F0910A03808161
:100D4000E0910F03F091100382FD12C09081809119
:100D500012038F5F8F7320911303821751F0E0917C
:100D60001203F0E0E750FD4F958F8093120301C00E
:100D70008081FF91EF919F918F912F910F900FBEE6
:100D80000F901F901895FC01248131E03093D5021B
:100D90002093F7021092D6021092F8028385682BF6
:100DA00086E993E00E949C0581E00C94D0000F93AB
:100DB0001F93CF938C01C62F0E94C3066C2F6460D3
:100DC000C8010E94C3066C2F6B7FC8010E94C30636
:100DD00080E690E00197F1F7CF911F910F91089570
:100DE0000F931F93CF93DF938C01C62FD42F607F77
:100DF000642B0E94D70680E1C89FB00111246D2B9F
:100E0000C801DF91CF911F910F910C94D70641E05B
:100E10000E94F00681E090E008951F920F920FB6B5
:100E20000F9211248F930FB6F894A89580916000CB
:100E3000886180936000109260000FBE8F910F90C8
:100E40000FBE0F901F9018954115510529F4EAE740
:100E5000F0E080818F7780836A307105A9F063FDAF
:100E600002C088E001C088E26770682B88E10FB695
:100E7000F894A895809360000FBE60936000E0E650
:100E8000F0E0808180648083232BA1F483B7817F8D
:100E9000846083BFF89483B7816083BF85B7806621
:100EA00085BF8F7D85BF7894889583B78E7F83BFFC
:100EB00078940EC083B7817F846083BFF89483B732
:100EC000816083BF7894889583B78E7F83BF789441
:100ED000452B29F4EAE7F0E080818068808308955B
:100EE0001F920F920FB60F9211242F933F934F939F
:100EF0005F936F937F938F939F93AF93BF93EF9382
:100F0000FF938091B900887F803609F49CC068F512
:100F1000883209F45BC090F4803109F454C038F48D
:100F2000882309F4F6C0883009F44DC0F6C0883132
:100F300009F44CC0803209F45DC0EFC0803409F47C
:100F400068C048F4803309F455C0883309F0E5C01F
:100F50008093D202D8C0803509F44FC0883509F497
:100F60005DC0883409F0D9C0D6C0883909F4C7C03B
:100F7000A8F4883709F467C038F4883609F463C0E8
:100F8000803709F460C0C9C0883809F4B8C0803916
:100F900009F45FC0803809F0C0C05BC0803B09F431
:100FA00086C038F4803A09F466C0883A09F47FC0F4
:100FB000B4C0803C09F4A7C0883C09F4A4C0883BB5
:100FC00009F48AC0AAC08091AF0210C09091D102EA
:100FD0008091D002981770F5E091D10281E08E0FD8
:100FE0008093D102F0E0E055FD4F80818093BB00FB
:100FF00085EC86C08093D2028EC0E091D10281E060
:101000008E0F8093D1028091BB00F0E0E055FD4F40
:1010100080839091D1028091D0026EC0E091D10284
:1010200081E08E0F8093D1028091BB00F0E0E0550B
:10103000FD4F80838091D30281116DC081E0809348
:10104000AE0284EA61C083E08093D402109201046E
:10105000CFCF80910104803208F051C0E0910104AB
:1010600081E08E0F809301048091BB00F0E0EF518E
:10107000FC4F8083BDCF85EC8093BC001092D402DE
:1010800080910104803230F4E0910104F0E0EF51EE
:10109000FC4F10826091010470E0E0918802F091B1
:1010A000890281EE93E009951092010436C084E034
:1010B0008093D4021092E0031092DF03E0918A0241
:1010C000F0918B0209958091DF03811105C081E0C9
:1010D0008093DF031092BF03E091E00381E08E0F65
:1010E0008093E003F0E0E154FC4F80818093BB00EB
:1010F0009091E0038091DF03981708F479CF85E899
:101100008093BC000AC085EC8093BC001092D4028E
:1011100004C01092D2020E940F05FF91EF91BF917F
:10112000AF919F918F917F916F915F914F913F917F
:101130002F910F900FBE0F901F9018952FB7F89416
:101140006091030470910404809105049091060459
:101150002FBF08953FB7F894809107049091080439
:10116000A0910904B0910A0426B5A89B05C02F3FA1
:1011700019F00196A11DB11D3FBFBA2FA92F982FBD
:101180008827820F911DA11DB11DBC01CD0143E037
:10119000660F771F881F991F4A95D1F708951F92F0
:1011A0000F920FB60F9211242F933F938F939F931B
:1011B000AF93BF938091030490910404A091050420
:1011C000B09106043091020426E0230F2D3720F45D
:1011D0000296A11DB11D05C029E8230F0396A11D8C
:1011E000B11D209302048093030490930404A09300
:1011F0000504B09306048091070490910804A0911F
:101200000904B0910A040196A11DB11D8093070441
:1012100090930804A0930904B0930A04BF91AF917E
:101220009F918F913F912F910F900FBE0F901F9024
:101230001895CF93DF93CDB7DEB7AB970FB6F89481
:10124000DEBF0FBECDBF789484B5826084BD84B507
:10125000816084BD85B5826085BD85B5816085BDB1
:1012600080916E00816080936E0010928100809169
:1012700081008260809381008091810081608093F1
:101280008100809180008160809380008091B10016
:1012900084608093B1008091B00081608093B00041
:1012A00080917A00846080937A0080917A008260D5
:1012B00080937A0080917A008E7F80937A0080916B
:1012C0007A00806880937A001092C1001092A20385
:1012D00061E08DE00E949F0260E08DE00E940802C4
:1012E0008FEC95E0909303018093020180E090E001
:1012F0000E94FC05E0910903F0910A0382E08083DB
:10130000E0910503F09106031082E0910703F0914C
:10131000080388E0808310921103E0910D03F0919F
:101320000E0386E08083E0910B03F0910C03808133
:1013300080618083E0910B03F0910C0380818860D1
:101340008083E0910B03F0910C038081806880839F
:10135000E0910B03F0910C0380818F7D808388EEF8
:1013600093E0A0E0B0E08093FD029093FE02A09392
:10137000FF02B093000384E491E00E9487000E9482
:1013800078018430910514F480E090E0BC01990F5D
:10139000880B990B0E942F0E2BE734E14EE450E4AA
:1013A0000E948E0E20E030E04AEA52E40E94830F51
:1013B00087FD25C011E01093A50383E591E00E940D
:1013C000870084E090E0909305018093040181E020
:1013D0000E9455028091A203811104C061E084E063
:1013E0000E9408021093A40382E691E00E94870005
:1013F00081E090E0909385028093840220C080E099
:101400000E9455028091A203811104C060E084E033
:101410000E9408021092A40388E691E00E948700CF
:1014200083EB93E00E94A30387EA93E00E94A30367
:101430008091040190910501019709F40EC30E9467
:101440006D0262E0CE0101960E94A70189818F3F63
:1014500079F16FE0CE0101960E94A701898188632E
:101460008BA7BE01655D7F4F8FE00E948B011AA69E
:10147000BE01665D7F4F82E00E948B0160E0CE017D
:1014800001960E94A70119A6BE01675D7F4F81E00A
:101490000E948B0160E0CE0101960E94A701898124
:1014A000806888A7BE01685D7F4F80E00E948B0145
:1014B00083E0E82EF12C94E0292E312CCC24C39427
:1014C000D12C3FEC832E35E0932E42E0A42E44E055
:1014D000B42E8EE998E02C01990F66087708809168
:1014E0008602909187028130910571F140F082303F
:1014F000910509F49DC0049709F4B5C05FC18091BE
:10150000840290918502019771F081E991E00E9437
:10151000870020E030E040E050E06AE070E082EADE
:1015200093E00E94240780917602882309F446C143
:1015300010927602E998B0920301A0920201D09233
:101540008702C09286023AC1109276020E949E08DB
:101550006093800270938102809382029093830251
:101560000E9478018430910514F480E090E0BC0181
:10157000990F880B990B0E942F0E2BE734E14EE454
:1015800050E40E948E0E20E030E04AEA52E40E94CD
:10159000830F87FD04C081E08093A50336C083EBF1
:1015A00093E00E94640183EB93E00E942C016CE3C2
:1015B00072E083EB93E00E94CE0087EA93E00E9402
:1015C000640187EA93E00E942C016CE372E087EAF1
:1015D00093E00E94CE00F0920501E092040181E0C8
:1015E0000E9455028091A203811104C061E084E051
:1015F0000E94080281E08093A403309205012092AA
:101600000401D0928502C092840282E090E090931F
:1016100087028093860261E08DE00E94080290922A
:1016200003018092020181E090E00E94FC05C6C0A7
:1016300080917602882309F4C1C0E998B092030131
:10164000A0920201109276020E949E0860937C0292
:1016500070937D0280937E0290937F023092870286
:1016600020928602ABC00E9478018430910514F468
:1016700080E090E0BC01990F880B990B0E942F0E1F
:101680002BE734E14EE450E40E948E0E20E030E07F
:101690004AEA52E40E94830F87FD80C081E0809374
:1016A000A50380917C0290917D02A0917E02B09171
:1016B0007F0240918002509181026091820270917C
:1016C0008302841B950BA60BB70B813127E292078F
:1016D000A105B105B0F180EA91E00E94870083EB9B
:1016E00093E00E942C016FEA71E083EB93E00E948B
:1016F000CE0087EA93E00E942C016FEA71E087EA4E
:1017000093E00E94CE0086E090E0909305018093E4
:10171000040160ED77E080E090E00E94DB0280E071
:101720000E9455028091A203811104C060E084E010
:101730000E9408021092A403109285021092840263
:1017400019C0893C9105A105B10540F1F0928502CF
:10175000E092840280EC91E00E94870086ED91E0A7
:101760000E94870060ED77E080E090E00E94DB025D
:101770000E94150383EB93E00E946F0183EB93E0DB
:101780000E946A0187EA93E00E946F0187EA93E072
:101790000E946A01109205011092040160E08DE040
:1017A0000E940802909203018092020180E090E082
:1017B0000E94FC05109287021092860289EF92E047
:1017C0000E945E04181619060CF091C00E949E0833
:1017D00060937702709378028093790290937A02F3
:1017E0001BA21AA21DA21CA21FA21EA260E070E0F2
:1017F000CE0182960E94D5052AA13BA181110DC080
:101800002115310519F0C9010E9426101BA21AA248
:101810001FA21EA21DA21CA207C01FA21EA261EE33
:1018200071E0C9010E948C110E949A0097FD1BC0B3
:1018300089831A820EA11FA10F5F1F4FB801CE012D
:1018400082960E94D505882379F32AA13BA18EA117
:101850009FA1BE016F5F7F4F820F931F0E948C116B
:101860001FA30EA3E1CF4EA15FA16AA17BA189EFC7
:1018700092E00E9403046FED71E089EF92E00E9414
:1018800056068EA19FA1892B71F10AA11BA162EEC0
:1018900071E0C8010E948311892BC1F419A291E360
:1018A00098A3BE01605E7F4F89EF92E00E945606CA
:1018B0006FED71E089EF92E00E94560686EE91E0AE
:1018C0000E94870081E080937B020DC06DEF71E084
:1018D000C8010E948311892B31F410927B0284E0AD
:1018E00092E00E9487008AA19BA10E94261080910D
:1018F0007B02882309F4AEC00E949E080091770203
:10190000109178022091790230917A02DC01CB01AA
:10191000801B910BA20BB30B81369A4EA105B1052A
:1019200008F498C089E492E00E9487008091040145
:1019300090910501049741F583EB93E00E942C01FF
:101940006EE172E083EB93E00E94CE0083EB93E0C4
:101950000E9435016DE272E083EB93E00E94CE00BD
:1019600087EA93E00E942C016EE172E087EA93E03F
:101970000E94CE0087EA93E00E9435016DE272E09A
:1019800087EA93E00E94CE000E94150383EB93E068
:101990000E946F0183EB93E00E946A0187EA93E063
:1019A0000E946F0187EA93E00E946A01109205018C
:1019B0001092040164EF71E080E090E00E94DB028D
:1019C00083EB93E00E94640183EB93E00E942C017F
:1019D0006CE372E083EB93E00E94CE0087EA93E031
:1019E0000E94640187EA93E00E942C016CE372E09C
:1019F00087EA93E00E94CE00F0920501E092040194
:101A000081E00E9455028091A203811104C061E02F
:101A100084E00E94080281E08093A403D0928502B2
:101A2000C092840210927B0268E873E180E090E04B
:101A30000E94DB02409280025092810260928202F8
:101A40007092830240927C0250927D0260927E02EC
:101A500070927F020E94050542CD83EB93E00E94C5
:101A6000640164E771E083EB93E00E94CE0083EBB6
:101A700093E00E94350163E871E083EB93E00E94FC
:101A8000CE0087EA93E00E94640164E771E087EA90
:101A900093E00E94CE0087EA93E00E94350163E85C
:101AA00071E087EA93E00E94CE0082E090E090939C
:101AB00005018093040168E873E180E090E00E94F2
:101AC000DB02809176028111BACC83EB93E00E9415
:101AD0006F0183EB93E00E946A0187EA93E00E9422
:101AE0006F0187EA93E00E946A011092050110924B
:101AF0000401A5CC1092FC021092FB0288EE93E048
:101B0000A0E0B0E08093FD029093FE02A093FF025C
:101B1000B093000328E131E03093FA022093F902F8
:101B200025EC30E0309306032093050324EC30E0ED
:101B3000309308032093070320EC30E030930A032E
:101B40002093090321EC30E030930C0320930B0326
:101B500022EC30E030930E0320930D0326EC30E0AE
:101B60003093100320930F0310921203109213036B
:101B70001092140310921503109299031092980377
:101B800080939A0390939B03A0939C03B0939D032F
:101B90008AE291E090939703809396031092A203B8
:101BA0001092A6031092A5031092A3031092A4030F
:101BB00061E080E10E949F0280E00E94550261E0A6
:101BC00084E00E949F028091A203811104C060E022
:101BD00084E00E9408021092A40361E081E10E9467
:101BE0009F0260E081E10E94080260E087E00E94BD
:101BF0009F0260E083E00E949F0260E082E00E941A
:101C00009F021092B6031092B5034CE351E050933B
:101C1000B4034093B3038FE38093B70320E1209391
:101C2000BB0392E09093BC031092BD0388E08093C5
:101C3000BE031092AA031092A9035093A8034093E5
:101C4000A70337E23093AB032093AF039093B00325
:101C50001092B1038093B2030895E89409C097FBF2
:101C60003EF490958095709561957F4F8F4F9F4F73
:101C70009923A9F0F92F96E9BB279395F6958795B7
:101C800077956795B795F111F8CFFAF4BB0F11F47A
:101C900060FF1BC06F5F7F4F8F4F9F4F16C0882321
:101CA00011F096E911C0772321F09EE8872F762F57
:101CB00005C0662371F096E8862F70E060E02AF098
:101CC0009A95660F771F881FDAF7880F9695879584
:101CD00097F90895990F0008550FAA0BE0E8FEEF59
:101CE00016161706E807F907C0F012161306E407E0
:101CF000F50798F0621B730B840B950B39F40A26D9
:101D000061F0232B242B252B21F408950A2609F4B6
:101D1000A140A6958FEF811D811D08950E94A10EFF
:101D20000C94120F0E94040F38F00E940B0F20F049
:101D3000952311F00C94FB0E0C94010F11240C94BC
:101D4000460F0E94230F70F3959FC1F3950F50E04B
:101D5000551F629FF001729FBB27F00DB11D639F5D
:101D6000AA27F00DB11DAA1F649F6627B00DA11D03
:101D7000661F829F2227B00DA11D621F739FB00DA9
:101D8000A11D621F839FA00D611D221F749F332719
:101D9000A00D611D231F849F600D211D822F762FB2
:101DA0006A2F11249F5750409AF0F1F088234AF08F
:101DB000EE0FFF1FBB1F661F771F881F91505040FB
:101DC000A9F79E3F510580F00C94FB0E0C94460F32
:101DD0005F3FE4F3983ED4F3869577956795B79582
:101DE000F795E7959F5FC1F7FE2B880F911D96959C
:101DF000879597F9089597F99F6780E870E060E00C
:101E000008959FEF80EC089500240A941616170693
:101E100018060906089500240A94121613061406DB
:101E200005060895092E0394000C11F4882352F03E
:101E3000BB0F40F4BF2B11F460FF04C06F5F7F4FF6
:101E40008F4F9F4F089557FD9058440F551F59F0DD
:101E50005F3F71F04795880F97FB991F61F09F3F97
:101E600079F087950895121613061406551FF2CFC0
:101E70004695F1DF08C0161617061806991FF1CF10
:101E800086957105610508940895E894BB27662737
:101E90007727CB0197F908952F923F924F925F9247
:101EA0006F927F928F929F92AF92BF92CF92DF926A
:101EB000EF92FF920F931F93CF93DF93CDB7DEB7CF
:101EC000CA1BDB0B0FB6F894DEBF0FBECDBF099463
:101ED0002A88398848885F846E847D848C849B84BA
:101EE000AA84B984C884DF80EE80FD800C811B81C8
:101EF000AA81B981CE0FD11D0FB6F894DEBF0FBEF7
:101F0000CDBFED0108950E946A0E08F48FEF089589
:101F1000EE0FFF1F0590F491E02D09940F931F938E
:101F2000CF93DF938230910510F482E090E0E0914E
:101F30000D04F0910E0420E030E0A0E0B0E0309716
:101F400019F1408151810281138148175907C8F066
:101F50008417950769F4109731F012960C93129735
:101F600013961C9327C000930D0410930E0422C0F7
:101F70002115310519F04217530718F49A01BD01D4
:101F8000EF01DF01F801DBCF21153105F9F0281B46
:101F9000390B2430310580F48A819B8161157105EC
:101FA00021F0FB019383828304C090930E048093FD
:101FB0000D04FE01329644C0FE01E20FF31F81932F
:101FC000919322503109398328833AC020910B0420
:101FD00030910C04232B41F4209108013091090128
:101FE00030930C0420930B042091060130910701DB
:101FF0002115310541F42DB73EB740910A015091AA
:102000000B01241B350BE0910B04F0910C04E2173B
:10201000F307A0F42E1B3F0B2817390778F0AC010B
:102020004E5F5F4F2417350748F04E0F5F1F5093E8
:102030000C0440930B048193919302C0E0E0F0E024
:10204000CF01DF91CF911F910F910895CF93DF932F
:10205000009709F481C0FC01329713821282A0918B
:102060000D04B0910E04109781F420813181820F0C
:10207000931F20910B0430910C042817390751F558
:10208000F0930C04E0930B0467C0ED0120E030E016
:10209000CE17DF0740F44A815B819E01411551054F
:1020A000F1F0EA01F5CFD383C28340815181840FDF
:1020B000951FC817D90759F488819981840F951FF6
:1020C0000296918380838A819B81938382832115E9
:1020D000310529F4F0930E04E0930D043DC0E901AD
:1020E000FB83EA8349915991C40FD51FEC17FD0773
:1020F00061F480819181840F951F0296E901998393
:102100008883828193819B838A83E0E0F0E012964A
:102110008D919C911397009719F0FD01DC01F7CF89
:102120008D919C9111979D012E5F3F4F820F931FC0
:1021300020910B0430910C042817390769F430976B
:1021400029F410920E0410920D0402C01382128220
:10215000B0930C04A0930B04DF91CF910895A0E0FD
:10216000B0E0E5EBF0E10C94500FEC01009721F4A6
:10217000CB010E948E0FB4C0FC01E60FF71F9C013B
:1021800022503109E217F30708F4A8C0D9010D91D4
:102190001C91119706171707B0F00530110508F4C8
:1021A0009BC0C80104978617970708F495C0025092
:1021B0001109061B170B019311936D937C93CF01AB
:1021C0000E94261089C05B01A01AB10A4C01800E42
:1021D000911EA0910D04B0910E04612C712CE12C84
:1021E000F12C109709F446C08D919C911197A81578
:1021F000B905B1F56C0142E0C40ED11CCA14DB0470
:1022000078F14C018A189B08640142E0C40ED11C8D
:102210001296BC9012971396AC91B5E0CB16D104F0
:1022200040F0B282A38391828082D9016D937C9326
:1022300009C00E5F1F4F800F911FF90191838083AA
:10224000EB2DFA2FE114F10431F0D7011396FC9332
:10225000EE93129741C0F0930E04E0930D043CC03E
:102260006816790608F43C017D0112960D90BC9128
:10227000A02DB7CF80910B0490910C04881699067D
:10228000E1F466167706C8F4809106019091070183
:10229000009741F48DB79EB740910A0150910B0110
:1022A000841B950BE817F907C8F4F0930C04E0932E
:1022B0000B04F901718360830FC0CB010E948E0F64
:1022C0007C01009759F0A801BE010E947A11CE014D
:1022D0000E942610C70104C0CE0102C080E090E039
:1022E000CDB7DEB7EEE00C946C0F81E090E0F8948F
:1022F0000C949311FB01DC0102C001900D9241503E
:102300005040D8F70895FB01DC018D9101908019B0
:102310000110D9F3990B0895FB01DC0101900D9296
:0A2320000020E1F70895F894FFCFC4
:10232A0002040204010000000F04800000004000C3
:10233A001400540000000000960403042D04E30472
:10234A005E043C045004000000009C056F05CC05A7
:10235A004305670553054405000000000707030409
:10236A00CC05CB057374617274206F662073657433
:10237A007570005069207761732072756E6E696E90
:10238A0067004932433D300057656C636F6D6520C5
:10239A004C434400557365207265617220696E7002
:1023AA00757400746F20737461727420746F6F6C2B
:1023BA0000676F696E6720746F20736C65657000C3
:1023CA00666F7263696E67207069206F6666004681
:1023DA006F7263696E672073687574646F776E00D5
:1023EA0072657175657374696E67206120736875AB
:1023FA0074646F776E00706F7765724F6666000D52
:10240A000A007665720075617274206265696E678A
:10241A002073657420746F2074727565007570641A
:10242A006174650074696D656F75742066756E6395
:10243A0074696F6E2064697361626C6564004661D9
:10244A00756C742064657465637465640072657381
:10245A00657474696E6720746F6F6C00496E697475
:10246A0069616C697A696E67006E6F2055415254D2
:10247A0020636F6D6D7320696E6974204750494FF0
:10248A002073687574646F776E207468656E207245
:06249A0065626F6F740023
:00000001FF
