:100000000C945D000C941C060C94F5050C94850072
:100010000C9485000C9485000C94FA060C948500D1
:100020000C9485000C9485000C9485000C9485003C
:100030000C9485000C9485000C9485000C9485002C
:100040000C94BC080C9485000C947E060C94580605
:100050000C9485000C9485000C9485000C9485000C
:100060000C945D070C94850000000000240027001C
:100070002A0000000000250028002B0004040404CE
:100080000404040402020202020203030303030342
:10009000010204081020408001020408102001021F
:1000A00004081020000000080002010000030407FB
:1000B0000000000000000000430D11241FBECFEF20
:1000C000D8E0DEBFCDBF23E0AAEBB1E001C01D92B6
:1000D000A335B207E1F711E0A0E0B1E0ECEBF2E20A
:1000E00002C005900D92AA3BB107D9F710E0CDE50B
:1000F000D0E004C02197FE010E94510FCC35D107FA
:10010000C9F70E9406090C945C110C9400000F932F
:100110001F930E948B086093450270934602809360
:100120004702909348028DE392E00E94290497FFD2
:100130001FC00E948B080091450210914602209139
:10014000470230914802DC01CB01801B910BA20BCE
:10015000B30B009141021091420220914302309171
:10016000440280179107A207B307E8F28FEF9FEFD1
:100170001F910F9108950C944306282F30913C0253
:10018000313208F04AC0809118028111FCCF909161
:100190003B0242E040931802209317022FEF209376
:1001A00016021092150230931402EBE1F2E0A4EF74
:1001B000B1E020E0321721F041914D932F5FFACF4B
:1001C0001092F3012091F301990F922B9093F30178
:1001D0009091F201913061F41092F2019091F3014B
:1001E0009093BB009091BC0093FDF8CF95EC01C0BB
:1001F00095EE9093BC00909118029230E1F39091AB
:1002000016029F3F79F080911602803241F0809172
:100210001602803331F084E005C081E003C082E043
:1002200001C083E010921A0210923C02109219024F
:10023000089540E062E00E94DD068CE99FE00197AE
:10024000F1F70895CF93DF93CDB7DEB728970FB6B8
:10025000F894DEBF0FBECDBF9C0188E0ECE0F1E07A
:10026000DE01119601900D928A95E1F7F9018185E1
:10027000811102C09FEF01C091E0FE013196E90FAC
:10028000F11DE90FF11D6081606840E0C901289609
:100290000FB6F894DEBF0FBECDBFDF91CF910C94A7
:1002A000DD0628E0FC01238760E00C94B006FC0129
:1002B000138660E00C94B00640E061E00E94DD0629
:1002C0008CE99FE00197F1F7089587E480937C0023
:1002D00080917A00806480937A0080917A0086FD14
:1002E000FCCF809178002091790090E0922B0895C6
:1002F000CF93DF93EB0191E09093190298E69093EE
:100300003B0210921A0210923C02682F8AED92E092
:100310000E94890568818AED92E00E94890581E04A
:10032000DF91CF910C94BD00CF93DF93EC0181E07E
:100330008093190288E680933B0210921A02109271
:100340003C028AED92E00E94890581E00E94BD0096
:10035000809118028111FCCF81E080931802809374
:1003600017029FEF9093160210921502109214023A
:100370008093F3018091F301806D8093F30180916C
:10038000F201813061F41092F2018091F3018093C7
:10039000BB008091BC0083FDF8CF85EC01C085EEE9
:1003A0008093BC00809118028130E1F380911502A6
:1003B000811103C09091150201C091E0A4EFB1E05A
:1003C000E2EDF1E080E0891721F02D9121938F5F1C
:1003D000FACF1092D1018093D0018AED92E00E9471
:1003E00040058883DF91CF91089590E0FC01EC55A2
:1003F000FF4F2491FC01E057FF4F3491FC01E4587A
:10040000FF4FE491EE2309F43CC0222339F123305D
:1004100091F038F42130A9F0223001F584B58F7DB8
:1004200012C0273091F02830A1F02430B9F4809127
:1004300080008F7D03C0809180008F778093800043
:100440000DC084B58F7784BD09C08091B0008F77CF
:1004500003C08091B0008F7D8093B000F0E0EE0F7C
:10046000FF1FEE58FF4FA591B4919FB7F89461110B
:1004700004C08C913095382302C0EC913E2B3C9304
:100480009FBF08959091E602992319F0882379F08F
:1004900006C0882341F061E080E10E94F50181E01F
:1004A0008093E702089560E080E10E94F5011092D8
:1004B000E70208951092D1011092D00110921A0211
:1004C00010923C021092180281E080931702109261
:1004D000F20161E082E10E94F50161E083E10E94A6
:1004E000F501E9EBF0E080818E7F808380818D7F54
:1004F000808380E28093B80085E48093BC008EE224
:1005000095E09093CF018093CE018FE295E0909398
:10051000CD018093CC010895CF93DF9390E0FC014F
:10052000E057FF4F2491FC01E458FF4F849188234A
:1005300061F190E0880F991FFC01E859FF4FC591C8
:10054000D491FC01EE58FF4FA591B491611109C0FF
:100550009FB7F8948881209582238883EC912E237D
:100560000BC0623061F49FB7F8948881322F3095C8
:1005700083238883EC912E2B2C939FBF06C08FB7CB
:10058000F894E8812E2B28838FBFDF91CF910895B7
:100590008F929F92AF92BF92CF92DF92EF92FF9293
:1005A0006B017C010E9497084B015C01C114D104CE
:1005B000E104F104F1F00E949708DC01CB018819F5
:1005C0009909AA09BB09883E9340A105B10570F3BA
:1005D00021E0C21AD108E108F10888EE880E83E014
:1005E000981EA11CB11CC114D104E104F10419F737
:1005F000DDCFFF90EF90DF90CF90BF90AF909F90B6
:100600008F900895CF92DF92EF92FF92CF93DF9376
:100610008091E602882379F068E873E180E090E059
:100620000E94C80280E0DF91CF91FF90EF90DF90B1
:10063000CF900C94420261E081E10E94F5010E949A
:100640008B086B017C010E9465018430910514F4D4
:1006500080E090E0BC01990F880B990B0E94F80D87
:100660002BE734E14EE450E40E94570E20E030E0E6
:100670004AEA52E40E944C0F87FD05C081E0809356
:10068000E902C1E001C0C0E080E090E0DC01D1E01F
:10069000CC2399F180339547A105B10570F50E94EF
:1006A00065018430910514F480E090E0BC01990F5D
:1006B000880B990B0E94F80D2BE734E14EE450E4CF
:1006C0000E94570E20E030E04AEA52E40E944C0FAC
:1006D00087FD03C0D093E90201C0C0E062E370E08F
:1006E00080E090E00E94C8020E948B08DC01CB01F0
:1006F0008C199D09AE09BF09CBCF68E873E180E092
:1007000090E00E94C80280E00E94420260E081E125
:10071000DF91CF91FF90EF90DF90CF900C94F50197
:100720000F931F93CF93DF93EC010E945A021D8217
:100730008985823010F098E09D839A85992329F06D
:10074000813019F48D8184608D8362E370E080E0F4
:1007500090E00E94C8026B85CE010E94B00668EE50
:1007600073E080E090E00E94C80260E3CE010E9446
:10077000C40604E213E2C8010197F1F760E3CE0179
:100780000E94C406C8010197F1F760E3CE010E9400
:10079000C40688E291E00197F1F760E2CE010E9481
:1007A000C4066D81606240E0CE010E94DD0684E0F7
:1007B0008E8340E06CE0CE010E94DD06CE010E94F7
:1007C0005C0182E08F8340E066E0CE010E94DD069E
:1007D000CE01DF91CF911F910F910C9419010895D3
:1007E000CF92DF92EF92FF920F931F93CF93DF93FD
:1007F0006C017A018B01C0E0D0E0CE15DF0581F0FD
:10080000D8016D918D01D601ED91FC910190F0819F
:10081000E02DC6010995892B11F02196EECF7E01BE
:10082000C701DF91CF911F910F91FF90EF90DF9063
:10083000CF900895FC01538D448D252F30E0842FF7
:1008400090E0821B930B541710F0CF9608950197F8
:100850000895FC01918D828D981761F0828DDF01E2
:10086000A80FB11D5D968C91928D9F5F9F73928FA3
:1008700090E008958FEF9FEF0895FC01918D828D98
:10088000981731F0828DE80FF11D858D90E0089565
:100890008FEF9FEF0895FC01918D228D892F90E0BD
:1008A000805C9F4F821B91098F73992708958DE378
:1008B00092E00E944B0421E0892B09F420E0822F72
:1008C0000895FC01848DDF01A80FB11DA35ABF4F0D
:1008D0002C91848D90E001968F739927848FA6893F
:1008E000B7892C93A089B1898C91837080648C9393
:1008F000938D848D981306C00288F389E02D808142
:100900008F7D80830895EF92FF920F931F93CF9373
:10091000DF93EC0181E0888F9B8D8C8D981305C04F
:10092000E889F989808185FD26C0F62E0B8D10E0BF
:100930000F5F1F4F0F731127E02E8C8DE8120CC034
:100940000FB607FCFACFE889F989808185FFF5CFDA
:10095000CE010E946104F1CF8B8DFE01E80FF11DE5
:10096000E35AFF4FF0829FB7F8940B8FEA89FB8917
:10097000808180620AC09FB7F894EE89FF89608306
:10098000E889F98980818370806480839FBF81E0DA
:1009900090E0DF91CF911F910F91FF90EF9008951C
:1009A000CF93DF93EC01888D8823C9F0EA89FB8916
:1009B000808185FD05C0A889B9898C9186FD0FC00D
:1009C0000FB607FCF5CF808185FFF2CFA889B989E2
:1009D0008C9185FFEDCFCE010E946104E7CFDF91BE
:1009E000CF91089580E090E0892B29F00E94570470
:1009F00081110C940000089585ED8093BC008091D6
:100A0000BC0084FDFCCF109218020895409123038E
:100A1000262F30E0240F311D21323105DCF42091E6
:100A200018022430C9F4FC0180E090E0861758F4E5
:100A3000309123032191DC01AD5FBC4FA30FB11DA9
:100A40002C930196F3CF80912303680F60932303C7
:100A500080E0089581E0089582E008950895089562
:100A60000895E091D1018091D001E81730F4F0E0D1
:100A7000EE52FE4F808190E008958FEF9FEF089532
:100A80009091D1018091D001981750F4E92FF0E0B6
:100A9000EE52FE4F208130E09F5F9093D10102C063
:100AA0002FEF3FEFC90108958091D00190E0209190
:100AB000D101821B91090895CF92DF92EF92FF92AC
:100AC0000F931F93CF93DF937C01CB018A01209179
:100AD0001902222389F0EB016B01C40ED51ECC153F
:100AE000DD0569F06991D701ED91FC910190F081EC
:100AF000E02DC7010995F3CF642F0E940605C801B8
:100B0000DF91CF911F910F91FF90EF90DF90CF90E9
:100B10000895CF93DF931F92CDB7DEB769832091FD
:100B200019022223D1F020913C02203240F021E032
:100B300030E0FC013383228380E090E015C0809197
:100B40001A02E82FF0E0E55EFD4F998190838F5FF8
:100B500080931A0280933C0205C061E0CE010196A9
:100B60000E94060581E090E00F90DF91CF910895FB
:100B7000089580E090E0089581E08093BA0108959F
:100B80000E943E110F931F93CF93DF93EC01888156
:100B90009981009729F02A813B812617370788F42D
:100BA0008B016F5F7F4F0E947810009761F09983EF
:100BB00088831B830A832C813D81232B11F4FC0144
:100BC000108281E001C080E0DF91CF911F910F91F1
:100BD0000895E9E6F0E02081237F880F991F880FB0
:100BE000991F822B8083E99A08951F920F920FB666
:100BF0000F9211242F933F934F935F936F937F93A3
:100C00008F939F93AF93BF93EF93FF93E091020174
:100C1000F09103010995FF91EF91BF91AF919F91E1
:100C20008F917F916F915F914F913F912F910F9095
:100C30000FBE0F901F9018951F920F920FB60F9234
:100C400011242F933F934F935F936F937F938F93D1
:100C50009F93AF93BF93EF93FF93E0910001F091C7
:100C600001010995FF91EF91BF91AF919F918F91F4
:100C70007F916F915F914F913F912F910F900FBE98
:100C80000F901F9018956115710579F0FB01019087
:100C90000020E9F73197AF01461B570BDC01ED91BE
:100CA000FC910280F381E02D099480E090E00895AA
:100CB0001F920F920FB60F9211242F933F934F93D1
:100CC0005F936F937F938F939F93AF93BF93EF93B4
:100CD000FF938DE392E00E946104FF91EF91BF9139
:100CE000AF919F918F917F916F915F914F913F91C4
:100CF0002F910F900FBE0F901F9018951F920F927B
:100D00000FB60F9211242F938F939F93EF93FF931E
:100D1000E0914D02F0914E028081E0915302F091FA
:100D2000540282FD12C09081809156028F5F8F73B2
:100D300020915702821751F0E0915602F0E0E35CF7
:100D4000FD4F958F8093560201C08081FF91EF91F6
:100D50009F918F912F910F900FBE0F901F9018951C
:100D6000FC01248131E03093190220933B02109260
:100D70001A0210923C028385682B8AED92E00E9451
:100D8000890581E00C94BD000F931F93CF938C01D4
:100D9000C62F0E94B0066C2F6460C8010E94B00686
:100DA0006C2F6B7FC8010E94B00680E690E001972F
:100DB000F1F7CF911F910F9108950F931F93CF9348
:100DC000DF938C01C62FD42F607F642B0E94C40652
:100DD00080E1C89FB00111246D2BC801DF91CF9134
:100DE0001F910F910C94C40641E00E94DD0681E042
:100DF00090E008951F920F920FB60F9211248F93D7
:100E00000FB6F894A8958091600088618093600087
:100E1000109260000FBE8F910F900FBE0F901F9029
:100E200018954115510529F4EAE7F0E080818F77A4
:100E300080836A307105A9F063FD02C088E001C0BB
:100E400088E26770682B88E10FB6F894A8958093C4
:100E500060000FBE60936000E0E6F0E08081806497
:100E60008083232BA1F483B7817F846083BFF894B0
:100E700083B7816083BF85B7806685BF8F7D85BF5F
:100E80007894889583B78E7F83BF78940EC083B79C
:100E9000817F846083BFF89483B7816083BF789437
:100EA000889583B78E7F83BF7894452B29F4EAE732
:100EB000F0E080818068808308951F920F920FB6C2
:100EC0000F9211242F933F934F935F936F937F93D0
:100ED0008F939F93AF93BF93EF93FF938091B9004C
:100EE000887F803609F49CC068F5883209F45BC0BD
:100EF00090F4803109F454C038F4882309F4F6C022
:100F0000883009F44DC0F6C0883109F44CC08032F5
:100F100009F45DC0EFC0803409F468C048F4803340
:100F200009F455C0883309F0E5C080931602D8C093
:100F3000803509F44FC0883509F45DC0883409F064
:100F4000D9C0D6C0883909F4C7C0A8F4883709F4D5
:100F500067C038F4883609F463C0803709F460C08C
:100F6000C9C0883809F4B8C0803909F45FC0803836
:100F700009F0C0C05BC0803B09F486C038F4803AF9
:100F800009F466C0883A09F47FC0B4C0803C09F413
:100F9000A7C0883C09F4A4C0883B09F48AC0AAC051
:100FA0008091F30110C0909115028091140298175E
:100FB00070F5E091150281E08E0F80931502F0E04C
:100FC000EC50FE4F80818093BB0085EC86C08093FF
:100FD00016028EC0E091150281E08E0F80931502FB
:100FE0008091BB00F0E0EC50FE4F808390911502A1
:100FF000809114026EC0E091150281E08E0F809303
:1010000015028091BB00F0E0EC50FE4F8083809190
:10101000170281116DC081E08093F20184EA61C002
:1010200083E08093180210924503CFCF809145034F
:10103000803208F051C0E091450381E08E0F80932B
:1010400045038091BB00F0E0EB5DFC4F8083BDCF9A
:1010500085EC8093BC001092180280914503803289
:1010600030F4E0914503F0E0EB5DFC4F10826091BD
:10107000450370E0E091CC01F091CD0185E293E071
:1010800009951092450336C084E0809318021092AF
:10109000240310922303E091CE01F091CF01099532
:1010A00080912303811105C081E080932303109276
:1010B0000303E091240381E08E0F80932403F0E08A
:1010C000ED5FFC4F80818093BB0090912403809161
:1010D0002303981708F479CF85E88093BC000AC0F1
:1010E00085EC8093BC001092180204C01092160286
:1010F0000E94FC04FF91EF91BF91AF919F918F915E
:101100007F916F915F914F913F912F910F900FBE03
:101110000F901F9018952FB7F89460914703709126
:1011200048038091490390914A032FBF08953FB728
:10113000F89480914B0390914C03A0914D03B09192
:101140004E0326B5A89B05C02F3F19F00196A11D9F
:10115000B11D3FBFBA2FA92F982F8827820F911D4D
:10116000A11DB11DBC01CD0143E0660F771F881F93
:10117000991F4A95D1F708951F920F920FB60F92BB
:1011800011242F933F938F939F93AF93BF9380919D
:10119000470390914803A0914903B0914A033091CD
:1011A000460326E0230F2D3720F40296A11DB11D22
:1011B00005C029E8230F0396A11DB11D2093460306
:1011C0008093470390934803A0934903B0934A0345
:1011D00080914B0390914C03A0914D03B0914E032D
:1011E0000196A11DB11D80934B0390934C03A093D6
:1011F0004D03B0934E03BF91AF919F918F913F915B
:101200002F910F900FBE0F901F901895CF93DF93E3
:10121000CDB7DEB7AB970FB6F894DEBF0FBECDBF2C
:10122000789484B5826084BD84B5816084BD85B5C1
:10123000826085BD85B5816085BD80916E008160CD
:1012400080936E0010928100809181008260809373
:101250008100809181008160809381008091800075
:101260008160809380008091B10084608093B100A0
:101270008091B00081608093B00080917A0084609A
:1012800080937A0080917A00826080937A008091C6
:101290007A008E7F80937A0080917A0080688093B4
:1012A0007A001092C1001092E60261E08DE00E9487
:1012B0008C0260E08DE00E94F5018CEB95E090934C
:1012C00003018093020180E090E00E94E905E09133
:1012D0004D02F0914E0282E08083E0914902F0914C
:1012E0004A021082E0914B02F0914C0288E0808328
:1012F00010925502E0915102F091520286E08083F3
:10130000E0914F02F0915002808180618083E091F2
:101310004F02F0915002808188608083E0914F02FB
:10132000F0915002808180688083E0914F02F091BB
:10133000500280818F7D808388EE93E0A0E0B0E052
:101340008093410290934202A0934302B0934402DF
:101350000E9465018430910514F480E090E0BC01A6
:10136000990F880B990B0E94F80D2BE734E14EE49E
:1013700050E40E94570E20E030E04AEA52E40E9416
:101380004C0F87FD29C011E01093E90284E090E042
:10139000909305018093040181E00E9442028091B4
:1013A000E602811104C061E084E00E94F50110931F
:1013B000E80264E471E08DE392E00E9443066AE48F
:1013C00071E08DE392E00E94430681E090E090930B
:1013D000C9018093C8011CC080E00E944202809134
:1013E000E602811104C060E084E00E94F5011092E1
:1013F000E80287EF92E00E9490038BEE92E00E9459
:1014000090038091040190910501019709F4EEC2C7
:101410000E945A0262E0CE0101960E9494018981E5
:101420008F3F79F16FE0CE0101960E94940189818E
:1014300088638BA7BE01655D7F4F8FE00E947801B6
:101440001AA6BE01665D7F4F82E00E94780160E0CF
:10145000CE0101960E94940119A6BE01675D7F4FDF
:1014600081E00E94780160E0CE0101960E94940123
:101470008981806888A7BE01685D7F4F80E00E94F7
:10148000780183E0E82EF12C94E0292E312CCC2435
:10149000C394D12C3CEB832E35E0932E4FEEA42E3B
:1014A00043E0B42E8BE898E02C01990F660877088A
:1014B0008091CA019091CB018130910551F140F0AA
:1014C0008230910509F499C0049709F4B1C05BC159
:1014D0008091C8019091C901019751F020E030E05E
:1014E00040E050E06AE070E086EE92E00E94110772
:1014F0008091BA01882309F446C11092BA01E99893
:10150000B0920301A0920201D092CB01C092CA0115
:101510003AC11092BA010E948B086093C401709383
:10152000C5018093C6019093C7010E946501843074
:10153000910514F480E090E0BC01990F880B990BA1
:101540000E94F80D2BE734E14EE450E40E94570E60
:1015500020E030E04AEA52E40E944C0F87FD04C0CC
:1015600081E08093E90236C087EF92E00E9451014A
:1015700087EF92E00E9419016DEA71E087EF92E037
:101580000E94BB008BEE92E00E9451018BEE92E034
:101590000E9419016DEA71E08BEE92E00E94BB009F
:1015A000F0920501E092040181E00E9442028091E4
:1015B000E602811104C061E084E00E94F50181E04F
:1015C0008093E8023092050120920401D092C90173
:1015D000C092C80182E090E09093CB018093CA0151
:1015E00061E08DE00E94F50190920301809202017A
:1015F00081E090E00E94E905C6C08091BA0188238D
:1016000009F4C1C0E998B0920301A09202011092BE
:10161000BA010E948B086093C0017093C10180934E
:10162000C2019093C3013092CB012092CA01ABC09A
:101630000E9465018430910514F480E090E0BC01C3
:10164000990F880B990B0E94F80D2BE734E14EE4BB
:1016500050E40E94570E20E030E04AEA52E40E9433
:101660004C0F87FD80C081E08093E9028091C0012A
:101670009091C101A091C201B091C3014091C401F8
:101680005091C5016091C6017091C701841B950BF3
:10169000A60BB70B813127E29207A105B10590F1A6
:1016A00087EF92E00E9419016AE671E087EF92E00D
:1016B0000E94BB008BEE92E00E9419016AE671E085
:1016C0008BEE92E00E94BB0086E090E090930501D3
:1016D0008093040160ED77E080E090E00E94C80212
:1016E00080E00E9442028091E602811104C060E025
:1016F00084E00E94F5011092E8021092C901109254
:10170000C8011DC0893C9105A105B10560F1F092A9
:10171000C901E092C8016BE771E08DE392E00E949D
:1017200043066AE471E08DE392E00E94430660EDB7
:1017300077E080E090E00E94C8020E94020387EFF9
:1017400092E00E945C0187EF92E00E9457018BEECD
:1017500092E00E945C018BEE92E00E945701109291
:1017600005011092040160E08DE00E94F501909265
:1017700003018092020180E090E00E94E90510924E
:10178000CB011092CA018DE392E00E944B0418161F
:1017900019060CF079C00E948B086093BB0170930E
:1017A000BC018093BD019093BE011BA21AA21DA291
:1017B0001CA21FA21EA260E070E0CE0182960E94D1
:1017C000C2052AA13BA181110DC02115310519F0D7
:1017D000C9010E94EF0F1BA21AA21FA21EA21DA2E6
:1017E0001CA207C01FA21EA26CE471E0C9010E94E6
:1017F00055110E9487000EA11FA197FD19C0898372
:101800001A820F5F1F4FB801CE0182960E94C20557
:10181000882379F32AA13BA18EA19FA1BE016F5F0E
:101820007F4F820F931F0E9455111FA30EA3E1CF7C
:10183000012B31F10AA11BA164E871E0C8010E94EB
:101840004C11892BA1F419A291E398A3BE01605E0B
:101850007F4F8DE392E00E9443066AE471E08DE3DE
:1018600092E00E94430681E08093BF0109C068E8CE
:1018700071E0C8010E944C11892B11F41092BF0134
:101880008AA19BA10E94EF0F8091BF01882309F4D8
:10189000AAC00E948B080091BB011091BC0120914D
:1018A000BD013091BE01DC01CB01801B910BA20B6D
:1018B000B30B81369A4EA105B10508F494C080910E
:1018C000040190910501049741F587EF92E00E9491
:1018D00019016FE871E087EF92E00E94BB0087EF8B
:1018E00092E00E9422016EE971E087EF92E00E948F
:1018F000BB008BEE92E00E9419016FE871E08BEE65
:1019000092E00E94BB008BEE92E00E9422016EE901
:1019100071E08BEE92E00E94BB000E94020387EF11
:1019200092E00E945C0187EF92E00E9457018BEEEB
:1019300092E00E945C018BEE92E00E9457011092AF
:1019400005011092040164EF71E080E090E00E94D4
:10195000C80287EF92E00E94510187EF92E00E9457
:1019600019016DEA71E087EF92E00E94BB008BEEF7
:1019700092E00E9451018BEE92E00E9419016DEA03
:1019800071E08BEE92E00E94BB00F0920501E092C4
:10199000040181E00E9442028091E602811104C0AC
:1019A00061E084E00E94F50181E08093E802D0923A
:1019B000C901C092C8011092BF0168E873E180E0DC
:1019C00090E00E94C8024092C4015092C50160920A
:1019D000C6017092C7014092C0015092C10160924D
:1019E000C2017092C3010E94F20462CD87EF92E0BF
:1019F0000E9451016DE471E087EF92E00E94BB000C
:101A000087EF92E00E9422016CE571E087EF92E09F
:101A10000E94BB008BEE92E00E9451016DE471E0E8
:101A20008BEE92E00E94BB008BEE92E00E942201BE
:101A30006CE571E08BEE92E00E94BB0082E090E0EA
:101A4000909305018093040168E873E180E090E0E1
:101A50000E94C8028091BA018111DACC87EF92E02E
:101A60000E945C0187EF92E00E9457018BEE92E0AA
:101A70000E945C018BEE92E00E94570110920501DA
:101A800010920401C5CC1092400210923F0288EEE1
:101A900093E0A0E0B0E08093410290934202A093D3
:101AA0004302B093440228E131E030933E02209398
:101AB0003D0225EC30E030934A022093490224ECA9
:101AC00030E030934C0220934B0220EC30E0309316
:101AD0004E0220934D0221EC30E0309350022093CF
:101AE0004F0222EC30E0309352022093510226EC58
:101AF00030E0309354022093530210925602109219
:101B0000570210925802109259021092DD02109260
:101B1000DC028093DE029093DF02A093E002B09398
:101B2000E1028AE291E09093DB028093DA02109264
:101B3000E6021092EA021092E9021092E702109275
:101B4000E80261E080E10E948C0280E00E94420293
:101B500061E084E00E948C028091E602811104C061
:101B600060E084E00E94F5011092E80261E081E10A
:101B70000E948C0260E081E10E94F50160E087E054
:101B80000E948C0260E083E00E948C0260E082E0B0
:101B90000E948C021092FA021092F9024CE351E07A
:101BA0005093F8024093F7028FE38093FB0220E109
:101BB0002093FF0292E0909300031092010388E0CB
:101BC000809302031092EE021092ED025093EC0209
:101BD0004093EB0237E23093EF022093F3029093AD
:101BE000F4021092F5028093F6020895E89409C079
:101BF00097FB3EF490958095709561957F4F8F4F40
:101C00009F4F9923A9F0F92F96E9BB279395F69555
:101C1000879577956795B795F111F8CFFAF4BB0FD3
:101C200011F460FF1BC06F5F7F4F8F4F9F4F16C037
:101C3000882311F096E911C0772321F09EE8872FC1
:101C4000762F05C0662371F096E8862F70E060E07D
:101C50002AF09A95660F771F881FDAF7880F9695F6
:101C6000879597F90895990F0008550FAA0BE0E89A
:101C7000FEEF16161706E807F907C0F0121613064E
:101C8000E407F50798F0621B730B840B950B39F48E
:101C90000A2661F0232B242B252B21F408950A26F4
:101CA00009F4A140A6958FEF811D811D08950E9422
:101CB0006A0E0C94DB0E0E94CD0E38F00E94D40EFA
:101CC00020F0952311F00C94C40E0C94CA0E11242C
:101CD0000C940F0F0E94EC0E70F3959FC1F3950FBB
:101CE00050E0551F629FF001729FBB27F00DB11DA0
:101CF000639FAA27F00DB11DAA1F649F6627B00D30
:101D0000A11D661F829F2227B00DA11D621F739F18
:101D1000B00DA11D621F839FA00D611D221F749F26
:101D20003327A00D611D231F849F600D211D822F6D
:101D3000762F6A2F11249F5750409AF0F1F0882394
:101D40004AF0EE0FFF1FBB1F661F771F881F9150C1
:101D50005040A9F79E3F510580F00C94C40E0C949E
:101D60000F0F5F3FE4F3983ED4F386957795679520
:101D7000B795F795E7959F5FC1F7FE2B880F911DEB
:101D80009695879597F9089597F99F6780E870E091
:101D900060E008959FEF80EC089500240A941616E1
:101DA000170618060906089500240A941216130649
:101DB000140605060895092E0394000C11F48823D7
:101DC00052F0BB0F40F4BF2B11F460FF04C06F5FF3
:101DD0007F4F8F4F9F4F089557FD9058440F551FC9
:101DE00059F05F3F71F04795880F97FB991F61F09D
:101DF0009F3F79F087950895121613061406551F14
:101E0000F2CF4695F1DF08C0161617061806991F7F
:101E1000F1CF86957105610508940895E894BB2774
:101E200066277727CB0197F908952F923F924F921B
:101E30005F926F927F928F929F92AF92BF92CF925A
:101E4000DF92EF92FF920F931F93CF93DF93CDB763
:101E5000DEB7CA1BDB0B0FB6F894DEBF0FBECDBFDB
:101E600009942A88398848885F846E847D848C84AC
:101E70009B84AA84B984C884DF80EE80FD800C81B5
:101E80001B81AA81B981CE0FD11D0FB6F894DEBF98
:101E90000FBECDBFED0108950E94330E08F48FEF01
:101EA0000895EE0FFF1F0590F491E02D09940F9314
:101EB0001F93CF93DF938230910510F482E090E07E
:101EC000E0915103F091520320E030E0A0E0B0E057
:101ED000309719F1408151810281138148175907C8
:101EE000C8F08417950769F4109731F012960C9397
:101EF000129713961C9327C000935103109352031B
:101F000022C02115310519F04217530718F49A0120
:101F1000BD01EF01DF01F801DBCF21153105F9F03B
:101F2000281B390B2430310580F48A819B8161158F
:101F3000710521F0FB019383828304C090935203C7
:101F400080935103FE01329644C0FE01E20FF31F5D
:101F50008193919322503109398328833AC020918B
:101F60004F0330915003232B41F42091080130910D
:101F700009013093500320934F03209106013091C3
:101F800007012115310541F42DB73EB740910A01F3
:101F900050910B01241B350BE0914F03F09150033E
:101FA000E217F307A0F42E1B3F0B2817390778F030
:101FB000AC014E5F5F4F2417350748F04E0F5F1F8F
:101FC0005093500340934F038193919302C0E0E0FC
:101FD000F0E0CF01DF91CF911F910F910895CF9342
:101FE000DF93009709F481C0FC01329713821282BB
:101FF000A0915103B0915203109781F42081318157
:10200000820F931F20914F033091500328173907F7
:1020100051F5F0935003E0934F0367C0ED0120E0CA
:1020200030E0CE17DF0740F44A815B819E01411505
:102030005105F1F0EA01F5CFD383C283408151818C
:10204000840F951FC817D90759F488819981840F87
:10205000951F0296918380838A819B8193838283DB
:102060002115310529F4F0935203E09351033DC04B
:10207000E901FB83EA8349915991C40FD51FEC17FD
:10208000FD0761F480819181840F951F0296E9011B
:1020900099838883828193819B838A83E0E0F0E047
:1020A00012968D919C911397009719F0FD01DC0118
:1020B000F7CF8D919C9111979D012E5F3F4F820F1D
:1020C000931F20914F03309150032817390769F46B
:1020D000309729F4109252031092510302C01382D8
:1020E0001282B0935003A0934F03DF91CF910895D4
:1020F000A0E0B0E0EEE7F0E10C94190FEC010097DE
:1021000021F4CB010E94570FB4C0FC01E60FF71F6A
:102110009C0122503109E217F30708F4A8C0D90145
:102120000D911C91119706171707B0F00530110596
:1021300008F49BC0C80104978617970708F495C058
:1021400002501109061B170B019311936D937C9399
:10215000CF010E94EF0F89C05B01A01AB10A4C01A8
:10216000800E911EA0915103B0915203612C712CED
:10217000E12CF12C109709F446C08D919C91119798
:10218000A815B905B1F56C0142E0C40ED11CCA1402
:10219000DB0478F14C018A189B08640142E0C40E0C
:1021A000D11C1296BC9012971396AC91B5E0CB1649
:1021B000D10440F0B282A38391828082D9016D93D1
:1021C0007C9309C00E5F1F4F800F911FF90191830F
:1021D0008083EB2DFA2FE114F10431F0D70113962F
:1021E000FC93EE93129741C0F0935203E093510396
:1021F0003CC06816790608F43C017D0112960D90EA
:10220000BC91A02DB7CF80914F03909150038816B9
:102210009906E1F466167706C8F48091060190915C
:102220000701009741F48DB79EB740910A01509184
:102230000B01841B950BE817F907C8F4F0935003C2
:10224000E0934F03F901718360830FC0CB010E94BB
:10225000570F7C01009759F0A801BE010E9443115D
:10226000CE010E94EF0FC70104C0CE0102C080E082
:1022700090E0CDB7DEB7EEE00C94350F81E090E052
:10228000F8940C945C11FB01DC0102C001900D92EA
:1022900041505040D8F70895FB01DC018D91019029
:1022A00080190110D9F3990B0895FB01DC0101900D
:0C22B0000D920020E1F70895F894FFCF94
:1022BC00EF03EF0301000000530380000000400017
:1022CC0014005400000000008304F0031A04D0042E
:1022DC004B0429043D040000000089055C05B90588
:1022EC00300554054005310500000000F406F003EC
:1022FC00B905B8054932433D30000D0A00557365E8
:10230C00207265617220696E70757400746F207331
:10231C007461727420746F6F6C00466F7263696EB7
:10232C00672073687574646F776E00706F77657271
:10233C004F66660076657200757064617465004660
:10234C0061756C7420646574656374656400726592
:10235C0073657474696E6720746F6F6C00496E6975
:0A236C007469616C697A696E67009C
:00000001FF
