:100000000C945D000C94B4020C948D020C94850049
:100010000C9485000C9485000C9492030C9485003C
:100020000C9485000C9485000C9485000C9485003C
:100030000C9485000C9485000C9485000C9485002C
:100040000C9441080C9485000C9416030C94F00257
:100050000C9485000C9485000C9485000C9485000C
:100060000C94F5030C948500000000002400270088
:100070002A0000000000250028002B0004040404CE
:100080000404040402020202020203030303030342
:10009000010204081020408001020408102001021F
:1000A00004081020000000080002010000030407FB
:1000B0000000000000000000830C11241FBECFEFE1
:1000C000D8E0DEBFCDBF23E0A2EFB1E001C01D92BA
:1000D000A638B207E1F711E0A0E0B1E0ECE3F1E20D
:1000E00002C005900D92A23FB107D9F710E0CDE50F
:1000F000D0E004C02197FE010E94910ECC35D107BB
:10010000C9F70E948B080C949C100C940000089571
:10011000CF92DF92EF92FF920F931F93CF93DF93D3
:100120006C017A018B01C0E0D0E0CE15DF0581F0D3
:10013000D8016D918D01D601ED91FC910190F08176
:10014000E02DC6010995892B11F02196EECF7E0195
:10015000C701DF91CF911F910F91FF90EF90DF903A
:10016000CF900895FC01538D448D252F30E0842FCE
:1001700090E0821B930B541710F0CF9608950197CF
:100180000895FC01918D828D981761F0828DDF01B9
:10019000A80FB11D5D968C91928D9F5F9F73928F7A
:1001A00090E008958FEF9FEF0895FC01918D828D6F
:1001B000981731F0828DE80FF11D858D90E008953C
:1001C0008FEF9FEF0895FC01918D228D892F90E094
:1001D000805C9F4F821B91098F739927089583EB51
:1001E00092E00E94E30021E0892B09F420E0822FB5
:1001F0000895FC01848DDF01A80FB11DA35ABF4FE4
:100200002C91848D90E001968F739927848FA68915
:10021000B7892C93A089B1898C91837080648C9369
:10022000938D848D981306C00288F389E02D808118
:100230008F7D80830895EF92FF920F931F93CF934A
:10024000DF93EC0181E0888F9B8D8C8D981305C026
:10025000E889F989808185FD26C0F62E0B8D10E096
:100260000F5F1F4F0F731127E02E8C8DE8120CC00B
:100270000FB607FCFACFE889F989808185FFF5CFB1
:10028000CE010E94F900F1CF8B8DFE01E80FF11D28
:10029000E35AFF4FF0829FB7F8940B8FEA89FB89EE
:1002A000808180620AC09FB7F894EE89FF896083DD
:1002B000E889F98980818370806480839FBF81E0B1
:1002C00090E0DF91CF911F910F91FF90EF900895F3
:1002D000CF93DF93EC01888D8823C9F0EA89FB89ED
:1002E000808185FD05C0A889B9898C9186FD0FC0E4
:1002F0000FB607FCF5CF808185FFF2CFA889B989B9
:100300008C9185FFEDCFCE010E94F900E7CFDF9100
:10031000CF91089580E090E0892B29F00E94EF00B2
:1003200081110C940000089585ED8093BC008091AC
:10033000BC0084FDFCCF10928E02089540911F02F4
:10034000262F30E0240F311D21323105DCF42091BD
:100350008E022430C9F4FC0180E090E0861758F446
:1003600030911F022191DC01A150BE4FA30FB11D9E
:100370002C930196F3CF80911F02680F60931F02A8
:1003800080E0089581E0089582E008950895089539
:100390000895E091470280914602E81730F4F0E0BA
:1003A000E85BFD4F808190E008958FEF9FEF089507
:1003B0009091470280914602981750F4E92FF0E09F
:1003C000E85BFD4F208130E09F5F9093470202C0C1
:1003D0002FEF3FEFC90108958091460290E02091F0
:1003E0004702821B91090895CF92DF92EF92FF920C
:1003F0000F931F93CF93DF937C01CB018A01209150
:100400008F02222389F0EB016B01C40ED51ECC159F
:10041000DD0569F06991D701ED91FC910190F081C2
:10042000E02DC7010995F3CF642F0E949E01C801FA
:10043000DF91CF911F910F91FF90EF90DF90CF90C0
:100440000895CF93DF931F92CDB7DEB769832091D4
:100450008F022223D1F02091B202203240F021E01D
:1004600030E0FC013383228380E090E015C080916E
:100470009002E82FF0E0EF56FD4F998190838F5F57
:10048000809390028093B20205C061E0CE01019694
:100490000E949E0181E090E00F90DF91CF9108953E
:1004A000089580E090E0089581E08093F20108953E
:1004B0000E947E100F931F93CF93DF93EC018881EE
:1004C0009981009729F02A813B812617370788F404
:1004D0008B016F5F7F4F0E94B80F009761F0998387
:1004E00088831B830A832C813D81232B11F4FC011B
:1004F000108281E001C080E0DF91CF911F910F91C8
:100500000895E9E6F0E02081237F880F991F880F86
:10051000991F822B8083E99A08951F920F920FB63C
:100520000F9211242F933F934F935F936F937F9379
:100530008F939F93AF93BF93EF93FF93E09102014B
:10054000F09103010995FF91EF91BF91AF919F91B8
:100550008F917F916F915F914F913F912F910F906C
:100560000FBE0F901F9018951F920F920FB60F920B
:1005700011242F933F934F935F936F937F938F93A8
:100580009F93AF93BF93EF93FF93E0910001F0919E
:1005900001010995FF91EF91BF91AF919F918F91CB
:1005A0007F916F915F914F913F912F910F900FBE6F
:1005B0000F901F9018956115710579F0FB0101905E
:1005C0000020E9F73197AF01461B570BDC01ED9195
:1005D000FC910280F381E02D099480E090E0089581
:1005E0001F920F920FB60F9211242F933F934F93A8
:1005F0005F936F937F938F939F93AF93BF93EF938B
:10060000FF9383EB92E00E94F900FF91EF91BF917D
:10061000AF919F918F917F916F915F914F913F919A
:100620002F910F900FBE0F901F9018951F920F9251
:100630000FB60F9211242F938F939F93EF93FF93F5
:10064000E091C302F091C4028081E091C902F0916F
:10065000CA0282FD12C090818091CC028F5F8F739D
:100660002091CD02821751F0E091CC02F0E0ED54E0
:10067000FD4F958F8093CC0201C08081FF91EF9157
:100680009F918F912F910F900FBE0F901F901895F3
:10069000FC01248131E030938F022093B10210924B
:1006A00090021092B2028385682B80E593E00E944D
:1006B000210281E00C946C050F931F93CF938C0162
:1006C000C62F0E9448036C2F6460C8010E94480333
:1006D0006C2F6B7FC8010E94480380E690E0019771
:1006E000F1F7CF911F910F9108950F931F93CF931F
:1006F000DF938C01C62FD42F607F642B0E945C0394
:1007000080E1C89FB00111246D2BC801DF91CF910A
:100710001F910F910C945C0341E00E94750381E0EE
:1007200090E008951F920F920FB60F9211248F93AD
:100730000FB6F894A895809160008861809360005E
:10074000109260000FBE8F910F900FBE0F901F9000
:1007500018954115510529F4EAE7F0E080818F777B
:1007600080836A307105A9F063FD02C088E001C092
:1007700088E26770682B88E10FB6F894A89580939B
:1007800060000FBE60936000E0E6F0E0808180646E
:100790008083232BA1F483B7817F846083BFF89487
:1007A00083B7816083BF85B7806685BF8F7D85BF36
:1007B0007894889583B78E7F83BF78940EC083B773
:1007C000817F846083BFF89483B7816083BF78940E
:1007D000889583B78E7F83BF7894452B29F4EAE709
:1007E000F0E080818068808308951F920F920FB699
:1007F0000F9211242F933F934F935F936F937F93A7
:100800008F939F93AF93BF93EF93FF938091B90022
:10081000887F803609F49CC068F5883209F45BC093
:1008200090F4803109F454C038F4882309F4F6C0F8
:10083000883009F44DC0F6C0883109F44CC08032CC
:1008400009F45DC0EFC0803409F468C048F4803317
:1008500009F455C0883309F0E5C080938C02D8C0F4
:10086000803509F44FC0883509F45DC0883409F03B
:10087000D9C0D6C0883909F4C7C0A8F4883709F4AC
:1008800067C038F4883609F463C0803709F460C063
:10089000C9C0883809F4B8C0803909F45FC080380D
:1008A00009F0C0C05BC0803B09F486C038F4803AD0
:1008B00009F466C0883A09F47FC0B4C0803C09F4EA
:1008C000A7C0883C09F4A4C0883B09F48AC0AAC028
:1008D0008091690210C090918B0280918A029817D2
:1008E00070F5E0918B0281E08E0F80938B02F0E037
:1008F000E659FD4F80818093BB0085EC86C08093D4
:100900008C028EC0E0918B0281E08E0F80938B026F
:100910008091BB00F0E0E659FD4F808390918B02FF
:1009200080918A026EC0E0918B0281E08E0F8093ED
:100930008B028091BB00F0E0E659FD4F80838091EF
:100940008D0281116DC081E08093680284EA61C0EC
:1009500083E080938E0210924102CFCF80914102BA
:10096000803208F051C0E091410281E08E0F809307
:1009700041028091BB00F0E0EF5DFD4F8083BDCF71
:1009800085EC8093BC0010928E02809141028032EF
:1009900030F4E0914102F0E0EF5DFD4F1082609194
:1009A000410270E0E0914202F091430281E292E064
:1009B00009951092410236C084E080938E02109215
:1009C000200210921F02E0914402F0914502099525
:1009D00080911F02811105C081E080931F02109257
:1009E000FF01E091200281E08E0F80932002F0E071
:1009F000E150FE4F80818093BB0090912002809156
:100A00001F02981708F479CF85E88093BC000AC0CC
:100A100085EC8093BC0010928E0204C010928C0270
:100A20000E949401FF91EF91BF91AF919F918F919F
:100A30007F916F915F914F913F912F910F900FBEDA
:100A40000F901F901895CF93DF93BC0183EB92E03A
:100A50000E94DB02EC016FED71E083EB92E00E94FB
:100A6000DB028C0F9D1FDF91CF9108950F931F9391
:100A70000E9435086093BB027093BC028093BD0254
:100A80009093BE0283EB92E00E94C10097FF1FC0CB
:100A90000E9435080091BB021091BC022091BD025A
:100AA0003091BE02DC01CB01801B910BA20BB30B7A
:100AB0000091B7021091B8022091B9023091BA02A8
:100AC00080179107A207B307E8F28FEF9FEF1F91FE
:100AD0000F9108950C94DB02282F3091B20231322D
:100AE00008F04AC080918E028111FCCF9091B10232
:100AF00042E040938E0220938D022FEF20938C02D0
:100B000010928B0230938A02E1E9F2E0AAE6B2E0A9
:100B100020E0321721F041914D932F5FFACF1092D0
:100B2000690220916902990F922B9093690290912A
:100B30006802913061F4109268029091690290937A
:100B4000BB009091BC0093FDF8CF95EC01C095EEF1
:100B50009093BC0090918E029230E1F390918C02C0
:100B60009F3F79F080918C02803241F080918C021D
:100B7000803331F084E005C081E003C082E001C031
:100B800083E0109290021092B20210928F020895A8
:100B900040E062E00E9475038CE99FE00197F1F765
:100BA0000895CF93DF93CDB7DEB728970FB6F894AB
:100BB000DEBF0FBECDBF9C0188E0ECE0F1E0DE01BE
:100BC000119601900D928A95E1F7F90181858111C5
:100BD00002C09FEF01C091E0FE013196E90FF11DC7
:100BE000E90FF11D6081606840E0C90128960FB6E9
:100BF000F894DEBF0FBECDBFDF91CF910C9475038B
:100C000028E0FC01238760E00C944803FC01138674
:100C100060E00C94480340E061E00E9475038CE9B9
:100C20009FE00197F1F70895CF93DF93EB0191E0F7
:100C300090938F0298E69093B102109290021092D6
:100C4000B202682F80E593E00E942102688180E56E
:100C500093E00E94210281E0DF91CF910C946C051A
:100C6000CF93DF93EC0181E080938F0288E680933D
:100C7000B102109290021092B20280E593E00E94BD
:100C8000210281E00E946C0580918E028111FCCFCF
:100C900081E080938E0280938D029FEF90938C026F
:100CA00010928B0210928A028093690280916902ED
:100CB000806D8093690280916802813061F41092A6
:100CC0006802809169028093BB008091BC0083FD23
:100CD000F8CF85EC01C085EE8093BC0080918E0238
:100CE0008130E1F380918B02811103C090918B02DE
:100CF00001C091E0AAE6B2E0E8E4F2E080E0891702
:100D000021F02D9121938F5FFACF109247028093AB
:100D1000460280E593E00E94D8018883DF91CF915D
:100D2000089510924702109246021092900210927B
:100D3000B20210928E0281E080938D0210926802BE
:100D400061E082E10E94FB0661E083E10E94FB0614
:100D5000E9EBF0E080818E7F808380818D7F8083CE
:100D600080E28093B80085E48093BC0086EC91E03B
:100D7000909345028093440287EC91E09093430264
:100D80008093420208953FB7F89480917E0390913A
:100D90007F03A0918003B091810326B5A89B05C075
:100DA0002F3F19F00196A11DB11D3FBFBA2FA92FEA
:100DB000982F8827820F911DA11DB11DBC01CD0167
:100DC00043E0660F771F881F991F4A95D1F7089552
:100DD00087E480937C0080917A00806480937A001D
:100DE00080917A0086FDFCCF809178002091790077
:100DF00090E0922B089590E0FC01EC55FF4F249178
:100E0000FC01E057FF4F3491FC01E458FF4FE4919F
:100E1000EE2309F43CC0222339F1233091F038F459
:100E20002130A9F0223001F584B58F7D12C0273022
:100E300091F02830A1F02430B9F4809180008F7DAA
:100E400003C0809180008F77809380000DC084B5AF
:100E50008F7784BD09C08091B0008F7703C08091E7
:100E6000B0008F7D8093B000F0E0EE0FFF1FEE58D2
:100E7000FF4FA591B4919FB7F894611104C08C9174
:100E80003095382302C0EC913E2B3C939FBF0895D0
:100E900090915C03992319F0882379F006C0882388
:100EA00041F061E080E10E94FB0681E080935D03F8
:100EB000089560E080E10E94FB0610925D030895B2
:100EC000CF93DF9390E0FC01E057FF4F2491FC01AA
:100ED000E458FF4F8491882361F190E0880F991FB7
:100EE000FC01E859FF4FC591D491FC01EE58FF4F2A
:100EF000A591B491611109C09FB7F894888120959C
:100F000082238883EC912E230BC0623061F49FB75B
:100F1000F8948881322F309583238883EC912E2B8F
:100F20002C939FBF06C08FB7F894E8812E2B28839F
:100F30008FBFDF91CF9108958F929F92AF92BF9212
:100F4000CF92DF92EF92FF926B017C010E94C30669
:100F50004B015C01C114D104E104F104F1F00E94E1
:100F6000C306DC01CB0188199909AA09BB09883E8F
:100F70009340A105B10570F321E0C21AD108E10840
:100F8000F10888EE880E83E0981EA11CB11CC114E4
:100F9000D104E104F10419F7DDCFFF90EF90DF9069
:100FA000CF90BF90AF909F908F9008950F931F9315
:100FB000CF93DF93EC010E9491061D8289858230D8
:100FC00010F098E09D839A85992329F0813019F4D7
:100FD0008D8184608D8362E370E080E090E00E9408
:100FE0009C076B85CE010E94480368EE73E080E0A9
:100FF00090E00E949C0760E3CE010E945C0304E243
:1010000013E2C8010197F1F760E3CE010E945C038F
:10101000C8010197F1F760E3CE010E945C0388E20A
:1010200091E00197F1F760E2CE010E945C036D81CF
:10103000606240E0CE010E94750384E08E8340E050
:101040006CE0CE010E947503CE010E940B0682E087
:101050008F8340E066E0CE010E947503CE01DF91F0
:10106000CF911F910F910C94C8052FB7F894609100
:101070007A0370917B0380917C0390917D032FBF55
:1010800008951F920F920FB60F9211242F933F9342
:101090008F939F93AF93BF9380917A0390917B033B
:1010A000A0917C03B0917D033091790326E0230F5A
:1010B0002D3720F40296A11DB11D05C029E8230F8C
:1010C0000396A11DB11D2093790380937A03909319
:1010D0007B03A0937C03B0937D0380917E0390916A
:1010E0007F03A0918003B09181030196A11DB11DE2
:1010F00080937E0390937F03A0938003B09381033A
:10110000BF91AF919F918F913F912F910F900FBE03
:101110000F901F901895CF93DF93CDB7DEB72C9724
:101120000FB6F894DEBF0FBECDBF789484B5826051
:1011300084BD84B5816084BD85B5826085BD85B57B
:10114000816085BD80916E00816080936E001092F9
:101150008100809181008260809381008091810074
:101160008160809381008091800081608093800005
:101170008091B10084608093B1008091B000816063
:101180008093B00080917A00846080937A0080918F
:101190007A00826080937A0080917A008E7F8093BB
:1011A0007A0080917A00806880937A001092C10062
:1011B00061E08DE00E94600760E08DE00E94FB0628
:1011C00084E592E0909303018093020180E090E037
:1011D0000E948102E091C302F091C40282E0808308
:1011E000E091BF02F091C0021082E091C102F09143
:1011F000C20288E080831092CB02E091C702F09196
:10120000C80286E08083E091C502F091C602808129
:1012100080618083E091C502F091C6028081886080
:101220008083E091C502F091C6028081806880834E
:10123000E091C502F091C60280818F7D808388EEA7
:1012400093E0A0E0B0E08093B7029093B802A0933F
:10125000B902B093BA0284E491E00E9423050E948F
:10126000E8068430910514F480E090E0BC01990F09
:10127000880B990B0E94380D2BE734E14EE450E4C3
:101280000E94970D20E030E04AEA52E40E948C0E62
:1012900087FD25C011E010935F0383E591E00E9474
:1012A000230584E090E0909305018093040181E0A0
:1012B0000E94480780915C03811104C061E084E0D2
:1012C0000E94FB0610935E0382E691E00E942305D4
:1012D00081E090E09093FC018093FB0120C080E0CE
:1012E0000E94480780915C03811104C060E084E0A3
:1012F0000E94FB0610925E0388E691E00E9423059F
:101300008DE693E00E94D60781E693E00E94D6071F
:101310008091040190910501019709F4A7C20E94F0
:10132000910662E0CE0101960E94300689818F3FCE
:1013300079F16FE0CE0101960E94300689818863C1
:101340008C87BE01645F7F4F8FE00E9414061B866E
:10135000BE01655F7F4F82E00E94140660E0CE010F
:1013600001960E9430061A86BE01665F7F4F81E0BB
:101370000E94140660E0CE0101960E943006898129
:1013800080688987BE01675F7F4F80E00E941406F6
:1013900083E0682E712C94E0E92EF12CCC24C394C8
:1013A000D12C34E5A32E32E0B32E47E8842E40E062
:1013B000942E8091FD019091FE018130910571F193
:1013C00040F08230910509F49DC0049709F4B5C03E
:1013D000DBC18091FB019091FC01019771F081E9E3
:1013E00091E00E94230520E030E040E050E06AE018
:1013F00070E08CE593E00E94A9038091F2018823BC
:1014000009F4C2C11092F201E9989092030180920E
:101410000201D092FE01C092FD01B6C11092F2010C
:101420000E9435086093F7017093F8018093F901E9
:101430009093FA010E94E8068430910514F480E04C
:1014400090E0BC01990F880B990B0E94380D2BE797
:1014500034E14EE450E40E94970D20E030E04AEA87
:1014600052E40E948C0E87FD04C081E080935F03EC
:1014700036C08DE693E00E9400068DE693E00E9460
:10148000C80565EE71E08DE693E00E946A0581E68D
:1014900093E00E94000681E693E00E94C80565EE95
:1014A00071E081E693E00E946A0570920501609206
:1014B000040181E00E94480780915C03811104C00F
:1014C00061E084E00E94FB0681E080935E03F0927D
:1014D0000501E0920401D092FC01C092FB0182E080
:1014E00090E09093FE018093FD0161E08DE00E9409
:1014F000FB06B0920301A092020181E090E00E94FD
:10150000810242C18091F201882309F43DC1E9982A
:1015100090920301809202011092F2010E9435081C
:101520006093F3017093F4018093F5019093F601B9
:10153000F092FE01E092FD0127C10E94E80684308E
:10154000910514F480E090E0BC01990F880B990B91
:101550000E94380D2BE734E14EE450E40E94970DD1
:1015600020E030E04AEA52E40E948C0E87FDFCC085
:1015700081E080935F038091F3019091F401A09149
:10158000F501B091F6014091F7015091F801609199
:10159000F9017091FA01841B950BA60BB70B8131F1
:1015A00027E29207A105B105B0F180EA91E00E941F
:1015B00023058DE693E00E94C8056FEA71E08DE691
:1015C00093E00E946A0581E693E00E94C8056FEAF5
:1015D00071E081E693E00E946A0586E090E09093D6
:1015E00005018093040160ED77E080E090E00E94C7
:1015F0009C0780E00E94480780915C03811104C031
:1016000060E084E00E94FB0610925E031092FC01F1
:101610001092FB0195C0893C9105A105B10508F424
:10162000A3C07092FC016092FB0180EC91E00E94EB
:10163000230586ED91E00E94230560ED77E080E0D0
:1016400090E00E949C0780915C03882351F068E839
:1016500073E180E090E00E949C0780E00E944807D0
:101660006FC061E081E10E94FB060E9435081B010A
:101670002C010E94E8068430910514F480E090E08B
:10168000BC01990F880B990B0E94380D2BE734E1B0
:101690004EE450E40E94970D20E030E04AEA52E424
:1016A0000E948C0E87FD05C081E080935F0311E0EE
:1016B00001C010E080E090E0DC0101E0112399F12D
:1016C00080339547A105B10570F50E94E806843086
:1016D000910514F480E090E0BC01990F880B990B00
:1016E0000E94380D2BE734E14EE450E40E94970D40
:1016F00020E030E04AEA52E40E948C0E87FD03C0ED
:1017000000935F0301C010E062E370E080E090E0CE
:101710000E949C070E943508DC01CB0182199309C5
:10172000A409B509CBCF68E873E180E090E00E949E
:101730009C0780E00E94480760E081E10E94FB0670
:101740008DE693E00E940B068DE693E00E9406066C
:1017500081E693E00E940B0681E693E00E94060674
:10176000109205011092040160E08DE00E94FB06DA
:10177000B0920301A092020180E090E00E948102F9
:101780001092FE011092FD0183EB92E00E94E300B3
:10179000181619060CF067C00E9435081A821982C3
:1017A0001C821B821E821D8260E070E0CE010196C9
:1017B0000E945A0229813A8181110DC021153105FB
:1017C00019F0C9010E942F0F1A8219821E821D82F0
:1017D0001C821B8207C01E821D8261EE71E0C9015E
:1017E0000E9495100E94360597FD1BC08F831886B6
:1017F0000D811E810F5F1F4FB801CE0101960E941F
:101800005A02882379F329813A818D819E81BE0114
:10181000695F7F4F820F931F0E9495101E830D8377
:10182000E1CF4D815E8169817A8183EB92E00E94F4
:1018300088006FED71E083EB92E00E94DB028D8106
:101840009E81892B61F062EE71E089819A810E940C
:101850008C10892B21F482EE91E00E94230589816E
:101860009A810E942F0F0E948A01A3CD8DE693E0FA
:101870000E94000664E771E08DE693E00E946A052D
:101880008DE693E00E94D10563E871E08DE693E078
:101890000E946A0581E693E00E94000664E771E019
:1018A00081E693E00E946A0581E693E00E94D105FB
:1018B00063E871E081E693E00E946A0582E090E0CF
:1018C000909305018093040168E873E180E090E063
:1018D0000E949C078091F201811121CD8DE693E059
:1018E0000E940B068DE693E00E94060681E693E0D7
:1018F0000E940B0681E693E00E9406061092050105
:10190000109204010CCD1092B6021092B50288EE2E
:1019100093E0A0E0B0E08093B7029093B802A09368
:10192000B902B093BA0228E131E03093B4022093B7
:10193000B30225EC30E03093C0022093BF0224ECC8
:1019400030E03093C2022093C10220EC30E03093AB
:10195000C4022093C30221EC30E03093C6022093EE
:10196000C50222EC30E03093C8022093C70226EC77
:1019700030E03093CA022093C9021092CC02109238
:10198000CD021092CE021092CF0210925303109209
:1019900052038093540390935503A0935603B0933E
:1019A00057038AE291E09093510380935003109281
:1019B0005C031092600310925F0310925D0310921B
:1019C0005E0361E080E10E94600780E00E944807BA
:1019D00061E084E00E94600780915C03811104C093
:1019E00060E084E00E94FB0610925E0361E081E10A
:1019F0000E94600760E081E10E94FB0660E087E0F2
:101A00000E94600760E083E00E94600760E082E07F
:101A10000E9460071092700310926F034CE351E034
:101A200050936E0340936D038FE38093710320E125
:101A30002093750392E0909376031092770388E0E9
:101A400080937803109264031092630350936203AF
:101A50004093610337E230936503209369039093C9
:101A60006A0310926B0380936C030895E89409C095
:101A700097FB3EF490958095709561957F4F8F4FC1
:101A80009F4F9923A9F0F92F96E9BB279395F695D7
:101A9000879577956795B795F111F8CFFAF4BB0F55
:101AA00011F460FF1BC06F5F7F4F8F4F9F4F16C0B9
:101AB000882311F096E911C0772321F09EE8872F43
:101AC000762F05C0662371F096E8862F70E060E0FF
:101AD0002AF09A95660F771F881FDAF7880F969578
:101AE000879597F90895990F0008550FAA0BE0E81C
:101AF000FEEF16161706E807F907C0F012161306D0
:101B0000E407F50798F0621B730B840B950B39F40F
:101B10000A2661F0232B242B252B21F408950A2675
:101B200009F4A140A6958FEF811D811D08950E94A3
:101B3000AA0D0C941B0E0E940D0E38F00E94140E7C
:101B400020F0952311F00C94040E0C940A0E11242D
:101B50000C944F0E0E942C0E70F3959FC1F3950FBD
:101B600050E0551F629FF001729FBB27F00DB11D21
:101B7000639FAA27F00DB11DAA1F649F6627B00DB1
:101B8000A11D661F829F2227B00DA11D621F739F9A
:101B9000B00DA11D621F839FA00D611D221F749FA8
:101BA0003327A00D611D231F849F600D211D822FEF
:101BB000762F6A2F11249F5750409AF0F1F0882316
:101BC0004AF0EE0FFF1FBB1F661F771F881F915043
:101BD0005040A9F79E3F510580F00C94040E0C94E0
:101BE0004F0E5F3FE4F3983ED4F386957795679563
:101BF000B795F795E7959F5FC1F7FE2B880F911D6D
:101C00009695879597F9089597F99F6780E870E012
:101C100060E008959FEF80EC089500240A94161662
:101C2000170618060906089500240A9412161306CA
:101C3000140605060895092E0394000C11F4882358
:101C400052F0BB0F40F4BF2B11F460FF04C06F5F74
:101C50007F4F8F4F9F4F089557FD9058440F551F4A
:101C600059F05F3F71F04795880F97FB991F61F01E
:101C70009F3F79F087950895121613061406551F95
:101C8000F2CF4695F1DF08C0161617061806991F01
:101C9000F1CF86957105610508940895E894BB27F6
:101CA00066277727CB0197F908952F923F924F929D
:101CB0005F926F927F928F929F92AF92BF92CF92DC
:101CC000DF92EF92FF920F931F93CF93DF93CDB7E5
:101CD000DEB7CA1BDB0B0FB6F894DEBF0FBECDBF5D
:101CE00009942A88398848885F846E847D848C842E
:101CF0009B84AA84B984C884DF80EE80FD800C8137
:101D00001B81AA81B981CE0FD11D0FB6F894DEBF19
:101D10000FBECDBFED0108950E94730D08F48FEF43
:101D20000895EE0FFF1F0590F491E02D09940F9395
:101D30001F93CF93DF938230910510F482E090E0FF
:101D4000E0918403F091850320E030E0A0E0B0E072
:101D5000309719F140815181028113814817590749
:101D6000C8F08417950769F4109731F012960C9318
:101D7000129713961C9327C0009384031093850336
:101D800022C02115310519F04217530718F49A01A2
:101D9000BD01EF01DF01F801DBCF21153105F9F0BD
:101DA000281B390B2430310580F48A819B81611511
:101DB000710521F0FB019383828304C09093850316
:101DC00080938403FE01329644C0FE01E20FF31FAC
:101DD0008193919322503109398328833AC020910D
:101DE000820330918303232B41F420910801309129
:101DF00009013093830320938203209106013091DF
:101E000007012115310541F42DB73EB740910A0174
:101E100050910B01241B350BE0918203F091830359
:101E2000E217F307A0F42E1B3F0B2817390778F0B1
:101E3000AC014E5F5F4F2417350748F04E0F5F1F10
:101E400050938303409382038193919302C0E0E017
:101E5000F0E0CF01DF91CF911F910F910895CF93C3
:101E6000DF93009709F481C0FC013297138212823C
:101E7000A0918403B0918503109781F42081318172
:101E8000820F931F20918203309183032817390713
:101E900051F5F0938303E093820367C0ED0120E0E6
:101EA00030E0CE17DF0740F44A815B819E01411587
:101EB0005105F1F0EA01F5CFD383C283408151810E
:101EC000840F951FC817D90759F488819981840F09
:101ED000951F0296918380838A819B81938382835D
:101EE0002115310529F4F0938503E09384033DC067
:101EF000E901FB83EA8349915991C40FD51FEC177F
:101F0000FD0761F480819181840F951F0296E9019C
:101F100099838883828193819B838A83E0E0F0E0C8
:101F200012968D919C911397009719F0FD01DC0199
:101F3000F7CF8D919C9111979D012E5F3F4F820F9E
:101F4000931F20918203309183032817390769F486
:101F5000309729F4109285031092840302C01382F3
:101F60001282B0938303A0938203DF91CF910895EF
:101F7000A0E0B0E0EEEBFFE00C94590EEC0100970E
:101F800021F4CB010E94970EB4C0FC01E60FF71FAD
:101F90009C0122503109E217F30708F4A8C0D901C7
:101FA0000D911C91119706171707B0F00530110518
:101FB00008F49BC0C80104978617970708F495C0DA
:101FC00002501109061B170B019311936D937C931B
:101FD000CF010E942F0F89C05B01A01AB10A4C01EA
:101FE000800E911EA0918403B0918503612C712C09
:101FF000E12CF12C109709F446C08D919C9111971A
:10200000A815B905B1F56C0142E0C40ED11CCA1483
:10201000DB0478F14C018A189B08640142E0C40E8D
:10202000D11C1296BC9012971396AC91B5E0CB16CA
:10203000D10440F0B282A38391828082D9016D9352
:102040007C9309C00E5F1F4F800F911FF901918390
:102050008083EB2DFA2FE114F10431F0D7011396B0
:10206000FC93EE93129741C0F0938503E0938403B1
:102070003CC06816790608F43C017D0112960D906B
:10208000BC91A02DB7CF80918203909183038816D5
:102090009906E1F466167706C8F4809106019091DE
:1020A0000701009741F48DB79EB740910A01509106
:1020B0000B01841B950BE817F907C8F4F093830311
:1020C000E0938203F901718360830FC0CB010E940A
:1020D000970E7C01009759F0A801BE010E94831061
:1020E000CE010E942F0FC70104C0CE0102C080E0C4
:1020F00090E0CDB7DEB7EEE00C94750E81E090E095
:10210000F8940C949C10FB01DC0102C001900D922C
:1021100041505040D8F70895FB01DC018D910190AA
:1021200080190110D9F3990B0895FB01DC0101908E
:0C2130000D920020E1F70895F894FFCF15
:10213C00870087000100000086038000000040003B
:10214C0014005400000000001B018800B20068015C
:10215C00E300C100D500000000002102F40151028F
:10216C00C801EC01D801C901000000008C038800F3
:10217C00510250027374617274206F66207365741F
:10218C007570005069207761732072756E6E696E80
:10219C0067004932433D300057656C636F6D6520B5
:1021AC004C434400557365207265617220696E70F2
:1021BC00757400746F20737461727420746F6F6C1B
:1021CC0000676F696E6720746F20736C65657000B3
:1021DC00666F7263696E67207069206F6666004671
:1021EC006F7263696E672073687574646F776E00C5
:1021FC0072657175657374696E672061207368759B
:10220C0074646F776E00706F7765724F6666000D41
:10221C000A006F6B00496E697469616C697A696E4A
:02222C00670049
:00000001FF
