:100000000C945D000C94B4020C948D020C94850049
:100010000C9485000C9485000C9492030C9485003C
:100020000C9485000C9485000C9485000C9485003C
:100030000C9485000C9485000C9485000C9485002C
:100040000C9441080C9485000C9416030C94F00257
:100050000C9485000C9485000C9485000C9485000C
:100060000C94F5030C948500000000002400270088
:100070002A0000000000250028002B0004040404CE
:100080000404040402020202020203030303030342
:10009000010204081020408001020408102001021F
:1000A00004081020000000080002010000030407FB
:1000B00000000000000000008F0C11241FBECFEFD5
:1000C000D8E0DEBFCDBF23E0A4EFB1E001C01D92B8
:1000D000A838B207E1F711E0A0E0B1E0E4E5F1E211
:1000E00002C005900D92A43FB107D9F710E0CDE50D
:1000F000D0E004C02197FE010E949D0ECC35D107AF
:10010000C9F70E948B080C94A8100C940000089565
:10011000CF92DF92EF92FF920F931F93CF93DF93D3
:100120006C017A018B01C0E0D0E0CE15DF0581F0D3
:10013000D8016D918D01D601ED91FC910190F08176
:10014000E02DC6010995892B11F02196EECF7E0195
:10015000C701DF91CF911F910F91FF90EF90DF903A
:10016000CF900895FC01538D448D252F30E0842FCE
:1001700090E0821B930B541710F0CF9608950197CF
:100180000895FC01918D828D981761F0828DDF01B9
:10019000A80FB11D5D968C91928D9F5F9F73928F7A
:1001A00090E008958FEF9FEF0895FC01918D828D6F
:1001B000981731F0828DE80FF11D858D90E008953C
:1001C0008FEF9FEF0895FC01918D228D892F90E094
:1001D000805C9F4F821B91098F739927089585EB4F
:1001E00092E00E94E30021E0892B09F420E0822FB5
:1001F0000895FC01848DDF01A80FB11DA35ABF4FE4
:100200002C91848D90E001968F739927848FA68915
:10021000B7892C93A089B1898C91837080648C9369
:10022000938D848D981306C00288F389E02D808118
:100230008F7D80830895EF92FF920F931F93CF934A
:10024000DF93EC0181E0888F9B8D8C8D981305C026
:10025000E889F989808185FD26C0F62E0B8D10E096
:100260000F5F1F4F0F731127E02E8C8DE8120CC00B
:100270000FB607FCFACFE889F989808185FFF5CFB1
:10028000CE010E94F900F1CF8B8DFE01E80FF11D28
:10029000E35AFF4FF0829FB7F8940B8FEA89FB89EE
:1002A000808180620AC09FB7F894EE89FF896083DD
:1002B000E889F98980818370806480839FBF81E0B1
:1002C00090E0DF91CF911F910F91FF90EF900895F3
:1002D000CF93DF93EC01888D8823C9F0EA89FB89ED
:1002E000808185FD05C0A889B9898C9186FD0FC0E4
:1002F0000FB607FCF5CF808185FFF2CFA889B989B9
:100300008C9185FFEDCFCE010E94F900E7CFDF9100
:10031000CF91089580E090E0892B29F00E94EF00B2
:1003200081110C940000089585ED8093BC008091AC
:10033000BC0084FDFCCF10929002089540912102F0
:10034000262F30E0240F311D21323105DCF42091BD
:1003500090022430C9F4FC0180E090E0861758F444
:10036000309121022191DC01AF5FBD4FA30FB11D80
:100370002C930196F3CF80912102680F60932102A4
:1003800080E0089581E0089582E008950895089539
:100390000895E091490280914802E81730F4F0E0B6
:1003A000E65BFD4F808190E008958FEF9FEF089509
:1003B0009091490280914802981750F4E92FF0E09B
:1003C000E65BFD4F208130E09F5F9093490202C0C1
:1003D0002FEF3FEFC90108958091480290E02091EE
:1003E0004902821B91090895CF92DF92EF92FF920A
:1003F0000F931F93CF93DF937C01CB018A01209150
:100400009102222389F0EB016B01C40ED51ECC159D
:10041000DD0569F06991D701ED91FC910190F081C2
:10042000E02DC7010995F3CF642F0E949E01C801FA
:10043000DF91CF911F910F91FF90EF90DF90CF90C0
:100440000895CF93DF931F92CDB7DEB769832091D4
:1004500091022223D1F02091B402203240F021E019
:1004600030E0FC013383228380E090E015C080916E
:100470009202E82FF0E0ED56FD4F998190838F5F57
:10048000809392028093B40205C061E0CE01019690
:100490000E949E0181E090E00F90DF91CF9108953E
:1004A000089580E090E0089581E08093F40108953C
:1004B0000E948A100F931F93CF93DF93EC018881E2
:1004C0009981009729F02A813B812617370788F404
:1004D0008B016F5F7F4F0E94C40F009761F099837B
:1004E00088831B830A832C813D81232B11F4FC011B
:1004F000108281E001C080E0DF91CF911F910F91C8
:100500000895E9E6F0E02081237F880F991F880F86
:10051000991F822B8083E99A08951F920F920FB63C
:100520000F9211242F933F934F935F936F937F9379
:100530008F939F93AF93BF93EF93FF93E09102014B
:10054000F09103010995FF91EF91BF91AF919F91B8
:100550008F917F916F915F914F913F912F910F906C
:100560000FBE0F901F9018951F920F920FB60F920B
:1005700011242F933F934F935F936F937F938F93A8
:100580009F93AF93BF93EF93FF93E0910001F0919E
:1005900001010995FF91EF91BF91AF919F918F91CB
:1005A0007F916F915F914F913F912F910F900FBE6F
:1005B0000F901F9018956115710579F0FB0101905E
:1005C0000020E9F73197AF01461B570BDC01ED9195
:1005D000FC910280F381E02D099480E090E0089581
:1005E0001F920F920FB60F9211242F933F934F93A8
:1005F0005F936F937F938F939F93AF93BF93EF938B
:10060000FF9385EB92E00E94F900FF91EF91BF917B
:10061000AF919F918F917F916F915F914F913F919A
:100620002F910F900FBE0F901F9018951F920F9251
:100630000FB60F9211242F938F939F93EF93FF93F5
:10064000E091C502F091C6028081E091CB02F09169
:10065000CC0282FD12C090818091CE028F5F8F7399
:100660002091CF02821751F0E091CE02F0E0EB54DE
:10067000FD4F958F8093CE0201C08081FF91EF9155
:100680009F918F912F910F900FBE0F901F901895F3
:10069000FC01248131E0309391022093B302109247
:1006A00092021092B4028385682B82E593E00E9447
:1006B000210281E00C9459050F931F93CF938C0175
:1006C000C62F0E9448036C2F6460C8010E94480333
:1006D0006C2F6B7FC8010E94480380E690E0019771
:1006E000F1F7CF911F910F9108950F931F93CF931F
:1006F000DF938C01C62FD42F607F642B0E945C0394
:1007000080E1C89FB00111246D2BC801DF91CF910A
:100710001F910F910C945C0341E00E94750381E0EE
:1007200090E008951F920F920FB60F9211248F93AD
:100730000FB6F894A895809160008861809360005E
:10074000109260000FBE8F910F900FBE0F901F9000
:1007500018954115510529F4EAE7F0E080818F777B
:1007600080836A307105A9F063FD02C088E001C092
:1007700088E26770682B88E10FB6F894A89580939B
:1007800060000FBE60936000E0E6F0E0808180646E
:100790008083232BA1F483B7817F846083BFF89487
:1007A00083B7816083BF85B7806685BF8F7D85BF36
:1007B0007894889583B78E7F83BF78940EC083B773
:1007C000817F846083BFF89483B7816083BF78940E
:1007D000889583B78E7F83BF7894452B29F4EAE709
:1007E000F0E080818068808308951F920F920FB699
:1007F0000F9211242F933F934F935F936F937F93A7
:100800008F939F93AF93BF93EF93FF938091B90022
:10081000887F803609F49CC068F5883209F45BC093
:1008200090F4803109F454C038F4882309F4F6C0F8
:10083000883009F44DC0F6C0883109F44CC08032CC
:1008400009F45DC0EFC0803409F468C048F4803317
:1008500009F455C0883309F0E5C080938E02D8C0F2
:10086000803509F44FC0883509F45DC0883409F03B
:10087000D9C0D6C0883909F4C7C0A8F4883709F4AC
:1008800067C038F4883609F463C0803709F460C063
:10089000C9C0883809F4B8C0803909F45FC080380D
:1008A00009F0C0C05BC0803B09F486C038F4803AD0
:1008B00009F466C0883A09F47FC0B4C0803C09F4EA
:1008C000A7C0883C09F4A4C0883B09F48AC0AAC028
:1008D00080916B0210C090918D0280918C029817CC
:1008E00070F5E0918D0281E08E0F80938D02F0E033
:1008F000E459FD4F80818093BB0085EC86C08093D6
:100900008E028EC0E0918D0281E08E0F80938D0269
:100910008091BB00F0E0E459FD4F808390918D02FF
:1009200080918C026EC0E0918D0281E08E0F8093E9
:100930008D028091BB00F0E0E459FD4F80838091EF
:100940008F0281116DC081E080936A0284EA61C0E8
:1009500083E08093900210924302CFCF80914302B4
:10096000803208F051C0E091430281E08E0F809305
:1009700043028091BB00F0E0ED5DFD4F8083BDCF71
:1009800085EC8093BC0010929002809143028032EB
:1009900030F4E0914302F0E0ED5DFD4F1082609194
:1009A000430270E0E0914402F091450283E292E05C
:1009B00009951092430236C084E080939002109211
:1009C000220210922102E0914602F091470209951D
:1009D00080912102811105C081E080932102109253
:1009E0000102E091220281E08E0F80932202F0E06A
:1009F000EF5FFD4F80818093BB0090912202809138
:100A00002102981708F479CF85E88093BC000AC0CA
:100A100085EC8093BC001092900204C010928E026C
:100A20000E949401FF91EF91BF91AF919F918F919F
:100A30007F916F915F914F913F912F910F900FBEDA
:100A40000F901F9018950F931F930E943508609385
:100A5000BD027093BE028093BF029093C00285EBEB
:100A600092E00E94C10097FF1FC00E9435080091CC
:100A7000BD021091BE022091BF023091C002DC0184
:100A8000CB01801B910BA20BB30B0091B90210910B
:100A9000BA022091BB023091BC0280179107A207D5
:100AA000B307E8F28FEF9FEF1F910F9108950C9419
:100AB000DB02282F3091B402313208F04AC0809115
:100AC00090028111FCCF9091B30242E040939002DA
:100AD00020938F022FEF20938E0210928D0230937D
:100AE0008C02E3E9F2E0ACE6B2E020E0321721F05C
:100AF00041914D932F5FFACF10926B0220916B02C0
:100B0000990F922B90936B0290916A02913061F44D
:100B100010926A0290916B029093BB009091BC007E
:100B200093FDF8CF95EC01C095EE9093BC009091A9
:100B300090029230E1F390918E029F3F79F0809184
:100B40008E02803241F080918E02803331F084E059
:100B500005C081E003C082E001C083E010929202F0
:100B60001092B40210929102089540E062E00E9457
:100B700075038CE99FE00197F1F70895CF93DF9318
:100B8000CDB7DEB728970FB6F894DEBF0FBECDBF46
:100B90009C0188E0ECE0F1E0DE01119601900D92FD
:100BA0008A95E1F7F9018185811102C09FEF01C0AB
:100BB00091E0FE013196E90FF11DE90FF11D608111
:100BC000606840E0C90128960FB6F894DEBF0FBEFA
:100BD000CDBFDF91CF910C94750328E0FC012387F2
:100BE00060E00C944803FC01138660E00C94480319
:100BF00040E061E00E9475038CE99FE00197F1F706
:100C00000895CF93DF93EB0191E09093910298E6E2
:100C10009093B302109292021092B402682F82E570
:100C200093E00E942102688182E593E00E94210204
:100C300081E0DF91CF910C945905CF93DF93EC01C4
:100C400081E08093910288E68093B3021092920231
:100C50001092B40282E593E00E94210281E00E949A
:100C60005905809190028111FCCF81E08093900220
:100C700080938F029FEF90938E0210928D021092BC
:100C80008C0280936B0280916B02806D80936B026B
:100C900080916A02813061F410926A0280916B0245
:100CA0008093BB008091BC0083FDF8CF85EC01C030
:100CB00085EE8093BC00809190028130E1F38091B9
:100CC0008D02811103C090918D0201C091E0ACE6CC
:100CD000B2E0EAE4F2E080E0891721F02D9121935F
:100CE0008F5FFACF109249028093480282E593E029
:100CF0000E94D8018883DF91CF9108951092490214
:100D000010924802109292021092B4021092900235
:100D100081E080938F0210926A0261E082E10E947A
:100D2000FB0661E083E10E94FB06E9EBF0E08081D5
:100D30008E7F808380818D7F808380E28093B80066
:100D400085E48093BC0086EC91E090934702809309
:100D5000460287EC91E09093450280934402089507
:100D60003FB7F8948091800390918103A091820312
:100D7000B091830326B5A89B05C02F3F19F00196BB
:100D8000A11DB11D3FBFBA2FA92F982F8827820F11
:100D9000911DA11DB11DBC01CD0143E0660F771F60
:100DA000881F991F4A95D1F70895CF93DF93BC010F
:100DB00085EB92E00E94DB02EC016FED71E085EBC8
:100DC00092E00E94DB028C0F9D1FDF91CF9108956E
:100DD00087E480937C0080917A00806480937A001D
:100DE00080917A0086FDFCCF809178002091790077
:100DF00090E0922B089590E0FC01EC55FF4F249178
:100E0000FC01E057FF4F3491FC01E458FF4FE4919F
:100E1000EE2309F43CC0222339F1233091F038F459
:100E20002130A9F0223001F584B58F7D12C0273022
:100E300091F02830A1F02430B9F4809180008F7DAA
:100E400003C0809180008F77809380000DC084B5AF
:100E50008F7784BD09C08091B0008F7703C08091E7
:100E6000B0008F7D8093B000F0E0EE0FFF1FEE58D2
:100E7000FF4FA591B4919FB7F894611104C08C9174
:100E80003095382302C0EC913E2B3C939FBF0895D0
:100E900090915E03992319F0882379F006C0882386
:100EA00041F061E080E10E94FB0681E080935F03F6
:100EB000089560E080E10E94FB0610925F030895B0
:100EC000CF93DF9390E0FC01E057FF4F2491FC01AA
:100ED000E458FF4F8491882361F190E0880F991FB7
:100EE000FC01E859FF4FC591D491FC01EE58FF4F2A
:100EF000A591B491611109C09FB7F894888120959C
:100F000082238883EC912E230BC0623061F49FB75B
:100F1000F8948881322F309583238883EC912E2B8F
:100F20002C939FBF06C08FB7F894E8812E2B28839F
:100F30008FBFDF91CF9108958F929F92AF92BF9212
:100F4000CF92DF92EF92FF926B017C010E94B0067C
:100F50004B015C01C114D104E104F104F1F00E94E1
:100F6000B006DC01CB0188199909AA09BB09883EA2
:100F70009340A105B10570F321E0C21AD108E10840
:100F8000F10888EE880E83E0981EA11CB11CC114E4
:100F9000D104E104F10419F7DDCFFF90EF90DF9069
:100FA000CF90BF90AF909F908F9008950F931F9315
:100FB000CF93DF93EC010E947E061D8289858230EB
:100FC00010F098E09D839A85992329F0813019F4D7
:100FD0008D8184608D8362E370E080E090E00E9408
:100FE0009C076B85CE010E94480368EE73E080E0A9
:100FF00090E00E949C0760E3CE010E945C0304E243
:1010000013E2C8010197F1F760E3CE010E945C038F
:10101000C8010197F1F760E3CE010E945C0388E20A
:1010200091E00197F1F760E2CE010E945C036D81CF
:10103000606240E0CE010E94750384E08E8340E050
:101040006CE0CE010E947503CE010E94F80582E09B
:101050008F8340E066E0CE010E947503CE01DF91F0
:10106000CF911F910F910C94B5052FB7F894609113
:101070007C0370917D0380917E0390917F032FBF4D
:1010800008951F920F920FB60F9211242F933F9342
:101090008F939F93AF93BF9380917C0390917D0337
:1010A000A0917E03B0917F0330917B0326E0230F54
:1010B0002D3720F40296A11DB11D05C029E8230F8C
:1010C0000396A11DB11D20937B0380937C03909315
:1010D0007D03A0937E03B0937F0380918003909162
:1010E0008103A0918203B09183030196A11DB11DDC
:1010F0008093800390938103A0938203B093830332
:10110000BF91AF919F918F913F912F910F900FBE03
:101110000F901F901895CF93DF93CDB7DEB7AB97A5
:101120000FB6F894DEBF0FBECDBF789484B5826051
:1011300084BD84B5816084BD85B5826085BD85B57B
:10114000816085BD80916E00816080936E001092F9
:101150008100809181008260809381008091810074
:101160008160809381008091800081608093800005
:101170008091B10084608093B1008091B000816063
:101180008093B00080917A00846080937A0080918F
:101190007A00826080937A0080917A008E7F8093BB
:1011A0007A0080917A00806880937A001092C10062
:1011B00061E08DE00E94600760E08DE00E94FB0628
:1011C00084E592E0909303018093020180E090E037
:1011D0000E948102E091C502F091C60282E0808304
:1011E000E091C102F091C2021082E091C302F0913D
:1011F000C40288E080831092CD02E091C902F09190
:10120000CA0286E08083E091C702F091C802808123
:1012100080618083E091C702F091C802808188607C
:101220008083E091C702F091C8028081806880834A
:10123000E091C702F091C80280818F7D808388EEA3
:1012400093E0A0E0B0E08093B9029093BA02A0933B
:10125000BB02B093BC0284E491E00E94D5060E94D8
:10126000E8068430910514F480E090E0BC01990F09
:10127000880B990B0E94440D2BE734E14EE450E4B7
:101280000E94A30D20E030E04AEA52E40E94980E4A
:1012900087FD25C011E01093610383E591E00E9472
:1012A000D50684E090E0909305018093040181E0ED
:1012B0000E94480780915E03811104C061E084E0D0
:1012C0000E94FB061093600382E691E00E94D5061F
:1012D00081E090E09093FE018093FD0120C080E0CA
:1012E0000E94480780915E03811104C060E084E0A1
:1012F0000E94FB061092600388E691E00E94D506EA
:101300008FE693E00E94D60783E693E00E94D6071B
:101310008091040190910501019709F4B3C20E94E4
:101320007E0662E0CE0101960E941D0689818F3FF4
:1013300079F16FE0CE0101960E941D0689818863D4
:101340008BA7BE01655D7F4F8FE00E9401061AA644
:10135000BE01665D7F4F82E00E94010660E0CE0123
:1013600001960E941D0619A6BE01675D7F4F81E0B0
:101370000E94010660E0CE0101960E941D0689814F
:10138000806888A7BE01685D7F4F80E00E940106EB
:1013900083E0682E712C94E0E92EF12CCC24C394C8
:1013A000D12C34E5A32E32E0B32E47E8842E40E062
:1013B000942E8091FF01909100028130910571F18E
:1013C00040F08230910509F49DC0049709F4B5C03E
:1013D000DBC18091FD019091FE01019771F081E9DF
:1013E00091E00E94D50620E030E040E050E06AE065
:1013F00070E08EE593E00E94A9038091F4018823B8
:1014000009F4C2C11092F401E9989092030180920C
:101410000201D0920002C092FF01B6C11092F40105
:101420000E9435086093F9017093FA018093FB01E3
:101430009093FC010E94E8068430910514F480E04A
:1014400090E0BC01990F880B990B0E94440D2BE78B
:1014500034E14EE450E40E94A30D20E030E04AEA7B
:1014600052E40E94980E87FD04C081E080936103DE
:1014700036C08FE693E00E94ED058FE693E00E9470
:10148000B50566EE71E08FE693E00E94570583E6AE
:1014900093E00E94ED0583E693E00E94B50566EEB9
:1014A00071E083E693E00E94570570920501609217
:1014B000040181E00E94480780915E03811104C00D
:1014C00061E084E00E94FB0681E080936003F0927B
:1014D0000501E0920401D092FE01C092FD0182E07C
:1014E00090E0909300028093FF0161E08DE00E9404
:1014F000FB06B0920301A092020181E090E00E94FD
:10150000810242C18091F401882309F43DC1E99828
:1015100090920301809202011092F4010E9435081A
:101520006093F5017093F6018093F7019093F801B1
:10153000F0920002E092FF0127C10E94E806843089
:10154000910514F480E090E0BC01990F880B990B91
:101550000E94440D2BE734E14EE450E40E94A30DB9
:1015600020E030E04AEA52E40E94980E87FDFCC079
:1015700081E0809361038091F5019091F601A09143
:10158000F701B091F8014091F9015091FA01609191
:10159000FB017091FC01841B950BA60BB70B8131ED
:1015A00027E29207A105B105B0F180EA91E00E941F
:1015B000D5068FE693E00E94B5056FEA71E08FE6ED
:1015C00093E00E94570583E693E00E94B5056FEA19
:1015D00071E083E693E00E94570586E090E09093E7
:1015E00005018093040160ED77E080E090E00E94C7
:1015F0009C0780E00E94480780915E03811104C02F
:1016000060E084E00E94FB06109260031092FE01ED
:101610001092FD0195C0893C9105A105B10508F422
:10162000A3C07092FE016092FD0180EC91E00E94E7
:10163000D50686ED91E00E94D50660ED77E080E06A
:1016400090E00E949C0780915E03882351F068E837
:1016500073E180E090E00E949C0780E00E944807D0
:101660006FC061E081E10E94FB060E9435081B010A
:101670002C010E94E8068430910514F480E090E08B
:10168000BC01990F880B990B0E94440D2BE734E1A4
:101690004EE450E40E94A30D20E030E04AEA52E418
:1016A0000E94980E87FD05C081E08093610311E0E0
:1016B00001C010E080E090E0DC0101E0112399F12D
:1016C00080339547A105B10570F50E94E806843086
:1016D000910514F480E090E0BC01990F880B990B00
:1016E0000E94440D2BE734E14EE450E40E94A30D28
:1016F00020E030E04AEA52E40E94980E87FD03C0E1
:101700000093610301C010E062E370E080E090E0CC
:101710000E949C070E943508DC01CB0182199309C5
:10172000A409B509CBCF68E873E180E090E00E949E
:101730009C0780E00E94480760E081E10E94FB0670
:101740008FE693E00E94F8058FE693E00E94F30590
:1017500083E693E00E94F80583E693E00E94F30598
:10176000109205011092040160E08DE00E94FB06DA
:10177000B0920301A092020180E090E00E948102F9
:10178000109200021092FF0185EB92E00E94E300AC
:10179000181619060CF073C00E9435081BA21AA275
:1017A0001DA21CA21FA21EA260E070E0CE018296C4
:1017B0000E945A022AA13BA181110DC021153105B9
:1017C00019F0C9010E943B0F1BA21AA21FA21EA260
:1017D0001DA21CA207C01FA21EA261EE71E0C901DA
:1017E0000E94A1100E94230597FD1BC089831A82C5
:1017F0000EA11FA10F5F1F4FB801CE0182960E945C
:101800005A02882379F32AA13BA18EA19FA1BE0190
:101810006F5F7F4F820F931F0E94A1101FA30EA323
:10182000E1CF4EA15FA16AA17BA185EB92E00E946E
:1018300088006FED71E085EB92E00E94DB028EA1E3
:101840009FA1892BC1F062EE71E08AA19BA10E9449
:101850009810892B81F419A280E388A3BE01605EF1
:101860007F4F85EB92E00E94DB026FED71E085EB2C
:1018700092E00E94DB028AA19BA10E943B0F0E9482
:101880008A0197CD8FE693E00E94ED0564E771E051
:101890008FE693E00E9457058FE693E00E94BE0515
:1018A00063E871E08FE693E00E94570583E693E0DA
:1018B0000E94ED0564E771E083E693E00E9457051E
:1018C00083E693E00E94BE0563E871E083E693E05F
:1018D0000E94570582E090E09093050180930401F7
:1018E00068E873E180E090E00E949C078091F40139
:1018F000811115CD8FE693E00E94F8058FE693E005
:101900000E94F30583E693E00E94F80583E693E0E6
:101910000E94F305109205011092040100CD10926F
:10192000B8021092B70288EE93E0A0E0B0E0809396
:10193000B9029093BA02A093BB02B093BC0228E113
:1019400031E03093B6022093B50225EC30E03093BD
:10195000C2022093C10224EC30E03093C4022093F1
:10196000C30220EC30E03093C6022093C50221EC84
:1019700030E03093C8022093C70222EC30E030936D
:10198000CA022093C90226EC30E03093CC022093A7
:10199000CB021092CE021092CF021092D00210927F
:1019A000D1021092550310925403809356039093E2
:1019B0005703A0935803B09359038AE291E09093A0
:1019C00053038093520310925E03109262031092AD
:1019D000610310925F031092600361E080E10E9456
:1019E000600780E00E94480761E084E00E94600791
:1019F00080915E03811104C060E084E00E94FB06D8
:101A00001092600361E081E10E94600760E081E183
:101A10000E94FB0660E087E00E94600760E083E0D0
:101A20000E94600760E082E00E94600710927203EB
:101A3000109271034CE351E05093700340936F0395
:101A40008FE38093730320E12093770392E09093D8
:101A500078031092790388E080937A0310926603EA
:101A600010926503509364034093630337E230930D
:101A7000670320936B0390936C0310926D03809324
:101A80006E030895E89409C097FB3EF49095809505
:101A9000709561957F4F8F4F9F4F9923A9F0F92F34
:101AA00096E9BB279395F695879577956795B795B2
:101AB000F111F8CFFAF4BB0F11F460FF1BC06F5F98
:101AC0007F4F8F4F9F4F16C0882311F096E911C0AA
:101AD000772321F09EE8872F762F05C0662371F0CB
:101AE00096E8862F70E060E02AF09A95660F771FDF
:101AF000881FDAF7880F9695879597F90895990FBB
:101B00000008550FAA0BE0E8FEEF16161706E807C7
:101B1000F907C0F012161306E407F50798F0621BE8
:101B2000730B840B950B39F40A2661F0232B242BBD
:101B3000252B21F408950A2609F4A140A6958FEFDC
:101B4000811D811D08950E94B60D0C94270E0E94E0
:101B5000190E38F00E94200E20F0952311F00C94FD
:101B6000100E0C94160E11240C945B0E0E94380E6D
:101B700070F3959FC1F3950F50E0551F629FF001E0
:101B8000729FBB27F00DB11D639FAA27F00DB11DF9
:101B9000AA1F649F6627B00DA11D661F829F222782
:101BA000B00DA11D621F739FB00DA11D621F839F09
:101BB000A00D611D221F749F3327A00D611D231FDF
:101BC000849F600D211D822F762F6A2F11249F572D
:101BD00050409AF0F1F088234AF0EE0FFF1FBB1F30
:101BE000661F771F881F91505040A9F79E3F5105EF
:101BF00080F00C94100E0C945B0E5F3FE4F3983E63
:101C0000D4F3869577956795B795F795E7959F5F98
:101C1000C1F7FE2B880F911D9695879597F908952A
:101C200097F99F6780E870E060E008959FEF80EC8F
:101C3000089500240A941616170618060906089532
:101C400000240A9412161306140605060895092E98
:101C50000394000C11F4882352F0BB0F40F4BF2B07
:101C600011F460FF04C06F5F7F4F8F4F9F4F089547
:101C700057FD9058440F551F59F05F3F71F047953D
:101C8000880F97FB991F61F09F3F79F08795089522
:101C9000121613061406551FF2CF4695F1DF08C041
:101CA000161617061806991FF1CF8695710561055E
:101CB00008940895E894BB2766277727CB0197F906
:101CC00008952F923F924F925F926F927F928F92E0
:101CD0009F92AF92BF92CF92DF92EF92FF920F93BB
:101CE0001F93CF93DF93CDB7DEB7CA1BDB0B0FB6C5
:101CF000F894DEBF0FBECDBF09942A883988488882
:101D00005F846E847D848C849B84AA84B984C88417
:101D1000DF80EE80FD800C811B81AA81B981CE0F0E
:101D2000D11D0FB6F894DEBF0FBECDBFED010895F3
:101D30000E947F0D08F48FEF0895EE0FFF1F0590AE
:101D4000F491E02D09940F931F93CF93DF9382308A
:101D5000910510F482E090E0E0918603F091870312
:101D600020E030E0A0E0B0E0309719F140815181EF
:101D70000281138148175907C8F08417950769F441
:101D8000109731F012960C93129713961C9327C05C
:101D9000009386031093870322C02115310519F0A3
:101DA0004217530718F49A01BD01EF01DF01F80152
:101DB000DBCF21153105F9F0281B390B2430310513
:101DC00080F48A819B816115710521F0FB01938369
:101DD000828304C09093870380938603FE0132962A
:101DE00044C0FE01E20FF31F819391932250310909
:101DF000398328833AC02091840330918503232BB3
:101E000041F420910801309109013093850320931A
:101E1000840320910601309107012115310541F419
:101E20002DB73EB740910A0150910B01241B350B91
:101E3000E0918403F0918503E217F307A0F42E1BD1
:101E40003F0B2817390778F0AC014E5F5F4F24171E
:101E5000350748F04E0F5F1F50938503409384036E
:101E60008193919302C0E0E0F0E0CF01DF91CF9148
:101E70001F910F910895CF93DF93009709F481C0CC
:101E8000FC01329713821282A0918603B0918703DE
:101E9000109781F420813181820F931F2091840358
:101EA000309185032817390751F5F0938503E093A6
:101EB000840367C0ED0120E030E0CE17DF0740F477
:101EC0004A815B819E0141155105F1F0EA01F5CF90
:101ED000D383C28340815181840F951FC817D907CE
:101EE00059F488819981840F951F0296918380838C
:101EF0008A819B81938382832115310529F4F09394
:101F00008703E09386033DC0E901FB83EA8349919F
:101F10005991C40FD51FEC17FD0761F480819181A1
:101F2000840F951F0296E9019983888382819381AA
:101F30009B838A83E0E0F0E012968D919C91139749
:101F4000009719F0FD01DC01F7CF8D919C9111975D
:101F50009D012E5F3F4F820F931F2091840330918C
:101F600085032817390769F4309729F410928703FD
:101F70001092860302C013821282B0938503A0934D
:101F80008403DF91CF910895A0E0B0E0EAECFFE098
:101F90000C94650EEC01009721F4CB010E94A30E76
:101FA000B4C0FC01E60FF71F9C0122503109E21773
:101FB000F30708F4A8C0D9010D911C9111970617D9
:101FC0001707B0F00530110508F49BC0C80104974D
:101FD0008617970708F495C002501109061B170BC6
:101FE000019311936D937C93CF010E943B0F89C0A5
:101FF0005B01A01AB10A4C01800E911EA0918603CC
:10200000B0918703612C712CE12CF12C109709F40D
:1020100046C08D919C911197A815B905B1F56C0139
:1020200042E0C40ED11CCA14DB0478F14C018A18BA
:102030009B08640142E0C40ED11C1296BC9012971A
:102040001396AC91B5E0CB16D10440F0B282A383D5
:1020500091828082D9016D937C9309C00E5F1F4FDE
:10206000800F911FF90191838083EB2DFA2FE114EA
:10207000F10431F0D7011396FC93EE93129741C00F
:10208000F0938703E09386033CC06816790608F452
:102090003C017D0112960D90BC91A02DB7CF80918F
:1020A00084039091850388169906E1F466167706F5
:1020B000C8F48091060190910701009741F48DB713
:1020C0009EB740910A0150910B01841B950BE817B4
:1020D000F907C8F4F0938503E0938403F901718351
:1020E00060830FC0CB010E94A30E7C01009759F0C2
:1020F000A801BE010E948F10CE010E943B0FC701B4
:1021000004C0CE0102C080E090E0CDB7DEB7EEE0C3
:102110000C94810E81E090E0F8940C94A810FB01DF
:10212000DC0102C001900D9241505040D8F7089553
:10213000FB01DC018D91019080190110D9F3990BFD
:102140000895FB01DC0101900D920020E1F7089554
:04215000F894FFCF31
:102154008700870001000000880380000000400021
:1021640014005400000000001B018800B200680144
:10217400E300C100D500000000002102F401510277
:10218400C801EC01D801C901000000008C038800DB
:10219400510250027374617274206F662073657407
:1021A4007570005069207761732072756E6E696E68
:1021B40067004932433D300057656C636F6D65209D
:1021C4004C434400557365207265617220696E70DA
:1021D400757400746F20737461727420746F6F6C03
:1021E40000676F696E6720746F20736C656570009B
:1021F400666F7263696E67207069206F6666004659
:102204006F7263696E672073687574646F776E00AC
:1022140072657175657374696E6720612073687582
:1022240074646F776E00706F7765724F6666000D29
:102234000A0076657200496E697469616C697A692D
:042244006E670000C1
:00000001FF
