:100000000C9462000C9456050C942F050C948A00F5
:100010000C948A000C948A000C9434060C948A0088
:100020000C948A000C948A000C948A000C948A0028
:100030000C948A000C948A000C948A000C948A0018
:100040000C94F6070C948A000C94B8050C94920555
:100050000C948A000C948A000C948A000C948A00F8
:100060000C9497060C948A000000000023002600E0
:10007000290000000000240027002A0000000000E2
:10008000250028002B0004040404040404040202D4
:100090000202020203030303030301020408102007
:1000A0004080010204081020010204081020000012
:1000B0000008000201000003040700000000000027
:1000C0000000BB0B11241FBECFEFD8E0DEBFCDBFB9
:1000D00023E0AAEDB1E001C01D92A836B207E1F716
:1000E00011E0A0E0B1E0EEE3FBE102C005900D926B
:1000F000AA3DB107D9F710E0C2E6D0E004C02197CD
:10010000FE010E94920DC136D107C9F70E94400836
:100110000C949D0D0C9400000C947D05282F3091BB
:100120005502313208F04AC0809131028111FCCF72
:100130009091540242E040933102209330022FEF1D
:1001400020932F0210922E0230932D02E4E3F2E06E
:10015000ADE0B2E020E0321721F041914D932F5FE6
:10016000FACF10920C0220910C02990F922B9093CF
:100170000C0290910B02913061F410920B0290915D
:100180000C029093BB009091BC0093FDF8CF95ECCE
:1001900001C095EE9093BC00909131029230E1F352
:1001A00090912F029F3F79F080912F02803241F091
:1001B00080912F02803331F084E005C081E003C0DC
:1001C00082E001C083E01092330210925502109237
:1001D0003202089540E062E00E9417068CE99FE039
:1001E0000197F1F70895CF93DF93CDB7DEB7289746
:1001F0000FB6F894DEBF0FBECDBF9C0188E0E6E0ED
:10020000F1E0DE01119601900D928A95E1F7F90176
:100210008185811102C09FEF01C091E0FE013196FE
:10022000E90FF11DE90FF11D6081606840E0C9012F
:1002300028960FB6F894DEBF0FBECDBFDF91CF91E9
:100240000C94170628E0FC01238760E00C94EA0573
:10025000FC01138660E00C94EA0540E061E00E9436
:1002600017068CE99FE00197F1F70895CF93DF938C
:10027000EB0191E09093320298E690935402109231
:10028000330210925502682F83EF92E00E94EA0435
:10029000688183EF92E00E94EA0481E0DF91CF91D0
:1002A0000C948E00CF93DF93EC0181E080933202B7
:1002B00088E680935402109233021092550283EF25
:1002C00092E00E94EA0481E00E948E008091310257
:1002D0008111FCCF81E080933102809330029FEF47
:1002E00090932F0210922E0210922D0280930C02F6
:1002F00080910C02806D80930C0280910B02813002
:1003000061F410920B0280910C028093BB008091EB
:10031000BC0083FDF8CF85EC01C085EE8093BC0066
:10032000809131028130E1F380912E02811103C06E
:1003300090912E0201C091E0ADE0B2E0EBEEF1E071
:1003400080E0891721F02D9121938F5FFACF1092D1
:10035000EA018093E90183EF92E00E94A10488837F
:10036000DF91CF910895CF93DF93BC0186E592E0B2
:100370000E947D05EC0167ED71E086E592E00E9448
:100380007D058C0F9D1FDF91CF91089587E48093A9
:100390007C0080917A00806480937A0080917A005A
:1003A00086FDFCCF809178002091790090E0922B1F
:1003B0000895833081F028F4813099F08230A1F0E3
:1003C00008958730A9F08830B9F08430D1F4809155
:1003D00080008F7D03C0809180008F7780938000A4
:1003E000089584B58F7702C084B58F7D84BD08954C
:1003F0008091B0008F7703C08091B0008F7D809393
:10040000B00008951F93CF93DF93282F30E0F901B8
:10041000E255FF4F8491F901E656FF4FD491F9015F
:10042000EA57FF4FC491CC23C1F0162F81110E94CF
:10043000D901EC2FF0E0EE0FFF1FE458FF4FA5911C
:10044000B4919FB7F894111104C08C91D095D82322
:1004500002C0EC91DE2BDC939FBFDF91CF911F9107
:1004600008951092EA011092E9011092330210925D
:1004700055021092310281E08093300210920B02FB
:1004800061E082E10E94020261E083E10E940202D7
:10049000E9EBF0E080818E7F808380818D7F808397
:1004A00080E28093B80085E48093BC008FE894E0FC
:1004B0009093E8018093E70180E994E09093E6014E
:1004C0008093E50108959091FF02992319F0882304
:1004D00079F006C0882341F061E080E10E940202C9
:1004E00081E080930003089560E080E10E940202B1
:1004F000109200030895CF93DF9390E0FC01E6563D
:10050000FF4F2491FC01EA57FF4F8491882361F14A
:1005100090E0880F991FFC01EE58FF4FC591D491D0
:10052000FC01E458FF4FA591B491611109C09FB738
:10053000F8948881209582238883EC912E230BC028
:10054000623061F49FB7F8948881322F309583230D
:100550008883EC912E2B2C939FBF06C08FB7F89405
:10056000E8812E2B28838FBFDF91CF9108958F9242
:100570009F92AF92BF92CF92DF92EF92FF926B0168
:100580007C010E94C5074B015C01C114D104E10448
:10059000F104F1F00E94C507DC01CB01881999092B
:1005A000AA09BB09883E9340A105B10570F321E07B
:1005B000C21AD108E108F10888EE880E83E0981E7F
:1005C000A11CB11CC114D104E104F10419F7DDCF61
:1005D000FF90EF90DF90CF90BF90AF909F908F9063
:1005E00008950F931F93CF93DF93EC010E94310284
:1005F0001D828985823010F098E09D839A85992329
:1006000029F0813019F48D8184608D8362E370E07C
:1006100080E090E00E94B7026B85CE010E94EA055F
:1006200068EE73E080E090E00E94B70260E3CE01E4
:100630000E94FE0504E213E2C8010197F1F760E3AE
:10064000CE010E94FE05C8010197F1F760E3CE01DB
:100650000E94FE0588E291E00197F1F760E2CE0189
:100660000E94FE056D81606240E0CE010E94170687
:1006700084E08E8340E06CE0CE010E941706CE013C
:100680000E942D0182E08F8340E066E0CE010E944F
:100690001706CE01DF91CF911F910F910C94EA00C4
:1006A0000895CF92DF92EF92FF920F931F93CF9313
:1006B000DF936C017A018B01C0E0D0E0CE15DF053D
:1006C00081F0D8016D918D01D601ED91FC910190E1
:1006D000F081E02DC6010995892B11F02196EECF0E
:1006E0007E01C701DF91CF911F910F91FF90EF9095
:1006F000DF90CF900895FC01538D448D252F30E07D
:10070000842F90E0821B930B541710F0CF9608951E
:1007100001970895FC01918D828D981761F0828D6B
:10072000DF01A80FB11D5D968C91928D9F5F9F7325
:10073000928F90E008958FEF9FEF0895FC01918DC7
:10074000828D981731F0828DE80FF11D858D90E034
:1007500008958FEF9FEF0895FC01918D228D892FD1
:1007600090E0805C9F4F821B91098F7399270895B9
:1007700086E592E00E94AC0321E0892B09F420E099
:10078000822F0895FC01848DDF01A80FB11DA35AAB
:10079000BF4F2C91848D90E001968F739927848FA1
:1007A000A689B7892C93A089B1898C9183708064C4
:1007B0008C93938D848D981306C00288F389E02D65
:1007C00080818F7D80830895EF92FF920F931F9316
:1007D000CF93DF93EC0181E0888F9B8D8C8D9813F4
:1007E00005C0E889F989808185FD26C0F62E0B8D2C
:1007F00010E00F5F1F4F0F731127E02E8C8DE81252
:100800000CC00FB607FCFACFE889F989808185FF13
:10081000F5CFCE010E94C203F1CF8B8DFE01E80F10
:10082000F11DE35AFF4FF0829FB7F8940B8FEA89CE
:10083000FB89808180620AC09FB7F894EE89FF89A6
:100840006083E889F98980818370806480839FBF99
:1008500081E090E0DF91CF911F910F91FF90EF9099
:100860000895CF93DF93EC01888D8823C9F0EA893E
:10087000FB89808185FD05C0A889B9898C9186FD99
:100880000FC00FB607FCF5CF808185FFF2CFA88996
:10089000B9898C9185FFEDCFCE010E94C203E7CFCD
:1008A000DF91CF91089580E090E0892B29F00E949C
:1008B000B80381110C940000089585ED8093BC006D
:1008C0008091BC0084FDFCCF1092310208954091CC
:1008D0003C03262F30E0240F311D21323105DCF49A
:1008E000209131022430C9F4FC0180E090E08617A9
:1008F00058F430913C032191DC01A45EBC4FA30F5E
:10090000B11D2C930196F3CF80913C03680F609347
:100910003C0380E0089581E0089582E00895089501
:1009200008950895E091EA018091E901E81730F413
:10093000F0E0E551FE4F808190E008958FEF9FEF4A
:1009400008959091EA018091E901981750F4E92FF8
:10095000F0E0E551FE4F208130E09F5F9093EA0187
:1009600002C02FEF3FEFC90108958091E90190E0A7
:100970002091EA01821B91090895CF92DF92EF92B4
:10098000FF920F931F93CF93DF937C01CB018A01DA
:1009900020913202222389F0EB016B01C40ED51E97
:1009A000CC15DD0569F06991D701ED91FC910190BD
:1009B000F081E02DC7010995F3CF642F0E946704F1
:1009C000C801DF91CF911F910F91FF90EF90DF90C1
:1009D000CF900895CF93DF931F92CDB7DEB7698391
:1009E000209132022223D1F020915502203240F092
:1009F00021E030E0FC013383228380E090E015C0E9
:100A000080913302E82FF0E0EC5CFD4F99819083F8
:100A10008F5F809333028093550205C061E0CE0161
:100A200001960E94670481E090E00F90DF91CF91E2
:100A30000895089580E090E0089581E08093DA01C0
:100A400008950E94980DE9E6F0E02081237F880F49
:100A5000991F880F991F822B8083E99A08951F920E
:100A60000F920FB60F9211242F933F934F935F93E2
:100A70006F937F938F939F93AF93BF93EF93FF9366
:100A8000E0910201F09103010995FF91EF91BF916F
:100A9000AF919F918F917F916F915F914F913F9116
:100AA0002F910F900FBE0F901F9018951F920F92CD
:100AB0000FB60F9211242F933F934F935F936F9331
:100AC0007F938F939F93AF93BF93EF93FF93E091A7
:100AD0000001F09101010995FF91EF91BF91AF9154
:100AE0009F918F917F916F915F914F913F912F9146
:100AF0000F900FBE0F901F9018956115710579F03A
:100B0000FB0101900020E9F73197AF01461B570B1D
:100B1000DC01ED91FC910280F381E02D099480E0ED
:100B200090E008951F920F920FB60F9211242F9309
:100B30003F934F935F936F937F938F939F93AF9365
:100B4000BF93EF93FF9386E592E00E94C203FF916B
:100B5000EF91BF91AF919F918F917F916F915F9135
:100B60004F913F912F910F900FBE0F901F901895AE
:100B70001F920F920FB60F9211242F938F939F9372
:100B8000EF93FF93E0916602F09167028081E0911C
:100B90006C02F0916D0282FD12C0908180916F0213
:100BA0008F5F8F7320917002821751F0E0916F0276
:100BB000F0E0EA5AFD4F958F80936F0201C080816B
:100BC000FF91EF919F918F912F910F900FBE0F90FA
:100BD0001F901895FC01248131E03093320220935C
:100BE000540210923302109255028385682B83EFD2
:100BF00092E00E94EA0481E00C948E000F931F9310
:100C0000CF938C01C62F0E94EA056C2F6460C80147
:100C10000E94EA056C2F6B7FC8010E94EA0580E6FE
:100C200090E00197F1F7CF911F910F9108950F93E5
:100C30001F93CF93DF938C01C62FD42F607F642B3B
:100C40000E94FE0580E1C89FB00111246D2BC801F0
:100C5000DF91CF911F910F910C94FE0541E00E940E
:100C6000170681E090E008951F920F920FB60F9241
:100C700011248F930FB6F894A89580916000886135
:100C800080936000109260000FBE8F910F900FBE96
:100C90000F901F9018954115510529F4EAE7F0E0EF
:100CA00080818F7780836A307105A9F063FD02C06F
:100CB00088E001C088E26770682B88E10FB6F8947D
:100CC000A895809360000FBE60936000E0E6F0E0BE
:100CD000808180648083232BA1F483B7817F84602B
:100CE00083BFF89483B7816083BF85B7806685BF73
:100CF0008F7D85BF7894889583B78E7F83BF7894E6
:100D00000EC083B7817F846083BFF89483B781600E
:100D100083BF7894889583B78E7F83BF7894452B63
:100D200029F4EAE7F0E080818068808308951F92CB
:100D30000F920FB60F9211242F933F934F935F930F
:100D40006F937F938F939F93AF93BF93EF93FF9393
:100D50008091B900887F803609F49CC068F588329C
:100D600009F45BC090F4803109F454C038F488234E
:100D700009F4F6C0883009F44DC0F6C0883109F492
:100D80004CC0803209F45DC0EFC0803409F468C003
:100D900048F4803309F455C0883309F0E5C08093E6
:100DA0002F02D8C0803509F44FC0883509F45DC0E2
:100DB000883409F0D9C0D6C0883909F4C7C0A8F46E
:100DC000883709F467C038F4883609F463C080377F
:100DD00009F460C0C9C0883809F4B8C0803909F482
:100DE0005FC0803809F0C0C05BC0803B09F486C09A
:100DF00038F4803A09F466C0883A09F47FC0B4C078
:100E0000803C09F4A7C0883C09F4A4C0883B09F4DD
:100E10008AC0AAC080910C0210C090912E028091CD
:100E20002D02981770F5E0912E0281E08E0F8093CD
:100E30002E02F0E0E35FFD4F80818093BB0085ECE4
:100E400086C080932F028EC0E0912E0281E08E0F2B
:100E500080932E028091BB00F0E0E35FFD4F808322
:100E600090912E0280912D026EC0E0912E0281E0C1
:100E70008E0F80932E028091BB00F0E0E35FFD4F68
:100E800080838091300281116DC081E080930B02DC
:100E900084EA61C083E08093310210925E03CFCF79
:100EA00080915E03803208F051C0E0915E0381E0E2
:100EB0008E0F80935E038091BB00F0E0E25CFC4FFC
:100EC0008083BDCF85EC8093BC001092310280916D
:100ED0005E03803230F4E0915E03F0E0E25CFC4FB0
:100EE000108260915E0370E0E091E501F091E6010F
:100EF0008EE393E0099510925E0336C084E0809300
:100F0000310210923D0310923C03E091E701F09111
:100F1000E801099580913C03811105C081E080932F
:100F20003C0310921C03E0913D0381E08E0F8093FF
:100F30003D03F0E0E45EFC4F80818093BB00909124
:100F40003D0380913C03981708F479CF85E880939E
:100F5000BC000AC085EC8093BC001092310204C032
:100F600010922F020E945D04FF91EF91BF91AF910B
:100F70009F918F917F916F915F914F913F912F91B1
:100F80000F900FBE0F901F9018953FB7F894809167
:100F9000640390916503A0916603B091670326B541
:100FA000A89B05C02F3F19F00196A11DB11D3FBFA1
:100FB000BA2FA92F982F8827820F911DA11DB11D2F
:100FC000BC01CD0143E0660F771F881F991F4A952A
:100FD000D1F708952FB7F894609160037091610381
:100FE00080916203909163032FBF08951F920F9227
:100FF0000FB60F9211242F933F938F939F93AF932C
:10100000BF938091600390916103A0916203B091BE
:10101000630330915F0326E0230F2D3720F40296FF
:10102000A11DB11D05C029E8230F0396A11DB11D07
:1010300020935F038093600390936103A093620306
:10104000B09363038091640390916503A09166035C
:10105000B09167030196A11DB11D80936403909325
:101060006503A0936603B0936703BF91AF919F910F
:101070008F913F912F910F900FBE0F901F90189559
:10108000CF93DF9300D000D01F92CDB7DEB7789416
:1010900084B5826084BD84B5816084BD85B582607D
:1010A00085BD85B5816085BD80916E00816080932E
:1010B0006E00109281008091810082608093810097
:1010C00080918100816080938100809180008160A7
:1010D000809380008091B10084608093B100809102
:1010E000B00081608093B00080917A00846080932A
:1010F0007A0080917A00826080937A0080917A00F1
:101100008E7F80937A0080917A00806880937A0045
:101110001092C10061E08DE00E947B0260E08DE0F2
:101120000E940202E0916602F091670282E08083F1
:10113000E0916202F09163021082E0916402F0910A
:10114000650288E0808310926E02E0916A02F0915D
:101150006B0286E08083E0916802F09169028081F1
:1011600080618083E0916802F091690280818860EB
:101170008083E0916802F0916902808180688083B9
:10118000E0916802F091690280818F7D808388EE12
:1011900093E0A0E0B0E080935A0290935B02A093AA
:1011A0005C02B0935D028EE391E00E94B3018091F6
:1011B000FF02882309F18091000391E090930203DC
:1011C000882309F43AC011E0109302038DE491E002
:1011D0000E94B30184E090E09093050180930401A4
:1011E00081E00E9463028091FF0281111FC061E0D3
:1011F00084E00E9402021AC0E5EBF0E08491E1EA8B
:10120000F0E00491EDE8F0E014911123B1F08111C8
:101210000E94D901E12FF0E0EE0FFF1FE859FF4FC8
:10122000A591B491EC91E02341F0CDCF109301034F
:101230008CE591E00E94B30120C080E00E9463022F
:101240008091FF02811104C060E084E00E940202EC
:101250001092010382E691E00E94B30180E193E0E5
:101260000E94F10284E093E00E94F1028091040167
:1012700090910501019709F431C28DE195E09093B9
:1012800003018093020180E090E00E9423050E9408
:10129000310262E0CE0101960E94520189818F3FA6
:1012A000B9F188E58D83BE016B5F7F4F80E00E94BE
:1012B00036016FE0CE0101960E9452018981886358
:1012C0008C83BE016C5F7F4F8FE00E9436011B82D2
:1012D000BE016D5F7F4F82E00E94360160E0CE016B
:1012E00001960E9452011A82BE016E5F7F4F81E01B
:1012F0000E94360160E0CE0101960E945201898170
:1013000080688983BE016F5F7F4F80E00E94360155
:1013100084E0E82EF12C92E0892E912C2DE1C22E52
:1013200025E0D22E30E5A32E33E0B32E46E0642E26
:10133000712C8091E3019091E4018130910531F1AC
:1013400040F08230910509F491C0049709F4A9C0D6
:10135000C2C120E030E040E050E06AE070E08FEF92
:1013600092E00E944B068091DA01882309F4B3C110
:101370001092DA01E998B0920301A092020181E093
:1013800090E09093E4018093E301A5C11092DA010B
:101390000E94EA076093DF017093E0018093E1010E
:1013A0009093E2010E94C6018430910514F480E01C
:1013B00090E0BC01990F880B990B0E94700C2BE7F1
:1013C00034E14EE450E40E94CF0C20E030E04AEAE1
:1013D00052E40E948D0D87FD04C081E080930203DA
:1013E00034C080E193E00E94220180E193E00E94FA
:1013F000EA006AEC71E080E193E00E948C0084E0F6
:1014000093E00E94220184E093E00E94EA006AECEB
:1014100071E084E093E00E948C0083E090E0909380
:1014200005018093040181E00E9463028091FF0224
:10143000811104C061E084E00E94020281E0809397
:101440000103F0920501E09204019092E401809280
:10145000E30161E08DE00E940202D0920301C0929C
:10146000020181E090E00E94230535C18091DA01FC
:10147000882309F430C1E998B0920301A0920201D7
:101480001092DA010E94EA076093DB017093DC019D
:101490008093DD019093DE01F092E401E092E3019C
:1014A0001AC10E94C6018430910514F480E090E0D6
:1014B000BC01990F880B990B0E94700C2BE734E14B
:1014C0004EE450E40E94CF0C20E030E04AEA52E4BF
:1014D0000E948D0D87FDEFC081E080930203809113
:1014E000DB019091DC01A091DD01B091DE01409122
:1014F000DF015091E0016091E1017091E201841BF4
:10150000950BA60BB70B813127E29207A105B10518
:1015100008F444C08BE891E00E94B30180E193E0BD
:101520000E94EA006AE971E080E193E00E948C0089
:1015300084E093E00E94EA006AE971E084E093E0CD
:101540000E948C00709205016092040160ED77E0CA
:1015500080E090E00E94B70280E00E9463028091E8
:10156000FF02811104C060E084E00E940202109238
:10157000010380E193E00E942D0180E193E00E944D
:10158000280184E093E00E942D0184E093E00E9412
:10159000280110920501109204018DC0893C91052B
:1015A000A105B10508F487C08BEA91E00E94B30160
:1015B00081EC91E00E94B3010E94EA078091FF0252
:1015C000882351F068E873E180E090E00E94B70260
:1015D00080E00E9463026FC061E081E10E9402022C
:1015E0000E94EA071B012C010E94C601843091056C
:1015F00014F480E090E0BC01990F880B990B0E94D5
:10160000700C2BE734E14EE450E40E94CF0C20E054
:1016100030E04AEA52E40E948D0D87FD05C081E06A
:101620008093020311E001C010E080E090E0DC0153
:1016300001E0112399F180339547A105B10570F5BB
:101640000E94C6018430910514F480E090E0BC0152
:10165000990F880B990B0E94700C2BE734E14EE434
:1016600050E40E94CF0C20E030E04AEA52E40E94AD
:101670008D0D87FD03C00093020301C010E062E3FB
:1016800070E080E090E00E94B7020E94EA07DC016F
:10169000CB0182199309A409B509CBCF68E873E19E
:1016A00080E090E00E94B70280E00E94630260E068
:1016B00081E10E94020260E08DE00E940202D0926D
:1016C0000301C092020180E090E00E942305109285
:1016D000E4011092E3010E9453042BCE80E193E0D9
:1016E0000E9422016EE671E080E193E00E948C008E
:1016F00080E193E00E94F3006DE771E080E193E008
:101700000E948C0084E093E00E9422016EE671E06A
:1017100084E093E00E948C0084E093E00E94F30058
:101720006DE771E084E093E00E948C0082E090E03D
:10173000909305018093040168E873E180E090E0F4
:101740000E94B7028091DA01811197CD80E193E088
:101750000E942D0180E193E00E94280184E093E043
:101760000E942D0184E093E00E942801109205015F
:101770001092040182CD109259021092580288EE04
:1017800093E0A0E0B0E080935A0290935B02A093B4
:101790005C02B0935D0222E131E030935702209366
:1017A000560225EC30E0309363022093620224EC71
:1017B00030E0309365022093640220EC30E03093F7
:1017C00067022093660221EC30E030936902209397
:1017D000680222EC30E030936B0220936A0226EC20
:1017E00030E030936D0220936C0210926F021092E1
:1017F000700210927102109272021092F602109210
:10180000F5028093F7029093F802A093F902B09347
:10181000FA0284E291E09093F4028093F302109232
:10182000FF02109203031092020310920003109221
:10183000010361E080E10E947B0280E00E9463027C
:1018400061E084E00E947B028091FF02811104C06C
:1018500060E084E00E9402021092010361E081E1F5
:101860000E947B0260E081E10E94020260E087E06A
:101870000E947B0260E083E00E947B0260E082E0E5
:101880000E947B02109213031092120346E351E070
:1018900050931103409310038FE38093140320E1CE
:1018A0002093180392E09093190310921A0388E092
:1018B00080931B03109207031092060350930503B5
:1018C0004093040337E23093080320930C03909372
:1018D0000D0310920E0380930F030895E89409C03E
:1018E00097FB3EF490958095709561957F4F8F4F53
:1018F0009F4F9923A9F0F92F96E9BB279395F69569
:10190000879577956795B795F111F8CFFAF4BB0FE6
:1019100011F460FF1BC06F5F7F4F8F4F9F4F16C04A
:10192000882311F096E911C0772321F09EE8872FD4
:10193000762F05C0662371F096E8862F70E060E090
:101940002AF09A95660F771F881FDAF7880F969509
:10195000879597F90895990F0008550FAA0BE0E8AD
:10196000FEEF16161706E807F907C0F01216130661
:10197000E407F50798F0621B730B840B950B39F4A1
:101980000A2661F0232B242B252B21F408950A2607
:1019900009F4A140A6958FEF811D811D08950E9435
:1019A000E20C0C94530D0E94450D38F00E944C0D32
:1019B00020F0952311F00C943C0D0C94420D112451
:1019C0000C94870D0E94640D70F3959FC1F3950FE1
:1019D00050E0551F629FF001729FBB27F00DB11DB3
:1019E000639FAA27F00DB11DAA1F649F6627B00D43
:1019F000A11D661F829F2227B00DA11D621F739F2C
:101A0000B00DA11D621F839FA00D611D221F749F39
:101A10003327A00D611D231F849F600D211D822F80
:101A2000762F6A2F11249F5750409AF0F1F08823A7
:101A30004AF0EE0FFF1FBB1F661F771F881F9150D4
:101A40005040A9F79E3F510580F00C943C0D0C943A
:101A5000870D5F3FE4F3983ED4F3869577956795BD
:101A6000B795F795E7959F5FC1F7FE2B880F911DFE
:101A70009695879597F9089597F99F6780E870E0A4
:101A800060E008959FEF80EC089500240A941616F4
:101A9000170618060906089500240A94121613065C
:101AA000140605060895092E0394000C11F48823EA
:101AB00052F0BB0F40F4BF2B11F460FF04C06F5F06
:101AC0007F4F8F4F9F4F089557FD9058440F551FDC
:101AD00059F05F3F71F04795880F97FB991F61F0B0
:101AE0009F3F79F087950895121613061406551F27
:101AF000F2CF4695F1DF08C0161617061806991F93
:101B0000F1CF86957105610508940895E894BB2787
:101B100066277727CB0197F908950E94AB0C08F44C
:101B20008FEF0895EE0FFF1F0590F491E02D0994BB
:0E1B300081E090E0F8940C949D0DF894FFCFA6
:101B3E005003500301000000400014005400000048
:101B4E000000E40351037B033104AC038A039E03BC
:101B5E0000000000EA04BD041A059104B504A104B6
:101B6E009204000000002E0651031A051905737425
:101B7E00617274206F6620736574757000506920F1
:101B8E007761732072756E6E696E67004932433DE0
:101B9E00300057656C636F6D65204C434400557380
:101BAE0065207265617220696E70757400746F20A5
:101BBE00737461727420746F6F6C00666F726369F8
:101BCE006E67207069206F666600466F7263696E7D
:101BDE00672073687574646F776E007265717565D2
:101BEE007374696E6720612073687574646F776EA5
:101BFE0000706F7765724F666600496E6974696131
:0A1C0E006C697A696E67000D0A0028
:00000001FF
