:100000000C9462000C946E060C9447060C948A00C3
:100010000C948A000C948A000C944E070C948A006D
:100020000C948A000C948A000C948A000C948A0028
:100030000C948A000C948A000C948A000C948A0018
:100040000C94DF080C948A000C94D2060C94AC0635
:100050000C948A000C948A000C948A000C948A00F8
:100060000C94B1070C948A000000000023002600C5
:10007000290000000000240027002A0000000000E2
:10008000250028002B0004040404040404040202D4
:100090000202020203030303030301020408102007
:1000A0004080010204081020010204081020000012
:1000B0000008000201000003040700000000000027
:1000C0000000610D11241FBECFEFD8E0DEBFCDBF11
:1000D00023E0A2E4B2E001C01D92AA3DB207E1F71D
:1000E00012E0A0E0B1E0E8EFF2E202C005900D926C
:1000F000A234B107D9F710E0C2E6D0E004C02197DE
:10010000FE010E946F0FC136D107C9F70E9429096D
:100110000C947A110C9400003FB7F8948091570228
:1001200090915802A0915902B0915A0226B5A89B0D
:1001300005C02F3F19F00196A11DB11D3FBFBA2F79
:10014000A92F982F8827820F911DA11DB11DBC01D9
:10015000CD0143E0660F771F881F991F4A95D1F79D
:1001600008952FB7F89460915302709154028091D2
:100170005502909156022FBF0895CF93DF93BC0193
:100180008CEC92E00E949506EC0164EE71E08CEC40
:1001900092E00E9495068C0F9D1FDF91CF910895EC
:1001A0000F931F930E94B1006093D4027093D50205
:1001B0008093D6029093D7028CEC92E00E947B044D
:1001C00097FF1FC00E94B1000091D4021091D50288
:1001D0002091D6023091D702DC01CB01801B910B1C
:1001E000A20BB30B0091D0021091D1022091D20248
:1001F0003091D30280179107A207B307E8F28FEF7F
:100200009FEF1F910F910895282F3091CB0231322B
:1002100008F04AC08091A7028111FCCF9091CA02D8
:1002200042E04093A7022093A6022FEF2093A5025D
:100230001092A4023093A302EAEAF2E0A3E8B2E04B
:1002400020E0321721F041914D932F5FFACF1092A9
:10025000820220918202990F922B909382029091B8
:100260008102913061F41092810290918202909308
:10027000BB009091BC0093FDF8CF95EC01C095EECA
:100280009093BC009091A7029230E1F39091A50267
:100290009F3F79F08091A502803241F08091A502C4
:1002A000803331F084E005C081E003C082E001C00A
:1002B00083E01092A9021092CB021092A802089536
:1002C00040E062E00E9431078CE99FE00197F1F77E
:1002D0000895CF93DF93CDB7DEB728970FB6F89484
:1002E000DEBF0FBECDBF9C0188E0ECE0F1E0DE0197
:1002F000119601900D928A95E1F7F901818581119E
:1003000002C09FEF01C091E0FE013196E90FF11D9F
:10031000E90FF11D6081606840E0C90128960FB6C1
:10032000F894DEBF0FBECDBFDF91CF910C943107A3
:1003300028E0FC01238760E00C940407FC0113868D
:1003400060E00C94040740E061E00E9431078CE912
:100350009FE00197F1F7089587E480937C008091F6
:100360007A00806480937A0080917A0086FDFCCFC9
:10037000809178002091790090E0922B0895CF939E
:10038000DF93EB0191E09093A80298E69093CA0264
:100390001092A9021092CB02682F89E693E00E9486
:1003A000DB05688189E693E00E94DB0581E0DF914F
:1003B000CF910C940401CF93DF93EC0181E0809303
:1003C000A80288E68093CA021092A9021092CB027A
:1003D00089E693E00E94DB0581E00E9404018091A0
:1003E000A7028111FCCF81E08093A7028093A6022F
:1003F0009FEF9093A5021092A4021092A302809303
:10040000820280918202806D8093820280918102BB
:10041000813061F410928102809182028093BB004E
:100420008091BC0083FDF8CF85EC01C085EE809300
:10043000BC008091A7028130E1F38091A402811178
:1004400003C09091A40201C091E0A3E8B2E0E1E60C
:10045000F2E080E0891721F02D9121938F5FFACF90
:100460001092600280935F0289E693E00E949205F9
:100470008883DF91CF910895833081F028F4813013
:1004800099F08230A1F008958730A9F08830B9F052
:100490008430D1F4809180008F7D03C080918000F2
:1004A0008F7780938000089584B58F7702C084B5DC
:1004B0008F7D84BD08958091B0008F7703C08091B7
:1004C000B0008F7D8093B00008951F93CF93DF938A
:1004D000282F30E0F901E255FF4F8491F901E656EB
:1004E000FF4FD491F901EA57FF4FC491CC23C1F0DB
:1004F000162F81110E943C02EC2FF0E0EE0FFF1F3F
:10050000E458FF4FA591B4919FB7F894111104C01E
:100510008C91D095D82302C0EC91DE2BDC939FBF49
:10052000DF91CF911F91089590917503992319F050
:10053000882379F006C0882341F061E080E10E94C1
:10054000650281E080937603089560E080E10E9477
:1005500065021092760308951092600210925F0275
:100560001092A9021092CB021092A70281E0809310
:10057000A6021092810261E082E10E94650261E0C0
:1005800083E10E946502E9EBF0E080818E7F808349
:1005900080818D7F808380E28093B80085E48093A2
:1005A000BC0080E895E090935E0280935D0281E854
:1005B00095E090935C0280935B020895CF93DF9364
:1005C00090E0FC01E656FF4F2491FC01EA57FF4FF3
:1005D0008491882361F190E0880F991FFC01EE5807
:1005E000FF4FC591D491FC01E458FF4FA591B49100
:1005F000611109C09FB7F894888120958223888370
:10060000EC912E230BC0623061F49FB7F89488817F
:10061000322F309583238883EC912E2B2C939FBF10
:1006200006C08FB7F894E8812E2B28838FBFDF9107
:10063000CF9108958F929F92AF92BF92CF92DF9207
:10064000EF92FF926B017C010E948C004B015C01D8
:10065000C114D104E104F104F1F00E948C00DC012A
:10066000CB0188199909AA09BB09883E9340A105C5
:10067000B10570F321E0C21AD108E108F10888EE53
:10068000880E83E0981EA11CB11CC114D104E104A2
:10069000F10419F7DDCFFF90EF90DF90CF90BF907E
:1006A000AF909F908F900895CF92DF92EF92FF923C
:1006B000CF93DF9380917503882379F068E873E125
:1006C00080E090E00E941A0380E0DF91CF91FF90DC
:1006D000EF90DF90CF900C94940261E081E10E9452
:1006E00065020E94B1006B017C010E94AC01843064
:1006F000910514F480E090E0BC01990F880B990BF0
:100700000E94160E2BE734E14EE450E40E94750E71
:1007100020E030E04AEA52E40E946A0F87FD05C0FB
:1007200081E080937803C1E001C0C0E080E090E008
:10073000DC01D1E0CC2399F180339547A105B105C7
:1007400070F50E94AC018430910514F480E090E0D3
:10075000BC01990F880B990B0E94160E2BE734E110
:100760004EE450E40E94750E20E030E04AEA52E484
:100770000E946A0F87FD03C0D093780301C0C0E0D8
:1007800062E370E080E090E00E941A030E94B100F2
:10079000DC01CB018C199D09AE09BF09CBCF68E8FC
:1007A00073E180E090E00E941A0380E00E949402CE
:1007B00060E081E1DF91CF91FF90EF90DF90CF90EB
:1007C0000C9465020F931F93CF93DF93EC010E946B
:1007D000AC021D828985823010F098E09D839A8555
:1007E000992329F0813019F48D8184608D8362E32F
:1007F00070E080E090E00E941A036B85CE010E94B9
:10080000040768EE73E080E090E00E941A0360E362
:10081000CE010E94180704E213E2C8010197F1F724
:1008200060E3CE010E941807C8010197F1F760E369
:10083000CE010E94180788E291E00197F1F760E28B
:10084000CE010E9418076D81606240E0CE010E94D7
:10085000310784E08E8340E06CE0CE010E943107D6
:10086000CE010E94A30182E08F8340E066E0CE01CA
:100870000E943107CE01DF91CF911F910F910C940F
:1008800060010895CF92DF92EF92FF920F931F9332
:10089000CF93DF936C017A018B01C0E0D0E0CE15DD
:1008A000DF0581F0D8016D918D01D601ED91FC91AC
:1008B0000190F081E02DC6010995892B11F0219658
:1008C000EECF7E01C701DF91CF911F910F91FF9075
:1008D000EF90DF90CF900895FC01538D448D252F2C
:1008E00030E0842F90E0821B930B541710F0CF96CA
:1008F000089501970895FC01918D828D981761F0FC
:10090000828DDF01A80FB11D5D968C91928D9F5F46
:100910009F73928F90E008958FEF9FEF0895FC01F1
:10092000918D828D981731F0828DE80FF11D858DA4
:1009300090E008958FEF9FEF0895FC01918D228D37
:10094000892F90E0805C9F4F821B91098F739927BC
:1009500008958CEC92E00E949D0421E0892B09F41B
:1009600020E0822F0895FC01848DDF01A80FB11DC6
:10097000A35ABF4F2C91848D90E001968F739927D5
:10098000848FA689B7892C93A089B1898C918370B3
:1009900080648C93938D848D981306C00288F389AC
:1009A000E02D80818F7D80830895EF92FF920F93D9
:1009B0001F93CF93DF93EC0181E0888F9B8D8C8D0B
:1009C000981305C0E889F989808185FD26C0F62E37
:1009D0000B8D10E00F5F1F4F0F731127E02E8C8DD2
:1009E000E8120CC00FB607FCFACFE889F9898081BC
:1009F00085FFF5CFCE010E94B304F1CF8B8DFE01B0
:100A0000E80FF11DE35AFF4FF0829FB7F8940B8F68
:100A1000EA89FB89808180620AC09FB7F894EE89D9
:100A2000FF896083E889F98980818370806480838D
:100A30009FBF81E090E0DF91CF911F910F91FF90D8
:100A4000EF900895CF93DF93EC01888D8823C9F050
:100A5000EA89FB89808185FD05C0A889B9898C91C7
:100A600086FD0FC00FB607FCF5CF808185FFF2CF62
:100A7000A889B9898C9185FFEDCFCE010E94B3047E
:100A8000E7CFDF91CF91089580E090E0892B29F0A6
:100A90000E94A90481110C940000089585ED8093B3
:100AA000BC008091BC0084FDFCCF1092A702089589
:100AB0004091B203262F30E0240F311D2132310541
:100AC000DCF42091A7022430C9F4FC0180E090E01E
:100AD000861758F43091B2032191DC01AE56BC4F19
:100AE000A30FB11D2C930196F3CF8091B203680F31
:100AF0006093B20380E0089581E0089582E0089554
:100B0000089508950895E091600280915F02E817CA
:100B100030F4F0E0EF59FD4F808190E008958FEFC1
:100B20009FEF08959091600280915F02981750F4B2
:100B3000E92FF0E0EF59FD4F208130E09F5F909367
:100B4000600202C02FEF3FEFC901089580915F025C
:100B500090E020916002821B91090895CF92DF926C
:100B6000EF92FF920F931F93CF93DF937C01CB0102
:100B70008A012091A802222389F0EB016B01C40EA7
:100B8000D51ECC15DD0569F06991D701ED91FC9179
:100B90000190F081E02DC7010995F3CF642F0E94E9
:100BA0005805C801DF91CF911F910F91FF90EF90F1
:100BB000DF90CF900895CF93DF931F92CDB7DEB72C
:100BC00069832091A8022223D1F02091CB02203208
:100BD00040F021E030E0FC013383228380E090E0AC
:100BE00015C08091A902E82FF0E0E655FD4F9981EC
:100BF00090838F5F8093A9028093CB0205C061E050
:100C0000CE0101960E94580581E090E00F90DF919F
:100C1000CF910895089580E090E0089581E0809359
:100C2000420208950E945C110F931F93CF93DF93AC
:100C3000EC0188819981009729F02A813B81261750
:100C4000370788F48B016F5F7F4F0E9496100097E3
:100C500061F0998388831B830A832C813D81232B38
:100C600011F4FC01108281E001C080E0DF91CF919E
:100C70001F910F910895E9E6F0E02081237F880F0E
:100C8000991F880F991F822B8083E99A08951F92DC
:100C90000F920FB60F9211242F933F934F935F93B0
:100CA0006F937F938F939F93AF93BF93EF93FF9334
:100CB000E0910201F09103010995FF91EF91BF913D
:100CC000AF919F918F917F916F915F914F913F91E4
:100CD0002F910F900FBE0F901F9018951F920F929B
:100CE0000FB60F9211242F933F934F935F936F93FF
:100CF0007F938F939F93AF93BF93EF93FF93E09175
:100D00000001F09101010995FF91EF91BF91AF9121
:100D10009F918F917F916F915F914F913F912F9113
:100D20000F900FBE0F901F9018956115710579F007
:100D3000FB0101900020E9F73197AF01461B570BEB
:100D4000DC01ED91FC910280F381E02D099480E0BB
:100D500090E008950C9495061F920F920FB60F9293
:100D600011242F933F934F935F936F937F938F93B0
:100D70009F93AF93BF93EF93FF938CEC92E00E940D
:100D8000B304FF91EF91BF91AF919F918F917F91AC
:100D90006F915F914F913F912F910F900FBE0F90E8
:100DA0001F9018951F920F920FB60F9211242F9338
:100DB0008F939F93EF93FF93E091DC02F091DD021C
:100DC0008081E091E202F091E30282FD12C0908105
:100DD0008091E5028F5F8F732091E602821751F0B8
:100DE000E091E502F0E0E453FD4F958F8093E5023A
:100DF00001C08081FF91EF919F918F912F910F9072
:100E00000FBE0F901F901895FC01248131E03093A4
:100E1000A8022093CA021092A9021092CB028385E5
:100E2000682B89E693E00E94DB0581E00C940401C5
:100E30000F931F93CF938C01C62F0E9404076C2F32
:100E40006460C8010E9404076C2F6B7FC8010E9478
:100E5000040780E690E00197F1F7CF911F910F9181
:100E600008950F931F93CF93DF938C01C62FD42F38
:100E7000607F642B0E94180780E1C89FB001112495
:100E80006D2BC801DF91CF911F910F910C94180722
:100E900041E00E94310781E090E008951F920F9297
:100EA0000FB60F9211248F930FB6F894A8958091E6
:100EB0006000886180936000109260000FBE8F9187
:100EC0000F900FBE0F901F9018954115510529F4F2
:100ED000EAE7F0E080818F7780836A307105A9F0BE
:100EE00063FD02C088E001C088E26770682B88E17A
:100EF0000FB6F894A895809360000FBE60936000D1
:100F0000E0E6F0E0808180648083232BA1F483B746
:100F1000817F846083BFF89483B7816083BF85B786
:100F2000806685BF8F7D85BF7894889583B78E7FD7
:100F300083BF78940EC083B7817F846083BFF894A9
:100F400083B7816083BF7894889583B78E7F83BF92
:100F50007894452B29F4EAE7F0E08081806880836B
:100F600008951F920F920FB60F9211242F933F9363
:100F70004F935F936F937F938F939F93AF93BF93A1
:100F8000EF93FF938091B900887F803609F49CC06D
:100F900068F5883209F45BC090F4803109F454C0DC
:100FA00038F4882309F4F6C0883009F44DC0F6C03F
:100FB000883109F44CC0803209F45DC0EFC0803440
:100FC00009F468C048F4803309F455C0883309F047
:100FD000E5C08093A502D8C0803509F44FC088359C
:100FE00009F45DC0883409F0D9C0D6C0883909F445
:100FF000C7C0A8F4883709F467C038F4883609F404
:1010000063C0803709F460C0C9C0883809F4B8C02B
:10101000803909F45FC0803809F0C0C05BC0803BF4
:1010200009F486C038F4803A09F466C0883A09F4B5
:101030007FC0B4C0803C09F4A7C0883C09F4A4C0B8
:10104000883B09F48AC0AAC08091820210C09091A6
:10105000A4028091A302981770F5E091A40281E0A8
:101060008E0F8093A402F0E0ED57FD4F80818093B6
:10107000BB0085EC86C08093A5028EC0E091A402DF
:1010800081E08E0F8093A4028091BB00F0E0ED57C9
:10109000FD4F80839091A4028091A3026EC0E091E5
:1010A000A40281E08E0F8093A4028091BB00F0E047
:1010B000ED57FD4F80838091A60281116DC081E0C4
:1010C0008093810284EA61C083E08093A70210923A
:1010D000D403CFCF8091D403803208F051C0E09187
:1010E000D40381E08E0F8093D4038091BB00F0E0A5
:1010F000EC54FC4F8083BDCF85EC8093BC001092F4
:10110000A7028091D403803230F4E091D403F0E060
:10111000EC54FC4F10826091D40370E0E0915B02CC
:10112000F0915C0284EB93E009951092D40336C0F1
:1011300084E08093A7021092B3031092B203E0916F
:101140005D02F0915E0209958091B203811105C0A4
:1011500081E08093B20310929203E091B30381E0A7
:101160008E0F8093B303F0E0EE56FC4F80818093A6
:10117000BB009091B3038091B203981708F479CF24
:1011800085E88093BC000AC085EC8093BC00109277
:10119000A70204C01092A5020E944E05FF91EF9194
:1011A000BF91AF919F918F917F916F915F914F917F
:1011B0003F912F910F900FBE0F901F9018951F9287
:1011C0000F920FB60F9211242F933F938F939F93FB
:1011D000AF93BF938091530290915402A091550216
:1011E000B09156023091D50326E0230F2D3720F41D
:1011F0000296A11DB11D05C029E8230F0396A11D6C
:10120000B11D2093D5038093530290935402A09371
:101210005502B09356028091570290915802A091C6
:101220005902B0915A020196A11DB11D8093570237
:1012300090935802A0935902B0935A02BF91AF9174
:101240009F918F913F912F910F900FBE0F901F9004
:101250001895CF93DF93CDB7DEB72D970FB6F894DF
:10126000DEBF0FBECDBF789484B5826084BD84B5E7
:10127000816084BD85B5826085BD85B5816085BD91
:1012800080916E00816080936E0010928100809149
:1012900081008260809381008091810081608093D1
:1012A0008100809180008160809380008091B100F6
:1012B00084608093B1008091B00081608093B00021
:1012C00080917A00846080937A0080917A008260B5
:1012D00080937A0080917A008E7F80937A0080914B
:1012E0007A00806880937A001092C10061E08DE0FE
:1012F0000E94DE0260E08DE00E946502E091DC0267
:10130000F091DD0282E08083E091D802F091D90271
:101310001082E091DA02F091DB0288E08083109283
:10132000E402E091E002F091E10286E08083E09146
:10133000DE02F091DF02808180618083E091DE0235
:10134000F091DF02808188608083E091DE02F0917D
:10135000DF02808180688083E091DE02F091DF020D
:1013600080818F7D808388EE93E0A0E0B0E0809361
:10137000D0029093D102A093D202B093D30284E41E
:1013800091E00E94BD0080917503882309F180914E
:10139000760391E090937803882309F43AC011E032
:1013A0001093780383E591E00E94BD0084E090E013
:1013B000909305018093040181E00E949402809142
:1013C000750381111FC061E084E00E9465021AC0AC
:1013D000E5EBF0E08491E1EAF0E00491EDE8F0E083
:1013E00014911123B1F081110E943C02E12FF0E031
:1013F000EE0FFF1FE859FF4FA591B491EC91E02348
:1014000041F0CDCF1093770382E691E00E94BD00BA
:1014100020C080E00E94940280917503811104C075
:1014200060E084E00E9465021092770388E691E014
:101430000E94BD0086E893E00E94E2038AE793E001
:101440000E94E2038091040190910501019709F443
:10145000EBC28EE096E0909303018093020180E05E
:1014600090E00E943B060E94AC0262E0CE01019631
:101470000E94DB0189818F3FB9F188E58D87BE012C
:10148000635F7F4F80E00E94BF016FE0CE01019655
:101490000E94DB01898188638C87BE01645F7F4F76
:1014A0008FE00E94BF011B86BE01655F7F4F82E017
:1014B0000E94BF0160E0CE0101960E94DB011A8606
:1014C000BE01665F7F4F81E00E94BF0160E0CE01F8
:1014D00001960E94DB01898180688987BE01675F70
:1014E0007F4F80E00E94BF0183E0E82EF12C94E062
:1014F000292E312CCC24C394D12C3EE0A32E36E0EF
:10150000B32E41E4842E44E0942E81EB90E02C0134
:10151000990F6608770861E971E08CEC92E00E940F
:10152000AA0680915102909152028130910571F189
:1015300040F08230910509F49DC0049709F4B5C0CC
:101540005FC180914F0290915002019771F086E93E
:1015500091E00E94BD0020E030E040E050E06AE011
:1015600070E085E793E00E9465078091420288233E
:1015700009F446C110924202E998909203018092C8
:101580000201D0925202C09251023AC1109242021C
:101590000E94B10060934B0270934C0280934D0205
:1015A00090934E020E94AC018430910514F480E0C7
:1015B00090E0BC01990F880B990B0E94160E2BE747
:1015C00034E14EE450E40E94750E20E030E04AEA37
:1015D00052E40E946A0F87FD04C081E08093780383
:1015E00036C086E893E00E94980186E893E00E9466
:1015F000600165E372E086E893E00E94AA068AE74C
:1016000093E00E9498018AE793E00E94600165E3FD
:1016100072E08AE793E00E94AA06F0920501E09248
:10162000040181E00E94940280917503811104C03D
:1016300061E084E00E94650281E08093770330924C
:10164000050120920401D0925002C0924F0282E024
:1016500090E0909352028093510261E08DE00E94ED
:101660006502B0920301A092020181E090E00E9425
:101670003B06C6C080914202882309F4C1C0E998A4
:101680009092030180920201109242020E94B100E6
:1016900060934702709348028093490290934A02F4
:1016A0003092520220925102ABC00E94AC018430B1
:1016B000910514F480E090E0BC01990F880B990B20
:1016C0000E94160E2BE734E14EE450E40E94750EA2
:1016D00020E030E04AEA52E40E946A0F87FD80C0B1
:1016E00081E0809378038091470290914802A09115
:1016F0004902B0914A0240914B0250914C026091D4
:101700004D0270914E02841B950BA60BB70B8131D5
:1017100027E29207A105B105B0F185EA91E00E94A8
:10172000BD0086E893E00E94600164EB71E086E80A
:1017300093E00E94AA068AE793E00E94600164EBAE
:1017400071E08AE793E00E94AA0686E090E0909319
:1017500005018093040160ED77E080E090E00E9455
:101760001A0380E00E94940280917503811104C0E5
:1017700060E084E00E9465021092770310925002AC
:1017800010924F0219C0893C9105A105B10540F1A5
:10179000F0925002E0924F0285EC91E00E94BD0071
:1017A0008BED91E00E94BD0060ED77E080E090E07D
:1017B0000E941A030E94540386E893E00E94A3014A
:1017C00086E893E00E949E018AE793E00E94A301CD
:1017D0008AE793E00E949E01109205011092040195
:1017E00060E08DE00E946502B0920301A0920201C8
:1017F00080E090E00E943B0610925202109251024B
:101800008CEC92E00E949D04181619060CF06FC033
:101810000E94B1006093430270934402809345029A
:10182000909346021A8219821C821B821E821D829C
:1018300060E070E0CE0101960E94140629813A8191
:1018400081110DC02115310519F0C9010E940D103B
:101850001A8219821E821D821C821B8207C01E8270
:101860001D8266EE71E0C9010E9473110E94D000D2
:1018700097FD1BC08F8318860D811E810F5F1F4F40
:10188000B801CE0101960E941406882379F32981BC
:101890003A818D819E81BE01695F7F4F820F931FC8
:1018A0000E9473111E830D83E1CF4D815E8169819A
:1018B0007A818CEC92E00E94420464EE71E08CEC40
:1018C00092E00E9495068D819E81892B61F067EEE2
:1018D00071E089819A810E946A11892B21F487EE37
:1018E00091E00E94BD0089819A810E940D100E94A2
:1018F000B1000091430210914402209145023091C1
:101900004602DC01CB01801B910BA20BB30B81368D
:101910009A4EA105B10508F484C08AEE91E00E94B8
:10192000BD008091040190910501049771F586E84E
:1019300093E00E94600167E172E086E893E00E9414
:10194000AA0686E893E00E94690166E272E086E8F2
:1019500093E00E94AA068AE793E00E94600167E193
:1019600072E08AE793E00E94AA068AE793E00E9469
:10197000690166E272E08AE793E00E94AA0685E0C8
:1019800090E090930501809304010E94540368EE57
:1019900073E080E090E00E941A0386E893E00E94E2
:1019A000980186E893E00E94600165E372E086E8B2
:1019B00093E00E94AA068AE793E00E9498018AE7D2
:1019C00093E00E94600165E372E08AE793E00E9481
:1019D000AA06F0920501E092040181E00E949402BF
:1019E00080917503811104C061E084E00E9465026A
:1019F00081E08093770368E873E180E090E00E94E3
:101A00001A0340924B0250924C0260924D02709227
:101A10004E024092470250924802609249027092F0
:101A20004A020E94440577CD86E893E00E9498011F
:101A300064E771E086E893E00E94AA0686E893E0F6
:101A40000E94690163E871E086E893E00E94AA06BB
:101A50008AE793E00E94980164E771E08AE793E0E7
:101A60000E94AA068AE793E00E94690163E871E098
:101A70008AE793E00E94AA0682E090E09093050135
:101A80008093040168E873E180E090E00E941A030B
:101A9000809142028111DDCC86E893E00E94A3018F
:101AA00086E893E00E949E018AE793E00E94A301EA
:101AB0008AE793E00E949E011092050110920401B2
:101AC000C8CC1092CF021092CE0288EE93E0A0E034
:101AD000B0E08093D0029093D102A093D202B09351
:101AE000D30228E131E03093CD022093CC0225ECE3
:101AF00030E03093D9022093D80224EC30E03093C8
:101B0000DB022093DA0220EC30E03093DD022093F8
:101B1000DC0221EC30E03093DF022093DE0222EC85
:101B200030E03093E1022093E00226EC30E0309385
:101B3000E3022093E2021092E5021092E602109274
:101B4000E7021092E80210926C0310926B038093EC
:101B50006D0390936E03A0936F03B09370038AE2BA
:101B600091E090936A038093690310927503109239
:101B7000790310927803109276031092770361E054
:101B800080E10E94DE0280E00E94940261E084E035
:101B90000E94DE0280917503811104C060E084E040
:101BA0000E9465021092770361E081E10E94DE02EB
:101BB00060E081E10E94650260E087E00E94DE0251
:101BC00060E083E00E94DE0260E082E00E94DE02CC
:101BD00010928903109288034CE351E050938703DD
:101BE000409386038FE380938A0320E120938E0342
:101BF00092E090938F031092900388E0809391037A
:101C000010927D0310927C0350937B0340937A03E0
:101C100037E230937E0320938203909383031092E4
:101C20008403809385030895E89409C097FB3EF4EC
:101C300090958095709561957F4F8F4F9F4F992319
:101C4000A9F0F92F96E9BB279395F6958795779597
:101C50006795B795F111F8CFFAF4BB0F11F460FF57
:101C60001BC06F5F7F4F8F4F9F4F16C0882311F0AF
:101C700096E911C0772321F09EE8872F762F05C0C3
:101C8000662371F096E8862F70E060E02AF09A955E
:101C9000660F771F881FDAF7880F9695879597F953
:101CA0000895990F0008550FAA0BE0E8FEEF1616ED
:101CB0001706E807F907C0F012161306E407F50740
:101CC00098F0621B730B840B950B39F40A2661F0B4
:101CD000232B242B252B21F408950A2609F4A14057
:101CE000A6958FEF811D811D08950E94880E0C948A
:101CF000F90E0E94EB0E38F00E94F20E20F09523B0
:101D000011F00C94E20E0C94E80E11240C942D0F9B
:101D10000E940A0F70F3959FC1F3950F50E0551F75
:101D2000629FF001729FBB27F00DB11D639FAA2730
:101D3000F00DB11DAA1F649F6627B00DA11D661F7F
:101D4000829F2227B00DA11D621F739FB00DA11DA0
:101D5000621F839FA00D611D221F749F3327A00D5A
:101D6000611D231F849F600D211D822F762F6A2FF6
:101D700011249F5750409AF0F1F088234AF0EE0F5B
:101D8000FF1FBB1F661F771F881F91505040A9F788
:101D90009E3F510580F00C94E20E0C942D0F5F3F96
:101DA000E4F3983ED4F3869577956795B795F795C4
:101DB000E7959F5FC1F7FE2B880F911D969587953C
:101DC00097F9089597F99F6780E870E060E00895BB
:101DD0009FEF80EC089500240A9416161706180643
:101DE0000906089500240A9412161306140605061F
:101DF0000895092E0394000C11F4882352F0BB0FB0
:101E000040F4BF2B11F460FF04C06F5F7F4F8F4F12
:101E10009F4F089557FD9058440F551F59F05F3F4D
:101E200071F04795880F97FB991F61F09F3F79F0FC
:101E300087950895121613061406551FF2CF46957E
:101E4000F1DF08C0161617061806991FF1CF869500
:101E50007105610508940895E894BB2766277727E4
:101E6000CB0197F908952F923F924F925F926F9214
:101E70007F928F929F92AF92BF92CF92DF92EF921A
:101E8000FF920F931F93CF93DF93CDB7DEB7CA1B9B
:101E9000DB0B0FB6F894DEBF0FBECDBF09942A88C6
:101EA000398848885F846E847D848C849B84AA846E
:101EB000B984C884DF80EE80FD800C811B81AA81FB
:101EC000B981CE0FD11D0FB6F894DEBF0FBECDBFC6
:101ED000ED0108950E94510E08F48FEF0895EE0F62
:101EE000FF1F0590F491E02D09940F931F93CF935A
:101EF000DF938230910510F482E090E0E091D80306
:101F0000F091D90320E030E0A0E0B0E0309719F183
:101F1000408151810281138148175907C8F0841705
:101F2000950769F4109731F012960C931297139657
:101F30001C9327C00093D8031093D90322C0211506
:101F4000310519F04217530718F49A01BD01EF014A
:101F5000DF01F801DBCF21153105F9F0281B390B22
:101F60002430310580F48A819B816115710521F04F
:101F7000FB019383828304C09093D9038093D80399
:101F8000FE01329644C0FE01E20FF31F819391934C
:101F900022503109398328833AC02091D6033091E9
:101FA000D703232B41F4209108013091090130938C
:101FB000D7032093D6032091060130910701211504
:101FC000310541F42DB73EB740910A0150910B0104
:101FD000241B350BE091D603F091D703E217F307EA
:101FE000A0F42E1B3F0B2817390778F0AC014E5F89
:101FF0005F4F2417350748F04E0F5F1F5093D703EC
:102000004093D6038193919302C0E0E0F0E0CF01CA
:10201000DF91CF911F910F910895CF93DF93009798
:1020200009F481C0FC01329713821282A091D80377
:10203000B091D903109781F420813181820F931FD1
:102040002091D6033091D7032817390751F5F09323
:10205000D703E093D60367C0ED0120E030E0CE1750
:10206000DF0740F44A815B819E0141155105F1F083
:10207000EA01F5CFD383C28340815181840F951F3C
:10208000C817D90759F488819981840F951F029642
:10209000918380838A819B8193838283211531057B
:1020A00029F4F093D903E093D8033DC0E901FB8301
:1020B000EA8349915991C40FD51FEC17FD0761F4CC
:1020C00080819181840F951F0296E901998388830D
:1020D000828193819B838A83E0E0F0E012968D9168
:1020E0009C911397009719F0FD01DC01F7CF8D91BA
:1020F0009C9111979D012E5F3F4F820F931F20915E
:10210000D6033091D7032817390769F4309729F49B
:102110001092D9031092D80302C013821282B09396
:10212000D703A093D603DF91CF910895A0E0B0E04C
:10213000ECE9F0E10C94370FEC01009721F4CB01AE
:102140000E94750FB4C0FC01E60FF71F9C012250DE
:102150003109E217F30708F4A8C0D9010D911C91C9
:10216000119706171707B0F00530110508F49BC04A
:10217000C80104978617970708F495C00250110903
:10218000061B170B019311936D937C93CF010E9453
:102190000D1089C05B01A01AB10A4C01800E911E7E
:1021A000A091D803B091D903612C712CE12CF12CB2
:1021B000109709F446C08D919C911197A815B90507
:1021C000B1F56C0142E0C40ED11CCA14DB0478F1F5
:1021D0004C018A189B08640142E0C40ED11C12967F
:1021E000BC9012971396AC91B5E0CB16D10440F099
:1021F000B282A38391828082D9016D937C9309C0BE
:102200000E5F1F4F800F911FF90191838083EB2D8B
:10221000FA2FE114F10431F0D7011396FC93EE93F9
:10222000129741C0F093D903E093D8033CC06816DD
:10223000790608F43C017D0112960D90BC91A02D09
:10224000B7CF8091D6039091D70388169906E1F411
:1022500066167706C8F480910601909107010097F1
:1022600041F48DB79EB740910A0150910B01841B38
:10227000950BE817F907C8F4F093D703E093D6035A
:10228000F901718360830FC0CB010E94750F7C013F
:10229000009759F0A801BE010E946111CE010E9471
:1022A0000D10C70104C0CE0102C080E090E0CDB7A0
:1022B000DEB7EEE00C94530F81E090E0F8940C94BC
:1022C0007A11FB01DC0102C001900D924150504097
:1022D000D8F70895FB01DC018D9101908019011060
:1022E000D9F3990B0895FB01DC0101900D920020B8
:0822F000E1F70895F894FFCF17
:1022F8004104410401000000DA03800000004000AE
:102308001400540000000000D50442046C042205A7
:102318009D047B048F0400000000DB05AE050B065E
:102328008205A605920583050000000048074204BF
:102338000B060A067374617274206F6620736574E5
:102348007570005069207761732072756E6E696EC2
:1023580067004932433D300057656C636F6D6520F7
:102368004C434400557365207265617220696E7034
:10237800757400746F20737461727420746F6F6C5D
:10238800007465737400676F696E6720746F2073DB
:102398006C65657000666F7263696E67207069208E
:1023A8006F666600466F7263696E6720736875743E
:1023B800646F776E0072657175657374696E6720F6
:1023C800612073687574646F776E00706F776572DB
:1023D8004F6666000D0A006F6B006E6F2055415204
:1023E8005420636F6D6D7320696E6974204750497E
:1023F8004F2073687574646F776E207468656E20FB
:102408007265626F6F74004661756C7420646574E0
:10241800656374656400726573657474696E6720BA
:10242800746F6F6C00496E697469616C697A696E62
:0224380067003B
:00000001FF
