:100000000C9490000C94B8000C94B8000C94B800B8
:100010000C94B8000C94B8000C94B8000C94B80080
:100020000C94B8000C94B8000C94B8000C94B80070
:100030000C94B8000C94B8000C94B8000C94B80060
:100040000C94480E0C94B8000C9437030C941103D4
:100050000C94B8000C94B8000C94B8000C94B80040
:100060000C94B8000C94B80087128A129112941262
:1000700097129A129D12A012A312C212C512CC128C
:10008000CF12D212D512D812DB12DE12FD120013DB
:1000900007130A130D131013131316131913381320
:1000A0003B134213451348134B134E135113541370
:1000B000731376137D1380138313861389138C13A4
:1000C0008F1300000000240027002A000000000019
:1000D000250028002B000000000023002600290036
:1000E00004040404040404040202020202020303DE
:1000F00003030303010204081020408001020408E6
:100100001020010204081020000000080002010075
:1001100000030407000000000000000040161C1649
:1001200011241FBECFEFD8E0DEBFCDBF25E0A2E790
:10013000B4E001C01D92AC3CB207E1F714E0A0E0CE
:10014000B1E0E6E2F3E302C005900D92A237B107F9
:10015000D9F710E0CFE8D0E004C02197FE010E945B
:100160007B17CE38D107C9F70E94920E0C948619DE
:100170000C9400000895CF92DF92EF92FF920F93BC
:100180001F93CF93DF936C017A018B01C0E0D0E025
:10019000CE15DF0581F0D8016D918D01D601ED916D
:1001A000FC910190F081E02DC6010995892B11F099
:1001B0002196EECF7E01C701DF91CF911F910F9164
:1001C000FF90EF90DF90CF90089580E090E0089549
:1001D000FC01538D448D252F30E0842F90E0821B4D
:1001E000930B541710F0CF96089501970895FC01D2
:1001F000918D828D981761F0828DDF01A80FB11D5E
:100200005D968C91928D9F5F9F73928F90E0089581
:100210008FEF9FEF0895FC01918D828D981731F03B
:10022000828DE80FF11D858D90E008958FEF9FEF8F
:100230000895FC01918D228D892F90E0805C9F4F65
:10024000821B91098F739927089583EE94E00E9491
:10025000190121E0892B09F420E0822F0895FC0187
:10026000848DDF01A80FB11DA35ABF4F2C91848D3F
:1002700090E001968F739927848FA689B7892C9374
:10028000A089B1898C91837080648C93938D848DC7
:10029000981306C00288F389E02D80818F7D8083CA
:1002A0000895EF92FF920F931F93CF93DF93EC018A
:1002B00081E0888F9B8D8C8D981305C0E889F98922
:1002C000808185FD26C0F62E0B8D10E00F5F1F4F3D
:1002D0000F731127E02E8C8DE8120CC00FB607FCAF
:1002E000FACFE889F989808185FFF5CFCE010E9498
:1002F0002F01F1CF8B8DFE01E80FF11DE35AFF4F67
:10030000F0829FB7F8940B8FEA89FB898081806225
:100310000AC09FB7F894EE89FF896083E889F9895C
:1003200080818370806480839FBF81E090E0DF9153
:10033000CF911F910F91FF90EF900895CF93DF938E
:10034000EC01888D8823C9F0EA89FB89808185FDCD
:1003500005C0A889B9898C9186FD0FC00FB607FC2E
:10036000F5CF808185FFF2CFA889B9898C9185FF6F
:10037000EDCFCE010E942F01E7CFDF91CF910895FD
:1003800080E090E0892B29F00E94250181110C94D6
:100390000000089520919804309199048091780488
:1003A000909179048217930794F480917A04909144
:1003B0007B04029774F081E0409196045091970479
:1003C0002091760430917704421753071CF080E0A7
:1003D000089581E008950E9468190F931F93CF93A9
:1003E000DF93EC0188819981009729F02A813B8174
:1003F0002617370788F48B016F5F7F4F0E94A21882
:10040000009761F0998388831B830A832C813D8147
:10041000232B11F4FC01108281E001C080E0DF9108
:10042000CF911F910F910895CF93DF93EC018881B5
:100430009981009711F00E941918198218821D8263
:100440001C821B821A82DF91CF910895EF92FF9256
:100450000F931F93CF93DF93EC017B018A01BA01C5
:100460000E94ED01811104C0CE010E94140207C058
:100470001D830C83B701888199810E947F19CE0169
:10048000DF91CF911F910F91FF90EF900895FC01A4
:1004900024813581232B31F421E061157105A1F010
:1004A000FB0108C0FC01808191816115710531F467
:1004B00021E0FC018081882339F005C00E94761973
:1004C00021E0892B09F020E0822F0895EF92FF921E
:1004D0000F931F93CF93DF936115710511F480E0A3
:1004E0001CC041155105C1F07B01EC018C819D813F
:1004F0008A01080F191FB801CE010E94ED0188235F
:1005000071F3288139818C819D81B701820F931FFE
:100510000E947F191D830C8381E0DF91CF911F9191
:100520000F91FF90EF900895CF93DF93EC01611549
:10053000710561F0FB0101900020E9F73197AF01EF
:10054000461B570B0E946602811103C0CE010E9418
:100550001402CE01DF91CF910895CF93DF93EC0188
:10056000FB0144815581608171810E946602811185
:1005700003C0CE010E941402CE01DF91CF910895F5
:10058000CF93DF93EC016115710559F0FB010190E8
:100590000020E9F73197AF01461B570B0E94260256
:1005A00002C00E941402CE01DF91CF910895CF9333
:1005B000DF93EC01FB018617970761F06081718181
:1005C0006115710529F0448155810E94260202C0FF
:1005D0000E941402CE01DF91CF910895FC01808129
:1005E00091810C941918FC011182108213821282DD
:1005F000158214820C94D702FC011182108213829E
:100600001282158214826115710551F0FB0101906F
:100610000020E9F73197AF01461B570B0C942602D7
:1006200008951F920F920FB60F9211242F933F93AC
:100630004F935F936F937F938F939F93AF93BF93EA
:10064000EF93FF9383EE94E00E942F01FF91EF91CF
:10065000BF91AF919F918F917F916F915F914F91DA
:100660003F912F910F900FBE0F901F9018951F92E2
:100670000F920FB60F9211242F938F939F93EF93A6
:10068000FF93E091F304F091F4048081E091F90488
:10069000F091FA0482FD12C090818091FC048F5F7A
:1006A0008F732091FD04821751F0E091FC04F0E07B
:1006B000ED51FB4F958F8093FC0401C08081FF9129
:1006C000EF919F918F912F910F900FBE0F901F90E0
:1006D00018958EBD00000DB407FEFDCF8EB50895B0
:1006E0008091DA04882359F060E087E00E94F00AE4
:1006F0008CE293E00E94150A1092DA04089561E0FA
:1007000087E00E94F00A81E08093DA0408950E9455
:100710003D0C837009F497C00E943D0C80FF06C019
:1007200081E60E94BB0B40E061E007C081FF1AC078
:1007300081E70E94BB0B40E062E08CE20E943C0B30
:100740008091B5058093D904A6EBB5E0E1EDF4E026
:1007500090E09F01215D3440281739072CF42D913A
:100760002193F7CF1092D9048091B1059091B205F1
:10077000A091B305B091B405853321E09207A1059E
:10078000B105A1F58091D1048F7090E09093A804F9
:100790008093A7048091D7048F7190E09093870491
:1007A000809386048091D50490E034E095958795F8
:1007B0003A95E1F790938504809384048091D40462
:1007C00090E095958795959587958F71992790934A
:1007D0008304809382048091D80490E090937D04F8
:1007E00080937C0481E0809389040895873321E01D
:1007F0009207A105B105C9F48091D70490E09595C1
:100800008795959587958F7199279093810480930B
:1008100080048091D1048F7390E090937F04809343
:100820007E0481E0809388040895813F9140A10572
:10083000B10549F48091D104837090E09093A204B3
:100840008093A10408950895CF93C82F0E94660A4B
:1008500021E0009709F420E020930001892B09F59D
:1008600062E370E080E090E00E94A90C0E94660ABA
:1008700021E0009709F420E020930001892B89F4FE
:10088000CC2379F00E94E30CDC01CB01C297A109D3
:10089000B1098093CD049093CE04A093CF04B0937C
:1008A000D004CF91089520917804309179048091FB
:1008B000980490919904281739077CF48091960444
:1008C000909197042817390744F481E04091CB04B4
:1008D0005091CC04241735070CF080E00895CF9395
:1008E000DF93CDB7DEB76E970FB6F894DEBF0FBEBD
:1008F000CDBF20917A0430917B048823E9F0223027
:10090000310594F08FE00E94920C909399048093AB
:1009100098048EE00E94920C909397048093960422
:1009200023C02230310571F38FE00E94920C909326
:1009300099048093980418C02330310591F78FE013
:100940000E94920C90939904809398048EE00E94E8
:10095000920C909397048093960480E10E94920CED
:100960009093CC048093CB0480910101909102017B
:10097000059709F061C06091CB047091CC04CE0161
:1009800049960E943A0A6091960470919704CE01AC
:1009900043960E943A0A6091980470919904CE019E
:1009A0000D960E943A0A69E273E0CE0107960E9412
:1009B000FC02BE01635F7F4FCE0107960E94AD022D
:1009C00069E373E00E949402BE016D5E7F4F0E9456
:1009D000AD026EE373E00E949402BE01675E7F4F3A
:1009E0000E94AD02BC01CE0101960E94F302CE012D
:1009F00007960E94EE02CE010D960E94EE02CE01F5
:100A000043960E94EE02CE0149960E94EE02BE017C
:100A10006F5F7F4FCE0107960E94F3026AE070E09D
:100A2000CE0107960E94D90DCE0107960E94EE02D4
:100A3000CE0101960E94EE026E960FB6F894DEBFCC
:100A40000FBECDBFDF91CF9108958F929F92AF924D
:100A5000BF92CF92DF92EF92FF920F931F93CF93AB
:100A6000DF93CDB7DEB7CD55D1090FB6F894DEBF11
:100A70000FBECDBF7C018EE892E00E94150AC12C0A
:100A8000D12C00E010E021E0E216F10441F4809165
:100A90000001882319F181E00E9424041FC0E114A1
:100AA000F10409F049C48091A7049091A804039728
:100AB00009F43DC40E9487038091A7049091A80483
:100AC000039709F034C40E94E30C6093A30470936D
:100AD000A4048093A5049093A60429C401151105CC
:100AE00071F40E94E30C6093C7047093C804809370
:100AF000C9049093CA0481E0E816F10489F4809156
:100B0000C7049091C804A091C904B091CA0440914F
:100B1000A3045091A4046091A5047091A60413C08D
:100B2000E114F104E1F48091C7049091C804A0910C
:100B3000C904B091CA044091CD045091CE04609193
:100B4000CF047091D004841B950BA60BB70B809338
:100B5000920490939304A0939404B093950481E03D
:100B60000E946F040E94CA01882329F00F5F1F4F63
:100B700064E473E008C00115110599F0EFEFCE1A97
:100B8000DE0A6AE473E0CE0101960E94FC026AE08C
:100B900070E0CE0101960E94D90DCE0101960E940F
:100BA000EE0280919F049091A004C816D906A4F08B
:100BB00066E972E0CE0101960E94FC0268E270E0F4
:100BC000CE0101960E94D90DCE0101960E94EE023F
:100BD000C12CD12C00E010E080919D0490919E04E6
:100BE00008171907D4F180E593E00E94150A2091B7
:100BF000920430919304409194045091950419A269
:100C00008E010F5D1F4F8AE0882E912CA12CB12CF4
:100C1000CA01B901A50194010E945917605DF8014C
:100C200062938F01211531054105510589F7CF01E7
:100C30000E94030A83E993E00E94150A66E573E0C7
:100C4000CE0101960E94FC026AE070E0CE0101969E
:100C50000E94D90DCE010196B5C080917404909187
:100C60007504092E000CAA0BBB0B40919204509105
:100C70009304609194047091950484179507A607D6
:100C8000B70708F000CF65E673E0CE0101960E9439
:100C9000FC026AE070E0CE0101960E94D90DCE01FF
:100CA00001960E94EE026091980470919904CE0121
:100CB00088960E943A0A60E873E0CE0101960E948D
:100CC000FC02BE01685D7F4FCE0101960E94AD021D
:100CD000BC01CE0182960E94F302CE0101960E94D1
:100CE000EE02CE0188960E94EE02BE016E5D7F4F3D
:100CF000CE0101960E94F30262E370E0CE010196FC
:100D00000E94D90DCE0101960E94EE0260919604D8
:100D100070919704CE018E960E943A0A68E873E0BB
:100D2000CE0188960E94FC02BE01625D7F4FCE011B
:100D300088960E94AD02BC01CE0101960E94F3028A
:100D4000CE0188960E94EE02CE018E960E94EE029F
:100D5000BE016F5F7F4FCE0188960E94F30262E36F
:100D600070E0CE0188960E94D90DCE0188960E942F
:100D7000EE028EE893E00E94150A85EB92E00E9455
:100D8000150A81E080939A0467E973E0CE018896A2
:100D90000E94FC0262E370E0CE0188960E94D90DA9
:100DA000CE0188960E94EE021092C7041092C804E9
:100DB0001092C9041092CA04CE0101960E94EE025C
:100DC000CE0182960E94EE024091920450919304CB
:100DD00060919404709195048091720490917304D1
:100DE000092E000CAA0BBB0B84179507A607B707A3
:100DF00050F485EB92E00E94150A81E080939A04FA
:100E000060EB73E01DC080919B0490919C04092EBF
:100E1000000CAA0BBB0B481759076A077B0750F455
:100E200085EB92E00E94150A81E080939A0461EDBF
:100E300073E006C084EF92E00E94150A63EF73E04E
:100E4000CE0101960E94FC0262E370E0CE010196A1
:100E50000E94D90DCE0101960E94EE02F3E0EF163A
:100E6000F104B9F48091C5049091C6040196909361
:100E7000C6048093C504893E93405CF01092C6047A
:100E80001092C5048DEB92E00E94150A10929A040C
:100E900058C20E94870380E00E9424048091A70426
:100EA0009091A8040397D1F20E94E30C6093C104CF
:100EB0007093C2048093C3049093C40400E010E0D4
:100EC000E12CF12C0115110551F40E94E30C609303
:100ED000BD047093BE048093BF049093C0048091BE
:100EE000BD049091BE04A091BF04B091C004409194
:100EF000C1045091C2046091C3047091C404841B66
:100F0000950BA60BB70B8093920490939304A09338
:100F10009404B093950481319742A105B10588F0FE
:100F200085EB92E00E94150A87E69BE2A0E0B0E024
:100F30008093BD049093BE04A093BF04B093C004FB
:100F400053C081E00E946F040E94CA01882349F0C7
:100F500001151105C1F0FFEFEF1AFF0A68E074E018
:100F600004C00F5F1F4F6AE473E0CE0101960E9438
:100F7000FC026AE070E0CE0101960E94D90DCE011C
:100F800001960E94EE0280919D0490919E040817A4
:100F900019078CF06EE074E0CE0101960E94FC020D
:100FA0006AE070E0CE0101960E94D90DCE01019653
:100FB0000E94EE0219C080919F049091A004E8164F
:100FC000F9060CF47FCF6CE174E0CE0101960E942B
:100FD000FC0268E270E0CE0101960E94D90DCE01BC
:100FE00001960E94EE026ACF8DEB92E00E94150AF4
:100FF00040918A0450918B0460918C0470918D040F
:10100000CE01885A9F4F0E94C30A40918E0450918E
:101010008F046091900470919104CE018E5A9F4F7D
:101020000E94C30A40E050E0BA01CE01845B9F4FAA
:101030000E94C30A4091B9045091BA046091BB0464
:101040007091BC04CE018A5B9F4F0E94C30A4091FD
:10105000B5045091B6046091B7047091B804CE0104
:10106000805C9F4F0E94C30A4091A3045091A40446
:101070006091A5047091A604CE01CA960E94C30A8D
:101080004091CD045091CE046091CF047091D00472
:10109000CE01C4960E94C30A4091C7045091C8046F
:1010A0006091C9047091CA0441155105610571052B
:1010B00039F460E374E086E895E00E94C0020FC056
:1010C000CE0101960E94C30ABE016F5F7F4F86E882
:1010D00095E00E948A0ACE0101960E94EE0240919C
:1010E000B1045091B2046091B3047091B404CE0184
:1010F0008E960E94C30A4091C1045091C20460912F
:10110000C3047091C404CE0188960E94C30A409122
:10111000BD045091BE046091BF047091C004473675
:101120002BE252076105710539F460E474E080E850
:1011300095E00E94C0020FC0CE0101960E94C30A32
:10114000BE016F5F7F4F80E895E00E948A0ACE0162
:1011500001960E94EE02BE01685A7F4FCE010196B1
:101160000E94F3026CE872E0CE0101960E949402A4
:10117000BE016E5A7F4F0E94AD026CE872E00E9481
:101180009402BE01645B7F4F0E94AD026CE872E086
:101190000E949402BE016A5B7F4F0E94AD026CE820
:1011A00072E00E949402BE01605C7F4F0E94AD021B
:1011B0006CE872E00E949402BE01665C7F4F0E9460
:1011C000AD026CE872E00E949402BE016C5C7F4F3D
:1011D0000E94AD026CE872E00E94940266E875E03D
:1011E0000E94AD026CE872E00E949402BE01625D52
:1011F0007F4F0E94AD026CE872E00E949402BE0133
:10120000685D7F4F0E94AD026CE872E00E9494021C
:1012100060E875E00E94AD02BC01CE0182960E949A
:10122000F302CE0101960E94EE02CE0182960E9448
:101230002C0A1092B9041092BA041092BB041092B6
:10124000BC041092B5041092B6041092B704109228
:10125000B8041092A3041092A4041092A504109252
:10126000A6041092CD041092CE041092CF041092D6
:10127000D0041092C7041092C8041092C9041092AE
:10128000CA041092B1041092B2041092B3041092E6
:10129000B4041092C1041092C2041092C3041092BC
:1012A000C4041092BD041092BE041092BF041092A8
:1012B000C00410929204109293041092940410921D
:1012C000950410929A04CE0182960E94EE02CE01FD
:1012D00088960E94EE02CE018E960E94EE02CE010A
:1012E000C4960E94EE02CE01CA960E94EE02CE0182
:1012F000805C9F4F0E94EE02CE018A5B9F4F0E944E
:10130000EE02CE01845B9F4F0E94EE02CE018E5A08
:101310009F4F0E94EE02CE01885A9F4F0E94EE021C
:1013200068EE73E080E090E00E94A90C0AC001150D
:10133000110509F4D6CBF7CB0115110509F00FCC37
:10134000D0CBC35ADF4F0FB6F894DEBF0FBECDBF70
:10135000DF91CF911F910F91FF90EF90DF90CF9091
:10136000BF90AF909F908F900895833081F028F4C4
:10137000813099F08230A1F008958730A9F088304B
:10138000B9F08430D1F4809180008F7D03C08091CA
:1013900080008F7780938000089584B58F7702C096
:1013A00084B58F7D84BD08958091B0008F7703C090
:1013B0008091B0008F7D8093B00008953FB7F8947E
:1013C0008091DF049091E004A091E104B091E204E7
:1013D00026B5A89B05C02F3F19F00196A11DB11D90
:1013E0003FBFBA2FA92F982F8827820F911DA11DCB
:1013F000B11DBC01CD0142E0660F771F881F991F08
:101400004A95D1F70895009769F0FC0101900020FA
:10141000E9F73197AF01481B590BBC0183EE94E00B
:101420000C94BB0080E090E00895CF93DF930E947E
:10143000030AEC0185E594E00E94030A8C0F9D1FCE
:10144000DF91CF910895FC014481558160817181C4
:1014500083EE94E00C94BB00CF93DF930E94230AA9
:10146000EC0185E594E00E94030A8C0F9D1FDF913B
:10147000CF9108950F931F93CF93DF93CDB7DEB72E
:1014800062970FB6F894DEBF0FBECDBF8C01CB01C3
:10149000F8011182108213821282158214824AE0AE
:1014A000BE016F5F7F4F0E94B116BE016F5F7F4F1D
:1014B000C8010E94C00262960FB6F894DEBF0FBE4C
:1014C000CDBFDF91CF911F910F910895CF93DF93FF
:1014D000EBE0F1E08491E7EFF0E0D491E3EEF0E0AF
:1014E000C491CC2391F081110E94B509EC2FF0E05A
:1014F000EE0FFF1FEA52FF4FA591B491EC91ED233F
:1015000081E090E021F480E002C080E090E0DF9193
:10151000CF9108950F931F93CF93DF938C01EB012D
:10152000FC01808191810097B1F06881798161151A
:10153000710579F0428153812C813D814217530717
:1015400040F00E947F198C819D81F80195838483EE
:1015500013C00E94191888819981F80191838083B2
:101560008A819B81938382838C819D8195838483EF
:10157000198218821B821A821D821C82DF91CF91F0
:101580001F910F9108950F931F93CF93DF93CDB7C2
:10159000DEB7A1970FB6F894DEBF0FBECDBF8C01AA
:1015A000CB01BA01F80111821082138212821582D6
:1015B00014822AE0AE014F5F5F4F0E94BC16BE014D
:1015C0006F5F7F4FC8010E94C002A1960FB6F894CA
:1015D000DEBF0FBECDBFDF91CF911F910F91089558
:1015E0001F93CF93DF93282F30E0F901E85FFE4F80
:1015F0008491F901EC50FF4FD491F901E052FF4F73
:10160000C491CC23C1F0162F81110E94B509EC2F93
:10161000F0E0EE0FFF1FE453FF4FA591B4919FB789
:10162000F894111104C08C91D095D82302C0EC918C
:10163000DE2BDC939FBFDF91CF911F9108950F9315
:101640001F93CF93DF93082F162FC0EBD5E060E0F8
:1016500088890E94F00A82E00E946903802F0E941C
:101660006903812F0E94690361E08889DF91CF912E
:101670001F910F910C94F00AFF920F931F93CF9339
:10168000DF93F82E062F142FC0EBD5E060E0888999
:101690000E94F00A85E00E9469038F2D0E94690371
:1016A000802F0E946903812F0E94690361E088896D
:1016B000DF91CF911F910F91FF900C94F00A1F932F
:1016C000CF93DF93182FC0EBD5E060E088890E94AC
:1016D000F00A83E00E946903812F0E94690380E081
:1016E0000E946903182F61E088890E94F00A812F07
:1016F000DF91CF911F910895CF93C82F482F60EEAF
:101700008FE00E943C0B8FE00E945F0B982F907E31
:1017100081E09C1301C080E0CF910895FF920F9368
:101720001F93CF93DF93182FF62EC72FD42F60E08F
:101730008091C0050E94F00A83E00E946903812F16
:101740000E9469030F2D1C2FC0E0CD1751F0C83047
:1017500041F080E00E946903F80181938F01CF5F1F
:10176000F4CF61E08091C005DF91CF911F910F917F
:10177000FF900C94F00A0F931F93CF93DF9300D048
:1017800000D0CDB7DEB7182F1092B0051092B1057A
:101790001092B2051092B3051092B40544E0BE0158
:1017A0006F5F7F4F0E948E0B2A813981822F90E0DC
:1017B00065E0959587956A95E1F748E0349F800D3F
:1017C000911D1124092E000CAA0BBB0B8093B105AF
:1017D0009093B205A093B305B093B40523FF29C03D
:1017E00032E0880F991FAA1FBB1F3A95D1F72370CB
:1017F000820F911DA11DB11DBA2FA92F982F8827E7
:101800002B81820F911DA11DB11DBA2FA92F982FD9
:1018100088272C81820F911DA11DB11D8093B105D8
:101820009093B205A093B305B093B40581E0809383
:10183000B0058FEF810F0E945F0B082F84E0810FAE
:101840000E945F0B03FF04C091E09093BE0502C0AD
:101850001092BE05482F4F704093B50566EB75E0BA
:1018600085E0810F0E948E0B0F900F900F900F90CC
:10187000DF91CF911F910F9108951F93CF93DF9325
:10188000C0EBD5E060E088890E94F00A80EA0E94FF
:10189000690380E00E946903182F61E088890E9433
:1018A000F00A812FDF91CF911F910895CF93DF939D
:1018B00090E0FC01EC50FF4F2491FC01E052FF4FFF
:1018C0008491882361F190E0880F991FFC01EE5309
:1018D000FF4FC591D491FC01E453FF4FA591B49102
:1018E000611109C09FB7F89488812095822388836D
:1018F000EC912E230BC0623061F49FB7F89488817D
:10190000322F309583238883EC912E2B2C939FBF0D
:1019100006C08FB7F894E8812E2B28838FBFDF9104
:10192000CF9108958E3008F08E5087708064809338
:101930007C0080917A00806480937A0080917A00A4
:1019400086FDFCCF809178002091790090E0922B69
:1019500008958F929F92AF92BF92CF92DF92EF92B3
:10196000FF926B017C010E94DE094B015C01C114F6
:10197000D104E104F104F1F00E94DE09DC01CB01A5
:1019800088199909AA09BB09883E9340A105B105A8
:1019900070F321E0C21AD108E108F10888EE880E40
:1019A00083E0981EA11CB11CC114D104E104F10410
:1019B00019F7DDCFFF90EF90DF90CF90BF90AF9001
:1019C0009F908F9008952FB7F8946091DB047091E9
:1019D000DC048091DD049091DE042FBF08950F9305
:1019E0001F930E94E30C6093EB047093EC048093CC
:1019F000ED049093EE0483EE94E00E940B0197FFB8
:101A00001FC00E94E30C0091EB041091EC042091A4
:101A1000ED043091EE04DC01CB01801B910BA20B95
:101A2000B30B0091E7041091E8042091E904309190
:101A3000EA0480179107A207B307E8F28FEF9FEF40
:101A40001F910F910895CF92DF92EF92FF92CF9363
:101A50000E94EF0CFC0197FD0BC08D32910561F0E7
:101A6000C0970A9748F083EE94E00E94F700F0CF09
:101A700060E070E0CB0140C0C12CD12C7601C0E009
:101A8000E130F10501F1ED32F105E1F0CF01C09750
:101A90000A97C8F4AAE0B0E0A70196010E940817CF
:101AA0006F01FF0FEE08FF08DC01CB018C0D9D1DBF
:101AB000AE1DBF1D6C017D0120E3C21AD108E108F3
:101AC000F10801C0C1E083EE94E00E94F7000E949B
:101AD000EF0CFC01C0970A9798F2E130F10581F212
:101AE000CC2341F066277727CB016C197D098E093D
:101AF0009F0902C0C701B601CF91FF90EF90DF9020
:101B0000CF9008950F931F930E94E30C6093EB0412
:101B10007093EC048093ED049093EE0483EE94E0D4
:101B20000E94F70097FF1FC00E94E30C0091EB0496
:101B30001091EC042091ED043091EE04DC01CB0116
:101B4000801B910BA20BB30B0091E7041091E804EA
:101B50002091E9043091EA0480179107A207B307A6
:101B6000E8F28FEF9FEF1F910F9108950F931F934E
:101B7000CF93DF9300D0CDB7DEB78C0167E574E07B
:101B80000E94FC020E94820D97FD0BC089831A827D
:101B900041E050E0BE016F5F7F4FC8010E946602C6
:101BA000F1CFC8010F900F90DF91CF911F910F914E
:101BB00008950F931F93CF93DF93CDB7DEB72C9784
:101BC0000FB6F894DEBF0FBECDBF8C016233710536
:101BD00051F48091010190910201C3970CF04DC026
:101BE00068E574E030C06832710551F480910101FC
:101BF0009091020189970CF040C06DE574E023C01C
:101C00006E31710549F480910101909102014F9765
:101C1000A4F562E674E017C06431710549F480915F
:101C2000010190910201459744F567E674E00BC00D
:101C30006A30710511F580910101909102010B97B5
:101C4000E4F46CE674E0CE0101960E94FC02B80157
:101C5000CE0101960E94AD02BC01CE0107960E9402
:101C6000F302CE0101960E94EE02CE0107960E9479
:101C70002C0ACE0107960E94EE022C960FB6F8941D
:101C8000DEBF0FBECDBFDF91CF911F910F910895A1
:101C90001F920F920FB60F9211242F933F938F93A1
:101CA0009F93AF93BF938091DB049091DC04A0914C
:101CB000DD04B091DE043091C70523E0230F2D37FA
:101CC00020F40196A11DB11D05C026E8230F029640
:101CD000A11DB11D2093C7058093DB049093DC0404
:101CE000A093DD04B093DE048091DF049091E004C2
:101CF000A091E104B091E2040196A11DB11D809371
:101D0000DF049093E004A093E104B093E204BF9158
:101D1000AF919F918F913F912F910F900FBE0F9098
:101D20001F901895CF93DF93CDB7DEB7CE54D1096E
:101D30000FB6F894DEBF0FBECDBF789484B5826035
:101D400084BD84B5816084BD85B5826085BD85B55F
:101D5000816085BD80916E00816080936E001092DD
:101D60008100809181008260809381008091810058
:101D700081608093810080918000816080938000E9
:101D80008091B10084608093B1008091B000816047
:101D90008093B00080917A00846080937A00809173
:101DA0007A00826080937A0080917A0081608093CB
:101DB0007A0080917A00806880937A001092C10046
:101DC000E091F304F091F40482E08083E091EF0469
:101DD000F091F0041082E091F104F091F20480E1BE
:101DE00080831092FB04E091F704F091F80486E000
:101DF0008083E091F504F091F60480818061808316
:101E0000E091F504F091F604808188608083E09190
:101E1000F504F091F604808180688083E091F504F8
:101E2000F091F60480818F7D80838CED95E0A0E0B9
:101E3000B0E08093E7049093E804A093E904B093A2
:101E4000EA049AEEA92E90E0B92E2EEFE22E20E0C1
:101E5000F22EDFB6F8948091A904811126C0F50115
:101E60008491F7012491E82FF0E0EE0FFF1FEE536D
:101E7000FF4FA591B4919C91822F892321F461E0B9
:101E80008AE00E94F00A61E08AE00E94560C8CB55C
:101E900080618CBD8CB580648CBD61E08DE00E945A
:101EA000560C61E08BE00E94560C8091A9048F5F74
:101EB0008093A904DFBE60E08091C0050E94F00A13
:101EC00080EC0E94690361E08091C0050E94F00AE5
:101ED0006AE070E080E090E00E94A90C80E80E9437
:101EE0007C0B8823E9F06AE070E080E090E00E94DB
:101EF000A90C6BE171E0CE0101960E94FC0262E345
:101F000070E0CE0101960E94D90DCE0101960E948B
:101F1000EE0264E670E080E090E00E94A90C99CFA8
:101F20006AE070E080E090E00E94A90C60E08AE244
:101F30000E941F0B60EF89E20E941F0B66E888E297
:101F40000E941F0B6AE070E080E090E00E94A90C04
:101F500010E360E0812F0E941F0B60E080E1810FA1
:101F60000E941F0B60E080E2810F0E941F0B1F5F29
:101F70001E3379F760E080E60E941F0B60E080E787
:101F80000E941F0B63E08BE20E941F0B44E064E69B
:101F900080E60E943C0B40E060E680E70E943C0B3C
:101FA00080E00E947C0B81119ECF6AE070E080E0AF
:101FB00090E00E94A90C11E001E0FF24F39483EE6D
:101FC00094E00E941901181619060CF079C0CE0190
:101FD00007960E94B60D64E371E0CE0107960E9459
:101FE0004702882309F457C08BE391E00E94150A49
:101FF00083EE94E00E941901181619060CF045C0F2
:102000000E94230D7093B0046093AF040E94230DCF
:1020100070937B0460937A040E94230D709379047B
:10202000609378040E94230D709377046093760484
:102030000E94230D7093AB046093AA040E94230DA9
:1020400070930201609301010E94230D7093750447
:10205000609374040E94230D709373046093720460
:102060000E94230D70939C0460939B040E94230D97
:1020700070939E0460939D040E94230D7093A004AE
:1020800060939F040093AC04B3CF8091AC04882389
:1020900009F4AECF11C0BE01695F7F4FCE0101963A
:1020A0000E94F30268E270E0CE0101960E94D90D11
:1020B000CE0101960E94EE02CE0107960E94EE022A
:1020C0008091AC04882309F47ACF6091AF047091B9
:1020D000B004CE01875B9F4F0E943A0A60917A0458
:1020E00070917B04CE018D5B9F4F0E943A0A6091F4
:1020F000780470917904CE01CD960E943A0A6091DD
:10210000760470917704CE01C7960E943A0A6091D6
:10211000AA047091AB04CE01C1960E943A0A609164
:10212000010170910201CE018B960E943A0A6091E2
:10213000740470917504CE0185960E943A0A6091EC
:10214000720470917304CE014F960E943A0A609116
:102150009B0470919C04CE0149960E943A0A6091BA
:102160009D0470919E04CE0143960E943A0A6091AC
:102170009F047091A004CE010D960E943A0ABE0100
:10218000675B7F4FCE0101960E94F3026CE872E01C
:10219000CE0101960E949402BE016D5B7F4F0E94AA
:1021A000AD026CE872E00E949402BE01635C7F4F56
:1021B0000E94AD026CE872E00E949402BE01695C6C
:1021C0007F4F0E94AD026CE872E00E949402BE0153
:1021D0006F5C7F4F0E94AD026CE872E00E94940237
:1021E000BE01655D7F4F0E94AD026CE872E00E9407
:1021F0009402BE016B5D7F4F0E94AD026CE872E0FD
:102200000E949402BE01615E7F4F0E94AD026CE8A5
:1022100072E00E949402BE01675E7F4F0E94AD0291
:102220006CE872E00E949402BE016D5E7F4F0E94D6
:10223000AD026CE872E00E949402BE01635F7F4FC2
:102240000E94AD02BC01CE0107960E94F302CE01AE
:1022500001960E94EE02CE0107960E942C0ACE0142
:1022600007960E94EE02CE010D960E94EE02CE016C
:1022700043960E94EE02CE0149960E94EE02CE01E4
:102280004F960E94EE02CE0185960E94EE02CE018C
:102290008B960E94EE02CE01C1960E94EE02CE0104
:1022A000C7960E94EE02CE01CD960E94EE02CE01AC
:1022B0008D5B9F4F0E94EE02CE01875B9F4F0E9475
:1022C000EE028091AC04882309F476C083EE94E09A
:1022D0000E94190118161906CCF7CE0107960E9424
:1022E000B60D6EE371E0CE0107960E944702882387
:1022F00039F181EC95E00E942C0A83EE94E00E9473
:10230000190118161906CCF7CE0101960E94B60DD8
:1023100062EC71E0CE0101960E944702882359F0D9
:102320001093AE04CE0101960E94EE028091AE049D
:102330008823C1F13CC0CE0101960E94EE02DDCFA0
:102340006FE471E0CE0107960E9447028823C9F02E
:102350008AE090E0909302018093010166E471E0CD
:10236000CE0101960E94FC0268E270E0CE01019667
:102370000E94D90DCE0101960E94EE021092AC048B
:1023800016C0BE01695F7F4FCE0101960E94F30225
:1023900068E270E0CE0101960E94D90DCE0101964F
:1023A0000E94EE02CE0107960E94EE028FCFCE0170
:1023B00007960E94EE0216C065E571E0CE01019617
:1023C0000E94FC0268E270E0CE0101960E94D90DE5
:1023D000CE0101960E94EE0264E670E080E090E09B
:1023E0000E94A90C83EE94E00E94190118161906A8
:1023F0000CF0E5C1CE010D960E94B60D69E771E0C3
:10240000CE010D960E944702882309F4D4C10E9490
:10241000E30C60938E0470938F04809390049093E8
:1024200091040E94870320918904809192049091E5
:102430009304A0919404B0919504222321F020915B
:10244000880421112BC08136FAEE9F07A105B10542
:1024500028F58091AD048111AEC10E94E30C609318
:102460008A0470938B0480938C0490938D048090E5
:102470008E0490908F04A0909004B0909104DC01A1
:10248000CB0188199909AA09BB09809392049093FA
:102490009304A0939404B0939504C3CF81369A4ECD
:1024A000A105B10528F082E891E00E94150A66C1F5
:1024B0006091860470918704CE0101960E943A0AC9
:1024C00062E971E0CE0107960E94FC02BE016F5FD7
:1024D0007F4FCE0107960E94AD02BC018AEA95E0CB
:1024E0000E94D702CE0107960E94EE02CE0101960D
:1024F0000E94EE026091840470918504FB01319783
:10250000E930F10518F5EC5CFF4F0C947B1765E999
:1025100071E002C068E971E084EA95E00E94C002BF
:1025200024C06BE971E0F8CF6EE971E0F5CF61EAA4
:1025300071E0F2CF64EA71E0EFCF67EA71E0ECCFCF
:102540006AEA71E0E9CF6DEA71E0E6CFCE0101966B
:102550000E943A0ABE016F5F7F4F84EA95E00E94B5
:102560008A0ACE0101960E94EE0260918204709167
:102570008304FB013197E930F10518F5E35CFF4F67
:102580000C947B1765E971E002C068E971E08EE99F
:1025900095E00E94C00224C06BE971E0F8CF6EE9BB
:1025A00071E0F5CF61EA71E0F2CF64EA71E0EFCF5C
:1025B00067EA71E0ECCF6AEA71E0E9CF6DEA71E0B9
:1025C000E6CFCE0101960E943A0ABE016F5F7F4FAF
:1025D0008EE995E00E948A0ACE0101960E94EE02E1
:1025E0006091800470918104FB013197E930F1051D
:1025F00018F5EA5BFF4F0C947B1765E971E002C0A8
:1026000068E971E088E995E00E94C00224C06BE9A6
:1026100071E0F8CF6EE971E0F5CF61EA71E0F2CFD9
:1026200064EA71E0EFCF67EA71E0ECCF6AEA71E04B
:10263000E9CF6DEA71E0E6CFCE0101960E943A0A39
:10264000BE016F5F7F4F88E995E00E948A0ACE0144
:1026500001960E94EE0260917E0470917F04FB015E
:102660003197E930F10518F5E15BFF4F0C947B17CA
:1026700065E971E002C068E971E082E995E00E94D5
:10268000C00224C06BE971E0F8CF6EE971E0F5CFCC
:1026900061EA71E0F2CF64EA71E0EFCF67EA71E0DE
:1026A000ECCF6AEA71E0E9CF6DEA71E0E6CFCE01E6
:1026B00001960E943A0ABE016F5F7F4F82E995E062
:1026C0000E948A0ACE0101960E94EE0260917C046B
:1026D00070917D04FB013197E930F10518F5E85A56
:1026E000FF4F0C947B1765E971E002C068E971E067
:1026F0008CE895E00E94C00224C06BE971E0F8CF3D
:102700006EE971E0F5CF61EA71E0F2CF64EA71E061
:10271000EFCF67EA71E0ECCF6AEA71E0E9CF6DEAEA
:1027200071E0E6CFCE0101960E943A0ABE016F5FCA
:102730007F4F8CE895E00E948A0ACE0101960E94A4
:10274000EE028AEA95E00E94230A84EA95E00E945C
:10275000230A8EE995E00E94230A60E283EE94E06A
:102760000E94510188E995E00E94230A82E995E0E0
:102770000E94230A8CE895E00E942C0A83EE94E0E4
:102780000E941901181619068CF4CE0101960E94B8
:10279000B60D60EB71E0CE0101960E9447028111F7
:1027A000F092AD04CE0101960E94EE028091AD043C
:1027B000882321F34ECECE010D960E94EE02809129
:1027C000AD04882309F40ECE8091AE04882309F469
:1027D000F6CB1092920410929304109294041092EB
:1027E000950410928E0410928F041092900410920F
:1027F000910410928A0410928B0410928C0410920F
:102800008D0468EE73E080E090E00E94A90C68EB14
:1028100071E0CE0101960E94FC0264E170E0CE01FD
:1028200001960E94D90DCE0101960E94EE0264E647
:1028300070E080E090E00E94A90C60E08FE00E94D0
:10284000560C60E08EE00E94560C60E080E10E9431
:10285000560C60E083E00E94560C8091AF0490918A
:10286000B0040097F9F46BEC71E0CE0101960E9480
:10287000FC0264E170E0CE0101960E94D90DCE0108
:1028800001960E94EE0260E27EE480E090E00E9409
:10289000A90C61E087E00E94F00A80E090E00E94CD
:1028A0002505C7C18130910561F58DEE91E00E944B
:1028B000150A0E9487038091A7049091A8040397AA
:1028C00071F40E94E30C6093A3047093A4048093BA
:1028D000A5049093A60481E090E00E94250581E084
:1028E0000E942404809100018111E3CF8091A10412
:1028F0009091A2040297E9F680E090E00E942505FD
:10290000D8CF8230910509F060C08EE892E00E9435
:10291000150AE12CF12C00E010E080E00E946F0429
:102920000E945304811103C00F5F1F4F06C0101691
:1029300011061CF48FEFE81AF80A80919F04909119
:10294000A004E816F906A4F066E972E0CE0101964B
:102950000E94FC0268E270E0CE0101960E94D90D4F
:10296000CE0101960E94EE02E12CF12C00E010E075
:1029700080919D0490919E0408171907FCF08AEA43
:1029800092E00E94150A68EE73E080E090E00E94F9
:10299000A90C85EB92E00E94150A60E375E780E0E0
:1029A00090E00E94A90C8DEB92E00E94150A68EE5F
:1029B00073E080E090E00E94A90CA7CF68E070E08F
:1029C00080E090E00E94A90CA8CF8330910549F4E3
:1029D00064E670E080E090E00E94A90C68EC72E090
:1029E000B7C08830910509F03EC003E010E00E94B6
:1029F000700360919B0470919C04072E000C880B5F
:102A0000990B0E94A90C0150110989F78EE892E0F8
:102A10000E94150A84EF92E00E94150A0AE010E075
:102A20000E94700364E670E080E090E00E94A90CD0
:102A300001501109A9F78DEB92E00E94150A8091CF
:102A40009A04882349F060E27EE480E090E00E94EE
:102A5000A90C10929A04C9CF68E873E180E090E075
:102A60000E94A90CC2CF8930910509F066C000E030
:102A700010E00E9487038091A7049091A804039717
:102A800009F050C08EE892E00E94150A0F5F1F4FB8
:102A9000B801CE0107960E943A0ABE01695F7F4FD6
:102AA000CE0101960E94F30263E973E0CE01019624
:102AB0000E949402BC01CE010D960E94F302CE0149
:102AC00001960E94EE02CE0107960E94EE02CE0110
:102AD0000D960E942C0A68EE73E080E090E00E9460
:102AE000A90C84EF92E00E94150A80E00E946F0416
:102AF0000E945304811104C085EB92E00E94150AE4
:102B00000E9470030E9487038091A7049091A804FB
:102B1000039759F38DEB92E00E94150ACE010D96B2
:102B20000E94EE0260919B0470919C04072E000CA1
:102B3000880B990B0E94A90C9CCF8A309105B9F49F
:102B400064E670E080E090E00E94A90C6FEF72E014
:102B5000CE0101960E94FC0264E170E0CE01019674
:102B60000E94D90DCE0101960E94EE0262C08B3008
:102B70009105D9F483E090E09093A8048093A70492
:102B800060E177E280E090E00E94A90C0E94E30CF3
:102B90006093A3047093A4048093A5049093A60467
:102BA00083E090E00E942505EBCF8234910509F087
:102BB00040C068E873E180E090E00E94A90C68EEF4
:102BC00073E080E090E00E94A90C81E00E946F0415
:102BD0006091980470919904CE0107960E943A0A78
:102BE00089E293E00E94030ACE0107960E94230A1D
:102BF00083E993E00E94150A60919604709197040E
:102C0000CE0101960E943A0A8BE393E00E94030AE8
:102C1000CE0101960E94230A83E993E00E94150ADF
:102C2000CE0101960E94EE02CE0107960E94EE02AE
:102C3000C6CF0E94C00111CE80E895E00E94EE024E
:102C400086E895E00E94EE028CE895E00E94EE0294
:102C500082E995E00E94EE0288E995E00E94EE028A
:102C60008EE995E00E94EE0284EA95E00E94EE0271
:102C70008AEA95E00E94EE0281EC95E00C94EE0267
:102C8000CF93DF93E3EEF4E01382128288EE93E0B9
:102C9000A0E0B0E084839583A683B7838DE091E0C4
:102CA0009183808385EC90E09587848784EC90E025
:102CB0009787868780EC90E0918B808B81EC90E009
:102CC000938B828B82EC90E0958B848B86EC90E0EA
:102CD000978B868B118E128E138E148E60E574E0A6
:102CE00081EC95E00E94FC02C0EBD5E089E0888B86
:102CF00061E00E94560C61E088890E94F00A67E555
:102D000074E08AEA95E00E94FC0267E574E084EAD8
:102D100095E00E94FC0267E574E08EE995E00E9470
:102D2000FC0267E574E088E995E00E94FC0267E533
:102D300074E082E995E00E94FC0267E574E08CE8AB
:102D400095E00E94FC0267E574E086E895E00E9449
:102D5000FC0267E574E080E895E0DF91CF910C9488
:102D6000FC02BB274A3031F4992322F4BDE290954E
:102D700081959F4F0C94DF16BB27FA01A62F62178F
:102D8000710581059105330B30FB66F0AA27660FAC
:102D9000771F881F991FAA1FA21710F0A21B639507
:102DA0003850A9F7A05DAA3308F0A95DA19336F7C2
:102DB000B111B1931082CA010C94F816BB27FB0124
:102DC0005527AA27880F991FAA1FA41710F0A41B24
:102DD00083955051B9F7A05DAA3308F0A95DA1937E
:102DE000009779F7B111B1931192CB010C94F816B9
:102DF000DC01FC01672F71917723E1F7329704C062
:102E00007C916D9370836291AE17BF07C8F30895EC
:102E10000E944A17A59F900DB49F900DA49F800D0E
:102E2000911D112408952F923F924F925F926F92BD
:102E30007F928F929F92AF92BF92CF92DF92EF924A
:102E4000FF920F931F93CF93DF93CDB7DEB7CA1BCB
:102E5000DB0B0FB6F894DEBF0FBECDBF09942A88F6
:102E6000398848885F846E847D848C849B84AA849E
:102E7000B984C884DF80EE80FD800C811B81AA812B
:102E8000B981CE0FD11D0FB6F894DEBF0FBECDBFF6
:102E9000ED010895A29FB001B39FC001A39F700DE3
:102EA000811D1124911DB29F700D811D1124911D52
:102EB0000895A1E21A2EAA1BBB1BFD010DC0AA1F7B
:102EC000BB1FEE1FFF1FA217B307E407F50720F093
:102ED000A21BB30BE40BF50B661F771F881F991F0E
:102EE0001A9469F760957095809590959B01AC0157
:102EF000BD01CF010895EE0FFF1F0590F491E02D65
:102F000009940F931F93CF93DF938230910510F4B0
:102F100082E090E0E091CA05F091CB0520E030E03E
:102F2000A0E0B0E0309719F1408151810281138116
:102F300048175907C8F08417950769F4109731F0BE
:102F400012960C93129713961C9327C00093CA05F0
:102F50001093CB0522C02115310519F042175307F4
:102F600018F49A01BD01EF01DF01F801DBCF211553
:102F70003105F9F0281B390B2430310580F48A81A2
:102F80009B816115710521F0FB019383828304C04D
:102F90009093CB058093CA05FE01329644C0FE0192
:102FA000E20FF31F819391932250310939832883D3
:102FB0003AC02091C8053091C905232B41F42091D6
:102FC0000501309106013093C9052093C805209171
:102FD0000301309104012115310541F42DB73EB7AD
:102FE0004091070150910801241B350BE091C80561
:102FF000F091C905E217F307A0F42E1B3F0B281729
:10300000390778F0AC014E5F5F4F2417350748F061
:103010004E0F5F1F5093C9054093C805819391934C
:1030200002C0E0E0F0E0CF01DF91CF911F910F915E
:103030000895CF93DF93009709F481C0FC01329784
:1030400013821282A091CA05B091CB05109781F42A
:1030500020813181820F931F2091C8053091C905CD
:103060002817390751F5F093C905E093C80567C0E3
:10307000ED0120E030E0CE17DF0740F44A815B81AC
:103080009E0141155105F1F0EA01F5CFD383C283CA
:1030900040815181840F951FC817D90759F4888141
:1030A0009981840F951F0296918380838A819B81E9
:1030B000938382832115310529F4F093CB05E093A6
:1030C000CA053DC0E901FB83EA8349915991C40FC8
:1030D000D51FEC17FD0761F480819181840F951F46
:1030E0000296E90199838883828193819B838A83F5
:1030F000E0E0F0E012968D919C911397009719F003
:10310000FD01DC01F7CF8D919C9111979D012E5F00
:103110003F4F820F931F2091C8053091C905281792
:10312000390769F4309729F41092CB051092CA053B
:1031300002C013821282B093C905A093C805DF9123
:10314000CF910895A0E0B0E0E8EAF8E10C941717F9
:10315000EC01009721F4CB010E948117B4C0FC015F
:10316000E60FF71F9C0122503109E217F30708F41C
:10317000A8C0D9010D911C91119706171707B0F03F
:103180000530110508F49BC0C801049786179707FE
:1031900008F495C002501109061B170B01931193F7
:1031A0006D937C93CF010E94191889C05B01A01A0E
:1031B000B10A4C01800E911EA091CA05B091CB05B9
:1031C000612C712CE12CF12C109709F446C08D91E3
:1031D0009C911197A815B905B1F56C0142E0C40E98
:1031E000D11CCA14DB0478F14C018A189B086401D5
:1031F00042E0C40ED11C1296BC9012971396AC916B
:10320000B5E0CB16D10440F0B282A38391828082D4
:10321000D9016D937C9309C00E5F1F4F800F911FE2
:10322000F90191838083EB2DFA2FE114F10431F041
:10323000D7011396FC93EE93129741C0F093CB0500
:10324000E093CA053CC06816790608F43C017D018C
:1032500012960D90BC91A02DB7CF8091C80590918A
:10326000C90588169906E1F466167706C8F48091B8
:10327000030190910401009741F48DB79EB74091EE
:10328000070150910801841B950BE817F907C8F452
:10329000F093C905E093C805F901718360830FC0FD
:1032A000CB010E9481177C01009759F0A801BE0153
:1032B0000E946D19CE010E941918C70104C0CE01E9
:1032C00002C080E090E0CDB7DEB7EEE00C9433179B
:1032D00081E090E0F8940C948619FB01DC0102C0B7
:1032E00001900D9241505040D8F70895FB01DC0148
:1032F0008D91019080190110D9F3990B0895FB016C
:10330000DC0101900D920020E1F7089510E0CFE874
:10331000D0E004C0FE010E947B172196C039D1077E
:06332000C9F7F894FFCF8D
:10332600010A000000CC058000000000005101BB2E
:1033360000E8009E011901F7000B0143414E2042AF
:10334600555320536869656C6420696E69742066FC
:1033560061696C00636F6E66696700676F0076650A
:103366007273696F6E00476F696E6720746F2072A3
:103376006574727900496E20636F6E6669726D615D
:1033860074696F6E207769746820636F6D706C6501
:1033960074653D66616C7365006461746554696D3E
:1033A6006500303030303030303030303030303012
:1033B60030003230003031003032003033003034EB
:1033C60000303500303600303700303800303900F4
:1033D600706572666563740048616E647368616BDC
:1033E6006520636F6D706C65746500456E746572FB
:1033F600696E672052656C617920436F6E74726FD7
:103406006C6C65642054657374696E6700427573ED
:1034160020496E616374697665284E292C4275735E
:1034260020416374697665284E292C506F77657242
:10343600204D6F64653D52554E284E292C31463736
:10344600284E292C314635284E292C485320564DD6
:10345600533D5265762C44697363726574652052D8
:103466006576657273653D484947482C5256532028
:1034760041636869657665642C52565320427970BB
:10348600617373284E292C456E64206F6620526541
:1034960076657273652C52656D6F76616C206F660A
:1034A600205256532066656564284E292C007265A5
:1034B600766572736500436F756E746572732072FC
:1034C6006573657420746F20300054726967676590
:1034D60072206D730073757370656374006E6F741C
:1034E60052657665727365004D6F6465203320778B
:1034F600696C6C206265206578706572696D656EB1
:1035060074616C20666F72204D5047207465737429
:10351600696E67006E6F7453757370656374004DE2
:103526006F64652031302069732072657365727629
:10353600656420666F722043534D2052657365742F
:103546002054657374696E6700423A0052656C6177
:1035560079206C6F77206D73002C20443A002C2064
:1035660042793A005256433D54005256433D460076
:10357600697352564300496D616765204163686906
:1035860065766564004454206973206772656174CA
:103596006572207468616E2074696D654F7574007C
:1035A60042726967687420004461726B20006E6F16
:1035B600525643206D730073757370656374457658
:1035C600656E742073657420746F2074727565005F
:1035D6007375734576656E742073657420746F20F9
:1035E600547275652064756520746F206C6F6E6704
:1035F600007375734576656E742073657420746FF9
:1036060020547275652064756520746F2073686F29
:103616007274004454206D616B6573206E6F6E7317
:1036260075734576656E74005256533D5400496D68
:103636006167652052656D6F76656400636F756EB0
:103646007465727320726573657420746F20300020
:103656004E6F20525653204465746563746564004A
:10366600525653206E6F742072656D6F76656400D6
:10367600312E366C000D0A00643A432000643A4548
:103686002000643A572000643A492000643A4420F6
:02369600000032
:00000001FF
